:020000040800F2
:10000000004002200D880008093800080B3800085D
:1000100000000000000000000000000000000000E0
:100020000000000000000000000000000D38000883
:1000300000000000000000000F3800081138000820
:100040005D8800085D8800085D8800085D880008FC
:100050005D8800085D8800085D8800085D880008EC
:100060005D8800085D8800085D8800085D880008DC
:100070005D8800085D8800085D8800085D880008CC
:100080005D8800085D8800085D8800085D880008BC
:100090005D8800085D8800085D8800085D880008AC
:1000A0005D8800085D8800085D8800085D8800089C
:0C00B0005D8800085D8800085D8800087D
:1000BC0002780B78002A03D0013001319A42F7D034
:1000CC00D01A70470023C25C0133002AFBD1581EA2
:1000DC007047000002B4714649084900095C4900A8
:1000EC008E4402BC7047C04603B4714649084000B8
:1000FC004900095E49008E4403BC7047002934D086
:10010C000123002210B488422CD301242407A142DD
:10011C0004D2814202D209011B01F8E7E400A1429A
:10012C0004D2814202D249005B00F8E7884201D335
:10013C00401A1A434C08A04202D3001B5C0822430D
:10014C008C08A04202D3001B9C082243CC08A0427E
:10015C0002D3001BDC082243002803D01B0901D06A
:10016C000909E3E7100010BC704701B5002000F04E
:10017C005FF802BD0029F8D003B5FFF7C1FF0EBC34
:10018C004243891A1847C046002941D010B40400D4
:10019C004C40A44601230022002900D549420028E6
:1001AC0000D5404288422CD301242407A14204D21A
:1001BC00814202D209011B01F8E7E400A14204D2FA
:1001CC00814202D249005B00F8E7884201D3401A11
:1001DC001A434C08A04202D3001B5C0822438C0833
:1001EC00A04202D3001B9C082243CC08A04202D39D
:1001FC00001BDC082243002803D01B0901D009098D
:10020C00E3E710006446002C00D5404210BC704758
:10021C0001B5002000F00CF802BDC0460029F7D053
:10022C0003B5FFF7B3FF0EBC4243891A1847C0460B
:10023C007047C0468446100062468C4619006346DF
:10024C0000E0C0461FB50EF001FB002801D40021D0
:10025C00C8421FBD10B50EF053FA4042013010BD1C
:10026C0010B50EF0F3FA002801DB002010BD0120C0
:10027C0010BDC04610B50EF0E9FA002801DD0020D3
:10028C0010BD012010BDC04610B50EF07BFA002841
:10029C0001DC002010BD012010BDC04610B50EF0D1
:1002AC0071FA002801DA002010BD012010BDC046F3
:1002BC00844608006146FFE71FB50DF0B8F9002829
:1002CC0001D40021C8421FBD10B50DF04DF94042BC
:1002DC00013010BD10B50DF0AAF9002801DB00208B
:1002EC0010BD012010BDC04610B50DF0A0F90028BE
:1002FC0001DD002010BD012010BDC04610B50DF071
:10030C0058F9002801DC002010BD012010BDC046AA
:10031C0010B50DF04EF9002801DA002010BD0120B7
:10032C0010BDC046002B11D1002A0FD1002900D1DD
:10033C00002802D00021C943080007B4024802A1DA
:10034C004018029003BDC046E9FEFFFF03B46846A7
:10035C0001B502980CF034FE019B9E4602B00CBC19
:10036C007047C04603B47146490840004900095A19
:10037C0049008E4403BC7047D0400B00D1409C46D2
:10038C00203AD34018435242634693401843704777
:10039C009140030090409C46203A934019435242AE
:1003AC006346D340194370471C2101231B04984218
:1003BC0001D3000C10391B0A984201D3000A0839EA
:1003CC001B09984201D30009043902A2105C4018A1
:1003DC007047C04604030202010101010000000045
:1003EC000000000010B5002903D1FFF7DDFF20301D
:1003FC0002E00800FFF7D8FF10BDC04610B5064C50
:10040C002378002B07D1054B002B02D0044800E0C9
:10041C0000BF0123237010BD00020020000000006B
:10042C00A4F50008044B10B5002B03D00349044875
:10043C0000E000BF10BDC046000000000402002018
:10044C00A4F50008BFF34F8F034B044ADA60BFF3E7
:10045C004F8FC046FDE7C04600ED00E00400FA05F2
:10046C0084B010B502900391049205930B4B5A780B
:10047C00987800021043000400140DF0AFFB0849FB
:10048C000DF00CFA07490DF011F907490CF08AFF31
:10049C00064B186010BC08BC04B018479C1B00200D
:1004AC000000FA4300007A4400007A45981B0020B3
:1004BC00F0B5CE46474680B589B003AC1422002176
:1004CC0020000AF0E3F82D4B5A6B012632435A6395
:1004DC005A6B32400092009A5A6B022188460A43AA
:1004EC005A635A6B0A400192019A596B08221143C4
:1004FC0059635B6B1A400292029B214F002203212D
:10050C00380004F04FFD01220421380004F04AFDAC
:10051C001C4B994600220F21180004F043FD039652
:10052C0066600025A560E5602100380004F07AFCC7
:10053C00062303936660A660E5602100380004F092
:10054C0071FCC023DB01039343466360A560E56047
:10055C0008332361A0202100C00504F063FC0F23A5
:10056C0003936660A560E5602100484604F05AFCE0
:10057C0009B0C0BCB946B046F0BDC0460010024040
:10058C0000040050000C005000B583B00190012312
:10059C0004485B42012201A905F099FF019803B0C0
:1005AC0000BDC046A81B002010B582B06B46DC1DF8
:1005BC0000232370013304485B420122210006F022
:1005CC0003F8207802B010BDA81B002030B585B010
:1005DC0001AD0C22002128000AF058F8114B0193B0
:1005EC00114C2900200003F051FC200003F034FED4
:1005FC0001256D422900200003F0E4FB200003F0EC
:10060C0041FC200003F028FE2900200003F0DAFB57
:10061C00200003F037FC85B2200003F09BFE28007D
:10062C0005B030BD002000B4501E002010B5FFF7FF
:10063C00CDFF0100034B1B8803485843FFF75EFDB9
:10064C0010BDC046AA75FF1FB80B000010B5040002
:10065C00074B1B68002B00D010BDFFF733FD0123A7
:10066C0082B204485B42210005F031FFF4E7C0463A
:10067C00941B0020A81B002084B010B5029003919D
:10068C00049205930348FFF7E1FF10BC08BC04B0CB
:10069C001847C046C0F5000884B010B590B0129051
:1006AC00139114921593164C6378A078000218439A
:1006BC00000400140DF092FAFA2189050CF0F6FFF3
:1006CC006378FF2B02D1A378FF2B0FD00EF0B2FE74
:1006DC0002000B000B49684609F0CCFE6846FFF798
:1006EC00B5FF10B010BC08BC04B018476A46064BE6
:1006FC0011CB11C211001A880A809B788B70EDE720
:10070C009C1B0020D4F50008C8F5000884B010B577
:10071C0090B01290139114921593114B5A789878BB
:10072C0000021043000400140DF058FA0D490DF0AE
:10073C00B5F80D490CF0BAFF0C490CF033FE0EF075
:10074C0079FE02000B000A49684609F093FE6846E0
:10075C00FFF77CFF10B010BC08BC04B01847C046B3
:10076C009C1B00200000FA4300007A4400007A45EC
:10077C00E4F5000884B030B591B014901591169240
:10078C0017931D4B5C780220185E0DF027FAF621AA
:10079C0089050CF08BFF0EF04DFE02000B00174983
:1007AC00684609F067FE6846FFF750FF002C0FD033
:1007BC00E30711D4A30713D4630715D4240717D464
:1007CC000F48FFF743FF11B030BC08BC04B018470A
:1007DC000C48FFF73BFFF6E70B48FFF737FFE9E75D
:1007EC000A48FFF733FFE7E70948FFF72FFFE5E774
:1007FC000848FFF72BFFE3E79C1B0020F4F50008EB
:10080C0040F6000804F6000810F6000818F6000878
:10081C0024F6000830F6000870B590B004F092FC95
:10082C0004001748402104F00DFF002806D104F005
:10083C0089FC001BFA235B009842F2D3104840213C
:10084C0004F000FF002817D00E4B06AD0C482A0010
:10085C00402104F049FE0C4C0AAB6A4643CB43C220
:10086C0043CB43C206980799089A099B2568A84769
:10087C00064B236010B070BD0548FFF7E7FEF9E7A3
:10088C00EC1D00209C1B0020140000208506000895
:10089C0038F6000870B58AB005000E0001AC2422B1
:1008AC000021200009F0F2FE064B1B680193049610
:1008BC0005482A00210004F0EDFDFFF7ADFF0AB05A
:1008CC0070BDC046A41B0020EC1D002010B582B0EA
:1008DC00074B1B68002B01D002B010BD054902006C
:1008EC00684609F0C7FD6846FFF7B0FEF4E7C0465E
:1008FC00941B002044F6000870B58CB0060003ACC5
:10090C0024220021200009F0C1FE01AD08220021A3
:10091C00280009F0BBFE2E70064B1B6803930123C5
:10092C00069305482A00210004F0B4FDFFF774FF7C
:10093C000CB070BDA41B0020EC1D0020F0B5C64609
:10094C0000B582B0050088460192002300E0013317
:10095C00274A17689F4208DD264A942159438A5832
:10096C00AA42F4D1234C0C1900E00024202F34D0DF
:10097C00002C0DD000276668BE4211DD380108300E
:10098C0020184146FFF794FB002828D00137F2E7E6
:10099C0094207843174C0419154B01371F60E9E775
:1009AC00082E21D04046FFF78DFB0E281ED83001B3
:1009BC0008302018414609F024FF636801331A01FE
:1009CC00A2180199D17163602560200088300C2237
:1009DC00002109F05BFE002002E0012000E0022073
:1009EC0002B080BCB846F0BD0320F9E70420F7E75D
:1009FC00901B00201009002070B50600184B012236
:100A0C0052421A600025174B1B68AB4223DD0024B1
:100A1C0000E00134144B94226A439B185B68A34298
:100A2C0017DD230194226A43981808300E4BC01826
:100A3C003100FFF73DFB0028EBD10B4A01342301B9
:100A4C00942169435B18D318D879054B18608858E2
:100A5C0070BD0135D7E7300007F000FFF8E7C0465E
:100A6C000C090020901B002010090020F0B5CE4688
:100A7C00474680B599B00FAC24220021200009F024
:100A8C0005FE03AD08220021280009F0FFFD01231B
:100A9C0012934348FFF7DAFD42482A00210004F084
:100AAC00F9FC04F04FFB040004F04CFB001BFA2390
:100ABC005B0098426CD23B48402104F0C3FD0028F7
:100ACC00F2D0384801AB05AA402104F00DFD059B7E
:100ADC001B041B0C98461800FFF7F8FE002534E0A9
:100AEC003148FFF7B3FD314B721C1201D2199B1820
:100AFC00D879FFF7EBFE18E001362C4B94226A43B1
:100B0C009B185B68B3421CDD330194276F43D819E3
:100B1C000830264B99464844FFF798FD731C1B017F
:100B2C00DB194B44DB79FF2BDAD1204B94226A433F
:100B3C009B185B68013BB342DED01D48FFF786FD76
:100B4C00DAE71C48FFF782FD01351B4B1B68AB42F3
:100B5C000ADD164B94226A43D3589845F4D11748B2
:100B6C00FFF774FD0026C8E71548FFF76FFD01ABD2
:100B7C005B78042B06D91348FFF768FD1248FFF782
:100B8C0065FD91E7114A9B009858FFF75FFDF5E76B
:100B9C000F48FFF75BFD19B0C0BCB946B046F0BDBD
:100BAC0048F60008EC1D00205CF600081009002037
:100BBC0060F6000864F60008901B00202003010872
:100BCC0068F600086CF6000840F6000800000020EB
:100BDC0074F60008F8B505000E000F680A493800D5
:100BEC0009F05CFD040002003900280009F01CFE2D
:100BFC002D1900232B7033681A5D002A00D00134A4
:100C0C001B193360F8BDC046D003010870B5050050
:100C1C000378002B0ED000242800FFF753FAA042D3
:100C2C0006D92B5D303BDBB2092B05D80134F3E739
:100C3C00012000E0002070BD0020FCE710B5034B44
:100C4C0001221A600248FFF701FD10BD08090020BF
:100C5C0084F6000810B5CAB0019042AC01A920007E
:100C6C00FFF7B8FF1F492000FFF722FA002816D023
:100C7C001D4942A8FFF71CFA002815D01B4942A8B1
:100C8C00FFF716FA002813D042AB1B78002B1BD1B0
:100C9C00174B01221A601748FFF7D8FC06E01648DC
:100CAC00FFF7D4FCFFF7CEFBFFF7E0FE4AB010BD18
:100CBC00FFF7BCFC0200114902AC200009F0DAFB82
:100CCC002000FFF7C3FCF1E7094B01221A600C4826
:100CDC00FFF7BCFC42A8FFF7B9FC0A48FFF7B6FCCB
:100CEC00E4E7C046040001082000010828000108C0
:100CFC00080900203C0001080C0001082C00010828
:100D0C005800010840F60008F0B5CE4600B58AB090
:100D1C00019002AC01A92000FFF75CFF61492000A3
:100D2C00FFF7C6F900280ED05F4902A8FFF7C0F9FB
:100D3C000090002866D10198FFF75EFE041E09D0D2
:100D4C0000990D0043E05948FFF780FC0AB080BCC5
:100D5C00B946F0BD564B01221A605648FFF776FC97
:100D6C00F4E75548FFF772FC544B721C1201D21970
:100D7C009B18D879FFF7AAFD18E001364F4B942247
:100D8C006A439B185B68B3421CDD330194276F43A5
:100D9C00D8190830494B99464844FFF757FC731C47
:100DAC001B01DB194B44DB79FF2BDAD1434B94222B
:100DBC006A439B185B68013BB342DED04048FFF7A7
:100DCC0045FCDAE73F48FFF741FC012101353E4B7A
:100DDC001B68AB4210DD394B94226A43D358A342B3
:100DEC00F4D13A48FFF732FC2000FFF76FFD38488A
:100DFC00FFF72CFC009EC1E70029A7D13548FFF76F
:100E0C0025FCA3E702A8FFF7F7FD041E24D0019BE5
:100E1C001B78002B24D001A902A8FFF7DBFE019D53
:100E2C002B78002B2AD02800FFF7F0FE00281ED0CC
:100E3C00280007F013FDC2B202A92000FFF77EFDC7
:100E4C0001281ED0022820D0032822D0042824D028
:100E5C002148FFF7FBFB79E72048FFF7F7FB75E725
:100E6C00134B01221A601E48FFF7F0FBD3E7104B1F
:100E7C0001221A601A48FFF7E9FB67E7012040429C
:100E8C00D9E71848FFF7E2FB60E71748FFF7DEFBEE
:100E9C005CE71648FFF7DAFB58E71548FFF7D6FB77
:100EAC0054E7C04674000108200001087C000108CA
:100EBC0008090020840001085CF6000810090020D5
:100ECC0060F6000840F60008901B0020A400010802
:100EDC0028080108B800010890010108D400010895
:100EEC00FC00010828010108440101086001010807
:100EFC007C01010810B58AB0019002AC01A9200058
:100F0C00FFF768FE57492000FFF7D2F8002819D0E8
:100F1C00554902A8FFF7CCF800284ED0534902A837
:100F2C00FFF7C6F8002800D179E002AB1B78002B44
:100F3C0000D089E04E4B01221A604E48FFF786FB29
:100F4C000AB010BD0198FFF757FD00281CD04A4B82
:100F5C0018600198FFF77AFB4848FFF777FB484B7E
:100F6C001B68012B14D0022B19D0032B1ED0454823
:100F7C00FFF76CFB0220FFF7BFFC0420FFF7BCFC63
:100F8C000620FFF7B9FCDBE73F48FFF75FFBD7E72D
:100F9C003E48FFF75BFB0220FFF7AEFCD0E73B4877
:100FAC00FFF754FB0420FFF7A7FCC9E73748FFF70E
:100FBC004DFB0620FFF7A0FCC2E70198FFF71CFDD4
:100FCC00002813D02C4B18600198FFF73FFB2B48DF
:100FDC00FFF73CFB2A4B1B68012B0BD0022B10D0CC
:100FEC00032B15D02A48FFF731FBA9E72648FFF75A
:100FFC002DFBA5E72748FFF729FB0120FFF77CFC19
:10100C009EE72448FFF722FB0320FFF775FC97E7C8
:10101C002048FFF71BFB0520FFF76EFC90E70198BB
:10102C00FFF7EAFC00280BD0134B18600198FFF770
:10103C000DFB1948FFF70AFBFF20FFF75DFC7FE76C
:10104C001148FFF703FB7BE7094B01221A60134899
:10105C00FFF7FCFA02A8FFF7F9FA1148FFF7F6FAC6
:10106C006EE7C046A4010108F8010108040001085C
:10107C000809002048020108A41B002028080108C8
:10108C000C090020E0010108A8010108C8010108B1
:10109C0010020108FC010108340201086802010871
:1010AC0040F60008F0B5C64600B584B00600884688
:1010BC000C22002101A809F0E9FA002500272EE0F6
:1010CC0094276F4388372B4BFF183B68002B0AD1B2
:1010DC0001333B60F433FF333B81274B7B8100238F
:1010EC00BB80B433FB80BA8842453FD8F988414570
:1010FC003ED343469B1A9BB23C897889001B5843CC
:10110C00891AFEF7FBFF201880B204B080BCB846E9
:10111C00F0BD94276F438837164BFF180135174BDA
:10112C001B68AB421EDD134B94226A43D45830002B
:10113C0007F094FB8442C3D000240E4B94226A43E4
:10114C009B185B68A342E9DD230194226A4398183B
:10115C000830084BC0183100FEF7AAFF0028D8D081
:10116C000134EAE7002FB0D101AFAEE70020CCE7A5
:10117C000020CAE710090020C4090000901B0020C1
:10118C0070B584B005000E000C22002101A809F0F6
:10119C007DFA002300E00133194A12689A420ADDF5
:1011AC00184A94245C43A258AA42F4D123008833F1
:1011BC00144A9B1800E001AB1A68002A0AD10132CC
:1011CC001A60F432FF321A810F4A5A8100229A8037
:1011DC00B432DA809A88B24200D91600D988B1426A
:1011EC0000D20E00B61AB6B21C895889001B704387
:1011FC00891AFEF783FF201880B204B070BDC04678
:10120C00901B002010090020C409000030B58DB0DF
:10121C00019004AC01A92000FFF7DCFC87492000F9
:10122C00FEF746FF00281FD0854904A8FEF740FFB3
:10123C00002855D0834904A8FEF73AFF002800D1B6
:10124C0089E0814904A8FEF733FF002800D1D2E0E1
:10125C0004AB1B78002B00D0E2E07C4B01221A601F
:10126C007B48FFF7F3F91DE00198FFF7C5FB002859
:10127C0015D0784B18600198FFF7E8F97648FFF71E
:10128C00E5F9764B1B68012B0ED0022B13D0032BE8
:10129C0018D0042B1DD07248FFF7D8F902E0714822
:1012AC00FFF7D4F90DB030BD6F48FFF7CFF901202F
:1012BC00FFF722FBF6E76C48FFF7C8F90220FFF7AF
:1012CC001BFBEFE76848FFF7C1F90320FFF714FB9E
:1012DC00E8E76548FFF7BAF90420FFF70DFBE1E7F3
:1012EC000198FFF789FB002815D05A4B186001981C
:1012FC00FFF7ACF95848FFF7A9F9584B1B68012BBD
:10130C000DD0022B12D0032B17D0042B1CD0544819
:10131C00FFF79CF9C6E75348FFF798F9C2E7534823
:10132C00FFF794F90520FFF7E7FABBE74F48FFF703
:10133C008DF90620FFF7E0FAB4E74C48FFF786F981
:10134C000720FFF7D9FAADE74848FFF77FF90820E7
:10135C00FFF7D2FAA6E704AC01A92000FFF73AFC8C
:10136C002000FFF749FB002835D0019807F076FAEA
:10137C00040081B2002903D1019B1B78302B2ED1A4
:10138C0004A8FFF78FFE051E2DD0344B1B68013BC4
:10139C00032B2CD80198FFF759F93548FFF756F96C
:1013AC002004000CFFF792FA3248FFF74FF928009F
:1013BC00FFF78CFA3048FFF749F9284B1B681033BC
:1013CC0003A803700D236B441D702D0A5D7003215F
:1013DC00FFF760FA66E72348FFF738F962E727481A
:1013EC00FFF734F95EE72648FFF730F95AE71C4857
:1013FC00FFF72CF956E70198FFF7FEFA00280BD0FF
:10140C00144B18600198FFF721F91E48FFF71EF9DD
:10141C00FF20FFF771FA45E71248FFF717F941E78C
:10142C000A4B01221A601848FFF710F904A8FFF7BD
:10143C000DF91648FFF70AF934E7C046F801010820
:10144C00A4010108D80201080400010808090020C1
:10145C002C030108A41B0020280801080C090020FB
:10146C009C020108A801010888020108C0020108B9
:10147C00080301081C03010824030108DC0201080D
:10148C00F0020108340201084C03010840F6000880
:10149C0010B58AB0019002AC01A92000FFF79AFBAD
:1014AC0042492000FEF704FE002816D0404902A84D
:1014BC00FEF7FEFD002833D03E4902A8FEF7F8FDEA
:1014CC00002851D002AB1B78002B62D13A4B012281
:1014DC001A603A48FFF7BAF818E00198FFF78CFA4F
:1014EC00002815D0364B1B68013B022B14D8354B0A
:1014FC0018600198FFF7AAF83348FFF7A7F8334BA9
:10150C00334A1A602E4B1878FFF7F6F90AB010BD63
:10151C003048FFF79BF8F9E72F48FFF797F8F5E706
:10152C000198FFF769FA002816D0254B1B68013B80
:10153C00022B15D8234B18600198FFF787F8224827
:10154C00FFF784F8214B254A1A601D4B18680330AD
:10155C00C0B2FFF7D1F9D9E71E48FFF777F8D5E706
:10156C001D48FFF773F8D1E70198FFF745FA0028FB
:10157C000BD0144B18600198FFF768F81848FFF768
:10158C0065F8FF20FFF7B8F9C0E71248FFF75EF8DF
:10159C00BCE7094B01221A601248FFF757F802A862
:1015AC00FFF754F81048FFF751F8AFE76C03010848
:1015BC009403010804000108080900209C03010899
:1015CC000C090020A41B002028080108140000208E
:1015DC00A5060008A801010870030108810700088E
:1015EC0034020108B803010840F6000810B58AB0AF
:1015FC00019002AC01A92000FFF7ECFA2D49200064
:10160C00FEF756FD002811D02B4902A8FEF750FD1D
:10161C0000282DD002AB1B78002B3ED1274B01228A
:10162C001A602748FFF712F80AB010BD0198FFF7AF
:10163C00E3F9002814D0234B1B68013B022B13D871
:10164C00214B18600198FFF701F82048FEF7FEFFC8
:10165C001F4B204A1A601B4B1878FFF74DF9E3E734
:10166C001D48FEF7F3FFDFE71C48FEF7EFFFDBE753
:10167C000198FFF7C1F900280BD0134B18600198A3
:10168C00FEF7E4FF1648FEF7E1FFFF20FFF734F901
:10169C00CAE71148FEF7DAFFC6E7084B01221A60C9
:1016AC001048FEF7D3FF02A8FEF7D0FF0E48FEF756
:1016BC00CDFFB9E76C0301080400010808090020FC
:1016CC00F80301080C090020A41B002028080108BD
:1016DC001400002019070008A8010108D403010810
:1016EC00340201081404010840F6000810B5D4B007
:1016FC001F4948A806F030FE002803D11D48FEF70C
:10170C00A5FF15E01C48FEF7A1FF2FE0A022120454
:10171C0093421FD91B0D194A194902AC009212228F
:10172C00FF326A44200008F0A5FE2000FEF78EFF71
:10173C0042A948A806F06CFE002814D142AB5B7A93
:10174C00002B10D0429B802212069342DED99B0FB5
:10175C000C4AE1E7A0229201934202D99B0A0A4A61
:10176C00DAE70A4AD8E748A806F03DFE54B010BDA7
:10177C005CF600085C04010840040108340401080C
:10178C007004010830040108380401083C04010805
:10179C0010B58AB0019002AC01A92000FFF71AFA2B
:1017AC0012492000FEF784FC00280BD002AB1B78FA
:1017BC00002B0ED10E4B01221A600E48FEF746FF8D
:1017CC000AB010BD0198FEF741FF0B48FEF73EFF33
:1017DC00F6E7074B01221A600848FEF737FF02A80C
:1017EC00FEF734FF0448FEF731FFE9E780040108F7
:1017FC00080900208804010840F60008A404010828
:10180C00F8B507000E001500104C236803E024689F
:10181C004D34FF342368002BF9D1A820400007F089
:10182C0023F82060390008F0ECFF2268A0235B004D
:10183C00D65022680433D55021680023A6225200CA
:10184C008B502168043A8B50F8BDC0469C04002094
:10185C00064B1B6807E0A22149005A58013A5A501E
:10186C00A62252009B58002BF5D170479C040020F7
:10187C0030B59BB0019012AC01A92000FFF7AAF97A
:10188C00B4492000FEF714FC002828D0B24912A855
:10189C00FEF70EFC002842D0B04912A8FEF708FC57
:1018AC0000284DD0AE4912A8FEF702FC002853D0F8
:1018BC00AC4912A8FEF7FCFB002800D16CE0AA4949
:1018CC0012A8FEF7F5FB051E00D0B1E0A74B1C6873
:1018DC00002C00D180E0A648FEF7B8FE94E003F09F
:1018EC0031FC0200A34902AC200008F0C3FD20002B
:1018FC00FEF7ACFEA04B1B68002B0CD003F022FCB7
:10190C009D4B1A68821A9D49200008F0B3FD2000F7
:10191C00FEF79CFE12E09A48FEF798FE0EE003F0EC
:10192C0011FC954B186003F00DFC0200954902ACBC
:10193C00200008F09FFD2000FEF788FE1BB030BD94
:10194C00019806F08BFF002802D003F001FCF5E7AC
:10195C008D48FEF77BFEF1E712AC01A92000FFF7E2
:10196C0039F9200006F07AFF041E03D001980378A1
:10197C00002B03D18548FEF769FEDFE7220000212A
:10198C00FFF73EFF8248FEF761FE2000FEF79EFF48
:10199C008048FEF75BFED1E712AC01A92000FFF7EF
:1019AC0019F9200006F05AFF041E03D001980378A1
:1019BC00002B03D17848FEF749FEBFE72200210037
:1019CC00FFF71EFF7548FEF741FE2000FEF77EFF75
:1019DC007048FEF73BFEB1E77148FEF737FEADE706
:1019EC007048FEF733FEA2235B00E058FEF76EFF53
:1019FC006D48FEF72BFE2000FEF728FE6048FEF730
:101A0C0025FEA6235B00E458002C97D00135280056
:101A1C00FEF75CFFA0235B00E358002BE0D063488B
:101A2C00FEF714FEA0235B00E058FEF74FFFDFE744
:101A3C005F4912A8FEF73CFB041E10D05D4912A8AA
:101A4C00FEF736FB041E42D012AB1B78002B74D170
:101A5C00594B01221A605948FEF7F8FD6EE70198C0
:101A6C0006F0FCFE002803D1019B1B78002B05D14E
:101A7C003E4B1B68002B05D03C490DE05048FEF74F
:101A8C00E5FD5BE74648FEF7E1FD57E719004D31F0
:101A9C00FF31A62252009B58002B14D00134A042D7
:101AAC0006D00028F2D1A62252009A58002AEDD175
:101ABC00A62252009A580A60180006F0DFFE414830
:101ACC00FEF7C4FD3AE74048FEF7C0FD36E7019843
:101ADC0006F0C4FE002803D1019B1B78002B07D114
:101AEC00224B1B68002B0AD12D48FEF7AFFD25E7D2
:101AFC003648FEF7ABFD21E7A62252009B58002B7F
:101B0C0015D00134A04206D00028F5D1A6225200EF
:101B1C009A58002AF0D1A4204000195801224A40BA
:101B2C001A50012907D02A48FEF790FD06E72648EF
:101B3C00FEF78CFD02E72748F6E71F4B01221A60DF
:101B4C002548FEF783FD12A8FEF780FD0C48FEF732
:101B5C007DFDF3E6E80401081405010830050108D1
:101B6C0054050108A0050108200001089C04002070
:101B7C00FC050108F0040108980400200005010888
:101B8C0040F600081C050108380501085C05010831
:101B9C008405010898050108A8050108D00501086D
:101BAC00E8050108180601082006010810060108BE
:101BBC00280601088006010808090020A80601086B
:101BCC003006010850060108640601088806010861
:101BDC00C0040108D4040108C406010830B5AB4C9C
:101BEC00A5440190FFAC0C3401A92000FEF7F2FFD4
:101BFC00A7492000FEF75CFA00281FD1A54B1B68F3
:101C0C00002B0FD101990B78002B0FD0A248322258
:101C1C0006F006F800280DD19E4B01221A609F4B4E
:101C2C009D4430BD9E48FEF711FDF8E79D48FEF738
:101C3C000DFDF4E79C48FEF709FDF0E79B49FFA872
:101C4C000C30FEF735FA00281FD1924B1B68002B85
:101C5C0010D0904B00221A608F4806F018FB002819
:101C6C000CD18D4806F061FB0028D8D09048FEF7C7
:101C7C00EDFCD4E78F48FEF7E9FCD0E78E48FEF781
:101C8C00E5FC854806F051FBC9E78C49FFA80C30F0
:101C9C00FEF70EFA002810D17E4B1B68002B08D0E3
:101CAC007D4806F0F4FA0028B9D08348FEF7CEFC44
:101CBC00B5E78048FEF7CAFCB1E78149FFA80C30B4
:101CCC00FEF7F6F9002800D0C5E0724B1B68002B1C
:101CDC0001D002AC3AE07748FEF7B8FC9FE7272B1F
:101CEC0022D0502B00D0A0E0FFA80D30FEF784FED0
:101CFC0000284FD0734B1B685A1E022A55D8724AC3
:101D0C001060724D00222A60714A72491160D8B27B
:101D1C00FEF7F2FD28680DF08DFB02000B006E49FA
:101D2C00200008F0A7FB04E0FFA90D31200008F00B
:101D3C0068FD2000FEF7C6F9019B1B78002B7CD0B8
:101D4C002C2323540130241800232370019B1B786F
:101D5C00002B74D0FFAD0C3501A92800FEF73AFF1B
:101D6C002B78632B25D0BAD96D2B09D0742B5CD171
:101D7C0003F0E8F902005949200008F07BFBD8E792
:101D8C0003F0E0F9564B1A68821A5449200008F007
:101D9C0071FBCEE75348FEF759FCFFA80D30FEF758
:101DAC0055FC5148FEF752FC39E75048FEF74EFC03
:101DBC0035E7FFAB0C335B78732B15D0FFAB0C33D3
:101DCC005B78652B1BD0FFAB0C335B78612B21D080
:101DDC00FFAB0C335B78742BABD1454B1A683F4986
:101DEC00200008F047FBA4E7424B18680DF022FBDB
:101DFC0002000B004049200008F03CFBDEE73F4BA3
:101E0C0018680DF017FB02000B003B49200008F08E
:101E1C0031FBD8E73A4B18680DF00CFB02000B00B5
:101E2C003549200008F026FBD2E73648FEF70EFCB9
:101E3C00FFA80C30FEF70AFCF1E60A2381E71649ED
:101E4C0002AC200006F09EFC2F48FEF7FFFB2000A2
:101E5C00FEF7FCFBE3E6FFAB0C331B78002B06D143
:101E6C002A4B01221A602A48FEF7F0FBD7E6274BD3
:101E7C0001221A602748FEF7E9FBFFA80C30FEF799
:101E8C00E5FB1948FEF7E2FBC9E6C046D4FBFFFFB1
:101E9C00E006010854020020580200202C04000027
:101EAC00E806010804070108240701084007010897
:101EBC007C0701084807010860070108980701081A
:101ECC00A00701080C090020A41B0020981B00206F
:101EDC00140000206D040008BC07010844F600083B
:101EEC0098040020A807010840F60008D403010854
:101EFC008804002094040020C407010890040020EA
:101F0C008C040020CC070108E80701080809002010
:101F1C00F407010810080108F0B5C64600B51A4BC5
:101F2C001B68002B05D0012B13D0002080BCB846B9
:101F3C00F0BD164B164A12681A60164C002323602B
:101F4C00154B164A1A60164B1878FEF7D5FC20680C
:101F5C00ECE70E4B0E4A12681A600E4C00232360FD
:101F6C000D4D0E4F2F600E4E3078FEF7C5FC2368DA
:101F7C0098462F6030680130C0B2FEF7BDFC216876
:101F8C0040460BF08BFCD1E744020020A41B002040
:101F9C0040020020981B0020140000206D04000853
:101FAC003C02002010B582B00E4B1B68002B01D0F8
:101FBC0002B010BD0AF080FF81B20B4C2068FFF715
:101FCC00DFF80300094A1268103201A802706A4651
:101FDC0053711B0A9371064B22681A600321FEF79A
:101FEC0059FCE5E7380200203402002030020020C2
:101FFC00A41B0020F0B5D1B0079008AC07A92000B5
:10200C00FEF7E8FDBB492000FEF752F8002822D16C
:10201C0007980378002B13D006F01BFC0DF04CFA3C
:10202C00041C0DF007FA02000B00B34910A808F0CD
:10203C0021FAB24B1C6010A8FEF708FB51B0F0BDA2
:10204C00AE4B18680DF0F6F902000B00AC4910A865
:10205C0008F010FAEFE7AB4908A8FEF729F80028BA
:10206C0021D107980378002B12D006F0F2FB0DF06B
:10207C0023FA041C0DF0DEF902000B00A24910A893
:10208C0008F0F8F9A14B1C6010A8FEF7DFFAD5E7B1
:10209C009E4B18680DF0CEF902000B009C4910A85D
:1020AC0008F0E8F9F0E79B4908A8FEF701F80028CA
:1020BC0021D107980378002B12D006F0CAFB0DF043
:1020CC00FBF9041C0DF0B6F902000B00924910A8A4
:1020DC0008F0D0F9914B1C6010A8FEF7B7FAADE7E9
:1020EC008E4B18680DF0A6F902000B008C4910A855
:1020FC0008F0C0F9F0E78B4908A8FDF7D9FF0028D4
:10210C0021D107980378002B12D006F0A2FB0DF01A
:10211C00D3F9041C0DF08EF902000B00824910A8B3
:10212C0008F0A8F9814B1C6010A8FEF78FFA85E720
:10213C007E4B18680DF07EF902000B007C4910A84C
:10214C0008F098F9F0E77B4908A8FDF7B1FF0028E3
:10215C0021D107980378002B12D006F07AFB0DF0F2
:10216C00ABF9041C0DF066F902000B00724910A8C3
:10217C0008F080F9714B1C6010A8FEF767FA5DE758
:10218C006E4B18680DF056F902000B006C4910A844
:10219C0008F070F9F0E76B4908A8FDF789FF0028F3
:1021AC0024D0694908A8FDF783FF00285FD0674950
:1021BC0008A8FDF77DFF002800D0F1E00798037810
:1021CC00002B00D18AE006F044FB0DF075F9041CDD
:1021DC000DF030F902000B005D4910A808F04AF927
:1021EC005C4B1C6010A8FEF731FA27E708AC07A976
:1021FC002000FEF7EFFC58492000FDF759FF00289E
:10220C0017D1564B00221A600798FEF7F5FB0028F1
:10221C0023D0534B1860534B534A12681A605348DF
:10222C00FEF714FA0798FEF711FA5148FEF70EFA6A
:10223C0004E7504908A8FDF73BFF002803D1474BA2
:10224C0001221A60E0E74C48FEF700FA08A8FEF7F6
:10225C00FDF94748FEF7FAF9F0E64848FEF7F6F9BB
:10226C000798FEF7F3F94248FEF7F0F9E6E608ACFA
:10227C0007A92000FEF7AEFC41492000FDF718FF2E
:10228C00002817D13F4B00221A600798FEF7B4FBC9
:10229C00002819D03C4B18603C4B334A12681A602A
:1022AC003B48FEF7D3F90798FEF7D0F93048FEF714
:1022BC00CDF9C3E63748FEF7C9F908A8FEF7C6F909
:1022CC002B48FEF7C3F9B9E63348FEF7BFF9079878
:1022DC00FEF7BCF92648FEF7B9F9AFE61D4B1868B6
:1022EC000DF0A8F802000B002C4910A808F0C2F859
:1022FC0078E7C046EC0B01082C08010850020020BE
:10230C003C08010850080108540801084C02002040
:10231C0064080108780801087C08010848020020BC
:10232C008C080108A0080108A40801082402002058
:10233C00B4080108C8080108CC08010820020020D4
:10234C00DC080108F008010844090108900901089B
:10235C00980901082C020020F8080108440200200A
:10236C00400200203C0200200C090020300901082A
:10237C0040F60008FC0801080009010818090108CA
:10238C0048090108380200203402002030020020E5
:10239C00800901085009010868090108AC09010805
:1023AC00554908A8FDF784FE002862D1534B1B68E1
:1023BC00002B56D0524B1B68002B56D002F0C2FE9D
:1023CC00504B1860FFF7A8FD4F4B18604F4D2F680E
:1023DC004F4B19680BF062FA041C28604D490BF046
:1023EC0065F94D4E31680AF061FE051C30604B4BAF
:1023FC001968201C0BF05AF9061C494B1968281C4B
:10240C000BF054F9011C301C0AF050FE051C391C51
:10241C00201C0BF043FA434B19680BF047F93D496C
:10242C000AF0C0FF011C281C0AF040FE3E4B18604D
:10243C003E4B1C68211CFDF74DFF002801D03A4B88
:10244C001C60394B18683A4B1C68211CFDF756FF71
:10245C00002801D0344B1C60334B1868FFF7A2FDE9
:10246C00ECE53448FEF7F2F8E8E53348FEF7EEF811
:10247C00E4E5324908A8FDF71BFE002824D1214BC6
:10248C001E68002E1CD02E4C10AD274B18680CF07B
:10249C00D1FF049005911D4B18680CF0CBFF0290F6
:1024AC000391194B18680CF0C5FF00900191320094
:1024BC002100280007F0DEFF2800FEF7C7F8BDE575
:1024CC002048FEF7C3F8B9E508AB1B78002B06D102
:1024DC001D4B01221A601D48FEF7B8F8AEE51A4BE9
:1024EC0001221A601A48FEF7B1F808A8FEF7AEF8F8
:1024FC001848FEF7ABF8A1E5C4090108400200201A
:10250C003402002088040020940400209004002051
:10251C002C0200206F12833A280200205002002067
:10252C004C020020480200208C04002024020020D1
:10253C0020020020C8090108EC090108100A010852
:10254C00300A0108180A010808090020580A010875
:10255C00740A010840F6000810B50C48FEF776F82E
:10256C000B490C48012205F029FB002806D10A482A
:10257C00FEF76CF8094B01221A6010BD0848FEF7F3
:10258C0065F8064B00221A60F7E7C046900A01086E
:10259C00C80C0108D4060020B80A01080409002060
:1025AC00A80A010810B506490022002005F006FB18
:1025BC000448FEF74BF8044B00221A6010BDC046CD
:1025CC00C80C0108CC0A01080409002010B5C2B0DF
:1025DC000E4841AA40A905F044FF002811D1419BA7
:1025EC005A69023A59894A43409B4B43DB0AD20A47
:1025FC000749684607F03EFF6846FEF727F842B0E9
:10260C0010BD0448FEF722F8F9E7C046C80C0108D3
:10261C00F40A0108E00A010810B58AB0019002AC76
:10262C0001A92000FEF7D6FA25492000FDF740FD50
:10263C0000280BD1234B1B68002B04D02248FEF73B
:10264C0005F80AB010BDFFF787FFFAE71F4902A88B
:10265C00FDF72EFD00280AD11A4B1B68002B02D067
:10266C00FFF7B4FFEDE71A48FDF7F0FFE9E719496A
:10267C0002A8FDF71DFD00280AD1124B1B68002B88
:10268C0002D0FFF78FFFDCE71348FDF7DFFFD8E739
:10269C0002AB1B78002B06D1104B01221A6010489C
:1026AC00FDF7D4FFCDE70D4B01221A600D48FDF765
:1026BC00CDFF02A8FDF7CAFF0B48FDF7C7FFC0E727
:1026CC003C0B010804090020440B0108640B0108B1
:1026DC006C0B0108880B0108900B010808090020FD
:1026EC00AC0B0108C80B010840F6000830B59BB0D4
:1026FC000190724B1B68002B36D004007049FDF71B
:10270C00D7FC002812D16F4C22686F4902AD28000B
:10271C0007F0B0FE2800FDF799FF00232360674AFD
:10272C0013606A4805F001FE1BB030BD2000FDF7B8
:10273C00C9FC02000A2323540132019B9B1800217F
:10274C0019700199614802AB05F061FC002807D1B2
:10275C005C4A1368013313605C4805F098FDE3E7AD
:10276C005B48FDF773FFF7E712AC01A92000FEF7F9
:10277C0031FA584B00221A6057492000FDF798FC9B
:10278C00002859D0554912A8FDF792FC002857D0C3
:10279C00534912A8FDF78CFC002855D0514912A8BA
:1027AC00FDF786FC002853D04F4912A8FDF780FC9A
:1027BC00002851D04D4912A8FDF77AFC00284FD0C3
:1027CC004B4912A8FDF774FC00284DD0494912A8BA
:1027DC00FDF76EFC00284BD0474912A8FDF768FCAA
:1027EC00002849D0454912A8FDF762FC002847D0C3
:1027FC00434912A8FDF75CFC002845D0414912A8BA
:10280C00FDF756FC002843D03F4912A8FDF750FCB9
:10281C00002841D03D4912A8FDF74AFC002800D100
:10282C0082E712AB1B78002B3AD12A4B01221A609B
:10283C003748FDF70BFF77E70198FEF7FFF973E7D1
:10284C000198FEF707FA6FE70198FEF75DFA6BE760
:10285C000198FEF74FFB67E70198FFF7DDFE63E792
:10286C00019800F05BF85FE70198FEF7CFFC5BE79F
:10287C000198FEF70DFE57E70198FEF7F9FF53E7B5
:10288C000198FEF785FF4FE70198FEF7AFFE4BE787
:10289C000198FFF7A3F947E70198FFF7ABFB43E774
:1028AC000C4B01221A601B48FDF7D0FE12A8FDF755
:1028BC00CDFE1948FDF7CAFE36E7C046A00400203D
:1028CC00E40B01081C020020F00B0108A4040020FA
:1028DC00080C010808090020240C01082C0C010824
:1028EC00300C0108380C0108400C0108440C01089C
:1028FC00480901084C0C0108500C0108580C01083F
:10290C00F80801085C0C0108600C0108680C01084F
:10291C00740C0108880C010840F6000870B5BD4C19
:10292C00A5440190BC4B1B68002B47D0BB4B1B68CC
:10293C00002B05D0BA49DEA8FDF7BAFB002841D11F
:10294C00DEAC01A92000FEF745F9B6492000FDF7E1
:10295C00AFFB00283AD0B449DEA8FDF7A9FB00284C
:10296C003AD0B249DEA8FDF7A3FB041E41D0B04912
:10297C00DEA8FDF79DFB061E00D171E0AD49DEA877
:10298C00FDF796FB002800D1A4E0AB49DEA8FDF7CB
:10299C008FFB002800D00AE1019B1B78002B01D192
:1029AC00A64B019301990122E6A805F039F90028FC
:1029BC0000D1E6E0A248FDF749FE09E0A148FDF789
:1029CC0045FE05E0A048FDF741FEB9E7FEF78EFE97
:1029DC00B923DB009D4470BD019805F0BEFD0028B5
:1029EC0003D19A48FDF732FEF2E79548FDF72EFE2B
:1029FC00EEE701990122E6A805F012F9002803D1AF
:102A0C009348FDF723FE15E08D48FDF71FFEDFE729
:102A1C00002D21D001348F4902AD2200280007F08F
:102A2C0029FD2800FDF712FE52A8FDF70FFE8A487B
:102A3C00FDF70CFEA02152AEE6AA4900300005F0CD
:102A4C0078FE05003000FDF73DFB0138335C0A2BA6
:102A5C00DED100223254DBE7E6A805F066FCB7E7CE
:102A6C0001990122E6A805F0DBF8002803D178488B
:102A7C00FDF7ECFD18E07248FDF7E8FDA8E7002C27
:102A8C0024D00136734902AC3200200007F0F2FC6E
:102A9C002000FDF7DBFD52A8FDF7D8FD6E48FDF7D1
:102AAC00D5FD142002F054FBA02152ADE6AA49003A
:102ABC00280005F03EFE04002800FDF703FB01385A
:102ACC002B5C0A2BDBD100222A54D8E7E6A805F0B0
:102ADC002CFC7DE701A9DEA8FEF77CF8019805F037
:102AEC00BDFE051E0FD00122DEA9E6A805F098F860
:102AFC0000280CD159490A2252A805F091F8002857
:102B0C0009D101240CE05648FDF7A0FD60E74C48C4
:102B1C00FDF79CFD5CE75348FDF798FD58E7013441
:102B2C00A021E6AA490002A805F003FE002806D061
:102B3C00AC42F4D052A902A805F024FEEFE7E6A8B7
:102B4C0005F0F3FB52A805F0F0FBDEA805F005FD3F
:102B5C00002809D14148DEA905F058FD002807D10D
:102B6C004148FDF773FD33E74048FDF76FFD2FE754
:102B7C003F48FDF76BFD2BE7002C14D052A8FFF754
:102B8C00B5FDA02152ADE6AA4900280005F0D1FD03
:102B9C0004002800FDF796FA01382B5C0A2BEBD1C8
:102BAC0000222A54E8E7E6A805F0BFFB10E73149FC
:102BBC00DEA8FDF77DFA002814D1019B1B78002BB1
:102BCC0001D11E4B019301992B48322205F028F8B4
:102BDC00002803D1114B01221A60F9E61848FDF7C1
:102BEC0035FDF5E6DEAB1B78002B06D1234B01221D
:102BFC001A602348FDF72AFDEAE6204B01221A60F1
:102C0C002048FDF723FDDEA8FDF720FD1248FDF757
:102C1C001DFDDDE638FAFFFF04090020A0040020AA
:102C2C00CC0C010820000108280601082C0D010815
:102C3C00500D01085C0D0108C40901081C0E0108A7
:102C4C00040D01089C0C0108D40C01081C0D010892
:102C5C00340D0108480D010840F600088C0D0108E0
:102C6C00640D0108900D01080C0E0108B40D01084B
:102C7C00D40D0108280E0108A40400200809002026
:102C8C00300E01084C0E010872B6FEE700B585B097
:102C9C000C22002101A807F0F9FC2048204B03600E
:102CAC008023DB05436000238360C360036104223F
:102CBC004261037643768376033AC2611F328354B2
:102CCC00436283620C3283540363263A4263836308
:102CDC0036328354C36400F053FF002817D101A986
:102CEC000123019300234B608B600C4801F0CEF85C
:102CFC0000280ED101A90B4B019300234B608B6074
:102D0C00064801F0C3F8002805D105B000BDFFF757
:102D1C00BBFFFFF7B9FFFFF7B7FFC046501E0020FF
:102D2C0000240140002000B410B51048104B036083
:102D3C00002343608360C360037443748374042270
:102D4C004261033A82610D21C1610B390162426219
:102D5C008262C262026343638363C36302F092FACA
:102D6C00002800D110BDFFF78FFFC046EC1D0020DE
:102D7C000064004010B51248124B0360124B4360C4
:102D8C00002383600122C260036143618361C361DC
:102D9C00036202F065FC00280CD10948002102F006
:102DAC00CDFC002808D10648002102F0F3FC0028D5
:102DBC0004D110BDFFF768FFFFF766FFFFF764FF54
:102DCC00981D002000540040583D500010B510488C
:102DDC00104B036082235B00436000238360C0229E
:102DEC009200C26003614361013AFF3A8261C361A0
:102DFC00036243628362FA3AFF3AC26203630833A6
:102E0C00436302F01BFE002800D110BDFFF73CFF0E
:102E1C00341D00200030014010B51148114B0360E7
:102E2C0082235B00436000238360E022D200C260F7
:102E3C0003614361802292008261D13AFF3AC26100
:102E4C00036243628362293AC262036308334363B9
:102E5C0002F0F4FD002800D110BDFFF715FFC046AD
:102E6C00D01C00200038004010B51748174B0360E9
:102E7C00E1235B02436000238360C36003610C2287
:102E8C0042618361C36103624362836203F0ACFC01
:102E9C00002811D10C48002103F026FD00280DD18B
:102EAC000948002103F046FD002809D1064803F02B
:102EBC00FBFC002806D110BDFFF7E6FEFFF7E4FE91
:102ECC00FFF7E2FEFFF7E0FE3C1C0020003801405B
:102EDC0010B51748174B0360E1235B0243600023D6
:102EEC008360C36003610C2242618361C36103622E
:102EFC004362836203F078FC002811D10C48002156
:102F0C0003F0F2FC00280DD10948002103F012FD5A
:102F1C00002809D1064803F0C7FC002806D110BDD3
:102F2C00FFF7B2FEFFF7B0FEFFF7AEFEFFF7ACFE09
:102F3C00A81B00200044004010B594B005AC3C2206
:102F4C000021200007F0A2FB1022002101A807F0AD
:102F5C009DFB8020800002F02BF802230593802239
:102F6C00520008920022099240210A910D930E936F
:102F7C000F920633109380239B02119380239B04A2
:102F8C00129380239B051393200001F005FA00286F
:102F9C0010D101A807230193053B436000238360F4
:102FAC00A023DB01C360022101F0DEFC002803D169
:102FBC0014B010BDFFF768FEFFF766FE70B5D2B017
:102FCC0002F0A0F8FFF7B8FFFDF772FAFFF75EFE0C
:102FDC00FFF7AAFEFFF7CEFEFFF7F8FEFFF71CFF88
:102FEC00FFF742FFFFF774FF03F02AFD002801D022
:102FFC00FFF74AFE344802F037FAC820400002F0CE
:10300C00A7F8FFF7A9FA314B1B6858680023022276
:10301C00190007F079F92E48FDF718FB2D4C012308
:10302C0023602D48FFF762FB002626602B48012306
:10303C0001224821FF31694403F0C6FA041E0BD16A
:10304C004823FF336B441B780D2B15D00A2B13D060
:10305C00721C01A98B55D6B2214D2C68002CE5D0E1
:10306C00A2235B00E358002B0EDD25004D35FF3508
:10307C00A6235B00E458F1E701AB00229A55180037
:10308C00FFF734FB2600E7E7A4235B00E358002B93
:10309C0002D0104B01221A602000FFF727FB0D4BCA
:1030AC0000221A60A0235B00E358002B03D04532AA
:1030BC00FF32A350D2E7A6235B00E3582B6020001D
:1030CC0005F0DCFB2C68C9E7EC1D0020B0010020EA
:1030DC00680E0108941B0020780E0108A81B002024
:1030EC009C04002010B586B00F2169440870172489
:1030FC006C44054832230093313B220002F0FAFD68
:10310C00207806B010BDC046D01C002070B506005B
:10311C0002F018F80500FF20FFF7E4FF0400FF2879
:10312C0004D002F00FF8401BB042F4D32000FF385B
:10313C004342584170BDF8B507000E00002405E06D
:10314C003D19FF20FFF7CEFF28700134B442F7D3AE
:10315C00F8BD000010B501220221034801F022FF46
:10316C00FF20FFF7BFFF10BD0004005010B5002278
:10317C000221094801F016FFFF20FFF7B3FFFA20E8
:10318C004000FFF7C3FF041E02D00124200010BD35
:10319C00FFF7E0FFFAE7C0460004005070B50400EA
:1031AC000D0043B2002B20DB0C2C05D0FFF7D2FF17
:1031BC00FFF7DCFF00283AD040202043C0B2FFF7D5
:1031CC0091FF280EFFF78EFF280CC0B2FFF78AFF85
:1031DC00280AC0B2FFF786FFE8B2FFF783FF002C86
:1031EC000DD0082C1DD001200AE07F231C400021AB
:1031FC003720FFF7D3FF02000128D5D90FE0952027
:10320C00FFF770FF0C2C0ED00A24FF20FFF76AFF8B
:10321C000200000603D5013CE4B2002CF5D11000ED
:10322C0070BD8720ECE7FF20FFF75CFFECE7FF2287
:10323C00F5E7000010B501238AB2034C5B42010094
:10324C00200002F07DFC10BDD01C002070B50400E5
:10325C000D00FA204000FFF759FF002800D170BD87
:10326C002800FFF73FFFFD2D01D10120F7E780215A
:10327C0089002000FFF7DEFFFF20FFF733FFFF2060
:10328C00FFF730FFFF20FFF72DFF1F230340052B17
:10329C0001D10120E3E70020E1E7000010B50400B4
:1032AC0001F050FF024B1860024B1C6010BDC04671
:1032BC00B81E0020B41E002010B501F043FF044BD3
:1032CC001B68C01A034B1B6898428041404210BDDA
:1032DC00B81E0020B41E002070B505000E00C820DA
:1032EC00FFF7DCFFFF20FFF7FDFE0400FF2803D1F2
:1032FC00FFF7E2FF0028F5D1FE2C01D0002070BDB5
:10330C0031002800FFF717FFFF20FFF7EBFEFF202F
:10331C00FFF7E8FE0120F2E770B582B0002800D07C
:10332C00A7E0554B1B789B0710D4544B1A681368B5
:10333C0038218B4308390B4313600A24002C09D025
:10334C00FF20FFF7CFFE013CE4B2F7E74A4B1878B9
:10335C00C0B21EE000210020FFF720FF0500060090
:10336C00012818D0464B1C70FFF7F4FE002C00D13E
:10337C007BE0424B1A68136838218B4328390B4386
:10338C0013603D4A13780F398B4313703A4B1878FE
:10339C00C0B202B070BDFA208000FFF77FFFD521CC
:1033AC0049000820FFF7FAFE012839D1250006E074
:1033BC00FF20FFF797FE01AB58550135EDB2032DF9
:1033CC00F6D901AB9B78012BCCD101ABDB78AA2BC6
:1033DC00C8D1FFF771FF002806D08021C905A920AC
:1033EC00FFF7DCFE0028F4D1FFF766FF002801D1BF
:1033FC000400B7E700213A20FFF7D0FE051E07D0E6
:10340C00B0E7FF20FFF76EFE01AB58550135EDB26A
:10341C00032DF6D901AB1B785B0624D50C24A1E750
:10342C000021A920FFF7BAFE01280FD9FFF744FFAE
:10343C00002805D000213000FFF7B0FE0028F5D1A0
:10344C00FFF73AFF002804D104008BE70225A926D8
:10345C00ECE7802189001020FFF7A0FE002800D0A7
:10346C0080E72C007EE704247CE7034B01221A70D2
:10347C008CE701208DE7C04618000020D01C0020EE
:10348C00BC1E0020002803D1024B1878C0B2704734
:10349C000120FCE71800002070B50D0011001C0085
:1034AC00002837D1002B37D01D4B1B78DB0735D4C8
:1034BC001C4B1B781B0700D45102012C1CD0122072
:1034CC00FFF76CFE002811D1802189002800FFF73E
:1034DC0003FF002806D080239B009C466544013CDA
:1034EC00002CF1D100210C20FFF758FEFFF732FE23
:1034FC00631E9C41E0B270BD1120FFF74FFE002807
:10350C00F4D1802189002800FFF7E6FE0028EDD0D9
:10351C000024EBE70420EEE70420ECE70320EAE7C5
:10352C0018000020BC1E002070B50D0016001C00F9
:10353C00002847D1002B47D0264B1B78DB0745D4FE
:10354C00244B1B785B0743D4234B1B781A0700D4FE
:10355C007602012C21D006221A422CD131001920DE
:10356C00FFF71CFE002812D1FC212800FFF76EFE8D
:10357C00002806D080239B009C466544013C002C0F
:10358C00F2D1FD210020FFF761FE002818D0FFF7D3
:10359C00E1FD631E9C41E0B270BD31001820FFF7C5
:1035AC00FDFD0028F3D1FE212800FFF74FFE002877
:1035BC00EDD00024EBE721009720FFF7EFFDCDE7DE
:1035CC000124E4E70420E7E70420E5E70320E3E730
:1035DC000220E1E718000020BC1E002070B584B06A
:1035EC000C001600002800D0FEE0814B1B78DB0796
:1035FC0000D5FBE003295CD011D800291BD0012990
:10360C000BD100210920FFF7C9FD051E1AD025009A
:10361C00FFF7A0FD280004B070BD0425F8E70429CD
:10362C0007D1744B1B7806221A4200D09DE001256D
:10363C00EEE70425ECE7FFF799FD002800D0C9E080
:10364C000125E5E710216846FFF746FE002800D16A
:10365C00C2E06B461B789B09012B1BD06A46517943
:10366C000F230B40917AC9095B18507A4000062150
:10367C0001405918137A9B09D07980001B18927954
:10368C009202C020000102409B18013307398B4085
:10369C003360BDE76A46537A117A09025B18D27916
:1036AC001204FC2189030A409B1801339B023360EE
:1036BC00AEE7504B1B785B0722D500218D20FFF71E
:1036CC006DFD002801D00125A2E7FF30FFF70AFDB0
:1036DC0010216846FFF700FE00280FD1012597E75F
:1036EC00FF20FFF7FFFC013DEDB2002DF8D16B463A
:1036FC009A7A120910239340336089E73025F4E756
:10370C0000210920FFF74AFD041E01D001257FE7A7
:10371C0010216846FFF7E0FD00285FD0354B1B7881
:10372C00022215001D401A420FD06A46917A4900B8
:10373C007E230B40D17AC9095B180133527B920965
:10374C00013A93403360250062E769468B7A9B10FF
:10375C001F221A400132C97AC800182303404909B4
:10376C005B1801335343336052E76A460B21FFF772
:10377C0035FF002834D16B461B789B0903D16B466F
:10378C009B7A5B062ED5316874681A4B1B781B0725
:10379C0001D4490264022020FFF700FD002801D06B
:1037AC00012535E721002130FFF7F8FC002801D076
:1037BC0001252DE700212630FFF7F0FC051E01D076
:1037CC00012525E70C48FFF7A1FC002800D01FE7D6
:1037DC0001351DE725001BE7250019E7012517E733
:1037EC00012515E7012513E7042513E7032511E748
:1037FC0018000020BC1E002030750000FEE7FEE71C
:10380C007047704710B501F091FCFEF721F810BD20
:10381C0000B583B00B4B196C012211431964196C60
:10382C000A400092009ADA6B802149050A43DA6358
:10383C00DB6B0B400193019BC020C00001F09AFC94
:10384C0003B000BD0010024010B588B00400142273
:10385C00002103A806F01AFF2268104B9A4201D0EF
:10386C0008B010BD0E4B1A6C802149030A431A6430
:10387C001A6C0A400192019A596B01221143596347
:10388C005B6B13400293029B03A9039203234B60CF
:10389C00A020C00501F0C6FAE2E7C04600240140B2
:1038AC000010024010B59AB004001422002115A893
:1038BC0006F0ECFE4C22002102A806F0E7FE22687E
:1038CC00184B9A4201D01AB010BD80239B0402936E
:1038DC0002A801F029F9002821D1134BDA6B8021C1
:1038EC0049010A43DA63DA6B0A400092009A596B79
:1038FC000122114359635B6B1A400192019B15A97C
:10390C00C0235B01159302234B6000238B60CB60BB
:10391C0003330B61A020C00501F084FAD3E7FFF755
:10392C00B3F9DAE7006400400010024010B59AB019
:10393C0004001422002115A806F0A8FE4C22002138
:10394C0002A806F0A3FE2268174B9A4201D01AB0C7
:10395C0010BD2023029302A801F0E6F800281FD125
:10396C00124C626B02231A436263626B1340009326
:10397C00009B15A9C0231593AE3B4B6000238B60B5
:10398C00CB6006330B610A4801F04CFAE36B8022E2
:10399C0092031343E363E36B13400193019BD6E75C
:1039AC00FFF772F9DCE7C0460054004000100240FB
:1039BC0000040050F0B58BB004001422002105A8BF
:1039CC0006F064FE2368304A934204D02F4A934297
:1039DC001DD00BB0F0BD2E4B1A6C802149010A434F
:1039EC001A641A6C0A400092009A596B0122114316
:1039FC0059635B6B1A400192019B05A9C223059385
:103A0C00C03B4B60A020C00501F00CFAE1E7204B55
:103A1C00DA6B8021C9010A43DA63DA6B0A4002923D
:103A2C00029A5A6B012632435A635A6B3240039204
:103A3C00039A5A6B02252A435A635B6B2B400493FF
:103A4C00049B05AC08230593069507960895A027BB
:103A5C00FF052100380001F0E5F9102305930695C8
:103A6C000796089509962100380001F0DBF98023B0
:103A7C00DB0005930695079608950523099321000D
:103A8C00044801F0CFF9A4E70030014000380040B1
:103A9C00001002400004005010B59CB00400142229
:103AAC00002117A806F0F2FD4C22002104A806F014
:103ABC00EDFD23682E4A934204D02E4A93422CD01B
:103ACC001CB010BD0123049304A801F02DF80028AC
:103ADC0020D1294B1A6C8021C9010A431A641A6C33
:103AEC000A400092009A596B0122114359635B6B97
:103AFC0013400193019B17A9C023DB0017930223EA
:103B0C004B6000238B60CB600A61A020C00501F0E4
:103B1C0089F9D5E7FFF7B8F8DBE70223049304A88B
:103B2C0001F002F800281FD1134BDA6B80218902B7
:103B3C000A43DA63DA6B0A400292029A596B012249
:103B4C00114359635B6B13400393039B17A90B4BF6
:103B5C00179302234B6000238B60CB600A61A0207B
:103B6C00C00501F05FF9ABE7FFF78EF8DCE7C04664
:103B7C000038014000440040001002400480000066
:103B8C0030B583B0040000230193002800D106E176
:103B9C00836D002B13D023689A68D2001CD49968CB
:103BAC00804A1140802252050A439A607E4B186865
:103BBC007E49FCF7A3FA01304000019009E0FFF7C1
:103BCC0043FE0023E3655422A354E4E7019B013B2D
:103BDC000193019B002BF9D123689A68D20000D580
:103BEC009DE0A26D10210A43A265E26D0F390A43D4
:103BFC00E26501209A6804210D001540114200D0A5
:103C0C000125A26DD20600D5C2E0002D00D0BFE088
:103C1C00A26D67490A400631FF310A43A2659A68D2
:103C2C00D20752D4A268217E89030A43617EC9035C
:103C3C000A43A57E69030A43216B002901D0802128
:103C4C0049010A43E1680A432169002969DB8021A3
:103C5C0089030A432C21615C49000A432021615CE1
:103C6C00012961D0616A002905D0E0256D00294049
:103C7C00A56A29430A43D9684E4D29400A43DA60A4
:103C8C0063689B0F9B07E26C1A433C21615C012922
:103C9C0059D021680B69484D2B4013430B61636865
:103CAC00C0221206934210D08022D20593420CD02F
:103CBC0080221206934208D040490A68404D2A409F
:103CCC00F025AD032B4013430B602168636B4A69ED
:103CDC000725AA4313434B612168A26B4B696935D5
:103CEC00AB43120113434B612369002B35D122687E
:103CFC00916A103B0B43936223685A690723134064
:103D0C00626B9A423BD0A36D12229343023A134347
:103D1C00A365E36D0F3A1343E36501203DE00020FA
:103D2C0068E74900490894E7002D03D18021490236
:103D3C000A4397E7A16D20252943A165E16D1F3D3D
:103D4C002943E1658EE7216C0B43616C0B43A16C3D
:103D5C000B43134301221A439BE7802292039342A5
:103D6C00CAD121688B6AE369013B9B001C221A4073
:103D7C0010235B429340226E13438B62BCE70023FB
:103D8C00E365A36D03229343023A1343A36504E056
:103D9C00A36D10221343A365012003B030BD012095
:103DAC00FBE7C046E8FFFF6F20000020400D03003A
:103DBC00FDFEFFFF0102DEFF02FCFF1F0827014092
:103DCC00FFFFC3FFF8B504000D004669082E04D0B0
:103DDC000368DB68DB071DD4042601F0B3F9070088
:103DEC0023681A6816421BD16B1CF9D001F0AAF992
:103DFC00C01BA84201D8002DF2D123681B681E42BB
:103E0C00EED1A36D04221343A36554230022E25484
:103E1C00032029E0836D202213438365012023E0D6
:103E2C00A16D802292000A43A265D968C0221201BA
:103E3C00114213D1A27E002A10D11A6812070DD597
:103E4C009A68520711D45A680C218A435A60A36DA0
:103E5C000B4A13400432FF321343A365207E002823
:103E6C000CD123680C221A60F8BDA36D20221343D9
:103E7C00A365E36D1F3A1343E365EFE70020F3E717
:103E8C00FEFEFFFF0368186C70470000F0B583B0AE
:103E9C0004000023019305695433C35C012B00D14A
:103EAC002FE154230122C2540068836803321600A8
:103EBC001E401A4209D0A36D1C321343A365012086
:103ECC0054230022E25403B0F0BD4B68022B00D106
:103EDC00D5E080221206954225D08B4A954222D0FD
:103EEC00226E1F271F400F25BD40AA430B685D03A0
:103EFC002FD19B0E1F261E40BE40324322664D68BA
:103F0C00AB080133E269934213D80E68826A1F230F
:103F1C001D40103B1F00AF40BA43B60E3340AB40C0
:103F2C001343836205E00B68826A5B035B0B1343EC
:103F3C00836220680B688D6842691B029A432B4090
:103F4C00724D2B40134343610B68002B4FDB002059
:103F5C00B6E7DD07D0D49D0727D45D0727D41D070E
:103F6C0027D4DD0627D49D0627D45D0627D41D064D
:103F7C0027D4DD0527D49D0527D45D0527D41D0541
:103F8C0027D4DD0427D49D0427D45D0427D41D0435
:103F9C0027D4DD0327D49D0327D48025ED021E00F2
:103FAC002E402B42A8D01226A6E70126A4E7022613
:103FBC00A2E70326A0E704269EE705269CE7062633
:103FCC009AE7072698E7082696E7092694E70A2633
:103FDC0092E70B2690E70C268EE70D268CE70E2633
:103FEC008AE70F2688E7102686E7112684E7484AD9
:103FFC001168E02252040A404648834207D04648E2
:10400C00834222D0454883422CD0002058E7080236
:10401C00F5D480231B0413433D490A6840480240F1
:10402C0013430B603F4B18683F49FCF767F80130AE
:10403C0043001B189B00019302E0019B013B019381
:10404C00019B002BF9D100203AE7C801DAD4802378
:10405C005B0413432E490A683148024013430B603A
:10406C0000202DE749024AD48023DB03134328495F
:10407C000A682B48024013430B60002020E7802382
:10408C001B069D4202D0204B9D4205D10B68826AD3
:10409C005B035B0B9A4382620B68002B01DB0020F5
:1040AC000EE71B4A12681B498B4207D01A498B42F8
:1040BC000FD01A498B4217D0002001E7A0235B04D4
:1040CC001A4013490B68164803401A430A60002033
:1040DC00F6E6C0231B041A400D490B681048034038
:1040EC001A430A600020EBE6C0235B041A4008491F
:1040FC000B680B4803401A430A600020E0E60020DE
:10410C00DEE60220DFE6C0460400008000FFFF0769
:10411C0008270140001000B0004000B8002000B497
:10412C00FFFF3FFE20000020400D030070B504008F
:10413C00026893685B0724D593689B0705D4936842
:10414C0011490B4010210B43936000F0FBFF05005D
:10415C0023689B685B0712D500F0F4FF401B022814
:10416C00F6D923689B685B07F2D5A36D1022134325
:10417C00A365E36D0F3A1343E365012002E00020D1
:10418C0000E0002070BDC046E8FFFF7F30B583B073
:10419C0004000023019303689A68D2074FD49968EE
:1041AC00284A114211D19A6827490A4001210A4331
:1041BC009A60264B1B681B0217D5254B186825499E
:1041CC00FBF79CFF013001900CE0836D1022134330
:1041DC008365C36D0F3A1343C365012030E0019B27
:1041EC00013B0193019B002BF9D1637E012B01D183
:1041FC00002025E000F0A6FF050023681A68D2070E
:10420C001BD49A68D20705D49A680F490A40012139
:10421C000A439A6000F096FF401B0228EDD92368F0
:10422C001B68DB07E9D4A36D10221343A365E36D70
:10423C000F3A1343E365012002E0002000E0002068
:10424C0003B030BD17000080E8FFFF7F0827014056
:10425C0020000020400D030010B5040003689B688B
:10426C005B0724D45423C35C012B22D0542301229A
:10427C00C254FFF78BFF002815D1A26D0E4B1A40CC
:10428C0080235B001343A3650023E36522681C2194
:10429C0011605422A3542268936808490B400421EE
:1042AC000B43936004E054230022E25400E002200C
:1042BC0010BD0220FCE7C046FEF0FFFFE8FFFF7FC9
:1042CC0070B5040003689A6802210800104011427E
:1042DC0000D001209A68D20735D5002835D19968CD
:1042EC0005220A40012A09D0A36D10221343A365AD
:1042FC00E36D0F3A1343E365012025E09A681449F6
:10430C000A4002210A439A60236803221A6000F0D3
:10431C0019FF050023689B68DB0712D500F012FF1C
:10432C00401B0228F6D923689B68DB07F2D5A36DE6
:10433C0010221343A365E36D0F3A1343E365012089
:10434C0002E0002000E0002070BD0020FCE7C04629
:10435C00E8FFFF7F10B504005423C35C012B17D07A
:10436C0054230122C254FFF7E1FE002803D054234A
:10437C000022E25410BD2000FFF7A2FF0028F6D166
:10438C00A36D044A13400432FF321343A365EEE7D6
:10439C000220EFE7FEFEFFFF70B582B0041E00D1D5
:1043AC005EE20368DB0739D5C14A916838230B40BC
:1043BC00D16803220A40102B26D0082B26D0636824
:1043CC008022520293427FD0A022D202934200D18B
:1043DC0081E0B74B1A68B7490A401A601A68B649A7
:1043EC000A401A606368002B00D180E000F0AAFE3E
:1043FC000500AF4B1B689B0310D400F0A3FE401BC1
:10440C006428F6D903202CE2032AD6D1A84B1B68CA
:10441C009B0303D56368002B00D124E223689B0720
:10442C0031D5A34A916838230B40D16803220A4046
:10443C00102B6AD0002B6BD19D4A1268520503D504
:10444C00E268002A00D110E2994842689B490A4070
:10445C00616909020A434260002B0DD10368984937
:10446C000B4021690B4303600368DB0A07221A40E7
:10447C00944BD340944A1360944B186800F016FE8A
:10448C00002800D0F3E123681B0700D481E0884B9F
:10449C009A6838231340182B73D0A369002B00D1D2
:1044AC00B4E0834A136E01210B43136600F04AFEFD
:1044BC0005007F4B1B6E9B076BD400F043FE401B2B
:1044CC000228F6D90320CCE1794A116880235B02DB
:1044DC000B43136086E7764B19688022D2020A439D
:1044EC001A601968802252020A431A607AE700F0B7
:1044FC0029FE05006E4B1B689B038FD500F022FE36
:10450C00401B6428F6D90320ABE1022A92D193E731
:10451C00E368002B22D0664A136869490B40216975
:10452C000B431360116880235B000B43136000F096
:10453C0009FE05005E4B1B685B0506D400F002FE0D
:10454C00401B0228F6D903208BE159494B685B4A82
:10455C0013406269120213434B6094E7544A136888
:10456C005B490B40136000F0EDFD0500504B1B68E0
:10457C005B0588D500F0E6FD401B0228F6D9032028
:10458C006FE14B4B1B6E9B0703D5A369002B00D12E
:10459C006FE123685B0700D4A2E0454B9A6838238F
:1045AC001340202B45D0424BDB6BDB004AD4404BF5
:1045BC00DA6B802149050A43DA63DB6B0B4001930C
:1045CC00019B0125434B1B68DB053DD5A368012BE3
:1045DC004ED0052B52D0364BDA6D01218A43DA6569
:1045EC00DA6D03318A43DA65A368002B50D000F0F2
:1045FC00A9FD06002E4BDB6D9B076FD400F0A2FDCE
:10460C00801B354B9842F5D903202AE1284A136EBA
:10461C0001218B43136600F095FD0500244B1B6EA6
:10462C009B07B6D500F08EFD401B0228F6D903205F
:10463C0017E11F4BDB6D9B0752D5A368002B4FD1A5
:10464C0001200EE10025BDE7224A116880235B00A2
:10465C000B43136000F076FD06001E4B1B68DB0558
:10466C00B4D400F06FFD801B0228F6D90320F8E0CB
:10467C000F4AD36D01210B43D365B5E70C4BDA6DB3
:10468C0004210A43DA65DA6D03390A43DA65ABE7CC
:10469C0000F058FD0600064BDB6D9B071ED500F0A5
:1046AC0051FD801B0C4B9842F5D90320D9E0C04634
:1046BC0000100240FFFFFEFFFFFFFBFFFF80FFFF2C
:1046CC00FFC7FFFF0024F400200000201C00002086
:1046DC00FFFEFFFF0070004088130000012D19D071
:1046EC0023689B062FD5E369002B19D06A4A116801
:1046FC008023DB030B43136000F024FD0500664BA5
:10470C001B681B021FD400F01DFD401B0228F6D9AC
:10471C000320A6E0604AD36B60490B40D363DFE70C
:10472C005D4A13685E490B40136000F00BFD0500F9
:10473C00594B1B681B0206D500F004FD401B0228D8
:10474C00F6D903208DE0236A002B00D193E0524A66
:10475C00916838220A40102A5AD0022B12D04E4AA5
:10476C00136850490B40136000F0ECFC04004A4BFA
:10477C001B689B0145D500F0E5FC001B0228F6D90F
:10478C0003206EE0444A136846490B40136000F066
:10479C00D9FC0500404B1B689B0106D500F0D2FCF0
:1047AC00401B0228F6D903205BE03B4AD3683E4904
:1047BC001940636AA06A0343E06A00020343206B5A
:1047CC000343606B0343A06B03430B43D36011683B
:1047DC0080235B040B431360D16880235B050B4380
:1047EC00D36000F0AFFC04002B4B1B689B0106D47C
:1047FC0000F0A8FC001B0228F6D9032031E00020B1
:10480C002FE0254AD36829490B40D360002028E0CB
:10481C00012B32D0204BDA6803231340616A8B42A0
:10482C002DD170231340A16A8B422AD1FE21C901DC
:10483C001140E36A1B02994225D1F8239B031340D4
:10484C00216B8B4221D1E0231B051340616B8B4202
:10485C001DD1520F5207A36B9A421AD1002000E0CF
:10486C00012002B070BD0120FBE70120F9E7012017
:10487C00F7E70120F5E70020F3E70120F1E701203D
:10488C00EFE70120EDE70120EBE70120E9E701204C
:10489C00E7E70120E5E7C04600100240FFFFFFEF0D
:1048AC00FFFFBFFFFFFFFFFE8C80C111FCFFFEEE80
:1048BC0010B52A4B9B6838221A4207D1274B1A682D
:1048CC00D20A072313402648D84010BD234B9A68C0
:1048DC0038231340082B3BD0204B9A6838231340C5
:1048EC00102B0DD01D4B9A6838231340202B31D040
:1048FC001A4B9A6838231340182B26D00020E4E773
:10490C00164AD1680D3B0B40D268120907211140A1
:10491C000131032B0FD01248FBF7F0FB0F4BDA6879
:10492C00120A7F23134058430C4BD968490F0131AD
:10493C00FBF7E4FBC9E70B48FBF7E0FB074BDA6836
:10494C00120A7F2313405843EEE7FA20C001BCE75C
:10495C000448BAE780200002B7E7C04600100240C6
:10496C000024F40000127A0070B504000D00002839
:10497C0000D1AAE0574B1A68072313408B4221D36E
:10498C0023689A070ED55B0705D5534A9168E02337
:10499C00DB010B439360504A936850490B40A1686C
:1049AC000B4393602368DB0754D56368012B20D03D
:1049BC00022B3BD0002B3FD1474A126852051CD426
:1049CC0001206AE0434A136807218B432B43136091
:1049DC0000F0B8FB06003F4B1A6807231340AB42AC
:1049EC00CED000F0AFFB801B3D4A9042F3D90320A0
:1049FC0053E0394A1268920369D537498A6807200F
:104A0C00824313438B6000F09DFB0600324B9B6886
:104A1C0038221A406368DB009A421BD000F092FBEC
:104A2C00801B2F4B9842F1D9032036E02A4A12689A
:104A3C009201E2D4012030E0032B05D0264AD26D3E
:104A4C009207DAD4012028E0234A126E9207D4D4BC
:104A5C00012022E01F4B1A6807231340AB421DD8DC
:104A6C0023685B0706D51C4A93681E490B40E16816
:104A7C000B439360FFF71CFF174B9A68120A0F2326
:104A8C001340194A9B009A581F231340D840174BC8
:104A9C001860174B186800F009FB70BD0D4A1368BD
:104AAC0007218B432B43136000F04CFB0600094B92
:104ABC001A6807231340AB42D2D000F043FB801B93
:104ACC00074B9842F3D90320E7E70120E5E70120E3
:104ADC00E3E7C0460020024000100240FFF0FFFF59
:104AEC0088130000FF8FFFFF240F01082000002017
:104AFC001C000020014B18687047C04620000020A5
:104B0C0010B5FFF7F7FF064B9A68120B07231340FB
:104B1C00044A9B009A581F231340D84010BDC0462E
:104B2C0000100240040F0108F0B583B004000368C4
:104B3C009B0362D5AE4BDB6BDB001ED4AC4BDA6B4C
:104B4C00802149050A43DA63DB6B0B400193019B1F
:104B5C000126A84A116880235B000B43136000F008
:104B6C00F1FA0500A34B1B68DB0508D400F0EAFA48
:104B7C00401B0228F6D9032502E00026E9E70025B0
:104B8C00002D23D19A4BD96DC02292000B001340FB
:104B9C00114212D0226C9A420DD0954AD36D96498F
:104BAC000B40D06D802149020143D165D16D9348F2
:104BBC000140D165D365DB0710D4002D06D18C4A9A
:104BCC00D36D8D490B40216C0B43D365012E15D150
:104BDC00874AD36B8A490B40D3630FE000F0B2FADB
:104BEC000700834BDB6D9B07E7D400F0ABFAC01BCF
:104BFC00844B9842F5D90325DFE700252368DB07B2
:104C0C0006D57B4A536D03218B4361680B43536577
:104C1C0023689B0706D5764A536D0C218B43A168FC
:104C2C000B43536523685B0706D5714A536D3021DE
:104C3C008B43E1680B4353652368DB0606D56C4A4E
:104C4C00536D71490B4021690B4353652368DB0499
:104C5C0006D5674A536D68490B4061690B43536530
:104C6C0023689B0506D5624A536D68490B40A16ABF
:104C7C000B43536523685B0506D55D4A536D644948
:104C8C000B40E16A0B43536523689B0606D5584AD3
:104C9C00536D60490B40A1690B43536523685B0658
:104CAC0006D5534A536D5C490B40E1690B43536580
:104CBC0023685B040BD54E4A536D9B009B08216BFC
:104CCC000B435365226B8023DB059A4262D0236829
:104CDC001B0306D5464A536D40218B43616B0B4336
:104CEC00536523689B020BD5414A536D4B490B40CE
:104CFC00A16B0B435365A26B8023DB039A4250D00C
:104D0C0023685B020BD53A4A536D45490B40E16B66
:104D1C000B435365E26B80235B049A4248D02368B3
:104D2C001B0509D5324A936D03218B43216A0B4332
:104D3C009365236A012B40D023689B0409D52C4A28
:104D4C00936D0C218B43616A0B439365636A042B4F
:104D5C0039D02368DB010BD5254A936D2D490B40C7
:104D6C00616C0B439365626C80239B019A4230D03B
:104D7C0023689B010BD51E4A936D1F490B40A16CF8
:104D8C000B439365A26C80235B009A4228D02800C9
:104D9C0003B0F0BD164AD16880235B020B43D3608D
:104DAC0095E7134AD16880235B040B43D360A7E7D4
:104DBC000F4AD1680B43D360B1E7D16880235B0203
:104DCC000B43D360B8E7D16880235B020B43D360FD
:104DDC00BFE7074AD16880235B040B43D360C7E766
:104DEC00034AD16880235B040B43D360CFE7C046F2
:104DFC000010024000700040FFFCFFFFFFFFFEFFB1
:104E0C00FFFFFFEF88130000FFF3FFFFFFFFF3FF2F
:104E1C00FFFFCFFFFFCFFFFFFF3FFFFFFFFFBFFFF6
:104E2C00FFFFFFFEF0B5002359E086685F00032406
:104E3C00BC40A643CC68BC40344384604468944373
:104E4C004E683609012232409A402243426056E0B5
:104E5C00DE080836B600375805321A4092000F2487
:104E6C009440A7430C69944022003A43325059E0D5
:104E7C00042600E00026A64034003C43444E183281
:104E8C00920094513768EA433E00AE434C68E4020A
:104E9C0001D53E002E433E4C266067683E0016400E
:104EAC004C68A40201D53E002E43394C6660842622
:104EBC00A7593E0016404C68A40301D53E002E4372
:104ECC00334C8427E6518026A65932404C68E403C3
:104EDC0001D52A0032432E4D80242A5101330C680F
:104EEC002200DA4053D001229A402500154014428A
:104EFC00F4D04E6803243440013C012C95D94C6805
:104F0C0003222240032A08D0C4685E000322B24068
:104F1C0094438A68B2402243C2604C680322224008
:104F2C00022A95D004685E0003221700B740BC43E8
:104F3C004F683A40B240224302604C68C022920251
:104F4C001442CBD09A0814001834A400104EA75960
:104F5C0003241C40E4000F26A640B743A026F60508
:104F6C00B04287D00B4EB0420BD00B4EB0420AD0A1
:104F7C000A4EB04209D00A4EB04200D178E705265D
:104F8C0079E7012677E7022675E7032673E7F0BD7C
:104F9C00001802400004005000080050000C0050A3
:104FAC0000100050002A01D0816170478162FCE73B
:104FBC0010B5104A136810490B400343136080234B
:104FCC009B00984201D0002010BD0C4B1B68580070
:104FDC00C01840000A49FBF791F80130054B5B699A
:104FEC005B0503D5002803D00138F7E70020EBE779
:104FFC000320E9E700700040FFF9FFFF20000020CC
:10500C0040420F0070B5002811DB8308134DC033EC
:10501C009B005C5903221040C000FC3216008640F5
:10502C00B44389010A40824022435A5170BD0F2378
:10503C000340083B9B0806339B00094A9446634493
:10504C005C6803221040C000FC3215008540AC4364
:10505C0089010A40824022435A60E7E700E100E000
:10506C0000ED00E0013880235B0498420FD2094A1E
:10507C0050600948036A1B021B0AC02109060B4336
:10508C0003620023936007331360002070470120F4
:10509C00FCE7C04610E000E000ED00E010B5FFF7C3
:1050AC00B1FF10BD10B5FFF7DDFF10BD10B504004A
:1050BC00114B1978002901D1012010BDFA20800074
:1050CC00FBF71CF801000D4B1868FBF717F8FFF7FE
:1050DC00E9FF00280DD1032C01D90120EDE70130A7
:1050EC00002221004042FFF7D9FF054B1C60002035
:1050FC00E3E70120E1E7C046190000202000002072
:10510C001C00002010B5084A116880235B000B437B
:10511C0013600320FFF7CAFF041E02D001242000F5
:10512C0010BDFEF775FBFAE700200240034B1B781D
:10513C00034A11685B1813607047C04619000020C1
:10514C00C01E0020014B18687047C046C01E0020CE
:10515C0070B50400FFF7F6FF0500631C02D0044B8A
:10516C001B78E418FFF7EEFF401BA042FAD370BD8A
:10517C0019000020034A136803490B4003431360D2
:10518C007047C04600000140FFF9FFFF30B50468CE
:10519C00184B9C4223D0184901648022A358174D08
:1051AC002B40456B2D042B43A3500B0070334364F1
:1051BC000568AB58124C2340846B24062343AB5038
:1051CC000B00B0338364D833C36498239B00CB1893
:1051DC0003659E239B00CB1843650B0003E0094934
:1051EC00DAE7002204C3D42292008A189A42F8D833
:1051FC0030BDC0460068004000B40040FFFFE0FF37
:10520C00FFFFFFF050B70040F0B51F004B68002BBC
:10521C001AD10D698B681D430B689B041D430C6AE6
:10522C002406CB691C438B691C434B691C43CB681C
:10523C001B041C43466DFB00DB19DB00F6183560C4
:10524C0074600836002015E00B698C6823430C68E9
:10525C0023438025ED051D43E1E71418E3781B0675
:10526C00A5782D042B43647824022343145C234338
:10527C0008C60430CB68024CE35C8342EDD8F0BD29
:10528C00CC0E010870B5041E00D1E1E05C23C35CB8
:10529C00002B19D02268936910218B439361FFF77F
:1052AC0051FF0500226893691B0713D5FFF74AFFCE
:1052BC00401B0A28F6D9236E0122134323665C2374
:1052CC000232E254012070BD5D330022C254FEF75D
:1052DC00E9FADFE7936901210B439361FFF732FF92
:1052EC00050022689369DB070DD4FFF72BFF401BE9
:1052FC000A28F6D9236E0122134323665C2302325B
:10530C00E2540120DFE7936902210B439361226889
:10531C00504B9A4243D0237C012B44D02268936992
:10532C0040210B439361637C012B42D0226893692B
:10533C0049490B409361A37C012B41D022689169B0
:10534C0080235B010B4393612268936943490B40B3
:10535C00A1680B43936122689369A4218B439361E9
:10536C002268136994398B431361E368012B2DD0A8
:10537C00002B30D0022B54D02268936980210B4330
:10538C0093612268136970390B431361E368032B33
:10539C0021D12268936910310B4393611BE0626841
:1053AC002F4B1A60B7E72268936940218B439361B6
:1053BC00B9E7226891698023DB010B439361BAE75B
:1053CC002268936927490B409361BDE72268936972
:1053DC000C390B439361A369013B5B06E269013A0B
:1053EC0012021343226A013A13436269013A12040E
:1053FC0021681343CB61A268C0239B009A4216D04C
:10540C002168C0228B58E06B03438B502000FFF7C0
:10541C00BDFE0023A36523665C330122E254002009
:10542C0051E72268936920210B439361D3E7A36A68
:10543C00013BE26A013A12021343226B013A120158
:10544C001343626A013A120421681343CB60D7E715
:10545C00012038E700640040FFBFFFFFFFFCFFFFA7
:10546C0000650040FFEFFFFF5C23C35C012B05D000
:10547C00036E042213430366012070475B33022240
:10548C00C2540268936901218B4393610023036624
:10549C000020F2E770B504005C23C35C022B1CD126
:1054AC000068C233C3589B0206D5226E80239B0032
:1054BC0013432366012015E0C423C3581B0C03259A
:1054CC001D402B002000FFF79FFE21680123AB40FD
:1054DC00CC228B50A365002004E0036E08221343FA
:1054EC000366012070BD0000F0B55C24045D022C45
:1054FC0000D09FE040290BD00468982565592D07F2
:10550C0031D1026E80235B0013430366012096E0C9
:10551C000468902565592D0706D1026E80235B0027
:10552C001343036601208AE09025665980256D049B
:10553C0037002F402E4208D0802566598135FF3523
:10554C0037002F402E4200D00127902565592D0A97
:10555C0003242C40BC46A444856C6446E40064449B
:10556C00E4002D191CE09825665980256D04370040
:10557C002F402E4207D080256659803537002F40AA
:10558C002E4200D00127982565592D0A03242C4062
:10559C00BC46A444C56C6446E4006444E4002D1984
:1055AC002C688026F6053440546028D12C68A40C55
:1055BC006405640D14602C688026B6053440946034
:1055CC002C68E40FE40714616C682404240CD46187
:1055DC00EE880F243440D4606C6880267603344007
:1055EC0054616C688026B60334409461EE797F2454
:1055FC00344014626C68E40F5462002408E02C6898
:10560C00E400E4081460D6E72E19367A1E550134EE
:10561C00D6680B4FBE5DA642F6D8402905D002686D
:10562C009C236146D150002009E002689423614616
:10563C00D150F8E7036E0822134303660120F0BD36
:10564C00CC0E0108402905D002689823D3580F20AE
:10565C001840704702689023D3580F201840F8E781
:10566C0010B5041E60D04123C35C002B48D04123ED
:10567C002422E2542268136801218B43136063686F
:10568C0022682A490B4013612268936828490B4011
:10569C009360E368012B39D0A168226884231B0234
:1056AC000B439360E368022B37D02268536821497F
:1056BC000B405360226851681F4B0B4353602268A8
:1056CC00D3681B490B40D360236962691343A269F9
:1056DC00120221681343CB60E369216A22680B43F1
:1056EC0013602268136801210B4313600023636469
:1056FC0041221F31A15423630132A354002010BD59
:10570C0040330022C254FEF711F9B0E7A1682268B9
:10571C0080231B020B439360C4E7226851688023EB
:10572C001B010B435360C5E70120E8E7FFFFFFF0C7
:10573C00FF7FFFFFFFF7FFFF00800002F0B5412362
:10574C00C35C202B20D12033C35C012B1ED0402402
:10575C00012202554125242343550668336893439F
:10576C003360066833680A4F3B4033600668336821
:10577C000B43336001680B6813430B6020234355C4
:10578C00002303550020F0BD0220FCE70220FAE7BD
:10579C00FFEFFFFFF0B54123C35C202B1ED120335C
:1057AC00C35C012B1CD0402401220255412524232B
:1057BC004355066833689343336006683368094F72
:1057CC003B4009021943316001680B6813430B60BD
:1057DC0020234355002303550020F0BD0220FCE795
:1057EC000220FAE7FFF0FFFFF0B5D6464F464646DB
:1057FC00C0B582B006000D0090461F00FFF7A2FC5A
:10580C000A9B181A8146B944FFF79CFC82462C4B24
:10581C001B685B011B0D4A465343019333689C681C
:10582C002C40641B63425C41444542D07B1CF5D048
:10583C00FFF788FC5346C01A484508D2019A002A43
:10584C0000D04A46019B013B01939146E6E7326842
:10585C005368E0218B435360726882235B009A4249
:10586C000CD0B26A80239B019A4216D05D23012290
:10587C00F254013B0022F25403201BE0B368802257
:10588C001202934203D08022D2009342E9D13268B3
:10589C00136840218B431360E3E7326813680949AE
:1058AC000B4013603268116880239B010B4313601B
:1058BC00DCE7002002B0E0BCBA46B146A846F0BD19
:1058CC0020000020FFDFFFFFF0B5DE4657464E46B6
:1058DC004546E0B583B007000D00160098466B46B0
:1058EC000022DA70FFF72EFC0C9B181A40448146FC
:1058FC00FFF728FC82463B689B46344B1B689A009A
:10590C00D218D3009B1A1B0D4A465343019302E055
:10591C004346013311D13B689C682C40B4424DD0B6
:10592C00C023DB009D42F3D1002EF1D15B461B7BE3
:10593C00DBB26A46D370D378EAE7FFF703FC534631
:10594C00C01A484508D2019A002A00D04A46019B49
:10595C00013B01939146DEE73A685368E0218B43A3
:10596C0053607A6882235B009A420CD0BA6A802317
:10597C009B019A4216D05D230122FA54013B00226E
:10598C00FA5403201BE0BB6880221202934203D01E
:10599C008022D2009342E9D13A68136840218B43AC
:1059AC001360E3E73A68136809490B4013603A68DF
:1059BC00116880239B010B431360DCE7002003B0CC
:1059CC00F0BCBB46B246A946A046F0BD2000002064
:1059DC00FFDFFFFF70B582B004000D001600C02180
:1059EC0000922B0000224901FFF76EFF002818D10E
:1059FC0000962B00002280212000FFF7F5FE0028E6
:105A0C0016D1C02100962B000022C9002000FFF700
:105A1C005BFF00280AD0236E202213432366032049
:105A2C0004E0236E202213432366032002B070BDD2
:105A3C00236E2022134323660320F7E770B5041E60
:105A4C0000D178E0436A002B07D142680533FF335D
:105A5C009A4205D00023C36102E000230361436135
:105A6C000023A3625D33E35C002B5AD05D2302223A
:105A7C00E2542268136840218B431360E368E022F0
:105A8C00D200934254D90022F02109018B4205D057
:105A9C00E021C9008B4201D00023A36263688221FC
:105AAC0049000B40A1688420000201400B4320698F
:105ABC00022101400B436069012108400343A069A6
:105ACC008025AD0028400343E56938202840034376
