:020000040800F2
:100000000040022089A50008414A0008434A000830
:1000100000000000000000000000000000000000E0
:10002000000000000000000000000000454A000839
:100030000000000000000000474A0008494A00088C
:10004000D9A50008D9A50008D9A50008D9A5000898
:10005000D9A50008D9A50008D9A50008D9A5000888
:10006000D9A50008554A0008D9A50008D9A5000857
:10007000D9A50008D9A50008D9A50008D9A5000868
:10008000D9A50008D9A50008D9A50008D9A5000858
:10009000D9A50008D9A50008D9A50008D9A5000848
:1000A000D9A50008D9A50008D9A50008D9A5000838
:0C00B000D9A50008D9A50008D9A50008B2
:1000BC0002780B78002A03D0013001319A42F7D034
:1000CC00D01A70470023C25C0133002AFBD1581EA2
:1000DC007047000002B4714649084900095C4900A8
:1000EC008E4402BC7047C04603B4714649084000B8
:1000FC004900095E49008E4403BC7047002934D086
:10010C000123002210B488422CD301242407A142DD
:10011C0004D2814202D209011B01F8E7E400A1429A
:10012C0004D2814202D249005B00F8E7884201D335
:10013C00401A1A434C08A04202D3001B5C0822430D
:10014C008C08A04202D3001B9C082243CC08A0427E
:10015C0002D3001BDC082243002803D01B0901D06A
:10016C000909E3E7100010BC704701B5002000F04E
:10017C005FF802BD0029F8D003B5FFF7C1FF0EBC34
:10018C004243891A1847C046002941D010B40400D4
:10019C004C40A44601230022002900D549420028E6
:1001AC0000D5404288422CD301242407A14204D21A
:1001BC00814202D209011B01F8E7E400A14204D2FA
:1001CC00814202D249005B00F8E7884201D3401A11
:1001DC001A434C08A04202D3001B5C0822438C0833
:1001EC00A04202D3001B9C082243CC08A04202D39D
:1001FC00001BDC082243002803D01B0901D009098D
:10020C00E3E710006446002C00D5404210BC704758
:10021C0001B5002000F00CF802BDC0460029F7D053
:10022C0003B5FFF7B3FF0EBC4243891A1847C0460B
:10023C007047C0468446100062468C4619006346DF
:10024C0000E0C0461FB510F0FDF9002801D40021D4
:10025C00C8421FBD10B510F04FF94042013010BD1F
:10026C0010B510F0EFF9002801DB002010BD0120C3
:10027C0010BDC04610B510F0E5F9002801DD0020D6
:10028C0010BD012010BDC04610B510F077F9002844
:10029C0001DC002010BD012010BDC04610B510F0CF
:1002AC006DF9002801DA002010BD012010BDC046F8
:1002BC00844608006146FFE71FB50FF076F800286A
:1002CC0001D40021C8421FBD10B50FF00BF84042FD
:1002DC00013010BD10B50FF068F8002801DB0020CC
:1002EC0010BD012010BDC04610B50FF05EF80028FF
:1002FC0001DD002010BD012010BDC04610B50FF06F
:10030C0016F8002801DC002010BD012010BDC046ED
:10031C0010B50FF00CF8002801DA002010BD0120F8
:10032C0010BDC046002B11D1002A0FD1002900D1DD
:10033C00002802D00021C943080007B4024802A1DA
:10034C004018029003BDC046E9FEFFFF03B46846A7
:10035C0001B502980EF0F2FC019B9E4602B00CBC5B
:10036C007047C04603B47146490840004900095A19
:10037C0049008E4403BC7047D0400B00D1409C46D2
:10038C00203AD34018435242634693401843704777
:10039C009140030090409C46203A934019435242AE
:1003AC006346D340194370471C2101231B04984218
:1003BC0001D3000C10391B0A984201D3000A0839EA
:1003CC001B09984201D30009043902A2105C4018A1
:1003DC007047C04604030202010101010000000045
:1003EC000000000010B5002903D1FFF7DDFF20301D
:1003FC0002E00800FFF7D8FF10BDC04610B5064C50
:10040C002378002B07D1054B002B02D0044800E0C9
:10041C0000BF0123237010BD180200200000000053
:10042C009C130108044B10B5002B03D0034904485E
:10043C0000E000BF10BDC046000000001C02002000
:10044C009C130108BFF34F8F034B044ADA60BFF3D0
:10045C004F8FC046FDE7C04600ED00E00400FA05F2
:10046C0082B00023019302E0019B01330193019BB5
:10047C00312BF9DD02B07047F0B5CE46474680B55A
:10048C0089B003AC1422002120000BF0BDFF2A4BD5
:10049C005A6B012632435A635A6B32400092009ACF
:1004AC005A6B022188460A435A635A6B0A400192DE
:1004BC00019A596B0822114359635B6B1A400292E3
:1004CC00029B1E4F00220321380006F058F801222F
:1004DC000421380006F053F8194B994600220D21DF
:1004EC00180006F04CF80396049600250595069521
:1004FC002100380005F07CFF062303930496059633
:10050C0006952100380005F073FF0D230393049624
:10051C00059506952100484605F06AFF434603936E
:10052C00049505952100484605F062FF09B0C0BC52
:10053C00B946B046F0BDC046001002400004005061
:10054C00000C005000B583B0094A916B012319438C
:10055C009163926B13400193019B002200210920AF
:10056C0006F05AFA092006F05BFA03B000BDC0464B
:10057C000010024000B583B00190012304485B4297
:10058C00012201A907F06DFC019803B000BDC04623
:10059C00001C002010B582B06B46DC1D00232370BC
:1005AC00013304485B420122210007F0D7FC20787C
:1005BC0002B010BD001C002010B50268074B9A4217
:1005CC0000D010BD064B1B8806485843064B1988B3
:1005DC0089B2FFF793FD054B1880F2E70024014028
:1005EC00AA75FF1FB80B000030000020D81B00209C
:1005FC0010B5040081898068002205F0C0FFFE233D
:10060C009B0523610023636110BD70B50400A188B4
:10061C00206805F0ADFF0128F9D00026002500E088
:10062C000136172E16DCA189A068012205F0A7FF60
:10063C00FFF716FF6D00A189A068002205F09FFF4F
:10064C00FFF70EFFA188206805F092FF0028E7D085
:10065C000135E5E7A189A068012205F090FFFFF7BD
:10066C00FFFEA189A068002205F089FFFFF7F8FEC4
:10067C002B0202D5FF231B061D43280070BD10B5AD
:10068C000400FFF7C2FF6369C01A24690FF064F914
:10069C00211C0EF045FD10BD70B504000D1C101C86
:1006AC000FF03CF96061256170BD000010B50400CD
:1006BC00074B1B68002B00D010BDFFF703FD012377
:1006CC0082B204485B42210007F0CBFBF4E7C04642
:1006DC00A81B0020001C002084B010B502900391D0
:1006EC00049205930D4B1B68002B0CD00C4B1A6815
:1006FC00693A53009B180B4A12689B18013B0A4A33
:10070C000A490968D1540A48FFF7D0FF034B00226D
:10071C001A6010BC08BC04B01847C046D41B00209B
:10072C00D01B0020C81B0020E01B0020CC1B00208D
:10073C00B813010884B010B590B0129013911492B4
:10074C0015931A4C6378A078000218430004001427
:10075C000FF002F9FA2189050EF066FE6378FF2B83
:10076C0014D0134B1B68002B1ED0124C10F05EFDE6
:10077C0002000B00210068460BF03AFD6846FFF7BB
:10078C0095FF10B010BC08BC04B01847A378FF2B21
:10079C00E7D1074B1B68002B04D0074968460BF0C8
:1007AC0027FDEBE70549F9E7054CDFE7F41B0020D3
:1007BC00DC1B0020D4130108C0130108C813010866
:1007CC00DC13010884B010B50290039104920593D8
:1007DC000D4B5B78002B0CD00C4B1B68002B06D000
:1007EC000B48FFF763FF10BC08BC04B0184709485E
:1007FC00F7E7064B1B68002B03D00748FFF756FFA3
:10080C00F1E70648FAE7C046F41B0020DC1B002089
:10081C00EC130108F4130108001401080814010872
:10082C0084B010B590B012901391149215930A4B9A
:10083C0059789A7812020A43D9781B791B020B4318
:10084C00064968460BF0D4FC6846FFF72FFF10B042
:10085C0010BC08BC04B01847F41B00201414010889
:10086C0084B070B590B014901591169217932E4BCE
:10087C005C780220185E0FF06FF8F62189050EF0F7
:10088C00D3FD2A4B1B68002B19D0294E10F0CEFC3F
:10089C0002000B00310068460BF0AAFC6846FFF71B
:1008AC0005FF002C0FD1214B1B68002B09D02148D0
:1008BC00FFF7FCFE10B070BC08BC04B018471E4E0D
:1008CC00E4E71E48F4E7E30706D5184B1B68002B3A
:1008DC0021D01B48FFF7EAFEA30706D5134B1B6874
:1008EC00002B1AD01748FFF7E1FE630706D50F4B14
:1008FC001B68002B13D01448FFF7D8FE240706D52D
:10090C000A4B1B68002B0CD01048FFF7CFFE104889
:10091C00FFF7CCFECEE70F48DCE70F48E3E70F48C4
:10092C00EAE70F48F1E7C046F41B0020DC1B00206F
:10093C002C1401084414010834140108481401084B
:10094C00E42D01085C1401086C1401087C140108E6
:10095C009014010854140108601401087014010863
:10096C008014010870B590B006F0B6F80400194870
:10097C00402106F031FB002806D106F0ADF8001B33
:10098C00FA235B009842F2D31248402106F024FB74
:10099C00002817D0104B06AD0E482A00402106F057
:1009AC006DFA0E4C0AAB6A4643CB43C243CB43C2EF
:1009BC0006980799089A099B2568A847084B236055
:1009CC0010B070BD0748FFF771FE074B00221A608C
:1009DC00F6E7C046901E0020F41B00202C000020DF
:1009EC00E506000888140108D41B002070B58AB0F5
:1009FC0005000E0001AC2422002120000BF004FDA8
:100A0C00064B1B680193049605482A00210006F04A
:100A1C000BFAFFF7A7FF0AB070BDC046FC1B002005
:100A2C00901E002010B582B0074B1B68002B01D024
:100A3C0002B010BD0549020068460BF0D9FB6846B0
:100A4C00FFF734FEF4E7C046A81B002094140108FD
:100A5C0070B58CB0060003AC2422002120000BF0F2
:100A6C00D3FC01AD0822002128000BF0CDFC2E7028
:100A7C00064B1B6803930123069305482A002100AB
:100A8C0006F0D2F9FFF76EFF0CB070BDFC1B002016
:100A9C00901E0020F0B5C64600B582B00500884611
:100AAC000192002300E00133274A17689F4208DDBA
:100ABC00264A942159438A58AA42F4D1234C0C1942
:100ACC0000E00024202F34D0002C0DD000276668C5
:100ADC00BE4211DD3801083020184146FFF7E8FA14
:100AEC00002828D00137F2E794207843174C0419DA
:100AFC00154B01371F60E9E7082E21D04046FFF760
:100B0C00E1FA0E281ED830010830201841460BF0AF
:100B1C0036FD636801331A01A2180199D171636023
:100B2C002560200088300C2200210BF06DFC002089
:100B3C0002E0012000E0022002B080BCB846F0BD0B
:100B4C000320F9E70420F7E7A41B00202409002068
:100B5C0070B50600184B012252421A600025174B43
:100B6C001B68AB4223DD002400E00134144B9422BB
:100B7C006A439B185B68A34217DD230194226A43E6
:100B8C00981808300E4BC0183100FFF791FA002866
:100B9C00EBD10B4A01342301942169435B18D31820
:100BAC00D879054B1860885870BD0135D7E73000EF
:100BBC0009F012FDF8E7C046C41B0020A41B00205E
:100BCC0024090020F0B5DE4657464E464546E0B5B2
:100BDC00664CA544DBAC2422002120000BF014FC55
:100BEC000822002102A80BF00FFC0123DE93604BBE
:100BFC001B68002B2AD05F4802AADBA906F014F967
:100C0C0005F06AFF040000239A4605F065FF001BFF
:100C1C00FA235B0098421DD25648402106F0DCF9BD
:100C2C000028F2D053469B005344DB0013AAD21881
:100C3C0050486B46402106F021F96B465A780EABB2
:100C4C0051465A5401239C46E244DEE74A48FFF7DA
:100C5C002DFDD0E70023984655E04848FFF726FDC8
:100C6C00474B6A1C120192199B18D879FFF7DAFED0
:100C7C0018E00135424B942262439B185B68AB42EF
:100C8C001CDD280194266643801908303C4B9B469A
:100C9C005844FFF70BFD6B1C1B019B195B44DB7964
:100CAC00FF2BDAD1364B942262439B185B68013BD5
:100CBC00AB42DED03348FFF7F9FCDAE73248FFF7F6
:100CCC00F5FC0134314B1B68A3420ADD2C4B9422FA
:100CDC006243D3589F42F4D12D48FFF7E7FC00251F
:100CEC00C8E72C48FFF7E2FC0EAB4A469B5C042B92
:100CFC0024D92948FFF7DAFC2848FFF7D7FC4346EC
:100D0C000133DBB29846C146D0451DDA04A94346EF
:100D1C009A004244D20013AB9B180A0031CB31C26B
:100D2C0013CB13C213CB13C21B681360049F3F0475
:100D3C003F0C3800FFF776FE0024C3E7184A9B00EF
:100D4C009858FFF7B3FCD7E7094B1B68002B08D06A
:100D5C00E5239B009D44F0BCBB46B246A946A04689
:100D6C00F0BD1048FFF7A2FCF2E7C0466CFCFFFF99
:100D7C00DC1B0020901E002098140108AC14010804
:100D8C0024090020B0140108B4140108A41B00208D
:100D9C003C220108B8140108BC1401089014010885
:100DAC0000000020C4140108F8B505000E000F68FF
:100DBC000A4938000BF030FB04000200390028000F
:100DCC000BF0F0FB2D1900232B7033681A5D002AF1
:100DDC0000D001341B193360F8BDC046A0220108B5
:100DEC0070B505000378002B0ED000242800FFF707
:100DFC0069F9A04206D92B5D303BDBB2092B05D833
:100E0C000134F3E7012000E0002070BD0020FCE776
:100E1C0010B5034B01221A600248FFF747FC10BDC6
:100E2C0020090020D414010810B5CAB0019042ACBE
:100E3C0001A92000FFF7B8FF2A492000FFF738F975
:100E4C0000281BD0284942A8FFF732F900281AD0F5
:100E5C00264942A8FFF72CF9002819D1244B1B680E
:100E6C00002B13D02349244B1A8802AC20000BF022
:100E7C00BFF92000FFF71AFC4AB010BD1F48FFF75E
:100E8C0015FCFFF7DFFAFFF79DFEF5E71C49EAE7D3
:100E9C0042AB1B78002B0CD11A4B01221A60144B5D
:100EAC001B68002B03D01848FFF700FCE4E7174839
:100EBC00FAE7144B01221A600D4B1B68002B0AD069
:100ECC001348FFF7F3FB0A4B1B68002B05D01148A6
:100EDC00FFF7ECFBD0E71048F3E742A8FFF7E6FB7F
:100EEC00F5E7C046B81E0108D41E0108DC1E010837
:100EFC00DC1B0020541E0108D81B0020C01E01085A
:100F0C005C1E0108200900206C1E0108781E0108D7
:100F1C00941E0108901401089C1E0108F0B5C646E9
:100F2C0000B58AB0019002AC01A92000FFF73CFF8C
:100F3C0080492000FFF7BCF8002810D07E4902A899
:100F4C00FFF7B6F80090002800D075E00198FFF785
:100F5C00FFFD8046002809D000990D0052E077482B
:100F6C00FFF7A4FB0AB080BCB846F0BD744B01225D
:100F7C001A60744B1B68002B03D07348FFF796FB69
:100F8C00F0E77248FAE77248FFF790FB4046FFF72C
:100F9C0049FD7048FFF78AFB42E06F48FFF786FB7C
:100FAC006E4B721C1201D2199B18D879FFF73AFDBF
:100FBC0017E00136694B94226A439B185B68B34275
:100FCC001BDD330194276F43D8190830634C00198B
:100FDC00FFF76CFB731C1B01DB19E318DB79FF2B90
:100FEC00DBD15E4B94226A439B185B68013BB34296
:100FFC00DFD05B48FFF75AFBDBE75A48FFF756FB9D
:10100C0001210135584B1B68AB420BDD534B94222D
:10101C006A43D3584345F4D14A4B1B68002BB2D0DA
:10102C00009EC7E700299DD1464B1B68002B99D128
:10103C004E48FFF73BFB95E702A8FFF789FD041E1E
:10104C0025D0019B1B78002B09D13D4B01221A6046
:10105C003C4B1B68002B24D03B48FFF727FB01A916
:10106C0002A8FFF7A1FE019D2B78002B21D02800B0
:10107C00FFF7B6FE002816D1314B01221A60314B16
:10108C001B68002B13D03048FFF710FB6AE72D4B81
:10109C001B68002B03D02C48FFF708FB62E7344891
:1010AC00FAE73448D9E7280009F096FA03E031480A
:1010BC00EAE701204042C2B202A92000FFF7EAFC95
:1010CC0001280DD0022815D003281DD0042825D0C6
:1010DC001C4B1B68002B2BD02748FFF7E7FA41E786
:1010EC00184B1B68002B03D02448FFF7DFFA39E7B5
:1010FC002348FAE7134B1B68002B03D01F48FFF75C
:10110C00D5FA2FE71F48FAE70E4B1B68002B03D0CC
:10111C001A48FFF7CBFA25E71B48FAE7094B1B687F
:10112C00002B03D01548FFF7C1FA1BE71748FAE765
:10113C001748D2E7D81F0108D41E0108E01F010888
:10114C0020090020DC1B00206C1E0108E01E010899
:10115C00E81F010810270108AC140108240900201D
:10116C00B014010890140108A41B0020FC1F0108F6
:10117C00001F0108281F0108B8130108541F01089B
:10118C005C1F0108781F0108941F0108B01F01089B
:10119C00C41F010810B58AB0019002AC01A920004F
:1011AC00FFF702FEB8492000FEF782FF00282CD082
:1011BC00B64902A8FEF77CFF002800D18CE0B449A8
:1011CC0002A8FEF775FF002800D1E2E0B14902A8A1
:1011DC00FEF76EFF002800D1FEE0AF4902A8FEF733
:1011EC0067FF002800D12CE102AB1B78002B00D04C
:1011FC007CE1AA4B01221A60A94B1B68002B00D181
:10120C003FE1A848FFF752FA33E00198FFF7A0FC42
:10121C00002827D0A44B1860A14B1B68002B2CD0A6
:10122C00A24B01221A60A24B9F4A12681A60A14B72
:10123C0000221A60A04B1B68A04A1360012B23D01C
:10124C00022B2DD0032B37D0954B1B68002B3FD096
:10125C000220FFF7FDFB0420FFF7FAFB0620FFF747
:10126C00F7FB06E08E4B1B68002B04D08D48FFF774
:10127C001DFA0AB010BD9248F9E70198FFF716FA6B
:10128C009048FFF713FACBE7854B1B68002B03D074
:10129C000220FFF7DDFBECE78B48FFF707FAF7E7D7
:1012AC007F4B1B68002B03D00420FFF7D1FBE0E73A
:1012BC008548FFF7FBF9F7E7794B1B68002B03D048
:1012CC000620FFF7C5FBD4E77F48FFF7EFF9F7E7F8
:1012DC007E48FFF7EBF9BBE70198FFF739FC0028D4
:1012EC0020D0714B18606E4B1B68002B24D06F4BB9
:1012FC0001221A606E4B6C49096819606D4B1A60BB
:10130C006D4B1B686D4A1360012B1CD0022B26D031
:10131C00032B30D0624B1B68002B38D06148FFF791
:10132C00C5F9A6E75E4B1B68002B03D05D48FFF7A1
:10133C00BDF99EE76248FAE70198FFF7B7F96148F3
:10134C00FFF7B4F9D3E7564B1B68002B03D00120F1
:10135C00FFF77EFB8DE75E48FFF7A8F9F7E7504BE8
:10136C001B68002B03D00320FFF772FB81E7584862
:10137C00FFF79CF9F7E74A4B1B68002B03D00520BD
:10138C00FFF766FB75E75248FFF790F9F7E751480E
:10139C00C5E70198FFF7DCFB00280CD0424B186026
:1013AC003F4B1B68002B10D04B4B4C4A1A60202033
:1013BC00FFF74EFB5DE73A4B1B68002B03D0394817
:1013CC00FFF774F955E73E48FAE70198FFF76EF915
:1013DC003C48FFF76BF9E7E70198FFF7B9FB0028EA
:1013EC0014D0354B1B68013B022B19D82E4B1860BF
:1013FC002B4B1B68002B1DD0374B394A1A602E4BD8
:10140C0018680F30C0B2FFF723FB32E7244B1B6880
:10141C00002B03D02348FFF749F92AE72848FAE7BD
:10142C001F4B1B68002B03D01E48FFF73FF920E72A
:10143C002848FAE70198FFF739F92248FFF736F9FF
:10144C00DAE70198FFF784FB002809D0164B1860E7
:10145C00134B1B68002B0DD0FF20FFF7F9FA08E7A0
:10146C000F4B1B68002B03D00E48FFF71FF900E74A
:10147C001348FAE70198FFF719F91A48FFF716F91C
:10148C00EAE71948BEE6C0469C200108D0200108B6
:10149C00E8200108F0200108B81E010820090020EE
:1014AC00DC1B00206C1E0108FC1B0020D41B002040
:1014BC00D01B0020CC1B0020C41B0020C81B00200C
:1014CC001820010810270108A0200108B8200108E5
:1014DC00D4200108382001082C0000202D08000819
:1014EC00D1070008F42001085C2001080B4B0122F5
:1014FC001A600B4B1B68002B0AD00A48FFF7D6F872
:10150C00074B1B68002B05D00748FFF7CFF8B0E658
:10151C000648F3E702A8FFF7C9F8F5E72009002011
:10152C00DC1B0020941E0108901401087C2001088B
:10153C00F0B5C64600B584B0060088460C220021E2
:10154C0001A80AF061FF002500272EE094276F43C5
:10155C0088372B4BFF183B68002B0AD101333B60BB
:10156C00F433FF333B81274B7B810023BB80B433A7
:10157C00FB80BA8842453FD8F98841453ED3434663
:10158C009B1A9BB23C897889001B5843891AFEF739
:10159C00B5FD201880B204B080BCB846F0BD9427CD
:1015AC006F438837164BFF180135174B1B68AB423E
:1015BC001EDD134B94226A43D458300009F00CF80A
:1015CC008442C3D000240E4B94226A439B185B6860
:1015DC00A342E9DD230194226A4398180830084B92
:1015EC00C0183100FEF764FD0028D8D00134EAE7BA
:1015FC00002FB0D101AFAEE70020CCE70020CAE746
:10160C0024090020C4090000A41B0020F0B585B0FB
:10161C0006000C22002101A80AF0F6FE0025002786
:10162C001CE094276F4388371F4BFF183B68002B37
:10163C000AD101333B60F433FF333B811B4B7B817D
:10164C000023BB80B433FB800437380005B0F0BDF9
:10165C0094276F438837144BFF180135144B1B68C4
:10166C00AB421EDD104B94226A43D458300008F074
:10167C00B3FF8442D5D000240B4B94226A439B18B1
:10168C005B68A342E9DD230194226A439818083071
:10169C00054BC0183100FEF70BFD0028D8D00134E3
:1016AC00EAE7002FC2D1D0E724090020C4090000CA
:1016BC00A41B002070B584B005000E000C22002184
:1016CC0001A80AF0A1FE002300E00133194A1268B8
:1016DC009A420ADD184A94245C43A258AA42F4D1D7
:1016EC0023008833144A9B1800E001AB1A68002AC7
:1016FC000AD101321A60F432FF321A810F4A5A8130
:10170C0000229A80B432DA809A88B24200D916004C
:10171C00D988B14200D20E00B61AB6B21C895889CB
:10172C00001B7043891AFEF7E9FC201880B204B044
:10173C0070BDC046A41B002024090020C409000071
:10174C0070B58CB0019004AC01A92000FFF72CFB04
:10175C00B4492000FEF7ACFC00282CD0B24904A8F8
:10176C00FEF7A6FC002800D186E0B04904A8FEF7DD
:10177C009FFC002800D1DFE0AD4904A8FEF798FCDF
:10178C00002800D191E1AB4904A8FEF791FC002898
:10179C0000D1FCE104AB1B78002B00D01CE2A64B63
:1017AC0001221A60A54B1B68002B00D112E2A44841
:1017BC00FEF77CFF23E00198FFF7CAF9002817D049
:1017CC00A04B18609D4B1B68002B1CD09E4B1B68BC
:1017DC00012B1FD0022B29D0032B33D0042B3DD04F
:1017EC00964B1B68002B45D09548FEF75FFF06E033
:1017FC00924B1B68002B04D09148FEF757FF0CB09E
:10180C0070BD9248F9E70198FEF750FF9048FEF73B
:10181C004DFFDBE7894B1B68002B03D00120FFF742
:10182C0017F9ECE78B48FEF741FFF7E7834B1B6892
:10183C00002B03D00220FFF70BF9E0E78548FEF7F9
:10184C0035FFF7E77D4B1B68002B03D00320FFF718
:10185C00FFF8D4E77F48FEF729FFF7E7774B1B68C3
:10186C00002B03D00420FFF7F3F8C8E77948FEF704
:10187C001DFFF7E77848B8E70198FFF769F90028EA
:10188C0017D0704B18606D4B1B68002B1BD06E4B28
:10189C001B68012B1ED0022B28D0032B32D0042B1B
:1018AC003CD0664B1B68002B44D06C48FEF7FEFE08
:1018BC00A5E7624B1B68002B03D06148FEF7F6FED0
:1018CC009DE76248FAE70198FEF7F0FE6048FEF7E4
:1018DC00EDFEDCE7594B1B68002B03D00520FFF70E
:1018EC00B7F88CE75E48FEF7E1FEF7E7534B1B6851
:1018FC00002B03D00620FFF7ABF880E75848FEF723
:10190C00D5FEF7E74D4B1B68002B03D00720FFF7E4
:10191C009FF874E75248FEF7C9FEF7E7474B1B6880
:10192C00002B03D00820FFF793F868E74C48FEF72C
:10193C00BDFEF7E74848B9E704AC01A92000FFF762
:10194C0033FA2000FFF704F9002809D13B4B1B6840
:10195C00002B03D03A48FEF7A9FE50E73B48FAE7C4
:10196C0004AD2800FFF752FE040001A92800FFF780
:10197C001BFA3C492800FEF79BFB00280FD10434CE
:10198C0001980378002B3FD12C4B1B68002B31D0D6
:10199C002088FFF747F83448FEF788FE2FE73349D5
:1019AC0004A8FEF785FB002801D10634E8E730498E
:1019BC0004A8FEF77DFB0028E2D02E4904A8FEF710
:1019CC0077FB002801D10234DAE71C4B1B68002B93
:1019DC000AD02248FEF76AFE184B1B68002B05D074
:1019EC002148FEF763FECBE72348F3E704A8FEF794
:1019FC005DFEF5E72148FEF759FE04A8FEF756FEFA
:101A0C001F48FEF753FEC3E708F0E6FD050086B25B
:101A1C000A4B1B68002B37D01A48FEF747FE26806E
:101A2C00EDE6C046D02001089C200108D821010811
:101A3C0020220108B81E010820090020DC1B002010
:101A4C006C1E0108FC1B0020C41B00201820010880
:101A5C0010270108AC21010808210108941E010877
:101A6C00C0210108DC21010890140108E4210108BF
:101A7C00EC210108F82101082C210108042201089D
:101A8C000C220108B81301085F48FEF70FFE04A8EA
:101A9C00FEF70CFE5D48FEF709FE2804000CFEF76D
:101AAC00C1FF5B48FEF702FEB9E704AC01A92000B8
:101ABC00FFF77AF92000FFF74BF8564B1860002817
:101ACC0009D1554B1B68002B03D05448FEF7EEFD93
:101ADC0095E65348FAE7019808F07EFD040081B2C0
:101AEC0000290DD1019B1B78302B09D04A4B1B6868
:101AFC00002B03D04B48FEF7D9FD80E64A48FAE7A5
:101B0C0004A8FFF715FD051E29D0484B1B68013BA7
:101B1C00032B2ED8404B1B68002B34D10198FEF7B9
:101B2C00C5FD4348FEF7C2FD2004000CFEF77AFF0A
:101B3C004048FEF7BBFD2800FEF774FF3E48FEF759
:101B4C00B5FD3A4B1B68103303A803700D236B448F
:101B5C001D702D0A5D700321FEF748FF4FE62E4BDA
:101B6C001B68002B03D02F48FEF7A0FD47E6334837
:101B7C00FAE7294B1B68002B03D02848FEF796FD8B
:101B8C003DE62F48FAE72F48FEF790FDD9E701987C
:101B9C00FEF7DEFF00280FD01E4B18601E4B1B6893
:101BAC00002B13D10198FEF781FD2748FEF77EFD2F
:101BBC00FF20FEF74DFF22E6174B1B68002B03D0CE
:101BCC001648FEF773FD1AE61548FAE71D48FEF7AE
:101BDC006DFDEDE71D48EBE51D4B01221A600E4B28
:101BEC001B68002B0AD01B48FEF760FD0A4B1B68D4
:101BFC00002B05D00648FEF759FD00E61648F3E722
:101C0C0004A8FEF753FDF5E710220108182201087D
:101C1C0090140108FC1B0020DC1B00206C1E01082A
:101C2C0018200108541F010840210108C41B002082
:101C3C0024220108382201084022010854210108FD
:101C4C0008210108B8130108F42001086C210108CF
:101C5C0020090020941E01088C21010810B58AB0BF
:101C6C00019002AC01A92000FFF79EF86449200006
:101C7C00FEF71EFA00281CD0624902A8FEF718FADB
:101C8C00002849D0604902A8FEF712FA002878D043
:101C9C0002AB1B78002B00D098E05C4B01221A6041
:101CAC005B4B1B68002B00D18EE05A48FEF7FEFC04
:101CBC009DE00198FEF74CFF00280CD0564B1B689A
:101CCC00013B022B13D9524B1B68002B0DD05148F2
:101CDC00FEF7ECFC8BE04E4B1B68002B03D04D4801
:101CEC00FEF7E4FC83E04D48FAE74D48F0E74D4B36
:101CFC0018600198FEF7DAFC454B1B68002B07D0E7
:101D0C00494B4A4A1A60444B1878FEF7A1FE6EE024
:101D1C004748FEF7CBFCF3E70198FEF719FF0028C4
:101D2C000CD03D4B1B68013B022B13D9384B1B6865
:101D3C00002B0DD03748FEF7B9FC58E0344B1B682C
:101D4C00002B03D03348FEF7B1FC50E03348FAE7E0
:101D5C003348F0E7334B18600198FEF7A7FC2C4B87
:101D6C001B68002B09D0304B324A1A602A4B18687A
:101D7C000330C0B2FEF76CFE39E02D48FEF796FC3E
:101D8C00F1E70198FEF7E4FE00280FD0254B186010
:101D9C001F4B1B68002B13D10198FEF787FC2648BC
:101DAC00FEF784FCFF20FEF753FE20E0184B1B6867
:101DBC00002B03D01748FEF779FC18E01748FAE718
:101DCC001E48FEF773FCEDE71D486FE70F4B012231
:101DDC001A600F4B1B68002B0BD01A48FEF766FCE1
:101DEC000B4B1B68002B06D01748FEF75FFC0AB0A4
:101DFC0010BD1648F2E702A8FEF758FCF4E7C046FF
:101E0C00F0200108A4220108B81E010820090020B6
:101E1C00DC1B00206C1E0108C41B002018200108CC
:101E2C0048220108FC1B00202C0000204107000860
:101E3C00102701086D080008F4200108B8130108E8
:101E4C006C220108941E01089014010888220108D4
:101E5C0030B58BB0019002AC01A92000FEF7A4FFB5
:101E6C007D492000FEF724F900281DD07B4902A8EB
:101E7C00FEF71EF9002845D0794902A8FEF718F99B
:101E8C00002800D1A9E002AB1B78002B00D0C9E0E0
:101E9C00744B01221A60744B1B68002B00D1BFE0FD
:101EAC007248FEF703FCCEE00198FEF751FE0028C5
:101EBC000CD06F4B1B68013B022B13D96A4B1B6870
:101ECC00002B0DD06948FEF7F1FBBCE0664B1B689C
:101EDC00002B03D06548FEF7E9FBB4E06548FAE750
:101EEC006548F0E7654B18600198FEF7DFFB644826
:101EFC00FEF7DCFB634B644A1A605D4B1878FEF707
:101F0C00A7FDA0E002AC01A92000FEF74DFF2000C8
:101F1C00FEF71EFE041E09D1534B1B68002B03D089
:101F2C005248FEF7C3FB8EE05248FAE702AD01A916
:101F3C002800FEF739FF55492800FEF7B9F80028AC
:101F4C0000D080E001980378002B1DD1464B1B6814
:101F5C00002B0FD0913CFF3C63001B19444A1268C4
:101F6C009B184B4A5B00985AFEF75CFD4948FEF7FC
:101F7C009DFB68E04848FEF799FB2800FEF796FBAE
:101F8C004648FEF793FBE5E708F026FB913CFF3C47
:101F9C0063001C19364B1B68E3183D4A5B00D0529A
:101FAC00314B1B68002B03D03D48FEF77FFB4AE00A
:101FBC003C48FEF77BFB02A8FEF778FB3A48FEF79D
:101FCC0075FB2B4B1B68E418314B6400E05AFEF791
:101FDC0029FD3048FEF76AFB35E00198FEF7B8FDA5
:101FEC0000280FD0254B18601F4B1B68002B13D1FA
:101FFC000198FEF75BFB2D48FEF758FBFF20FEF720
:10200C0027FD20E0184B1B68002B03D01748FEF768
:10201C004DFB18E01748FAE72148FEF747FBEDE7C0
:10202C0023483EE70F4B01221A600F4B1B68002B15
:10203C000BD02048FEF73AFB0B4B1B68002B06D04D
:10204C001448FEF733FB0BB030BD1B48F2E702A877
:10205C00FEF72CFBF4E7C046F0200108D82101085C
:10206C00B81E010820090020DC1B00206C1E010892
:10207C00C41B002018200108AC220108FC1B002006
:10208C00102701082C000020012300080823010858
:10209C00B01B002090140108042201080C22010836
:1020AC00B81301081022010818220108F4200108B5
:1020BC00D0220108941E0108EC22010810B5D4B0FE
:1020CC001F4948A807F034FE002803D11D48FEF72D
:1020DC00EDFA15E01C48FEF7E9FA2FE0A0221204F5
:1020EC0093421FD91B0D194A194902AC00921222B6
:1020FC00FF326A4420000AF07BF82000FEF7D6FA83
:10210C0042A948A807F070FE002814D142AB5B7AB4
:10211C00002B10D0429B802212069342DED99B0FDB
:10212C000C4AE1E7A0229201934202D99B0A0A4A87
:10213C00DAE70A4AD8E748A807F041FE54B010BDC8
:10214C00AC140108382301081C23010810230108D2
:10215C004C2301080C23010814230108182301083F
:10216C0010B58AB0019002AC01A92000FEF71CFE4C
:10217C002E492000FDF79CFF00280CD02C4902A80A
:10218C00FDF796FF00280DD12A4A136802210B4354
:10219C0013600AB010BD0198FEF788FA2648FEF7C6
:1021AC0085FAF6E7254902A8FDF782FF002805D13C
:1021BC00204A136802218B431360EAE7204902A8E6
:1021CC00FDF776FF002803D11E4B01221A60E0E7D1
:1021DC001D4902A8FDF76CFF002803D1194B002202
:1021EC001A60D6E702AB1B78002B0CD1174B0122DF
:1021FC001A60144B1B68002B03D01548FEF756FAD7
:10220C00C7E71448FAE7114B01221A600D4B1B6803
:10221C00002B09D01048FEF749FA02A8FEF746FA3F
:10222C000548FEF743FAB4E70C48F4E79423010899
:10223C009C230108A81B002090140108A42301086A
:10224C00AC230108DC1B0020B4230108200900206A
:10225C006C1E01085C230108941E010878230108F8
:10226C00F8B507000E001500104C236803E0246835
:10227C004D34FF342368002BF9D1A820400008F01E
:10228C00B1F9206039000AF07AF92268A0235B00CA
:10229C00D65022680433D55021680023A622520060
:1022AC008B502168043A8B50F8BDC046B404002012
:1022BC0070B515009138FF384300181841180A4BB7
:1022CC004900C85A0DF08CFB041C28000DF044FB8F
:1022DC0006490DF0A1F9011C201C0DF0A5F80449CC
:1022EC000CF01EFF70BDC046B01B00200000FA436E
:1022FC0000007A4584B030B591B0149015911692C7
:10230C001793114B59789A7812020A43120412143B
:10231C000E4B1968FFF7CCFF0D4B1B68002B10D030
:10232C000C4D0EF083FF02000B002900684609F0EB
:10233C005FFF6846FEF7BAF911B030BC08BC04B0B8
:10234C001847054DEDE7C046F41B0020C41B0020C8
:10235C00DC1B0020D4130108BC23010884B010B589
:10236C000290039104920593084B59789A781202C3
:10237C000A4312041214064B1968FFF799FF054B18
:10238C00186010BC08BC04B01847C046F41B0020F1
:10239C00C41B0020AC1B0020064B1B6807E0A221CD
:1023AC0049005A58013A5A50A62252009B58002B09
:1023BC00F5D17047B404002030B59BB0019012AC3D
:1023CC0001A92000FEF7F0FCBE492000FDF770FECD
:1023DC0000282FD1BC4B1B68002B23D0BB4D04F025
:1023EC007BFB020002AC2900200009F001FF200059
:1023FC00FEF75CF9B64B1B68002B17D0B24B1B6871
:10240C00002B11D0B34D04F067FBB14B1A68821A44
:10241C0002AC2900200009F0EBFE2000FEF746F983
:10242C001BB030BDAC4DDAE7AC4DECE7AC48FEF779
:10243C003DF9F5E7AB4912A8FDF73AFE002826D086
:10244C00A94912A8FDF734FE002837D0A74912A8D5
:10245C00FDF72EFE002843D0A54912A8FDF728FE53
:10246C0000286BD0A34912A8FDF722FE051E00D050
:10247C00C5E0A14B1C68002C00D18DE0924B1B6871
:10248C00002B00D0A6E09D48FEF710F9A2E004F066
:10249C0023FB8F4B18608C4B1B68002B0CD0984D7A
:1024AC0004F01AFB020002AC2900200009F0A0FE87
:1024BC002000FEF7FBF8B3E7924DF1E7019808F026
:1024CC008BF8002809D1804B1B68002B03D08E4859
:1024DC00FEF7ECF8A4E78D48FAE704F003FB9FE75E
:1024EC0012AC01A92000FEF75FFC200008F074F884
:1024FC00041E03D001980378002B09D1724B1B6882
:10250C00002B03D08048FEF7D1F889E78048FAE722
:10251C0022000021FFF7A4FE6B4B1B68002B03D09D
:10252C007C48FEF7C3F87BE77B48FEF7BFF820003A
:10253C00FEF778FA7948FEF7B9F871E712AC01A901
:10254C002000FEF731FC200008F046F8041E03D0F2
:10255C0001980378002B09D15B4B1B68002B03D02F
:10256C006948FEF7A3F85BE76D48FAE72200210003
:10257C00FFF776FE544B1B68002B03D06548FEF723
:10258C0095F84DE76748FEF791F82000FEF74AFAF8
:10259C006248FEF78BF843E74B4B1B68002B03D0CC
:1025AC006148FEF783F83BE76048FAE76048FEF7BE
:1025BC007DF8A2235B00E058FEF734FA5D48FEF785
:1025CC0075F82000FEF772F84548FEF76FF8A62361
:1025DC005B00E458002C00D122E701352800FEF7FF
:1025EC0021FAA0235B00E358002BDFD05248FEF702
:1025FC005DF8A0235B00E058FEF714FADEE74F49C4
:10260C0012A8FDF755FD041E17D04D4912A8FDF771
:10261C004FFD041E00D1A5E012AB1B78002B00D09F
:10262C00EAE0484B01221A60274B1B68002B00D1B3
:10263C00E0E03548FEF73AF8F2E6019807F0CCFFF7
:10264C00002803D1019B1B78002B05D12A4B1B685A
:10265C00002B0BD0284919E01B4B1B68002B03D017
:10266C002948FEF723F8DBE63748FAE7164B1B68D8
:10267C00002B03D02C48FEF719F8D1E62B48FAE7CB
:10268C0019004D31FF31A62252009B58002B5DD012
:10269C000134A04206D00028F2D1A62252009A584A
:1026AC00002AEDD1A62252009A580A60180007F0B1
:1026BC00A3FF054B1B68002B52D01648FDF7F6FF05
:1026CC00AEE6C04674250108DC1B0020CC230108B3
:1026DC00B0040020E0230108D0230108E8230108FE
:1026EC00901401087C250108842501088C2501081B
:1026FC00B0250108D41E0108B4040020D02501081F
:10270C00FC230108002401086C1E01081424010894
:10271C0030240108B813010894250108A8250108E4
:10272C0058240108B82501088024010888240108D0
:10273C00EC250108F4250108E4250108FC25010815
:10274C009C230108200900209C240108364B1B689F
:10275C00002B03D03548FDF7A9FF61E63448FAE7B2
:10276C003448ABE7019807F037FF002803D1019BF1
:10277C001B78002B0BD1304B1B68002B16D12A4B2E
:10278C001B68002B0DD02D48FDF790FF48E6264B1B
:10279C001B68002B03D02548FDF788FF40E628482E
:1027AC00FAE72848F0E7A62252009B58002B15D0D8
:1027BC000134A04206D00028F5D1A62252009A5826
:1027CC00002AF0D1A4204000195801224A401A5086
:1027DC0001290DD01C48FDF769FF21E6124B1B683F
:1027EC00002B03D01148FDF761FF19E61048FAE7FA
:1027FC001648F0E716481DE7164B01221A600A4BE3
:10280C001B68002B0AD01448FDF750FF064B1B68C1
:10281C00002B05D01148FDF749FF01E61048F3E7FE
:10282C0012A8FDF743FFF5E7DC1B00206C1E010826
:10283C00BC240108D8240108B40400200C2501088C
:10284C00EC24010888240108142501082825010816
:10285C003C25010820090020941E01089014010851
:10286C005825010870B5B94CA5440190FFAC0C3447
:10287C0001A92000FEF798FAB5492000FDF718FCD5
:10288C00002832D1B34B1B68002B0BD101990B786C
:10289C00002B16D1B04B1B68002B10D0AF48FDF7A6
:1028AC0005FF06E0AC4B1B68002B06D0AC48FDF7CF
:1028BC00FDFE8523DB009D4470BDAA48F7E7AA48BE
:1028CC00EDE7AA48322206F097FE002803D1A14B6F
:1028DC0001221A60EDE7A04B1B68002B03D0A04827
:1028EC00FDF7E4FEE5E7A248FAE7A249FFA80C30A1
:1028FC00FDF7DEFB002831D1964B1B68002B09D16C
:10290C00954B1B68002B03D09548FDF7CFFED0E705
:10291C009948FAE78F4B00221A60944807F0A3F904
:10292C0000280CD08C4B1B68002B06D08C48FDF774
:10293C00BDFE8E4807F0E5F9BBE79048F7E78B48FA
:10294C0007F0DFF90028B4D0834B1B68002B03D0B1
:10295C008348FDF7ABFEACE78948FAE78949FFA845
:10296C000C30FDF7A5FB00281DD17A4B1B68002B02
:10297C0009D1794B1B68002B03D07948FDF796FEE3
:10298C0097E77D48FAE7794807F06DF9002800D100
:10299C008FE7714B1B68002B03D07148FDF786FE47
:1029AC0087E77648FAE77849FFA80C30FDF780FBFB
:1029BC00061E07D07549FFA80C30FDF779FB0028DF
:1029CC0000D044E1634B1B68002B01D002AC23E028
:1029DC00614B1B68002B03D06148FDF767FE68E76D
:1029EC006548FAE76D2B34D0742B00D007E104F066
:1029FC0073F802006649200009F0FAFB2000FDF78D
:102A0C0061FB019B1B78002B00D10BE12C23235481
:102A1C000130241800232370019B1B78002B00D15C
:102A2C0002E1FFAD0C3501A92800FEF7BDF92B78AA
:102A3C00632B58D0D6D84C2B00D1D4E0502B12D0CD
:102A4C00272B00D0DBE0FFA90D31200009F097FD0A
:102A5C00D4E704F041F84F4B1A68821A4C49200015
:102A6C0009F0C6FBCAE7FFA80D30FEF771F8002885
:102A7C0019D0494B1B685A1E022A2AD8474A1060A3
:102A8C00474D00222A60474A47491160D8B2FDF7EA
:102A9C00DFFF28680EF0CAFB02000B004349200040
:102AAC0009F0A6FBAAE72C4B1B68002B0AD0404868
:102ABC00FDF7FCFD284B1B68002B05D03D48FDF7AE
:102ACC00F5FDF6E63C48F3E7FFA80D30FDF7EEFD0B
:102ADC00F4E7214B1B68002B03D02048FDF7E6FDE3
:102AEC00E7E63648FAE7FFAB0C335B78732B16D06E
:102AFC00FFAB0C335B78652B1CD0FFAB0C335B78D6
:102B0C00612B65D0FFAB0C335B78742B00D075E771
:102B1C002B4B1A681E49200009F06AFB6EE7294B03
:102B2C0018680EF083FB02000B002749200009F007
:102B3C005FFBDDE7254B18680EF078FB02000B00FD
:102B4C002149200009F054FBD7E7C046D8FBFFFF12
:102B5C00142701086C020020DC1B00206C1E0108ED
:102B6C00541F0108042601082026010870020020C9
:102B7C00402601081C2701085C2601087426010860
:102B8C0090260108242701082C2701083427010866
:102B9C0094140108B0040020C41B0020FC1B00206E
:102BAC00AC1B00202C000020692300082C14010809
:102BBC00941E010890140108AC260108AC220108EF
:102BCC00A0040020AC0400203C270108A80400202D
:102BDC00344B18680EF02AFB02000B00324920001F
:102BEC0009F006FB8EE73148FDF749FD0EF01EFBA0
:102BFC0002000B002E49200009F0FAFAFEE62D4BDC
:102C0C001B68002B0CD02C48FDF750FD294B1B6882
:102C1C00002B00D04DE6FFA80C30FDF747FD48E631
:102C2C002648F1E70A23F2E6002E07D0214B1B6859
:102C3C00002B08D002A8FDF739FD3AE6204902A87E
:102C4C0007F08CFAF2E71F48FDF730FDF2E7FFAB17
:102C5C000C331B78002B0CD11B4B01221A60154B2B
:102C6C001B68002B03D01448FDF720FD21E6174804
:102C7C00FAE7154B01221A600E4B1B68002B0AD089
:102C8C001348FDF713FD0B4B1B68002B05D01148A7
:102C9C00FDF70CFD0DE61048F3E7FFA80C30FDF72F
:102CAC0005FDF4E7A40400203C27010814000020D3
:102CBC002C140108DC1B00206C1E0108C026010826
:102CCC00700200204427010820090020DC2601089E
:102CDC00941E010890140108F8260108F0B5C646A8
:102CEC0000B51A4B1B68002B05D0012B13D000200C
:102CFC0080BCB846F0BD164B164A12681A60164CCA
:102D0C0000232360154B164A1A60164B1878FDF7F2
:102D1C009FFE2068ECE70E4B0E4A12681A600E4CB0
:102D2C00002323600D4D0E4F2F600E4E3078FDF7B3
:102D3C008FFE236898462F6030680130C0B2FDF7D3
:102D4C0087FE216840460CF067FCD1E75C0200204E
:102D5C00FC1B002058020020AC1B00202C00002083
:102D6C00692300085402002010B582B00E4B1B687A
:102D7C00002B01D002B010BD0BF05CFF81B20B4CEC
:102D8C002068FEF797FC0300094A1268103201A86C
:102D9C0002706A4653711B0A9371064B22681A60C3
:102DAC000321FDF723FEE5E7500200204C02002032
:102DBC0048020020FC1B0020F0B5D1B0079008ACF5
:102DCC0007A92000FDF7F0FFC0492000FDF770F9BE
:102DDC00002831D107980378002B13D1BC4B1B680A
:102DEC00002B27D0BB4CBC4B18680EF01FFA02000E
:102DFC000B00210010A809F0FBF910A8FDF756FCF8
:102E0C0051B0F0BD07F0E3FB0EF052FA041CB04BCE
:102E1C001B68002B0CD0B14D201C0EF007FA0200E1
:102E2C000B00290010A809F0E3F9AB4B1C60E4E798
:102E3C00AB4DF1E7AB4CD6E7AB4908A8FDF738F939
:102E4C00002830D107980378002B12D1A04B1B68B7
:102E5C00002B26D09F4CA54B18680EF0E7F902000A
:102E6C000B00210010A809F0C3F910A8FDF71EFCF7
:102E7C00C6E707F0ACFB0EF01BFA041C944B1B6866
:102E8C00002B0CD0954D201C0EF0D0F902000B003D
:102E9C00290010A809F0ACF9944B1C60E5E7944D9F
:102EAC00F1E7944CD7E7944908A8FDF701F90028FD
:102EBC0030D107980378002B12D1854B1B68002B5F
:102ECC0026D0844C8D4B18680EF0B0F902000B0024
:102EDC00210010A809F08CF910A8FDF7E7FB8FE78B
:102EEC0007F075FB0EF0E4F9041C794B1B68002B02
:102EFC000CD07A4D201C0EF099F902000B00290021
:102F0C0010A809F075F97D4B1C60E5E77C4DF1E7E5
:102F1C007C4CD7E77C4908A8FDF7CAF8002830D1CB
:102F2C0007980378002B12D1694B1B68002B26D015
:102F3C00684C764B18680EF079F902000B002100F2
:102F4C0010A809F055F910A8FDF7B0FB58E707F0E9
:102F5C003EFB0EF0ADF9041C5D4B1B68002B0CD036
:102F6C005E4D201C0EF062F902000B00290010A827
:102F7C0009F03EF9654B1C60E5E7654DF1E7654CE2
:102F8C00D7E7654908A8FDF793F8002830D10798D2
:102F9C000378002B12D14E4B1B68002B26D04D4CC6
:102FAC005E4B18680EF042F902000B00210010A8CD
:102FBC0009F01EF910A8FDF779FB21E707F007FBD4
:102FCC000EF076F9041C424B1B68002B0CD0434DC1
:102FDC00201C0EF02BF902000B00290010A809F0A0
:102FEC0007F94E4B1C60E5E74D4DF1E74D4CD7E72B
:102FFC004D4908A8FDF75CF8002826D04B4908A8D5
:10300C00FDF756F8002800D1C7E0494908A8FDF79C
:10301C004FF8002800D02FE107980378002B00D040
:10302C0010E12B4B1B68002B00D123E1294C414BA9
:10303C0018680EF0FBF802000B00210010A809F034
:10304C00D7F810A8FDF732FBDAE608AC07A9200088
:10305C00FDF7AAFE38492000FDF72AF8002816D102
:10306C00364B00221A600798FDF772FD002875D0C8
:10307C00334B1860334B344A12681A60144B1B687C
:10308C00002B00D17FE01548FDF710FBB8E62F4967
:10309C0008A8FDF70DF8002803D1284B01221A606F
:1030AC00E1E70B4B1B68002B0AD02948FDF7FEFA11
:1030BC00074B1B68002B05D02648FDF7F7FA9FE657
:1030CC002548F3E708A8FDF7F1FAF5E7842B01088A
:1030DC00DC1B0020B427010868020020B81301088B
:1030EC0050270108602701086029010864020020AC
:1030FC007427010884270108642901086002002054
:10310C0098270108A8270108682901083C0200201B
:10311C00BC270108CC27010808230108380200202D
:10312C00E0270108F02701086C2901089029010803
:10313C00AC29010844020020742901085C0200201B
:10314C005802002054020020C41B002078290108DA
:10315C00941E01089014010804280108B14B1B6847
:10316C00002B0AD0B048FDF7A1FAAE4B1B68002B20
:10317C0005D0AE48FDF79AFA42E6AD48F3E707985A
:10318C00FDF794FAF5E7AB48FDF790FA0798FDF7D1
:10319C008DFAA648FDF78AFA32E608AC07A920009A
:1031AC00FDF702FEA4492000FCF782FF00280ED098
:1031BC009C4B1B68002B20D09B48FDF777FA994B52
:1031CC001B68002B1BD09948FDF770FA18E69B4B37
:1031DC0000221A600798FDF7BBFC002813D0984B0F
:1031EC001860984B984A12681A608E4B1B68002B1B
:1031FC001ED09648FDF75AFA02E69548DDE708A876
:10320C00FDF754FADFE7874B1B68002B0AD0864882
:10321C00FDF74CFA834B1B68002B05D08348FDF758
:10322C0045FAEDE58B48F3E70798FDF73FFAF5E72C
:10323C008948FDF73BFA0798FDF738FA7B48FDF70C
:10324C0035FADDE507F0C3F90EF032F8041C754BC6
:10325C001B68002B0CD07D4D201C0DF0E7FF0200ED
:10326C000B00290010A808F0C3FF7C4B1C60E8E69B
:10327C007B4DF1E77B4CDAE67B4908A8FCF718FF9D
:10328C0000286ED1794B1B68002B0BD06C4B1B6844
:10329C00002B13D1634B1B68002B0DD07448FDF72A
:1032AC0005FAADE55F4B1B68002B03D07048FDF7AA
:1032BC00FDF9A5E56F48FAE76F48F0E703F00CFC61
:1032CC006E4B1860FFF70AFD6D4B18606D4D2F6843
:1032DC00624B19680CF0A0F9041C28606A490CF0C8
:1032EC00A3F86A4E31680BF09FFD051C3060684BEB
:1032FC001968201C0CF098F8061C664B1968281CE1
:10330C000CF092F8011C301C0BF08EFD051C391CC6
:10331C00201C0CF081F9604B19680CF085F85A49A7
:10332C000BF0FEFE011C281C0BF07EFD5B4B1860A5
:10333C005B4B1C68211CFCF7CDFF002801D0574BC0
:10334C001C60564B1868574B1C68211CFCF7D6FFA9
:10335C00002801D0514B1C60504B1868FFF704FD3E
:10336C004EE5514908A8FCF7A3FE002830D1434B89
:10337C001E68002E20D02B4B1B68002B26D04B4DEB
:10338C0010AC464B18680DF051FF049005913D4B65
:10339C0018680DF04BFF02900391394B18680DF033
:1033AC0045FF0090019132002900200008F020FF19
:1033BC002000FDF77BF923E51A4B1B68002B03D08B
:1033CC002B48FDF773F91BE53948FAE7394DD7E778
:1033DC0008AB1B78002B0CD1374B01221A60114B18
:1033EC001B68002B03D02248FDF760F908E5334831
:1033FC00FAE7314B01221A600A4B1B68002B0AD0EA
:10340C000948FDF753F9074B1B68002B05D00748FB
:10341C00FDF74CF9F4E42A48F3E708A8FDF746F960
:10342C00F5E7C046DC1B0020941E0108901401082F
:10343C001C2801087C29010894290108500200204D
:10344C004C02002048020020C41B0020B8130108C5
:10345C00342801084C2801089C290108440200204A
:10346C006428010878280108B429010858020020B2
:10347C006C1E010890280108B4280108A004002043
:10348C00AC040020A80400206F12833A40020020F4
:10349C00680200206402002060020020A4040020C6
:1034AC003C02002038020020B8290108F02801084D
:1034BC00D828010800290108200900202829010822
:1034CC004429010810B5CAB0019042AC01A92000F2
:1034DC00FDF76AFC1E492000FCF7EAFD00281BD012
:1034EC001C4942A8FCF7E4FD00281AD01A4942A84E
:1034FC00FCF7DEFD002812D11848FDF7C0F80DF0DE
:10350C0095FE02000B00164902AC200008F070FE7C
:10351C002000FDF7CBF802E01048FDF769F84AB03F
:10352C0010BD42AC01A92000FDF73EFC200007F0C5
:10353C004EF80DF0BDFE041C019807F048F80DF094
:10354C00B7FE021C054B211C1800FDF7A5F8E6E799
:10355C00C0290108C8290108D0290108140000203D
:10356C00D829010810B58AB0019002AC01A920003D
:10357C00FDF71AFC09492000FCF79AFD002801D040
:10358C000AB010BD01A92000FDF70EFC200007F0C9
:10359C0023F8019807F020F8F2E7C0462022010832
:1035AC0010B50C48FDF782F80B490C48012205F0C8
:1035BC00F1FF002806D10A48FDF778F8094B0122E3
:1035CC001A6010BD0848FDF771F8064B00221A600E
:1035DC00F7E7C046E8290108482C0108EC06002052
:1035EC00102A01081C090020002A010810B5064900
:1035FC000022002005F0CEFF0448FDF757F8044BDD
:10360C0000221A6010BDC046482C0108242A01086B
:10361C001C09002010B5C2B00E4841AA40A906F002
:10362C000CFC002811D1419B5A69023A59894A4332
:10363C00409B4B43DB0AD20A0749684608F0D8FD89
:10364C006846FDF733F842B010BD0448FDF72EF87C
:10365C00F9E7C046482C01084C2A0108382A010811
:10366C0010B58AB0019002AC01A92000FDF79CFBBB
:10367C002E492000FCF71CFD00280BD12C4B1B689D
:10368C00002B04D02B48FDF711F80AB010BDFFF742
:10369C0087FFFAE7284902A8FCF70AFD00280AD19F
:1036AC00234B1B68002B02D0FFF7B4FFEDE7234838
:1036BC00FCF7FCFFE9E7224902A8FCF7F9FC00281B
:1036CC000AD11B4B1B68002B02D0FFF78FFFDCE7E6
:1036DC001A48FCF7EBFFD8E702AB1B78002B0CD198
:1036EC00184B01221A60184B1B68002B03D017488B
:1036FC00FCF7DCFFC9E71648FAE7124B01221A6007
:10370C00114B1B68002B0AD01248FCF7CFFF0E4B55
:10371C001B68002B05D01048FCF7C8FFB5E70F4815
:10372C00F3E702A8FCF7C2FFF5E7C046C029010881
:10373C001C090020CC2A0108EC2A0108F42A0108F3
:10374C00102B010820090020DC1B00206C1E010836
:10375C00942A0108941E010890140108B02A01084B
:10376C0030B59BB001908A4B1B68002B42D00400F3
:10377C008849FCF79DFC002818D1874B1B68002B4F
:10378C0012D08649864C226802AD280008F030FD24
:10379C002800FCF78BFF002323607D4A13608148CF
:1037AC0006F0AFFA1BB030BD7F49EBE72000FCF709
:1037BC0089FC02000A2323540132019B9B1800212F
:1037CC0019700199774802AB06F00DF900280CD05E
:1037DC00714B1B68002B06D07448FCF767FF7148CF
:1037EC0006F041FADEE77248F7E76D4A13680133D9
:1037FC001360F4E712AC01A92000FDF7D5FA6D4B6C
:10380C0000221A606C492000FCF752FC002869D099
:10381C006A4912A8FCF74CFC002867D0684912A82A
:10382C00FCF746FC002865D0664912A8FCF740FC62
:10383C00002863D0644912A8FCF73AFC002861D038
:10384C00624912A8FCF734FC00285FD0604912A82A
:10385C00FCF72EFC00285DD05E4912A8FCF728FC72
:10386C0000285BD05C4912A8FCF722FC002859D038
:10387C005A4912A8FCF71CFC002857D0584912A82A
:10388C00FCF716FC002855D0564912A8FCF710FC82
:10389C00002853D0544912A8FCF70AFC002851D038
:1038AC00524912A8FCF704FC00284FD0504912A82A
:1038BC00FCF7FEFB00284DD04E4912A8FCF7F8FB94
:1038CC00002800D16EE712AB1B78002B48D1394B86
:1038DC0001221A60304B1B68002B3FD04648FCF786
:1038EC00E5FE5FE70198FDF793FA5BE70198FDF7BA
:1038FC009BFA57E70198FDF711FB53E70198FDF789
:10390C0049FC4FE70198FFF7ABFE4BE7019800F03D
:10391C007DF847E70198FDF713FF43E70198FEF7A1
:10392C009DF93FE70198FEF747FD3BE70198FEF74D
:10393C0017FC37E70198FEF78BFA33E70198FEF78F
:10394C0091FF2FE70198FFF737FA2BE70198FFF764
:10395C00B9FD27E70198FFF705FE23E72748BEE7E7
:10396C00144B01221A600C4B1B68002B0AD0244804
:10397C00FCF79CFE084B1B68002B05D02148FCF77C
:10398C0095FE0FE72048F3E712A8FCF78FFEF5E74A
:10399C00B80400207C2B0108DC1B0020182B01082C
:1039AC0034020020BC040020202B0108541F010805
:1039BC00382B010820090020882B0108902B0108C6
:1039CC00942B01089C2B0108A42B0108A82B01089F
:1039DC0094290108B02B0108B42B0108BC2B010859
:1039EC0074290108C02B0108C42B0108CC2B010839
:1039FC00D02B0108D82B01086C1E0108542B010890
:103A0C00941E010890140108682B010870B5C34C72
:103A1C00A5440190C24B1B68002B47D0C14B1B68BF
:103A2C00002B05D0C049DEA8FCF742FB002841D191
:103A3C00DEAC01A92000FDF7B7F9BC492000FCF76A
:103A4C0037FB00283AD0BA49DEA8FCF731FB002836
:103A5C003AD0B849DEA8FCF72BFB041E41D0B6497E
:103A6C00DEA8FCF725FB061E00D171E0B349DEA8E9
:103A7C00FCF71EFB002800D1A4E0B149DEA8FCF73E
:103A8C0017FB002800D00AE1019B1B78002B01D109
:103A9C00AC4B019301990122E6A805F0ADFD00287D
:103AAC0000D1E6E0A848FCF701FE09E0A748FCF7C6
:103ABC00FDFD05E0A648FCF7F9FDB9E7FEF7FEFAB7
:103ACC00B923DB009D4470BD019806F032FA002842
:103ADC0003D1A048FCF7EAFDF2E79B48FCF7E6FDB2
:103AEC00EEE701990122E6A805F086FD002803D136
:103AFC009948FCF7DBFD15E09348FCF7D7FDDFE7B1
:103B0C00002D21D00134954902AD2200280008F087
:103B1C006FFB2800FCF7CAFD52A8FCF7C7FD9048C4
:103B2C00FCF7C4FDA02152AEE6AA4900300006F015
:103B3C00ECFA05003000FCF7C5FA0138335C0A2BAF
:103B4C00DED100223254DBE7E6A806F0DAF8B7E75C
:103B5C0001990122E6A805F04FFD002803D17E480B
:103B6C00FCF7A4FD18E07848FCF7A0FDA8E7002CB2
:103B7C0024D00136794902AC3200200008F038FB21
:103B8C002000FCF793FD52A8FCF790FD7448FCF75D
:103B9C008DFD142002F0A6FFA02152ADE6AA49002B
:103BAC00280006F0B2FA04002800FCF78BFA013862
:103BBC002B5C0A2BDBD100222A54D8E7E6A806F0AE
:103BCC00A0F87DE701A9DEA8FDF7EEF8019806F054
:103BDC0003FD051E0FD00122DEA9E6A805F00CFDA1
:103BEC0000280CD15F490A2252A805F005FD0028D7
:103BFC0009D101240CE05C48FCF758FD60E7524801
:103C0C00FCF754FD5CE75948FCF750FD58E70134CC
:103C1C00A021E6AA490002A806F077FA002806D0EF
:103C2C00AC42F4D052A902A806F098FAEFE7E6A845
:103C3C0006F067F852A806F064F8DEA806F079F9E9
:103C4C00002809D14748DEA906F0CCF9002807D195
:103C5C004748FCF72BFD33E74648FCF727FD2FE7D9
:103C6C004548FCF723FD2BE7002C14D052A8FFF796
:103C7C0077FDA02152ADE6AA4900280006F045FACE
:103C8C0004002800FCF71EFA01382B5C0A2BEBD140
:103C9C0000222A54E8E7E6A806F033F810E7374983
:103CAC00DEA8FCF705FA002814D1019B1B78002B29
:103CBC0001D1244B019301993148322205F09CFC2F
:103CCC00002803D1174B01221A60F9E61E48FCF7B5
:103CDC00EDFCF5E6DEAB1B78002B0CD1294B012259
:103CEC001A60294B1B68002B03D02848FCF7DEFC1C
:103CFC00E6E62748FAE7234B01221A60224B1B68A1
:103D0C00002B49D02348FCF7D1FC1F4B1B68002B20
:103D1C0044D01348FCF7CAFCD2E6C04638FAFFFF81
:103D2C001C090020B80400204C2C0108D41E0108EA
:103D3C00FC250108D0290108C82C0108D42C010845
:103D4C00B4290108942D0108842C01081C2C0108AD
:103D5C00542C01089C2C0108AC2C0108C02C010827
:103D6C0090140108042D0108DC2C0108082D010811
:103D7C00842D01082C2D01084C2D0108A02D0108C3
:103D8C00BC04002020090020DC1B00206C1E010854
:103D9C00E42B0108941E01080248B4E7DEA8FCF7E6
:103DAC0085FCB6E7002C010872B6FEE700B585B0BD
:103DBC000C22002101A808F027FB1B481B4B0360B9
:103DCC0080221206426000238360C36002610822D5
:103DDC004261037643768376073AC26120214354CD
:103DEC009021C9004162803981622C214254802289
:103DFC00520102630722426335328354C36401F0DB
:103E0C0017F800280BD101A9094B019301234B6032
:103E1C00054801F0E7F9002803D105B000BDFFF714
:103E2C00C3FFFFF7C1FFC046541F00200024014010
:103E3C00002000B410B51048104B03600023436001
:103E4C008360C36003744374837404224261033A35
:103E5C0082610D21C1610B39016242628262C262D0
:103E6C00026343638363C36302F0D6FE002800D170
:103E7C0010BDFFF799FFC046901E00200064004063
:103E8C0010B51248124B0360124B43600023836041
:103E9C000122C260036143618361C361036203F069
:103EAC00A9F800280CD10948002103F011F90028C9
:103EBC0008D10648002103F037F9002804D110BDC1
:103ECC00FFF772FFFFF770FFFFF76EFF3C1E00203D
:103EDC0000540040583D500010B51048104B036082
:103EEC0082235B00436000238360C0229200C26087
:103EFC0003614361013AFF3A8261C3610362436229
:103F0C008362FA3AFF3AC26203630833436303F0F5
:103F1C005FFA002800D110BDFFF746FFD81D002026
:103F2C000030014010B51148114B036082235B0037
:103F3C00436000238360E022D200C26003614361CE
:103F4C00802292008261D13AFF3AC26103624362DD
:103F5C008362293AC26203630833436303F038FA7D
:103F6C00002800D110BDFFF71FFFC046741D0020B4
:103F7C000038004010B51748174B0360E1235B0273
:103F8C00436000238360C36003610C224261836140
:103F9C00C36103624362836204F0F0F8002811D11C
:103FAC000C48002104F08CF900280DD1094800219F
:103FBC0004F0ACF9002809D1064804F061F9002896
:103FCC0006D110BDFFF7F0FEFFF7EEFEFFF7ECFE9B
:103FDC00FFF7EAFE941C00200038014010B5194888
:103FEC00194B0360E1235B02436000238360C360D1
:103FFC0003610C2242618361C3610362436210332B
:10400C00836280235B01C36304F0B8F8002811D1EC
:10401C000C48002104F054F900280DD10948002166
:10402C0004F074F9002809D1064804F007F90028B7
:10403C0006D110BDFFF7B8FEFFF7B6FEFFF7B4FED2
:10404C00FFF7B2FE001C00200044004000B589B010
:10405C001422002103A808F0D7F90C22002168468D
:10406C0008F0D2F915488023DB050360192343605F
:10407C0000238360124AC26003618033836106F0BF
:10408C006BF9002814D103A9002303934B600B4850
:10409C0006F000FA00280DD1694620230093002376
:1040AC000293064806F024FA002805D109B000BD99
:1040BC00FFF77AFEFFF778FEFFF776FE281D00204B
:1040CC004FC3000010B594B005AC3C220021200079
:1040DC0008F09AF91022002101A808F095F9802027
:1040EC00800002F023FC02230593802252000892E8
:1040FC000022099240210A910D930E930F920633E0
:10410C00109380239B02119380239B041293802392
:10411C009B051393200001F025FC002810D101A869
:10412C0007230193053B436000238360A023DB013D
:10413C00C360022101F0FEFE002803D114B010BDB3
:10414C00FFF732FEFFF730FE70B5D2B002F0A4FCE0
:10415C00FFF7B8FFFCF790F9FCF7F4F9FFF726FE30
:10416C00FFF768FEFFF78CFEFFF7B6FEFFF7DAFEEF
:10417C00FFF700FFFFF732FF04F04EF9041E01D0E9
:10418C00FFF712FEFFF762FF962002F0ABFC5449DA
:10419C000A68544B1A408023DB0313430B60524DC7
:1041AC00280001F023FB51490122280001F034FAC8
:1041BC004F4806F035F84F4802F020FE280001F079
:1041CC00D3FA00236B62AB62280000F031FE2800AA
:1041DC0001F0EEF96421280000F04CFF280000F0FB
:1041EC00A9FF80B2A3235B006B441880C82002F0A7
:1041FC0079FC092C05DC404B62004049D15201345A
:10420C00F7E7FFF7CDF93E4B1B68586800230222F5
:10421C00190007F037FF3B48FCF748FA3A4C236883
:10422C0001252B4323603948FFF79AFA2368AB43E7
:10423C0023603748FCF7DCF90026364801230122BD
:10424C004621FF31694403F089FE041E0BD146233D
:10425C00FF336B441B780D2B15D00A2B13D0721C1B
:10426C0001A98B55D6B22C4D2C68002CE5D0A2237D
:10427C005B00E358002B0EDD25004D35FF35A623E2
:10428C005B00E458F1E701AB00229A551800FFF7E8
:10429C0067FA2600E7E7A4235B00E358002B04D061
:1042AC00194A136801210B4313602000FFF758FAD9
:1042BC00154A136801218B431360A0235B00E3585C
:1042CC00002B03D0A2225200A350CEE7A6235B0002
:1042DC00E3582B60200006F08FF92C68C5E7C04628
:1042EC0008270140FFFF3FFE541F00203000002034
:1042FC00281D0020901E0020B01B0020B80B0000D1
:10430C00C8010020A82D0108A81B0020B82D010809
:10431C0014000020001C0020B404002010B586B04E
:10432C000F216944087017246C440548322300930C
:10433C00313B220003F0A8F9207806B010BDC0462E
:10434C00741D002070B5060002F0C6FB0500FF20AE
:10435C00FFF7E4FF0400FF2804D002F0BDFB401B74
:10436C00B042F4D32000FF384342584170BDF8B539
:10437C0007000E00002405E03D19FF20FFF7CEFFDB
:10438C0028700134B442F7D3F8BD000010B50122F7
:10439C000221034802F0F3F8FF20FFF7BFFF10BD26
:1043AC000004005010B500220221094802F0E7F881
:1043BC00FF20FFF7B3FFFA204000FFF7C3FF041EF6
:1043CC0002D00124200010BDFFF7E0FFFAE7C04641
:1043DC000004005070B504000D0043B2002B20DB2C
:1043EC000C2C05D0FFF7D2FFFFF7DCFF00283AD0EA
:1043FC0040202043C0B2FFF791FF280EFFF78EFF3D
:10440C00280CC0B2FFF78AFF280AC0B2FFF786FF5C
:10441C00E8B2FFF783FF002C0DD0082C1DD0012033
:10442C000AE07F231C4000213720FFF7D3FF020056
:10443C000128D5D90FE09520FFF770FF0C2C0ED07A
:10444C000A24FF20FFF76AFF0200000603D5013C97
:10445C00E4B2002CF5D1100070BD8720ECE7FF20F2
:10446C00FFF75CFFECE7FF22F5E7000010B5012336
:10447C008AB2034C5B420100200003F02BF810BD04
:10448C00741D002070B504000D00FA204000FFF7E9
:10449C0059FF002800D170BD2800FFF73FFFFD2D0C
:1044AC0001D10120F7E7802189002000FFF7DEFF12
:1044BC00FF20FFF733FFFF20FFF730FFFF20FFF750
:1044CC002DFF1F230340052B01D10120E3E7002022
:1044DC00E1E7000010B5040002F0FEFA024B186090
:1044EC00024B1C6010BDC046BC1F0020B81F002032
:1044FC0010B502F0F1FA044B1B68C01A034B1B6891
:10450C0098428041404210BDBC1F0020B81F0020C3
:10451C0070B505000E00C820FFF7DCFFFF20FFF789
:10452C00FDFE0400FF2803D1FFF7E2FF0028F5D1C0
:10453C00FE2C01D0002070BD31002800FFF717FFC2
:10454C00FF20FFF7EBFEFF20FFF7E8FE0120F2E76C
:10455C0070B582B0002800D0A7E0554B1B789B07A4
:10456C0010D4544B1A68136838218B4308390B4309
:10457C0013600A24002C09D0FF20FFF7CFFE013C6A
:10458C00E4B2F7E74A4B1878C0B21EE000210020D5
:10459C00FFF720FF05000600012818D0464B1C70C1
:1045AC00FFF7F4FE002C00D17BE0424B1A68136835
:1045BC0038218B4328390B4313603D4A13780F394C
:1045CC008B4313703A4B1878C0B202B070BDFA200E
:1045DC008000FFF77FFFD52149000820FFF7FAFE86
:1045EC00012839D1250006E0FF20FFF797FE01AB2B
:1045FC0058550135EDB2032DF6D901AB9B78012B43
:10460C00CCD101ABDB78AA2BC8D1FFF771FF002806
:10461C0006D08021C905A920FFF7DCFE0028F4D1C3
:10462C00FFF766FF002801D10400B7E700213A200C
:10463C00FFF7D0FE051E07D0B0E7FF20FFF76EFE98
:10464C0001AB58550135EDB2032DF6D901AB1B78F2
:10465C005B0624D50C24A1E70021A920FFF7BAFEA4
:10466C0001280FD9FFF744FF002805D000213000A6
:10467C00FFF7B0FE0028F5D1FFF73AFF002804D170
:10468C0004008BE70225A926ECE780218900102085
:10469C00FFF7A0FE002800D080E72C007EE7042462
:1046AC007CE7034B01221A708CE701208DE7C04692
:1046BC0032000020741D0020C01F0020002803D1F0
:1046CC00024B1878C0B270470120FCE73200002082
:1046DC0070B50D0011001C00002837D1002B37D00D
:1046EC001D4B1B78DB0735D41C4B1B781B0700D4E8
:1046FC005102012C1CD01220FFF76CFE002811D1A6
:10470C00802189002800FFF703FF002806D08023B2
:10471C009B009C466544013C002CF1D100210C20EF
:10472C00FFF758FEFFF732FE631E9C41E0B270BDEE
:10473C001120FFF74FFE0028F4D1802189002800BA
:10474C00FFF7E6FE0028EDD00024EBE70420EEE7AF
:10475C000420ECE70320EAE732000020C01F002011
:10476C0070B50D0016001C00002847D1002B47D057
:10477C00264B1B78DB0745D4244B1B785B0743D4B3
:10478C00234B1B781A0700D47602012C21D0062269
:10479C001A422CD131001920FFF71CFE002812D12F
:1047AC00FC212800FFF76EFE002806D080239B001A
:1047BC009C466544013C002CF2D1FD210020FFF702
:1047CC0061FE002818D0FFF7E1FD631E9C41E0B2AA
:1047DC0070BD31001820FFF7FDFD0028F3D1FE213C
:1047EC002800FFF74FFE0028EDD00024EBE7210056
:1047FC009720FFF7EFFDCDE70124E4E70420E7E77E
:10480C000420E5E70320E3E70220E1E73200002083
:10481C00C01F002070B584B00C001600002800D01A
:10482C00FEE0814B1B78DB0700D5FBE003295CD055
:10483C0011D800291BD001290BD100210920FFF729
:10484C00C9FD051E1AD02500FFF7A0FD280004B0F5
:10485C0070BD0425F8E7042907D1744B1B78062298
:10486C001A4200D09DE00125EEE70425ECE7FFF7A6
:10487C0099FD002800D0C9E00125E5E71021684624
:10488C00FFF746FE002800D1C2E06B461B789B095F
:10489C00012B1BD06A4651790F230B40917AC90921
:1048AC005B18507A4000062101405918137A9B0975
:1048BC00D07980001B1892799202C020000102402E
:1048CC009B18013307398B403360BDE76A46537A36
:1048DC00117A09025B18D2791204FC2189030A406F
:1048EC009B1801339B023360AEE7504B1B785B0780
:1048FC0022D500218D20FFF76DFD002801D0012568
:10490C00A2E7FF30FFF70AFD10216846FFF700FE13
:10491C0000280FD1012597E7FF20FFF7FFFC013D91
:10492C00EDB2002DF8D16B469A7A12091023934000
:10493C00336089E73025F4E700210920FFF74AFDB1
:10494C00041E01D001257FE710216846FFF7E0FD2A
:10495C0000285FD0354B1B78022215001D401A42EF
:10496C000FD06A46917A49007E230B40D17AC9094F
:10497C005B180133527B9209013A93403360250056
:10498C0062E769468B7A9B101F221A400132C97A62
:10499C00C8001823034049095B18013353433360A3
:1049AC0052E76A460B21FFF735FF002834D16B46DE
:1049BC001B789B0903D16B469B7A5B062ED531681D
:1049CC0074681A4B1B781B0701D44902640220201F
:1049DC00FFF700FD002801D0012535E7210021302B
:1049EC00FFF7F8FC002801D001252DE70021263027
:1049FC00FFF7F0FC051E01D0012525E70C48FFF759
:104A0C00A1FC002800D01FE701351DE725001BE79E
:104A1C00250019E7012517E7012515E7012513E7FF
:104A2C00042513E7032511E732000020C01F0020E6
:104A3C0030750000FEE7FEE77047704710B502F0D6
:104A4C003FF8FDF7A9FC10BD10B5024801F0FEFEC1
:104A5C0010BDC046F41E002000B583B00B4B196C82
:104A6C00012211431964196C0A400092009ADA6B06
:104A7C00802149050A43DA63DB6B0B400193019BF0
:104A8C00C020C00002F040F803B000BD001002408E
:104A9C0010B588B004001422002103A807F0B4FC60
:104AAC0022681E4B9A4201D008B010BD1C4B1A6CE8
:104ABC00802149030A431A641A6C0A400192019A34
:104ACC00596B0122114359635B6B13400293029B98
:104ADC0003A9039203234B60A020C00501F088FCBE
:104AEC001048114B03600523436000238360C360AF
:104AFC0080220261803242618022D20082612022B7
:104B0C00C261036201F0AAFD002803D1054B2365A5
:104B1C009C62C9E7FFF748F9F8E7C046002401405A
:104B2C0000100240F41E00200800024010B59AB09C
:104B3C0004001422002115A807F066FC4C22002169
:104B4C0002A807F061FC2268184B9A4201D01AB0F7
:104B5C0010BD80239B04029302A801F0CBFA00281D
:104B6C0021D1134BDA6B802149010A43DA63DA6BEA
:104B7C000A400092009A596B0122114359635B6BF6
:104B8C001A400192019B15A9C0235B0115930223C6
:104B9C004B6000238B60CB6003330B61A020C005FE
:104BAC0001F026FCD3E7FFF7FFF8DAE700640040DA
:104BBC000010024010B59AB004001422002115A870
:104BCC0007F022FC4C22002102A807F01DFC2268F1
:104BDC00174B9A4201D01AB010BD2023029302A8A1
:104BEC0001F088FA00281FD1124C626B02231A4381
:104BFC006263626B13400093009B15A9C02315934D
:104C0C00AE3B4B6000238B60CB6006330B610A48D4
:104C1C0001F0EEFBE36B802292031343E363E36B3F
:104C2C0013400193019BD6E7FFF7BEF8DCE7C046C3
:104C3C00005400400010024000040050F0B58BB04E
:104C4C0004001422002105A807F0DEFB2368304A7B
:104C5C00934204D02F4A93421DD00BB0F0BD2E4B83
:104C6C001A6C802149010A431A641A6C0A4000929A
:104C7C00009A596B0122114359635B6B1A400192E4
:104C8C00019B05A9C2230593C03B4B60A020C00526
:104C9C0001F0AEFBE1E7204BDA6B8021C9010A433E
:104CAC00DA63DA6B0A400292029A5A6B012632439B
:104CBC005A635A6B32400392039A5A6B02252A4369
:104CCC005A635B6B2B400493049B05AC0823059340
:104CDC00069507960895A027FF052100380001F0DE
:104CEC0087FB1023059306950796089509962100D6
:104CFC00380001F07DFB8023DB00059306950796B9
:104D0C000895052309932100044801F071FBA4E7E1
:104D1C0000300140003800400010024000040050F8
:104D2C0082B002688023DB059A4201D002B0704742
:104D3C00044AD16B01231943D163D26B1340019305
:104D4C00019BF3E70010024010B59CB00400142244
:104D5C00002117A807F058FB4C22002104A807F0EB
:104D6C0053FB23682E4A934204D02E4A93422CD0F4
:104D7C001CB010BD0123049304A801F0BBF900285A
:104D8C0020D1294B1A6C8021C9010A431A641A6C70
:104D9C000A400092009A596B0122114359635B6BD4
:104DAC0013400193019B17A9C023DB001793022327
:104DBC004B6000238B60CB600A61A020C00501F022
:104DCC0017FBD5E7FEF7F0FFDBE70223049304A8FB
:104DDC0001F090F900281FD1134BDA6B8021890266
:104DEC000A43DA63DA6B0A400292029A596B012287
:104DFC00114359635B6B13400393039B17A90B4B34
:104E0C00179302234B6000238B60CB600A61A020B8
:104E1C00C00501F0EDFAABE7FEF7C6FFDCE7C046D4
:104E2C0000380140004400400010024004800000A3
:104E3C0030B583B0040000230193002800D106E1B3
:104E4C00836D002B13D023689A68D2001CD4996808
:104E5C00804A1140802252050A439A607E4B1868A2
:104E6C007E49FBF74BF901304000019009E0FFF758
:104E7C000FFE0023E3655422A354E4E7019B013B9E
:104E8C000193019B002BF9D123689A68D20000D5BD
:104E9C009DE0A26D10210A43A265E26D0F390A4311
:104EAC00E26501209A6804210D001540114200D0E2
:104EBC000125A26DD20600D5C2E0002D00D0BFE0C6
:104ECC00A26D67490A400631FF310A43A2659A6810
:104EDC00D20752D4A268217E89030A43617EC9039A
:104EEC000A43A57E69030A43216B002901D0802166
:104EFC0049010A43E1680A432169002969DB8021E1
:104F0C0089030A432C21615C49000A432021615C1E
:104F1C00012961D0616A002905D0E0256D00294086
:104F2C00A56A29430A43D9684E4D29400A43DA60E1
:104F3C0063689B0F9B07E26C1A433C21615C01295F
:104F4C0059D021680B69484D2B4013430B616368A2
:104F5C00C0221206934210D08022D20593420CD06C
:104F6C0080221206934208D040490A68404D2A40DC
:104F7C00F025AD032B4013430B602168636B4A692A
:104F8C000725AA4313434B612168A26B4B69693512
:104F9C00AB43120113434B612369002B35D12268BB
:104FAC00916A103B0B43936223685A6907231340A1
:104FBC00626B9A423BD0A36D12229343023A134385
:104FCC00A365E36D0F3A1343E36501203DE0002038
:104FDC0068E74900490894E7002D03D18021490274
:104FEC000A4397E7A16D20252943A165E16D1F3D7B
:104FFC002943E1658EE7216C0B43616C0B43A16C7B
:10500C000B43134301221A439BE7802292039342E2
:10501C00CAD121688B6AE369013B9B001C221A40B0
:10502C0010235B429340226E13438B62BCE7002338
:10503C00E365A36D03229343023A1343A36504E093
:10504C00A36D10221343A365012003B030BD0120D2
:10505C00FBE7C046E8FFFF6F38000020400D03005F
:10506C00FDFEFFFF0102DEFF02FCFF1F08270140CF
:10507C00FFFFC3FFF8B504000D004669082E04D0ED
:10508C000368DB68DB071DD4042601F025FD07004F
:10509C0023681A6816421BD16B1CF9D001F01CFD59
:1050AC00C01BA84201D8002DF2D123681B681E42F8
:1050BC00EED1A36D04221343A36554230022E254C2
:1050CC00032029E0836D202213438365012023E014
:1050DC00A16D802292000A43A265D968C0221201F8
:1050EC00114213D1A27E002A10D11A6812070DD5D5
:1050FC009A68520711D45A680C218A435A60A36DDE
:10510C000B4A13400432FF321343A365207E002860
:10511C000CD123680C221A60F8BDA36D2022134316
:10512C00A365E36D1F3A1343E365EFE70020F3E754
:10513C00FEFEFFFF0368186C7047704710B5806A5D
:10514C00FFF7FBFF10BD704710B5806A836D4022DE
:10515C0013438365C36D3C3A1343C365FFF7F3FFF9
:10516C0010BD000010B50300806A826D5021114201
:10517C002AD1826D80239B00134383650368D96811
:10518C00C0221201114213D1827E002A10D11A685A
:10519C0012070DD59A6852070DD45A680C218A4310
:1051AC005A60836D0E4A13400432FF3213438365F9
:1051BC00FBF702FA10BD836D202213438365C36D88
:1051CC001F3A1343C365F3E7826DD20604D4026D14
:1051DC00526B18009047EDE7FFF7B5FFEAE7C046C2
:1051EC00FEFEFFFFF0B583B00400002301930569B8
:1051FC005433C35C012B00D12FE154230122C25440
:10520C0000688368033216001E401A4209D0A36D51
:10521C001C321343A365012054230022E25403B033
:10522C00F0BD4B68022B00D1D5E0802212069542CE
:10523C0025D08B4A954222D0226E1F271F400F2566
:10524C00BD40AA430B685D032FD19B0E1F261E4049
:10525C00BE40324322664D68AB080133E26993428B
:10526C0013D80E68826A1F231D40103B1F00AF40ED
:10527C00BA43B60E3340AB401343836205E00B6870
:10528C00826A5B035B0B1343836220680B688D6837
:10529C0042691B029A432B40724D2B4013434361CE
:1052AC000B68002B4FDB0020B6E7DD07D0D49D0741
:1052BC0027D45D0727D41D0727D4DD0627D49D06E8
:1052CC0027D45D0627D41D0627D4DD0527D49D05DC
:1052DC0027D45D0527D41D0527D4DD0427D49D04D0
:1052EC0027D45D0427D41D0427D4DD0327D49D03C4
:1052FC0027D48025ED021E002E402B42A8D012266A
:10530C00A6E70126A4E70226A2E70326A0E70426C7
:10531C009EE705269CE706269AE7072698E70826C7
:10532C0096E7092694E70A2692E70B2690E70C26C7
:10533C008EE70D268CE70E268AE70F2688E71026C7
:10534C0086E7112684E7484A1168E02252040A4095
:10535C004648834207D04648834222D04548834280
:10536C002CD0002058E70802F5D480231B041343EB
:10537C003D490A684048024013430B603F4B186894
:10538C003F49FAF7BBFE013043001B189B00019309
:10539C0002E0019B013B0193019B002BF9D1002002
:1053AC003AE7C801DAD480235B0413432E490A6818
:1053BC003148024013430B6000202DE749024AD4C8
:1053CC008023DB03134328490A682B48024013430C
:1053DC000B60002020E780231B069D4202D0204B4F
:1053EC009D4205D10B68826A5B035B0B9A43826218
:1053FC000B68002B01DB00200EE71B4A12681B49CF
:10540C008B4207D01A498B420FD01A498B4217D0C6
:10541C00002001E7A0235B041A4013490B681648CF
:10542C0003401A430A600020F6E6C0231B041A400E
:10543C000D490B68104803401A430A600020EBE644
:10544C00C0235B041A4008490B680B4803401A43FD
:10545C000A600020E0E60020DEE60220DFE6C0461F
:10546C000400008000FFFF0708270140001000B077
:10547C00004000B8002000B4FFFF3FFE38000020C1
:10548C00400D030070B50400026893685B0724D5D7
:10549C0093689B0705D4936811490B4010210B436B
:1054AC00936001F019FB050023689B685B0712D51C
:1054BC0001F012FB401B0228F6D923689B685B079E
:1054CC00F2D5A36D10221343A365E36D0F3A13437A
:1054DC00E365012002E0002000E0002070BDC04622
:1054EC00E8FFFF7F30B583B004000023019303680D
:1054FC009A68D2074FD49968284A114211D19A68F8
:10550C0027490A4001210A439A60264B1B681B025B
:10551C0017D5254B18682549FAF7F0FD0130019095
:10552C000CE0836D102213438365C36D0F3A134354
:10553C00C365012030E0019B013B0193019B002BD3
:10554C00F9D1637E012B01D1002025E001F0C4FAD2
:10555C00050023681A68D2071BD49A68D20705D4B1
:10556C009A680F490A4001210A439A6001F0B4FA83
:10557C00401B0228EDD923681B68DB07E9D4A36D17
:10558C0010221343A365E36D0F3A1343E365012027
:10559C0002E0002000E0002003B030BD17000080C6
:1055AC00E8FFFF7F0827014038000020400D030072
:1055BC0010B5040003689B685B0724D45423C35CB8
:1055CC00012B22D054230122C254FFF78BFF002859
:1055DC0015D1A26D0E4B1A4080235B001343A365BB
:1055EC000023E36522681C2111605422A354226815
:1055FC00936808490B4004210B43936004E0542347
:10560C000022E25400E0022010BD0220FCE7C0465C
:10561C00FEF0FFFFE8FFFF7F70B504000D001600E1
:10562C00026893685B0747D45423C35C012B45D0B5
:10563C00012354214354D1680B420DD19368DB07ED
:10564C0005D593681E490B4002210B4393602268D9
:10565C00D36801210B43D3602000FFF743FF0028E0
:10566C002BD1A26D174B1A4080235B001343A3650B
:10567C000023E365226D1449D162226D1349116335
:10568C00226D1349516322681C2111605422A354CA
:10569C00226853680C390B43536021684031206DEC
:1056AC0033002A0001F048F82268936804490B4043
:1056BC0004210B43936000E0022070BD0220FCE744
:1056CC00E8FFFF7FFEF0FFFF715100084951000811
:1056DC005551000870B5040003689A68022108004F
:1056EC001040114200D001209A68D20735D500280D
:1056FC0035D1996805220A40012A09D0A36D1022E0
:10570C001343A365E36D0F3A1343E365012025E0D2
:10571C009A6814490A4002210A439A6023680322BA
:10572C001A6001F0D9F9050023689B68DB0712D5D4
:10573C0001F0D2F9401B0228F6D923689B68DB07DD
:10574C00F2D5A36D10221343A365E36D0F3A1343F7
:10575C00E365012002E0002000E0002070BD002085
:10576C00FCE7C046E8FFFF7F70B504005423C35C20
:10577C00012B36D054230122C254FFF783FE051EA1
:10578C001DD1206D2523C35C022B1DD022685368CC
:10579C0010218B435360002D1FD12000FFF79AFF7F
:1057AC000500002D06D1A36D0F4A13400432FF32C1
:1057BC001343A3652268D36801218B43D360542320
:1057CC000022E254280070BD01F004F8051EDDD063
:1057DC00A36D40221343A365D8E72000FFF77AFF9F
:1057EC00DFE70225EEE7C046FEFEFFFFF0B583B013
:1057FC000400002301935433C35C012B00D1A2E0BD
:10580C0001265423C654FFF765FF050023689A68E8
:10581C0031001140164209D0A36D10221343A36529
:10582C0054230022E254280003B0F0BDA26D474877
:10583C0002400630FF300243A265DE68444A16403F
:10584C00DA6844480240DA60080005E0B4229A584D
:10585C007F231340C018013107291CD82768BA6868
:10586C003D4B1A4018331343BB6023689A68002AD7
:10587C00ECDA019B01330193019A384B9A42F4D92B
:10588C00A36D12229343023A1343A36554230022BF
:10589C00E2540125C7E7FAF731FC226893682E49D8
:1058AC000B4001210B439360226811698023DB05B7
:1058BC00994217D22A4B1B68F02189030B40E02137
:1058CC0049038B420ED39B0C033B01219940009161
:1058DC00009B5B08009302E0009B013B0093009B44
:1058EC00002BF9D1B42153587F27BB431843505098
:1058FC002268936818490B4002210B43936001F016
:10590C00EBF8070023689A68D20709D4DA683243A7
:10591C00DA60A36D03229343023A1343A3657FE736
:10592C0001F0DAF8C01B0228ECD923689B68DB076E
:10593C00E8D5A36D10221343A365E36D0F3A13430F
:10594C00E36501256FE702256DE7C046FDFEFFFF0D
:10595C0003800000FC7FFFFFE8FFFF7FFFF10200E8
:10596C000827014070B582B0041E00D15EE20368C6
:10597C00DB0739D5C14A916838230B40D168032223
:10598C000A40102B26D0082B26D0636880225202A6
:10599C0093427FD0A022D202934200D181E0B74B38
:1059AC001A68B7490A401A601A68B6490A401A6060
:1059BC006368002B00D180E001F08EF80500AF4B3E
:1059CC001B689B0310D401F087F8401B6428F6D9A0
:1059DC0003202CE2032AD6D1A84B1B689B0303D5CA
:1059EC006368002B00D124E223689B0731D5A34ABE
:1059FC00916838230B40D16803220A40102B6AD0DF
:105A0C00002B6BD19D4A1268520503D5E268002A1F
:105A1C0000D110E2994842689B490A406169090229
:105A2C000A434260002B0DD1036898490B40216951
:105A3C000B4303600368DB0A07221A40944BD340E4
:105A4C00944A1360944B186800F0FAFF002800D0B9
:105A5C00F3E123681B0700D481E0884B9A68382354
:105A6C001340182B73D0A369002B00D1B4E0834AE8
:105A7C00136E01210B43136601F02EF805007F4BCA
:105A8C001B6E9B076BD401F027F8401B0228F6D93C
:105A9C000320CCE1794A116880235B020B4313602D
:105AAC0086E7764B19688022D2020A431A6019687D
:105ABC00802252020A431A607AE701F00DF80500C1
:105ACC006E4B1B689B038FD501F006F8401B6428B6
