:020000040800F2
:1000000000400220F5930008013900080339000878
:1000100000000000000000000000000000000000E0
:10002000000000000000000000000000053900088A
:10003000000000000000000007390008093900082E
:10004000459400084594000845940008459400082C
:10005000459400084594000845940008459400081C
:100060004594000815390008459400084594000897
:1000700045940008459400084594000845940008FC
:1000800045940008459400084594000845940008EC
:1000900045940008459400084594000845940008DC
:1000A00045940008459400084594000845940008CC
:0C00B000459400084594000845940008A1
:1000BC0002780B78002A03D0013001319A42F7D034
:1000CC00D01A70470023C25C0133002AFBD1581EA2
:1000DC007047000002B4714649084900095C4900A8
:1000EC008E4402BC7047C04603B4714649084000B8
:1000FC004900095E49008E4403BC7047002934D086
:10010C000123002210B488422CD301242407A142DD
:10011C0004D2814202D209011B01F8E7E400A1429A
:10012C0004D2814202D249005B00F8E7884201D335
:10013C00401A1A434C08A04202D3001B5C0822430D
:10014C008C08A04202D3001B9C082243CC08A0427E
:10015C0002D3001BDC082243002803D01B0901D06A
:10016C000909E3E7100010BC704701B5002000F04E
:10017C005FF802BD0029F8D003B5FFF7C1FF0EBC34
:10018C004243891A1847C046002941D010B40400D4
:10019C004C40A44601230022002900D549420028E6
:1001AC0000D5404288422CD301242407A14204D21A
:1001BC00814202D209011B01F8E7E400A14204D2FA
:1001CC00814202D249005B00F8E7884201D3401A11
:1001DC001A434C08A04202D3001B5C0822438C0833
:1001EC00A04202D3001B9C082243CC08A04202D39D
:1001FC00001BDC082243002803D01B0901D009098D
:10020C00E3E710006446002C00D5404210BC704758
:10021C0001B5002000F00CF802BDC0460029F7D053
:10022C0003B5FFF7B3FF0EBC4243891A1847C0460B
:10023C007047C0468446100062468C4619006346DF
:10024C0000E0C0461FB50FF0F5F8002801D40021DE
:10025C00C8421FBD10B50FF047F84042013010BD29
:10026C0010B50FF0E7F8002801DB002010BD0120CD
:10027C0010BDC04610B50FF0DDF8002801DD0020E0
:10028C0010BD012010BDC04610B50FF06FF800284E
:10029C0001DC002010BD012010BDC04610B50FF0D0
:1002AC0065F8002801DA002010BD012010BDC04601
:1002BC00844608006146FFE71FB50DF0ACFF00282F
:1002CC0001D40021C8421FBD10B50DF041FF4042C2
:1002DC00013010BD10B50DF09EFF002801DB002091
:1002EC0010BD012010BDC04610B50DF094FF0028C4
:1002FC0001DD002010BD012010BDC04610B50DF071
:10030C004CFF002801DC002010BD012010BDC046B0
:10031C0010B50DF042FF002801DA002010BD0120BD
:10032C0010BDC046002B11D1002A0FD1002900D1DD
:10033C00002802D00021C943080007B4024802A1DA
:10034C004018029003BDC046E9FEFFFF03B46846A7
:10035C0001B502980DF028FC019B9E4602B00CBC26
:10036C007047C04603B47146490840004900095A19
:10037C0049008E4403BC7047D0400B00D1409C46D2
:10038C00203AD34018435242634693401843704777
:10039C009140030090409C46203A934019435242AE
:1003AC006346D340194370471C2101231B04984218
:1003BC0001D3000C10391B0A984201D3000A0839EA
:1003CC001B09984201D30009043902A2105C4018A1
:1003DC007047C04604030202010101010000000045
:1003EC000000000010B5002903D1FFF7DDFF20301D
:1003FC0002E00800FFF7D8FF10BDC04610B5064C50
:10040C002378002B07D1054B002B02D0044800E0C9
:10041C0000BF0123237010BD00020020000000006B
:10042C008C010108044B10B5002B03D00349044880
:10043C0000E000BF10BDC046000000000402002018
:10044C008C010108BFF34F8F034B044ADA60BFF3F2
:10045C004F8FC046FDE7C04600ED00E00400FA05F2
:10046C0084B010B502900391049205930B4B5A780B
:10047C00987800021043000400140EF0A3F9084908
:10048C000EF000F807490DF005FF07490DF07EFD51
:10049C00064B186010BC08BC04B01847A01B002009
:1004AC000000FA4300007A4400007A45981B0020B3
:1004BC00F0B5C64600B588B003AC1422002120006C
:1004CC000AF0D8FE244B5A6B01252A435A635A6B07
:1004DC002A400092009A596B022211435963596BBE
:1004EC000A400192019A596B0822114359635B6BC4
:1004FC001A400292029B194F00220321380004F08B
:10050C0097FF01220421380004F092FF144B984607
:10051C0000220F21180004F08BFF03950495002690
:10052C00059606962100380004F0C2FE06230393BC
:10053C000495059506962100380004F0B9FE0F23AA
:10054C0003930495059606962100404604F0B0FEF0
:10055C0008B080BCB846F0BD00100240000400504A
:10056C00000C005000B583B0094A916B012319436C
:10057C009163926B13400193019B0022002109208F
:10058C0005F0A2F9092005F0A3F903B000BDC0469F
:10059C000010024000B583B00190012304485B4277
:1005AC00012201A906F0B5FB019803B000BDC046BD
:1005BC00AC1B002010B582B06B46DC1D00232370F1
:1005CC00013304485B420122210006F01FFC207815
:1005DC0002B010BDAC1B002010B50268074B9A424C
:1005EC0000D010BD064B1B8806485843064B198893
:1005FC0089B2FFF783FD054B1880F2E70024014018
:10060C00AA75FF1FB80B0000180000209C1B0020CF
:10061C0010B50400074B1B68002B00D010BDFFF772
:10062C0051FD012382B204485B42210006F071FBAC
:10063C00F4E7C046941B0020AC1B002084B010B51E
:10064C0002900391049205930348FFF7E1FF10BC5D
:10065C0008BC04B01847C046A801010884B010B506
:10066C0090B01290139114921593164C6378A07855
:10067C0000021843000400140EF0A4F8FA218905B6
:10068C000DF008FE6378FF2B02D1A378FF2B0FD05F
:10069C000FF0C4FC02000B000B4968460AF0DEFCAC
:1006AC006846FFF7B5FF10B010BC08BC04B0184783
:1006BC006A46064B11CB11C211001A880A809B782E
:1006CC008B70EDE7A01B0020BC010108B0010108F4
:1006DC0084B010B590B01290139114921593114BE5
:1006EC005A78987800021043000400140EF06AF84F
:1006FC000D490DF0C7FE0D490DF0CCFD0C490DF068
:10070C0045FC0FF08BFC02000B000A4968460AF00E
:10071C00A5FC6846FFF77CFF10B010BC08BC04B009
:10072C001847C046A01B00200000FA4300007A4482
:10073C0000007A45CC01010884B030B591B014901A
:10074C001591169217931D4B5C780220185E0EF0D3
:10075C0039F8F62189050DF09DFD0FF05FFC0200C4
:10076C000B00174968460AF079FC6846FFF750FF02
:10077C00002C0FD0E30711D4A30713D4630715D4AF
:10078C00240717D40F48FFF743FF11B030BC08BC47
:10079C0004B018470C48FFF73BFFF6E70B48FFF790
:1007AC0037FFE9E70A48FFF733FFE7E70948FFF7A8
:1007BC002FFFE5E70848FFF72BFFE3E7A01B00201E
:1007CC00DC01010828020108EC010108F80101080C
:1007DC00000201080C0201081802010870B590B063
:1007EC0005F0D2F804001748402105F04DFB002815
:1007FC0006D105F0C9F8001BFA235B009842F2D32E
:10080C001048402105F040FB002817D00E4B06ADD8
:10081C000C482A00402105F089FA0C4C0AAB6A46B8
:10082C0043CB43C243CB43C206980799089A099B12
:10083C002568A847064B236010B070BD0548FFF72C
:10084C00E7FEF9E73C1E0020A01B0020140000204E
:10085C00490600082002010870B58AB005000E0098
:10086C0001AC2422002120000AF004FD064B1B6879
:10087C000193049605482A00210005F02DFAFFF794
:10088C00ADFF0AB070BDC046A81B00203C1E002066
:10089C0010B582B0074B1B68002B01D002B010BD05
:1008AC000549020068460AF0D9FB6846FFF7B0FE1E
:1008BC00F4E7C046941B00202C02010870B58CB0E4
:1008CC00060003AC2422002120000AF0D3FC01AD69
:1008DC000822002128000AF0CDFC2E70064B1B6864
:1008EC0003930123069305482A00210005F0F4F92F
:1008FC00FFF774FF0CB070BDA81B00203C1E00203D
:10090C00F0B5C64600B582B00500884601920023BA
:10091C0000E00133274A17689F4208DD264A9421DC
:10092C0059438A58AA42F4D1234C0C1900E00024F4
:10093C00202F34D0002C0DD000276668BE4211DD6C
:10094C003801083020184146FFF7B2FB002828D0A8
:10095C000137F2E794207843174C0419154B0137F3
:10096C001F60E9E7082E21D04046FFF7ABFB0E28AD
:10097C001ED830010830201841460AF036FD636855
:10098C0001331A01A2180199D1716360256020000E
:10099C0088300C2200210AF06DFC002002E00120BE
:1009AC0000E0022002B080BCB846F0BD0320F9E79D
:1009BC000420F7E7901B00201009002070B50600FA
:1009CC00184B012252421A600025174B1B68AB4290
:1009DC0023DD002400E00134144B94226A439B185D
:1009EC005B68A34217DD230194226A4398180830F0
:1009FC000E4BC0183100FFF75BFB0028EBD10B4A04
:100A0C0001342301942169435B18D318D879054B21
:100A1C001860885870BD0135D7E7300008F012FD1A
:100A2C00F8E7C0460C090020901B0020100900209C
:100A3C00F0B5CE46474680B599B00FAC24220021C4
:100A4C0020000AF017FC03AD0822002128000AF050
:100A5C0011FC012312934348FFF7DAFD42482A00A8
:100A6C00210005F039F904F08FFF040004F08CFF2D
:100A7C00001BFA235B0098426CD23B48402105F0E6
:100A8C0003FA0028F2D0384801AB05AA402105F042
:100A9C004DF9059B1B041B0C98461800FFF7F8FE3C
:100AAC00002534E03148FFF7B3FD314B721C1201C5
:100ABC00D2199B18D879FFF7EBFE18E001362C4BB6
:100ACC0094226A439B185B68B3421CDD3301942764
:100ADC006F43D8190830264B99464844FFF798FDC8
:100AEC00731C1B01DB194B44DB79FF2BDAD1204B38
:100AFC0094226A439B185B68013BB342DED01D48CD
:100B0C00FFF786FDDAE71C48FFF782FD01351B4B2A
:100B1C001B68AB420ADD164B94226A43D3589845A6
:100B2C00F4D11748FFF774FD0026C8E71548FFF706
:100B3C006FFD01AB5B78042B06D91348FFF768FDFA
:100B4C001248FFF765FD91E7114A9B009858FFF793
:100B5C005FFDF5E70F48FFF75BFD19B0C0BCB94668
:100B6C00B046F0BD300201083C1E002044020108D2
:100B7C0010090020480201084C020108901B0020BB
:100B8C00080F01085002010854020108280201084C
:100B9C00000000205C020108F8B505000E000F688B
:100BAC000A4938000AF06EFB0400020039002800E4
:100BBC000AF02EFC2D1900232B7033681A5D002AC5
:100BCC0000D001341B193360F8BDC046B80F0108C2
:100BDC0070B505000378002B0ED000242800FFF719
:100BEC0071FAA04206D92B5D303BDBB2092B05D83C
:100BFC000134F3E7012000E0002070BD0020FCE789
:100C0C0010B5034B01221A600248FFF701FD10BD1D
:100C1C00080900206C02010810B5CAB0019042AC62
:100C2C0001A92000FFF7B8FF1E492000FFF740FA8A
:100C3C00002816D01C4942A8FFF73AFA002815D014
:100C4C001A4942A8FFF734FA002813D042AB1B789C
:100C5C00002B1AD1164B01221A601648FFF7D8FC4C
:100C6C0006E01548FFF7D4FCFFF7ECFBFFF7E0FEBE
:100C7C004AB010BD114B1A88114902AC20000AF081
:100C8C00EDF92000FFF7C4FCF2E7094B01221A60D2
:100C9C000C48FFF7BDFC42A8FFF7BAFC0A48FFF767
:100CAC00B7FCE5E7EC0B0108080C0108100C010877
:100CBC0008090020240C0108F40B01089C1B0020DF
:100CCC00140C0108400C010828020108F0B5CE46AE
:100CDC0000B58AB0019002AC01A92000FFF75CFFBF
:100CEC0061492000FFF7E4F900280ED05F4902A803
:100CFC00FFF7DEF90090002866D10198FFF75EFE41
:100D0C00041E09D000990D0043E05948FFF780FC00
:100D1C000AB080BCB946F0BD564B01221A60564849
:100D2C00FFF776FCF4E75548FFF772FC544B721C46
:100D3C001201D2199B18D879FFF7AAFD18E00136D9
:100D4C004F4B94226A439B185B68B3421CDD330102
:100D5C0094276F43D8190830494B99464844FFF7FC
:100D6C0057FC731C1B01DB194B44DB79FF2BDAD1CD
:100D7C00434B94226A439B185B68013BB342DED021
:100D8C004048FFF745FCDAE73F48FFF741FC0121FB
:100D9C0001353E4B1B68AB4210DD394B94226A4344
:100DAC00D358A342F4D13A48FFF732FC2000FFF7A6
:100DBC006FFD3848FFF72CFC009EC1E70029A7D136
:100DCC003548FFF725FCA3E702A8FFF7F7FD041E43
:100DDC0024D0019B1B78002B24D001A902A8FFF77B
:100DEC00DBFE019D2B78002B2AD02800FFF7F0FEAC
:100DFC0000281ED0280008F025FBC2B202A9200052
:100E0C00FFF77EFD01281ED0022820D0032822D017
:100E1C00042824D02148FFF7FBFB79E72048FFF793
:100E2C00F7FB75E7134B01221A601E48FFF7F0FB26
:100E3C00D3E7104B01221A601A48FFF7E9FB67E76A
:100E4C0001204042D9E71848FFF7E2FB60E717485A
:100E5C00FFF7DEFB5CE71648FFF7DAFB58E71548AF
:100E6C00FFF7D6FB54E7C0465C0C0108080C0108E0
:100E7C00640C0108080900206C0C010844020108EC
:100E8C00100900204802010828020108901B0020CC
:100E9C008C0C010818140108A00C0108780D01082D
:100EAC00BC0C0108E40C0108100D01082C0D010804
:100EBC00480D0108640D010810B58AB0019002AC10
:100ECC0001A92000FFF768FE57492000FFF7F0F852
:100EDC00002819D0554902A8FFF7EAF800284ED08F
:100EEC00534902A8FFF7E4F8002800D179E002ABDF
:100EFC001B78002B00D089E04E4B01221A604E4823
:100F0C00FFF786FB0AB010BD0198FFF757FD0028CC
:100F1C001CD04A4B18600198FFF77AFB4848FFF742
:100F2C0077FB484B1B68012B14D0022B19D0032BD9
:100F3C001ED04548FFF76CFB0220FFF7BFFC0420D6
:100F4C00FFF7BCFC0620FFF7B9FCDBE73F48FFF7D7
:100F5C005FFBD7E73E48FFF75BFB0220FFF7AEFCD9
:100F6C00D0E73B48FFF754FB0420FFF7A7FCC9E789
:100F7C003748FFF74DFB0620FFF7A0FCC2E70198AE
:100F8C00FFF71CFD002813D02C4B18600198FFF7BD
:100F9C003FFB2B48FFF73CFB2A4B1B68012B0BD06C
:100FAC00022B10D0032B15D02A48FFF731FBA9E7F1
:100FBC002648FFF72DFBA5E72748FFF729FB012063
:100FCC00FFF77CFC9EE72448FFF722FB0320FFF78A
:100FDC0075FC97E72048FFF71BFB0520FFF76EFC1D
:100FEC0090E70198FFF7EAFC00280BD0134B186030
:100FFC000198FFF70DFB1948FFF70AFBFF20FFF7DD
:10100C005DFC7FE71148FFF703FB7BE7094B0122EF
:10101C001A601348FFF7FCFA02A8FFF7F9FA114817
:10102C00FFF7F6FA6EE7C0468C0D0108E00D0108DB
:10103C00EC0B010808090020300E0108A81B002049
:10104C00181401080C090020C80D0108900D0108A6
:10105C00B00D0108F80D0108E40D01081C0E010883
:10106C00500E010828020108F0B5C64600B584B040
:10107C00060088460C22002101A80AF0FBF8002586
:10108C0000272EE094276F4388372B4BFF183B68C3
:10109C00002B0AD101333B60F433FF333B81274BE8
:1010AC007B810023BB80B433FB80BA8842453FD898
:1010BC00F98841453ED343469B1A9BB23C897889BB
:1010CC00001B5843891AFFF719F8201880B204B096
:1010DC0080BCB846F0BD94276F438837164BFF1879
:1010EC000135174B1B68AB421EDD134B94226A4330
:1010FC00D458300008F0A6F98442C3D000240E4B1B
:10110C0094226A439B185B68A342E9DD2301942275
:10111C006A4398180830084BC0183100FEF7C8FF16
:10112C000028D8D00134EAE7002FB0D101AFAEE7E8
:10113C000020CCE70020CAE710090020C4090000F9
:10114C00901B002070B584B005000E000C2200210D
:10115C0001A80AF08FF8002300E00133194A126845
:10116C009A420ADD184A94245C43A258AA42F4D14C
:10117C0023008833144A9B1800E001AB1A68002A3C
:10118C000AD101321A60F432FF321A810F4A5A81A5
:10119C0000229A80B432DA809A88B24200D91600C2
:1011AC00D988B14200D20E00B61AB6B21C89588941
:1011BC00001B7043891AFEF7A1FF201880B204B0FF
:1011CC0070BDC046901B002010090020C40900000F
:1011DC0030B58DB0019004AC01A92000FFF7DCFC08
:1011EC0087492000FEF764FF00281FD0854904A81A
:1011FC00FEF75EFF002855D0834904A8FEF758FF80
:10120C00002800D189E0814904A8FEF751FF00288D
:10121C0000D1D2E004AB1B78002B00D0E2E07C4B79
:10122C0001221A607B48FFF7F3F91DE00198FFF7E4
:10123C00C5FB002815D0784B18600198FFF7E8F92A
:10124C007648FFF7E5F9764B1B68012B0ED0022B85
:10125C0013D0032B18D0042B1DD07248FFF7D8F9EC
:10126C0002E07148FFF7D4F90DB030BD6F48FFF7BD
:10127C00CFF90120FFF722FBF6E76C48FFF7C8F91E
:10128C000220FFF71BFBEFE76848FFF7C1F90320CB
:10129C00FFF714FBE8E76548FFF7BAF90420FFF7FE
:1012AC000DFBE1E70198FFF789FB002815D05A4B9D
:1012BC0018600198FFF7ACF95848FFF7A9F9584B9B
:1012CC001B68012B0DD0022B12D0032B17D0042B33
:1012DC001CD05448FFF79CF9C6E75348FFF798F920
:1012EC00C2E75348FFF794F90520FFF7E7FABBE78D
:1012FC004F48FFF78DF90620FFF7E0FAB4E74C48AA
:10130C00FFF786F90720FFF7D9FAADE74848FFF752
:10131C007FF90820FFF7D2FAA6E704AC01A9200058
:10132C00FFF73AFC2000FFF749FB002835D0019865
:10133C0008F088F8040081B2002903D1019B1B78C6
:10134C00302B2ED104A8FFF78FFE051E2DD0344B69
:10135C001B68013B032B2CD80198FFF759F9354832
:10136C00FFF756F92004000CFFF792FA3248FFF70A
:10137C004FF92800FFF78CFA3048FFF749F9284B52
:10138C001B68103303A803700D236B441D702D0ACA
:10139C005D700321FFF760FA66E72348FFF738F921
:1013AC0062E72748FFF734F95EE72648FFF730F984
:1013BC005AE71C48FFF72CF956E70198FFF7FEFA9D
:1013CC0000280BD0144B18600198FFF721F91E4828
:1013DC00FFF71EF9FF20FFF771FA45E71248FFF7F8
:1013EC0017F941E70A4B01221A601848FFF710F968
:1013FC0004A8FFF70DF91648FFF70AF934E7C046C1
:10140C00E00D01088C0D0108C00E0108EC0B010861
:10141C0008090020140F0108A81B0020181401084B
:10142C000C090020840E0108900D0108700E0108B3
:10143C00A80E0108F00E0108040F01080C0F01089A
:10144C00C40E0108D80E01081C0E0108340F010847
:10145C002802010810B58AB0019002AC01A9200045
:10146C00FFF79AFB42492000FEF722FE002816D017
:10147C00404902A8FEF71CFE002833D03E4902A8C2
:10148C00FEF716FE002851D002AB1B78002B62D160
:10149C003A4B01221A603A48FFF7BAF818E0019863
:1014AC00FFF78CFA002815D0364B1B68013B022B3A
:1014BC0014D8354B18600198FFF7AAF83348FFF79A
:1014CC00A7F8334B334A1A602E4B1878FFF7F6F90E
:1014DC000AB010BD3048FFF79BF8F9E72F48FFF72B
:1014EC0097F8F5E70198FFF769FA002816D0254B15
:1014FC001B68013B022B15D8234B18600198FFF792
:10150C0087F82248FFF784F8214B254A1A601D4BB7
:10151C0018680330C0B2FFF7D1F9D9E71E48FFF7BE
:10152C0077F8D5E71D48FFF773F8D1E70198FFF777
:10153C0045FA00280BD0144B18600198FFF768F897
:10154C001848FFF765F8FF20FFF7B8F9C0E7124815
:10155C00FFF75EF8BCE7094B01221A601248FFF74F
:10156C0057F802A8FFF754F81048FFF751F8AFE707
:10157C00540F01087C0F0108EC0B0108080900202E
:10158C00840F01080C090020A81B00201814010866
:10159C001400002069060008900D0108580F01087E
:1015AC00450700081C0E0108A00F010828020108BD
:1015BC0010B58AB0019002AC01A92000FFF7ECFA3B
:1015CC002D492000FEF774FD002811D02B4902A8EC
:1015DC00FEF76EFD00282DD002AB1B78002B3ED100
:1015EC00274B01221A602748FFF712F80AB010BDEA
:1015FC000198FFF7E3F9002814D0234B1B68013B3B
:10160C00022B13D8214B18600198FFF701F82048E2
:10161C00FEF7FEFF1F4B204A1A601B4B1878FFF792
:10162C004DF9E3E71D48FEF7F3FFDFE71C48FEF733
:10163C00EFFFDBE70198FFF7C1F900280BD0134B44
:10164C0018600198FEF7E4FF1648FEF7E1FFFF2053
:10165C00FFF734F9CAE71148FEF7DAFFC6E7084B83
:10166C0001221A601048FEF7D3FF02A8FEF7D0FF44
:10167C000E48FEF7CDFFB9E7540F0108EC0B01083B
:10168C0008090020E00F01080C090020A81B00200D
:10169C001814010814000020DD060008900D010844
:1016AC00BC0F01081C0E0108FC0F010828020108E0
:1016BC0010B5D4B01F4948A807F070FA002803D120
:1016CC001D48FEF7A5FF15E01C48FEF7A1FF2FE013
:1016DC00A022120493421FD91B0D194A194902ACBE
:1016EC0000921222FF326A44200009F0B7FC20005D
:1016FC00FEF78EFF42A948A807F0ACFA002814D1D7
:10170C0042AB5B7A002B10D0429B80221206934294
:10171C00DED99B0F0C4AE1E7A0229201934202D939
:10172C009B0A0A4ADAE70A4AD8E748A807F07DFA82
:10173C0054B010BD440201084410010828100108DF
:10174C001C1001085810010818100108201001087D
:10175C002410010810B58AB0019002AC01A9200038
:10176C00FFF71AFA1E492000FEF7A2FC00280CD045
:10177C001C4902A8FEF79CFC00280DD11A4A1368DC
:10178C0002210B4313600AB010BD0198FEF740FF15
:10179C001648FEF73DFFF6E7154902A8FEF788FC50
:1017AC00002805D1104A136802218B431360EAE725
:1017BC0002AB1B78002B06D10E4B01221A600E488F
:1017CC00FEF726FFDFE70B4B01221A600B48FEF7F2
:1017DC001FFF02A8FEF71CFF0448FEF719FFD2E713
:1017EC006810010870100108941B002028020108E1
:1017FC007810010808090020801001089C100108CD
:10180C00F8B507000E001500104C236803E024689F
:10181C004D34FF342368002BF9D1A820400007F089
:10182C0017FE2060390009F0E0FD2268A0235B0060
:10183C00D65022680433D55021680023A6225200CA
:10184C008B502168043A8B50F8BDC0469C04002094
:10185C00064B1B6807E0A22149005A58013A5A501E
:10186C00A62252009B58002BF5D170479C040020F7
:10187C0030B59BB0019012AC01A92000FFF78CF998
:10188C00B4492000FEF714FC002828D0B24912A855
:10189C00FEF70EFC002842D0B04912A8FEF708FC57
:1018AC0000284DD0AE4912A8FEF702FC002853D0F8
:1018BC00AC4912A8FEF7FCFB002800D16CE0AA4949
:1018CC0012A8FEF7F5FB051E00D0B1E0A74B1C6873
:1018DC00002C00D180E0A648FEF79AFE94E004F0BC
:1018EC0053F80200A34902AC200009F0B7FB20001A
:1018FC00FEF78EFEA04B1B68002B0CD004F044F8B6
:10190C009D4B1A68821A9D49200009F0A7FB200004
:10191C00FEF77EFE12E09A48FEF77AFE0EE004F027
:10192C0033F8954B186004F02FF80200954902AC7F
:10193C00200009F093FB2000FEF76AFE1BB030BDBF
:10194C00019807F07FFD002802D004F023F8F5E79A
:10195C008D48FEF75DFEF1E712AC01A92000FFF700
:10196C001BF9200007F06EFD041E03D001980378CC
:10197C00002B03D18548FEF74BFEDFE72200002148
:10198C00FFF73EFF8248FEF743FE2000FEF780FF84
:10199C008048FEF73DFED1E712AC01A92000FFF70D
:1019AC00FBF8200007F04EFD041E03D001980378CD
:1019BC00002B03D17848FEF72BFEBFE72200210055
:1019CC00FFF71EFF7548FEF723FE2000FEF760FFB1
:1019DC007048FEF71DFEB1E77148FEF719FEADE742
:1019EC007048FEF715FEA2235B00E058FEF750FF8F
:1019FC006D48FEF70DFE2000FEF70AFE6048FEF76C
:101A0C0007FEA6235B00E458002C97D00135280074
:101A1C00FEF73EFFA0235B00E358002BE0D06348A9
:101A2C00FEF7F6FDA0235B00E058FEF731FFDFE781
:101A3C005F4912A8FEF73CFB041E10D05D4912A8AA
:101A4C00FEF736FB041E42D012AB1B78002B74D170
:101A5C00594B01221A605948FEF7DAFD6EE70198DE
:101A6C0007F0F0FC002803D1019B1B78002B05D15B
:101A7C003E4B1B68002B05D03C490DE05048FEF74F
:101A8C00C7FD5BE74648FEF7C3FD57E719004D312C
:101A9C00FF31A62252009B58002B14D00134A042D7
:101AAC0006D00028F2D1A62252009A58002AEDD175
:101ABC00A62252009A580A60180007F0D3FC41483D
:101ACC00FEF7A6FD3AE74048FEF7A2FD36E701987F
:101ADC0007F0B8FC002803D1019B1B78002B07D121
:101AEC00224B1B68002B0AD12D48FEF791FD25E7F0
:101AFC003648FEF78DFD21E7A62252009B58002B9D
:101B0C0015D00134A04206D00028F5D1A6225200EF
:101B1C009A58002AF0D1A4204000195801224A40BA
:101B2C001A50012907D02A48FEF772FD06E726480D
:101B3C00FEF76EFD02E72748F6E71F4B01221A60FD
:101B4C002548FEF765FD12A8FEF762FD0C48FEF76E
:101B5C005FFDF3E6E01001080C11010828110108E3
:101B6C004C11010898110108080C01089C04002074
:101B7C00F4110108E810010898040020F81001087D
:101B8C002802010814110108301101085411010830
:101B9C007C11010890110108A0110108C81101085D
:101BAC00E0110108101201081812010808120108AE
:101BBC002012010870100108080900209812010871
:101BCC0028120108481201085C1201087812010859
:101BDC00B8100108CC100108B412010830B5AB4C98
:101BEC00A5440190FFAC0C3401A92000FEF7D4FFF2
:101BFC00A7492000FEF75CFA00281FD1A54B1B68F3
:101C0C00002B0FD101990B78002B0FD0A248322258
:101C1C0006F028FC00280DD19E4B01221A609F4B28
:101C2C009D4430BD9E48FEF7F3FCF8E79D48FEF757
:101C3C00EFFCF4E79C48FEF7EBFCF0E79B49FFA8B0
:101C4C000C30FEF735FA00281FD1924B1B68002B85
:101C5C0010D0904B00221A608F4806F03AFF0028F3
:101C6C000CD18D4806F083FF0028D8D09048FEF7A1
:101C7C00CFFCD4E78F48FEF7CBFCD0E78E48FEF7BD
:101C8C00C7FC854806F073FFC9E78C49FFA80C30E8
:101C9C00FEF70EFA002810D17E4B1B68002B08D0E3
:101CAC007D4806F016FF0028B9D08348FEF7B0FC3B
:101CBC00B5E78048FEF7ACFCB1E78149FFA80C30D2
:101CCC00FEF7F6F9002800D0C5E0724B1B68002B1C
:101CDC0001D002AC3AE07748FEF79AFC9FE7272B3D
:101CEC0022D0502B00D0A0E0FFA80D30FEF766FEEE
:101CFC0000284FD0734B1B685A1E022A55D8724AC3
:101D0C001060724D00222A60714A72491160D8B27B
:101D1C00FEF7D4FD28680EF081F902000B006E4925
:101D2C00200009F09BF904E0FFA90D31200009F017
:101D3C005CFB2000FEF7C6F9019B1B78002B7CD0C6
:101D4C002C2323540130241800232370019B1B786F
:101D5C00002B74D0FFAD0C3501A92800FEF71CFF39
:101D6C002B78632B25D0BAD96D2B09D0742B5CD171
:101D7C0003F00AFE02005949200009F06FF9D8E778
:101D8C0003F002FE564B1A68821A5449200009F0DF
:101D9C0065F9CEE75348FEF73BFCFFA80D30FEF784
:101DAC0037FC5148FEF734FC39E75048FEF730FC5D
:101DBC0035E7FFAB0C335B78732B15D0FFAB0C33D3
:101DCC005B78652B1BD0FFAB0C335B78612B21D080
:101DDC00FFAB0C335B78742BABD1454B1A683F4986
:101DEC00200009F03BF9A4E7424B18680EF016F9F5
:101DFC0002000B004049200009F030F9DEE73F4BB0
:101E0C0018680EF00BF902000B003B49200009F09A
:101E1C0025F9D8E73A4B18680EF000F902000B00D0
:101E2C003549200009F01AF9D2E73648FEF7F0FBE5
:101E3C00FFA80C30FEF7ECFBF1E60A2381E716490C
:101E4C0002AC200007F0C0F82F48FEF7E1FB2000A1
:101E5C00FEF7DEFBE3E6FFAB0C331B78002B06D161
:101E6C002A4B01221A602A48FEF7D2FBD7E6274BF1
:101E7C0001221A602748FEF7CBFBFFA80C30FEF7B7
:101E8C00C7FB1948FEF7C4FBC9E6C046D4FBFFFFED
:101E9C00D012010854020020580200202C0400002B
:101EAC00D8120108F41201081413010830130108A8
:101EBC006C1301083813010850130108881301082A
:101ECC00901301080C090020A81B0020981B00206F
:101EDC00140000206D040008AC1301082C0201084A
:101EEC00980400209813010828020108BC0F01086F
:101EFC008804002094040020B413010890040020EE
:101F0C008C040020BC130108D81301080809002018
:101F1C00E413010800140108F0B5C64600B51A4BCD
:101F2C001B68002B05D0012B13D0002080BCB846B9
:101F3C00F0BD164B164A12681A60164C002323602B
:101F4C00154B164A1A60164B1878FEF7B7FC20682A
:101F5C00ECE70E4B0E4A12681A600E4C00232360FD
:101F6C000D4D0E4F2F600E4E3078FEF7A7FC2368F8
:101F7C0098462F6030680130C0B2FEF79FFC216894
:101F8C0040460CF07FFAD1E744020020A81B002049
:101F9C0040020020981B0020140000206D04000853
:101FAC003C02002010B582B00E4B1B68002B01D0F8
:101FBC0002B010BD0BF074FD81B20B4C2068FFF722
:101FCC00C1F80300094A1268103201A802706A466F
:101FDC0053711B0A9371064B22681A600321FEF79A
:101FEC003BFCE5E7380200203402002030020020E0
:101FFC00A81B0020F0B5D1B0079008AC07A92000B1
:10200C00FEF7CAFDBB492000FEF752F8002822D18A
:10201C0007980378002B13D007F00FFA0EF040F856
:10202C00041C0DF0FBFF02000B00B34910A809F0D3
:10203C0015F8B24B1C6010A8FEF7EAFA51B0F0BDCF
:10204C00AE4B18680DF0EAFF02000B00AC4910A86B
:10205C0009F004F8EFE7AB4908A8FEF729F80028C7
:10206C0021D107980378002B12D007F0E6F90EF077
:10207C0017F8041C0DF0D2FF02000B00A24910A8A7
:10208C0008F0ECFFA14B1C6010A8FEF7C1FAD5E7D5
:10209C009E4B18680DF0C2FF02000B009C4910A863
:1020AC0008F0DCFFF0E79B4908A8FEF701F80028D0
:1020BC0021D107980378002B12D007F0BEF90DF050
:1020CC00EFFF041C0DF0AAFF02000B00924910A8B0
:1020DC0008F0C4FF914B1C6010A8FEF799FAADE70D
:1020EC008E4B18680DF09AFF02000B008C4910A85B
:1020FC0008F0B4FFF0E78B4908A8FDF7D9FF0028DA
:10210C0021D107980378002B12D007F096F90DF027
:10211C00C7FF041C0DF082FF02000B00824910A8BF
:10212C0008F09CFF814B1C6010A8FEF771FA85E744
:10213C007E4B18680DF072FF02000B007C4910A852
:10214C0008F08CFFF0E77B4908A8FDF7B1FF0028E9
:10215C0021D107980378002B12D007F06EF90DF0FF
:10216C009FFF041C0DF05AFF02000B00724910A8CF
:10217C0008F074FF714B1C6010A8FEF749FA5DE77C
:10218C006E4B18680DF04AFF02000B006C4910A84A
:10219C0008F064FFF0E76B4908A8FDF789FF0028F9
:1021AC0024D0694908A8FDF783FF00285FD0674950
:1021BC0008A8FDF77DFF002800D0F1E00798037810
:1021CC00002B00D18AE007F038F90DF069FF041CF0
:1021DC000DF024FF02000B005D4910A808F03EFF33
:1021EC005C4B1C6010A8FEF713FA27E708AC07A994
:1021FC002000FEF7D1FC58492000FDF759FF0028BC
:10220C0017D1564B00221A600798FEF7D7FB00280F
:10221C0023D0534B1860534B534A12681A605348DF
:10222C00FEF7F6F90798FEF7F3F95148FEF7F0F9C7
:10223C0004E7504908A8FDF73BFF002803D1474BA2
:10224C0001221A60E0E74C48FEF7E2F908A8FEF715
:10225C00DFF94748FEF7DCF9F0E64848FEF7D8F915
:10226C000798FEF7D5F94248FEF7D2F9E6E608AC36
:10227C0007A92000FEF790FC41492000FDF718FF4C
:10228C00002817D13F4B00221A600798FEF796FBE7
:10229C00002819D03C4B18603C4B334A12681A602A
:1022AC003B48FEF7B5F90798FEF7B2F93048FEF750
:1022BC00AFF9C3E63748FEF7ABF908A8FEF7A8F963
:1022CC002B48FEF7A5F9B9E63348FEF7A1F90798B4
:1022DC00FEF79EF92648FEF79BF9AFE61D4B1868F2
:1022EC000DF09CFE02000B002C4910A808F0B6FE65
:1022FC0078E7C046DC1701081C14010850020020C6
:10230C002C14010840140108441401084C0200204C
:10231C0054140108681401086C14010848020020C8
:10232C007C14010890140108941401082402002064
:10233C00A4140108B8140108BC14010820020020E0
:10234C00CC140108E01401083415010880150108AB
:10235C00881501082C020020E81401084402002012
:10236C00400200203C0200200C090020201501082E
:10237C0028020108EC140108F014010808150108E2
:10238C0038150108380200203402002030020020E9
:10239C007015010840150108581501089C15010815
:1023AC00554908A8FDF784FE002862D1534B1B68E1
:1023BC00002B56D0524B1B68002B56D003F0E4FA7E
:1023CC00504B1860FFF7A8FD4F4B18604F4D2F680E
:1023DC004F4B19680CF056F8041C28604D490BF053
:1023EC0059FF4D4E31680BF055FC051C30604B4BC2
:1023FC001968201C0BF04EFF061C494B1968281C51
:10240C000BF048FF011C301C0BF044FC051C391C64
:10241C00201C0CF037F8434B19680BF03BFF3D497F
:10242C000BF0B4FD011C281C0BF034FC3E4B186067
:10243C003E4B1C68211CFDF74DFF002801D03A4B88
:10244C001C60394B18683A4B1C68211CFDF756FF71
:10245C00002801D0344B1C60334B1868FFF7A2FDE9
:10246C00ECE53448FEF7D4F8E8E53348FEF7D0F84D
:10247C00E4E5324908A8FDF71BFE002824D1214BC6
:10248C001E68002E1CD02E4C10AD274B18680DF07A
:10249C00C5FD049005911D4B18680DF0BFFD029011
:1024AC000391194B18680DF0B9FD009001913200A1
:1024BC002100280008F0D2FD2800FEF7A9F8BDE5A0
:1024CC002048FEF7A5F8B9E508AB1B78002B06D120
:1024DC001D4B01221A601D48FEF79AF8AEE51A4B07
:1024EC0001221A601A48FEF793F808A8FEF790F834
:1024FC001848FEF78DF8A1E5B4150108400200203C
:10250C003402002088040020940400209004002051
:10251C002C0200206F12833A280200205002002067
:10252C004C020020480200208C04002024020020D1
:10253C0020020020B8150108DC150108001601085E
:10254C002016010808160108080900204816010881
:10255C00641601082802010810B50C48FEF758F85B
:10256C000B490C48012205F04BFF002806D10A4804
:10257C00FEF74EF8094B01221A6010BD0848FEF711
:10258C0047F8064B00221A60F7E7C0468016010890
:10259C00B8180108D4060020A81601080409002068
:1025AC009816010810B506490022002005F028FFF6
:1025BC000448FEF72DF8044B00221A6010BDC046EB
:1025CC00B8180108BC1601080409002010B5C2B0E7
:1025DC000E4841AA40A906F066FB002811D1419B88
:1025EC005A69023A59894A43409B4B43DB0AD20A47
:1025FC000749684608F032FD6846FEF709F842B014
:10260C0010BD0448FEF704F8F9E7C046B8180108F5
:10261C00E4160108D016010810B58AB0019002AC7E
:10262C0001A92000FEF7B8FA25492000FDF740FD6E
:10263C0000280BD1234B1B68002B04D02248FDF73C
:10264C00E7FF0AB010BDFFF787FFFAE71F4902A8A2
:10265C00FDF72EFD00280AD11A4B1B68002B02D067
:10266C00FFF7B4FFEDE71A48FDF7D2FFE9E7194988
:10267C0002A8FDF71DFD00280AD1124B1B68002B88
:10268C0002D0FFF78FFFDCE71348FDF7C1FFD8E757
:10269C0002AB1B78002B06D1104B01221A6010489C
:1026AC00FDF7B6FFCDE70D4B01221A600D48FDF783
:1026BC00AFFF02A8FDF7ACFF0B48FDF7A9FFC0E781
:1026CC002C170108040900203417010854170108BD
:1026DC005C17010878170108801701080809002009
:1026EC009C170108B81701082802010830B59BB0E7
:1026FC000190724B1B68002B36D004007049FDF71B
:10270C00D7FC002812D16F4C22686F4902AD28000B
:10271C0008F0A4FC2800FDF77BFF00232360674A28
:10272C0013606A4806F023FA1BB030BD2000FDF799
:10273C00C9FC02000A2323540132019B9B1800217F
:10274C0019700199614802AB06F083F8002807D193
:10275C005C4A1368013313605C4806F0BAF9E3E78E
:10276C005B48FDF755FFF7E712AC01A92000FEF717
:10277C0013FA584B00221A6057492000FDF798FCB9
:10278C00002859D0554912A8FDF792FC002857D0C3
:10279C00534912A8FDF78CFC002855D0514912A8BA
:1027AC00FDF786FC002853D04F4912A8FDF780FC9A
:1027BC00002851D04D4912A8FDF77AFC00284FD0C3
:1027CC004B4912A8FDF774FC00284DD0494912A8BA
:1027DC00FDF76EFC00284BD0474912A8FDF768FCAA
:1027EC00002849D0454912A8FDF762FC002847D0C3
:1027FC00434912A8FDF75CFC002845D0414912A8BA
:10280C00FDF756FC002843D03F4912A8FDF750FCB9
:10281C00002841D03D4912A8FDF74AFC002800D100
:10282C0082E712AB1B78002B3AD12A4B01221A609B
:10283C003748FDF7EDFE77E70198FEF7E1F973E70E
:10284C000198FEF7E9F96FE70198FEF73FFA6BE79D
:10285C000198FEF731FB67E70198FFF7DDFE63E7B0
:10286C00019800F05BF85FE70198FEF7B1FC5BE7BD
:10287C000198FEF7EFFD57E70198FEF7F9FF53E7D4
:10288C000198FEF767FF4FE70198FEF791FE4BE7C3
:10289C000198FFF7A3F947E70198FFF7ABFB43E774
:1028AC000C4B01221A601B48FDF7B2FE12A8FDF773
:1028BC00AFFE1948FDF7ACFE36E7C046A004002079
:1028CC00D41701081C020020E0170108A404002002
:1028DC00F817010808090020141801081C18010831
:1028EC0020180108281801083018010834180108AC
:1028FC00381501083C18010840180108481801084F
:10290C00E81401084C18010850180108581801085F
:10291C0064180108781801082802010870B5BD4C2C
:10292C00A5440190BC4B1B68002B47D0BB4B1B68CC
:10293C00002B05D0BA49DEA8FDF7BAFB002841D11F
:10294C00DEAC01A92000FEF727F9B6492000FDF7FF
:10295C00AFFB00283AD0B449DEA8FDF7A9FB00284C
:10296C003AD0B249DEA8FDF7A3FB041E41D0B04912
:10297C00DEA8FDF79DFB061E00D171E0AD49DEA877
:10298C00FDF796FB002800D1A4E0AB49DEA8FDF7CB
:10299C008FFB002800D00AE1019B1B78002B01D192
:1029AC00A64B019301990122E6A805F05BFD0028D6
:1029BC0000D1E6E0A248FDF72BFE09E0A148FDF7A7
:1029CC0027FE05E0A048FDF723FEB9E7FEF770FEF1
:1029DC00B923DB009D4470BD019806F0E0F9002896
:1029EC0003D19A48FDF714FEF2E79548FDF710FE67
:1029FC00EEE701990122E6A805F034FD002803D189
:102A0C009348FDF705FE15E08D48FDF701FEDFE765
:102A1C00002D21D001348F4902AD2200280008F08E
:102A2C001DFB2800FDF7F4FD52A8FDF7F1FD8A48C7
:102A3C00FDF7EEFDA02152AEE6AA4900300006F0EB
:102A4C009AFA05003000FDF73DFB0138335C0A2B88
:102A5C00DED100223254DBE7E6A806F088F8B7E7AF
:102A6C0001990122E6A805F0FDFC002803D1784865
:102A7C00FDF7CEFD18E07248FDF7CAFDA8E7002C63
:102A8C0024D00136734902AC3200200008F0E6FA7B
:102A9C002000FDF7BDFD52A8FDF7BAFD6E48FDF70D
:102AAC00B7FD142002F076FFA02152ADE6AA490032
:102ABC00280006F060FA04002800FDF703FB01383B
:102ACC002B5C0A2BDBD100222A54D8E7E6A806F0AF
:102ADC004EF87DE701A9DEA8FEF75EF8019806F036
:102AEC00B1FC051E0FD00122DEA9E6A805F0BAFC48
:102AFC0000280CD159490A2252A805F0B3FC002831
:102B0C0009D101240CE05648FDF782FD60E74C48E2
:102B1C00FDF77EFD5CE75348FDF77AFD58E701347D
:102B2C00A021E6AA490002A806F025FA002806D042
:102B3C00AC42F4D052A902A806F046FAEFE7E6A898
:102B4C0006F015F852A806F012F8DEA806F027F9E0
:102B5C00002809D14148DEA906F07AF9002807D1EE
:102B6C004148FDF755FD33E74048FDF751FD2FE790
:102B7C003F48FDF74DFD2BE7002C14D052A8FFF772
:102B8C00B5FDA02152ADE6AA4900280006F0F3F9E4
:102B9C0004002800FDF796FA01382B5C0A2BEBD1C8
:102BAC0000222A54E8E7E6A805F0E1FF10E73149D6
:102BBC00DEA8FDF77DFA002814D1019B1B78002BB1
:102BCC0001D11E4B019301992B48322205F04AFC8E
:102BDC00002803D1114B01221A60F9E61848FDF7C1
:102BEC0017FDF5E6DEAB1B78002B06D1234B01223B
:102BFC001A602348FDF70CFDEAE6204B01221A600F
:102C0C002048FDF705FDDEA8FDF702FD1248FDF793
:102C1C00FFFCDDE638FAFFFF04090020A0040020C9
:102C2C00BC180108080C0108201201081C19010825
:102C3C00401901084C190108B41501080C1A0108B7
:102C4C00F41801088C180108C41801080C190108A3
:102C5C002419010838190108280201087C190108F7
:102C6C005419010880190108FC190108A41901085C
:102C7C00C4190108181A0108A4040020080900202E
:102C8C00201A01083C1A010872B6FEE700B585B09F
:102C9C000C22002101A808F0EDFA1B481B4B036025
:102CAC0080221206426000238360C3600261082206
:102CBC004261037643768376073AC26120214354FE
:102CCC009021C9004162803981622C2142548022BA
:102CDC00520102630722426335328354C36401F00C
:102CEC0007F800280BD101A9094B019301234B6074
:102CFC00054801F0D7F9002803D105B000BDFFF756
:102D0C00C3FFFFF7C1FFC046001F00200024014095
:102D1C00002000B410B51048104B03600023436032
:102D2C008360C36003744374837404224261033A66
:102D3C0082610D21C1610B39016242628262C26201
:102D4C00026343638363C36302F0BEFE002800D1B9
:102D5C0010BDFFF799FFC0463C1E002000640040E8
:102D6C0010B51248124B0360124B43600023836072
:102D7C000122C260036143618361C361036203F09A
:102D8C0091F800280CD10948002103F0F9F800282B
:102D9C0008D10648002103F01FF9002804D110BD0A
:102DAC00FFF772FFFFF770FFFFF76EFFE81D0020C3
:102DBC0000540040583D500010B51048104B0360B3
:102DCC0082235B00436000238360C0229200C260B8
:102DDC0003614361013AFF3A8261C361036243625A
:102DEC008362FA3AFF3AC26203630833436303F027
:102DFC0047FA002800D110BDFFF746FF841D0020C4
:102E0C000030014010B51148114B036082235B0068
:102E1C00436000238360E022D200C26003614361FF
:102E2C00802292008261D13AFF3AC261036243620E
:102E3C008362293AC26203630833436303F020FAC6
:102E4C00002800D110BDFFF71FFFC046201D002039
:102E5C000038004010B51748174B0360E1235B02A4
:102E6C00436000238360C36003610C224261836171
:102E7C00C36103624362836204F0D8F8002811D165
:102E8C000C48002104F052F900280DD1094800210A
:102E9C0004F072F9002809D1064804F027F900283B
:102EAC0006D110BDFFF7F0FEFFF7EEFEFFF7ECFECC
:102EBC00FFF7EAFE401C00200038014010B519480D
:102ECC00194B0360E1235B02436000238360C36002
:102EDC0003610C2242618361C3610362436210335C
:102EEC00836280235B01C36304F0A0F8002811D136
:102EFC000C48002104F01AF900280DD109480021D2
:102F0C0004F03AF9002809D1064804F0EFF800283B
:102F1C0006D110BDFFF7B8FEFFF7B6FEFFF7B4FE03
:102F2C00FFF7B2FEAC1B00200044004000B589B096
:102F3C001422002103A808F09DF90C2200216846F8
:102F4C0008F098F915488023DB05036019234360CA
:102F5C0000238360124AC26003618033836106F0F0
:102F6C0031F9002814D103A9002303934B600B48BB
:102F7C0006F0C6F900280DD16946202300930023E2
:102F8C000293064806F0EAF9002805D109B000BD05
:102F9C00FFF77AFEFFF778FEFFF776FED41C0020D1
:102FAC004FC3000010B594B005AC3C2200212000AA
:102FBC0008F060F91022002101A808F05BF98020CC
:102FCC00800002F00BFC0223059380225200089231
:102FDC000022099240210A910D930E930F92063311
:102FEC00109380239B02119380239B0412938023C4
:102FFC009B051393200001F015FC002810D101A8AB
:10300C0007230193053B436000238360A023DB016E
:10301C00C360022101F0EEFE002803D114B010BDF4
:10302C00FFF732FEFFF730FE70B5D2B002F08CFC29
:10303C00FFF7B8FFFDF73CFAFDF794FAFFF726FE11
:10304C00FFF768FEFFF78CFEFFF7B6FEFFF7DAFE20
:10305C00FFF700FFFFF732FF04F014F9002801D04E
:10306C00FFF712FEFFF762FFFA20400002F092FC1D
:10307C004E490A684E4B1A408023DB0313430B6006
:10308C004C4C200001F012FB4B490122200001F0B6
:10309C0023FA4A4805F0FAFF494802F007FE2000DF
:1030AC0001F0C2FA00266662A662200000F020FE43
:1030BC00200001F0DDF96421200000F03BFF20002E
:1030CC0000F098FF80B2A3235B006B441880C820EB
:1030DC00400002F05FFCFFF73FFA3A4B1B68586860
:1030EC0033000222310007F003FF3748FDF790FA56
:1030FC00364C236801252B4323603548FFF7F6FA3D
:10310C002368AB4323603348012301224621FF315E
:10311C00694403F07BFE041E0BD14623FF336B4442
:10312C001B780D2B15D00A2B13D0721C01A98B55B3
:10313C00D6B2294D2C68002CE5D0A2235B00E358B5
:10314C00002B0EDD25004D35FF35A6235B00E45822
:10315C00F1E701AB00229A551800FFF7C7FA2600D9
:10316C00E7E7A4235B00E358002B04D0174A13684D
:10317C0001210B4313602000FFF7B8FA134A1368C0
:10318C0001218B431360A0235B00E358002B03D079
:10319C00A2225200A350CEE7A6235B00E3582B607B
:1031AC00200006F05FF92C68C5E7C04608270140EF
:1031BC00FFFF3FFE001F002018000020D41C002041
:1031CC003C1E0020B0010020581A0108941B00205E
:1031DC00681A0108AC1B00209C04002010B586B0B6
:1031EC000F216944087017246C440548322300935E
:1031FC00313B220003F0A0F9207806B010BDC04688
:10320C00201D002070B5060002F0BEFB0500FF205B
:10321C00FFF7E4FF0400FF2804D002F0B5FB401BCD
:10322C00B042F4D32000FF384342584170BDF8B58A
:10323C0007000E00002405E03D19FF20FFF7CEFF2C
:10324C0028700134B442F7D3F8BD000010B5012248
:10325C000221034802F0ECF8FF20FFF7BFFF10BD7E
:10326C000004005010B500220221094802F0E0F8D9
:10327C00FF20FFF7B3FFFA204000FFF7C3FF041E47
:10328C0002D00124200010BDFFF7E0FFFAE7C04692
:10329C000004005070B504000D0043B2002B20DB7D
:1032AC000C2C05D0FFF7D2FFFFF7DCFF00283AD03B
:1032BC0040202043C0B2FFF791FF280EFFF78EFF8E
:1032CC00280CC0B2FFF78AFF280AC0B2FFF786FFAE
:1032DC00E8B2FFF783FF002C0DD0082C1DD0012085
:1032EC000AE07F231C4000213720FFF7D3FF0200A8
:1032FC000128D5D90FE09520FFF770FF0C2C0ED0CC
:10330C000A24FF20FFF76AFF0200000603D5013CE8
:10331C00E4B2002CF5D1100070BD8720ECE7FF2043
:10332C00FFF75CFFECE7FF22F5E7000010B5012387
:10333C008AB2034C5B420100200003F023F810BD5D
:10334C00201D002070B504000D00FA204000FFF78E
:10335C0059FF002800D170BD2800FFF73FFFFD2D5D
:10336C0001D10120F7E7802189002000FFF7DEFF63
:10337C00FF20FFF733FFFF20FFF730FFFF20FFF7A1
:10338C002DFF1F230340052B01D10120E3E7002073
:10339C00E1E7000010B5040002F0F6FA024B1860E9
:1033AC00024B1C6010BDC046681F0020641F00202B
:1033BC0010B502F0E9FA044B1B68C01A034B1B68EA
:1033CC0098428041404210BD681F0020641F0020BD
:1033DC0070B505000E00C820FFF7DCFFFF20FFF7DB
:1033EC00FDFE0400FF2803D1FFF7E2FF0028F5D112
:1033FC00FE2C01D0002070BD31002800FFF717FF14
:10340C00FF20FFF7EBFEFF20FFF7E8FE0120F2E7BD
:10341C0070B582B0002800D0A7E0554B1B789B07F5
:10342C0010D4544B1A68136838218B4308390B435A
:10343C0013600A24002C09D0FF20FFF7CFFE013CBB
:10344C00E4B2F7E74A4B1878C0B21EE00021002026
:10345C00FFF720FF05000600012818D0464B1C7012
:10346C00FFF7F4FE002C00D17BE0424B1A68136886
:10347C0038218B4328390B4313603D4A13780F399D
:10348C008B4313703A4B1878C0B202B070BDFA205F
:10349C008000FFF77FFFD52149000820FFF7FAFED7
:1034AC00012839D1250006E0FF20FFF797FE01AB7C
:1034BC0058550135EDB2032DF6D901AB9B78012B94
:1034CC00CCD101ABDB78AA2BC8D1FFF771FF002858
:1034DC0006D08021C905A920FFF7DCFE0028F4D115
:1034EC00FFF766FF002801D10400B7E700213A205E
:1034FC00FFF7D0FE051E07D0B0E7FF20FFF76EFEEA
:10350C0001AB58550135EDB2032DF6D901AB1B7843
:10351C005B0624D50C24A1E70021A920FFF7BAFEF5
:10352C0001280FD9FFF744FF002805D000213000F7
:10353C00FFF7B0FE0028F5D1FFF73AFF002804D1C1
:10354C0004008BE70225A926ECE7802189001020D6
:10355C00FFF7A0FE002800D080E72C007EE70424B3
:10356C007CE7034B01221A708CE701208DE7C046E3
:10357C001A000020201D00206C1F0020002803D101
:10358C00024B1878C0B270470120FCE71A000020EB
:10359C0070B50D0011001C00002837D1002B37D05E
:1035AC001D4B1B78DB0735D41C4B1B781B0700D439
:1035BC005102012C1CD01220FFF76CFE002811D1F7
:1035CC00802189002800FFF703FF002806D0802304
:1035DC009B009C466544013C002CF1D100210C2041
:1035EC00FFF758FEFFF732FE631E9C41E0B270BD40
:1035FC001120FFF74FFE0028F4D18021890028000C
:10360C00FFF7E6FE0028EDD00024EBE70420EEE700
:10361C000420ECE70320EAE71A0000206C1F0020CE
:10362C0070B50D0016001C00002847D1002B47D0A8
:10363C00264B1B78DB0745D4244B1B785B0743D404
:10364C00234B1B781A0700D47602012C21D00622BA
:10365C001A422CD131001920FFF71CFE002812D180
:10366C00FC212800FFF76EFE002806D080239B006B
:10367C009C466544013C002CF2D1FD210020FFF753
:10368C0061FE002818D0FFF7E1FD631E9C41E0B2FB
:10369C0070BD31001820FFF7FDFD0028F3D1FE218D
:1036AC002800FFF74FFE0028EDD00024EBE72100A7
:1036BC009720FFF7EFFDCDE70124E4E70420E7E7CF
:1036CC000420E5E70320E3E70220E1E71A000020ED
:1036DC006C1F002070B584B00C001600002800D0C0
:1036EC00FEE0814B1B78DB0700D5FBE003295CD0A7
:1036FC0011D800291BD001290BD100210920FFF77B
:10370C00C9FD051E1AD02500FFF7A0FD280004B046
:10371C0070BD0425F8E7042907D1744B1B780622E9
:10372C001A4200D09DE00125EEE70425ECE7FFF7F7
:10373C0099FD002800D0C9E00125E5E71021684675
:10374C00FFF746FE002800D1C2E06B461B789B09B0
:10375C00012B1BD06A4651790F230B40917AC90972
:10376C005B18507A4000062101405918137A9B09C6
:10377C00D07980001B1892799202C020000102407F
:10378C009B18013307398B403360BDE76A46537A87
:10379C00117A09025B18D2791204FC2189030A40C0
:1037AC009B1801339B023360AEE7504B1B785B07D1
:1037BC0022D500218D20FFF76DFD002801D00125B9
:1037CC00A2E7FF30FFF70AFD10216846FFF700FE65
:1037DC0000280FD1012597E7FF20FFF7FFFC013DE3
:1037EC00EDB2002DF8D16B469A7A12091023934052
:1037FC00336089E73025F4E700210920FFF74AFD03
:10380C00041E01D001257FE710216846FFF7E0FD7B
:10381C0000285FD0354B1B78022215001D401A4240
:10382C000FD06A46917A49007E230B40D17AC909A0
:10383C005B180133527B9209013A934033602500A7
:10384C0062E769468B7A9B101F221A400132C97AB3
:10385C00C8001823034049095B18013353433360F4
:10386C0052E76A460B21FFF735FF002834D16B462F
:10387C001B789B0903D16B469B7A5B062ED531686E
:10388C0074681A4B1B781B0701D449026402202070
:10389C00FFF700FD002801D0012535E7210021307C
:1038AC00FFF7F8FC002801D001252DE70021263078
:1038BC00FFF7F0FC051E01D0012525E70C48FFF7AA
:1038CC00A1FC002800D01FE701351DE725001BE7F0
:1038DC00250019E7012517E7012515E7012513E751
:1038EC00042513E7032511E71A0000206C1F0020A4
:1038FC0030750000FEE7FEE77047704710B502F028
:10390C0037F8FDF7A5FF10BD10B5024801F0F6FE23
:10391C0010BDC046A01E002000B583B00B4B196C27
:10392C00012211431964196C0A400092009ADA6B57
:10393C00802149050A43DA63DB6B0B400193019B41
:10394C00C020C00002F038F803B000BD00100240E7
:10395C0010B588B004001422002103A807F08AFCDB
:10396C0022681E4B9A4201D008B010BD1C4B1A6C39
:10397C00802149030A431A641A6C0A400192019A85
:10398C00596B0122114359635B6B13400293029BE9
:10399C0003A9039203234B60A020C00501F088FC0F
:1039AC001048114B03600523436000238360C36000
:1039BC0080220261803242618022D2008261202208
:1039CC00C261036201F0A2FD002803D1054B2365FF
:1039DC009C62C9E7FFF758F9F8E7C046002401409C
:1039EC0000100240A01E00200800024010B59AB042
:1039FC0004001422002115A807F03CFC4C220021E5
:103A0C0002A807F037FC2268184B9A4201D01AB072
:103A1C0010BD80239B04029302A801F0CBFA00286E
:103A2C0021D1134BDA6B802149010A43DA63DA6B3B
:103A3C000A400092009A596B0122114359635B6B47
:103A4C001A400192019B15A9C0235B011593022317
:103A5C004B6000238B60CB6003330B61A020C0054F
:103A6C0001F026FCD3E7FFF70FF9DAE7006400401A
:103A7C000010024010B59AB004001422002115A8C1
:103A8C0007F0F8FB4C22002102A807F0F3FB226898
:103A9C00174B9A4201D01AB010BD2023029302A8F2
:103AAC0001F088FA00281FD1124C626B02231A43D2
:103ABC006263626B13400093009B15A9C02315939E
:103ACC00AE3B4B6000238B60CB6006330B610A4826
:103ADC0001F0EEFBE36B802292031343E363E36B91
:103AEC0013400193019BD6E7FFF7CEF8DCE7C04605
:103AFC00005400400010024000040050F0B58BB0A0
:103B0C0004001422002105A807F0B4FB2368304AF6
:103B1C00934204D02F4A93421DD00BB0F0BD2E4BD4
:103B2C001A6C802149010A431A641A6C0A400092EB
:103B3C00009A596B0122114359635B6B1A40019235
:103B4C00019B05A9C2230593C03B4B60A020C00577
:103B5C0001F0AEFBE1E7204BDA6B8021C9010A438F
:103B6C00DA63DA6B0A400292029A5A6B01263243EC
:103B7C005A635A6B32400392039A5A6B02252A43BA
:103B8C005A635B6B2B400493049B05AC0823059391
:103B9C00069507960895A027FF052100380001F02F
:103BAC0087FB102305930695079608950996210027
:103BBC00380001F07DFB8023DB000593069507960A
:103BCC000895052309932100044801F071FBA4E733
:103BDC00003001400038004000100240000400504A
:103BEC0082B002688023DB059A4201D002B0704794
:103BFC00044AD16B01231943D163D26B1340019357
:103C0C00019BF3E70010024010B59CB00400142295
:103C1C00002117A807F02EFB4C22002104A807F066
:103C2C0029FB23682E4A934204D02E4A93422CD06F
:103C3C001CB010BD0123049304A801F0BBF90028AB
:103C4C0020D1294B1A6C8021C9010A431A641A6CC1
:103C5C000A400092009A596B0122114359635B6B25
:103C6C0013400193019B17A9C023DB001793022378
:103C7C004B6000238B60CB600A61A020C00501F073
:103C8C0017FBD5E7FFF700F8DBE70223049304A842
:103C9C0001F090F900281FD1134BDA6B80218902B7
:103CAC000A43DA63DA6B0A400292029A596B0122D8
:103CBC00114359635B6B13400393039B17A90B4B85
:103CCC00179302234B6000238B60CB600A61A0200A
:103CDC00C00501F0EDFAABE7FEF7D6FFDCE7C04616
:103CEC0000380140004400400010024004800000F5
:103CFC0030B583B0040000230193002800D106E105
:103D0C00836D002B13D023689A68D2001CD4996859
:103D1C00804A1140802252050A439A607E4B1868F3
:103D2C007E49FCF7EBF901304000019009E0FFF708
:103D3C000FFE0023E3655422A354E4E7019B013BEF
:103D4C000193019B002BF9D123689A68D20000D50E
:103D5C009DE0A26D10210A43A265E26D0F390A4362
:103D6C00E26501209A6804210D001540114200D033
:103D7C000125A26DD20600D5C2E0002D00D0BFE017
:103D8C00A26D67490A400631FF310A43A2659A6861
:103D9C00D20752D4A268217E89030A43617EC903EB
:103DAC000A43A57E69030A43216B002901D08021B7
:103DBC0049010A43E1680A432169002969DB802132
:103DCC0089030A432C21615C49000A432021615C70
:103DDC00012961D0616A002905D0E0256D002940D8
:103DEC00A56A29430A43D9684E4D29400A43DA6033
:103DFC0063689B0F9B07E26C1A433C21615C0129B1
:103E0C0059D021680B69484D2B4013430B616368F3
:103E1C00C0221206934210D08022D20593420CD0BD
:103E2C0080221206934208D040490A68404D2A402D
:103E3C00F025AD032B4013430B602168636B4A697B
:103E4C000725AA4313434B612168A26B4B69693563
:103E5C00AB43120113434B612369002B35D122680C
:103E6C00916A103B0B43936223685A6907231340F2
:103E7C00626B9A423BD0A36D12229343023A1343D6
:103E8C00A365E36D0F3A1343E36501203DE0002089
:103E9C0068E74900490894E7002D03D180214902C5
:103EAC000A4397E7A16D20252943A165E16D1F3DCC
:103EBC002943E1658EE7216C0B43616C0B43A16CCC
:103ECC000B43134301221A439BE780229203934234
:103EDC00CAD121688B6AE369013B9B001C221A4002
:103EEC0010235B429340226E13438B62BCE700238A
:103EFC00E365A36D03229343023A1343A36504E0E5
:103F0C00A36D10221343A365012003B030BD012023
:103F1C00FBE7C046E8FFFF6F20000020400D0300C8
:103F2C00FDFEFFFF0102DEFF02FCFF1F0827014020
:103F3C00FFFFC3FFF8B504000D004669082E04D03E
:103F4C000368DB68DB071DD4042601F01DFD0700A8
:103F5C0023681A6816421BD16B1CF9D001F014FDB2
:103F6C00C01BA84201D8002DF2D123681B681E4249
:103F7C00EED1A36D04221343A36554230022E25413
:103F8C00032029E0836D202213438365012023E065
:103F9C00A16D802292000A43A265D968C022120149
:103FAC00114213D1A27E002A10D11A6812070DD526
:103FBC009A68520711D45A680C218A435A60A36D2F
:103FCC000B4A13400432FF321343A365207E0028B2
:103FDC000CD123680C221A60F8BDA36D2022134368
:103FEC00A365E36D1F3A1343E365EFE70020F3E7A6
:103FFC00FEFEFFFF0368186C7047704710B5806AAF
:10400C00FFF7FBFF10BD704710B5806A836D40222F
:10401C0013438365C36D3C3A1343C365FFF7F3FF4A
:10402C0010BD000010B50300806A826D5021114252
:10403C002AD1826D80239B00134383650368D96862
:10404C00C0221201114213D1827E002A10D11A68AB
:10405C0012070DD59A6852070DD45A680C218A4361
:10406C005A60836D0E4A13400432FF32134383654A
:10407C00FCF7B2FA10BD836D202213438365C36D28
:10408C001F3A1343C365F3E7826DD20604D4026D65
:10409C00526B18009047EDE7FFF7B5FFEAE7C04613
:1040AC00FEFEFFFFF0B583B0040000230193056909
:1040BC005433C35C012B00D12FE154230122C25491
:1040CC0000688368033216001E401A4209D0A36DA3
:1040DC001C321343A365012054230022E25403B085
:1040EC00F0BD4B68022B00D1D5E080221206954220
:1040FC0025D08B4A954222D0226E1F271F400F25B8
:10410C00BD40AA430B685D032FD19B0E1F261E409A
:10411C00BE40324322664D68AB080133E2699342DC
:10412C0013D80E68826A1F231D40103B1F00AF403E
:10413C00BA43B60E3340AB401343836205E00B68C1
:10414C00826A5B035B0B1343836220680B688D6888
:10415C0042691B029A432B40724D2B40134343611F
:10416C000B68002B4FDB0020B6E7DD07D0D49D0792
:10417C0027D45D0727D41D0727D4DD0627D49D0639
:10418C0027D45D0627D41D0627D4DD0527D49D052D
:10419C0027D45D0527D41D0527D4DD0427D49D0421
:1041AC0027D45D0427D41D0427D4DD0327D49D0315
:1041BC0027D48025ED021E002E402B42A8D01226BB
:1041CC00A6E70126A4E70226A2E70326A0E7042619
:1041DC009EE705269CE706269AE7072698E7082619
:1041EC0096E7092694E70A2692E70B2690E70C2619
:1041FC008EE70D268CE70E268AE70F2688E7102619
:10420C0086E7112684E7484A1168E02252040A40E6
:10421C004648834207D04648834222D045488342D1
:10422C002CD0002058E70802F5D480231B0413433C
:10423C003D490A684048024013430B603F4B1868E5
:10424C003F49FBF75BFF013043001B189B000193B8
:10425C0002E0019B013B0193019B002BF9D1002053
:10426C003AE7C801DAD480235B0413432E490A6869
:10427C003148024013430B6000202DE749024AD419
:10428C008023DB03134328490A682B48024013435D
:10429C000B60002020E780231B069D4202D0204BA0
:1042AC009D4205D10B68826A5B035B0B9A43826269
:1042BC000B68002B01DB00200EE71B4A12681B4920
:1042CC008B4207D01A498B420FD01A498B4217D018
:1042DC00002001E7A0235B041A4013490B68164821
:1042EC0003401A430A600020F6E6C0231B041A4060
:1042FC000D490B68104803401A430A600020EBE696
:10430C00C0235B041A4008490B680B4803401A434E
:10431C000A600020E0E60020DEE60220DFE6C04670
:10432C000400008000FFFF0708270140001000B0C8
:10433C00004000B8002000B4FFFF3FFE200000202A
:10434C00400D030070B50400026893685B0724D528
:10435C0093689B0705D4936811490B4010210B43BC
:10436C00936001F011FB050023689B685B0712D575
:10437C0001F00AFB401B0228F6D923689B685B07F7
:10438C00F2D5A36D10221343A365E36D0F3A1343CB
:10439C00E365012002E0002000E0002070BDC04673
:1043AC00E8FFFF7F30B583B004000023019303685E
:1043BC009A68D2074FD49968284A114211D19A6849
:1043CC0027490A4001210A439A60264B1B681B02AD
:1043DC0017D5254B18682549FBF790FE0130019045
:1043EC000CE0836D102213438365C36D0F3A1343A6
:1043FC00C365012030E0019B013B0193019B002B25
:10440C00F9D1637E012B01D1002025E001F0BCFA2B
:10441C00050023681A68D2071BD49A68D20705D402
:10442C009A680F490A4001210A439A6001F0ACFADC
:10443C00401B0228EDD923681B68DB07E9D4A36D68
:10444C0010221343A365E36D0F3A1343E365012078
:10445C0002E0002000E0002003B030BD1700008017
:10446C00E8FFFF7F0827014020000020400D0300DB
:10447C0010B5040003689B685B0724D45423C35C09
:10448C00012B22D054230122C254FFF78BFF0028AA
:10449C0015D1A26D0E4B1A4080235B001343A3650C
:1044AC000023E36522681C2111605422A354226866
:1044BC00936808490B4004210B43936004E0542398
:1044CC000022E25400E0022010BD0220FCE7C046AE
:1044DC00FEF0FFFFE8FFFF7F70B504000D00160033
:1044EC00026893685B0747D45423C35C012B45D007
:1044FC00012354214354D1680B420DD19368DB073F
:10450C0005D593681E490B4002210B43936022682A
:10451C00D36801210B43D3602000FFF743FF002831
:10452C002BD1A26D174B1A4080235B001343A3655C
:10453C000023E365226D1449D162226D1349116386
:10454C00226D1349516322681C2111605422A3541B
:10455C00226853680C390B43536021684031206D3D
:10456C0033002A0001F040F82268936804490B409C
:10457C0004210B43936000E0022070BD0220FCE795
:10458C00E8FFFF7FFEF0FFFF314000080940000804
:10459C001540000870B5040003689A6802210800F1
:1045AC001040114200D001209A68D20735D500285E
:1045BC0035D1996805220A40012A09D0A36D102231
:1045CC001343A365E36D0F3A1343E365012025E024
:1045DC009A6814490A4002210A439A60236803220C
:1045EC001A6001F0D1F9050023689B68DB0712D52E
:1045FC0001F0CAF9401B0228F6D923689B68DB0737
:10460C00F2D5A36D10221343A365E36D0F3A134348
:10461C00E365012002E0002000E0002070BD0020D6
:10462C00FCE7C046E8FFFF7F70B504005423C35C71
:10463C00012B36D054230122C254FFF783FE051EF2
:10464C001DD1206D2523C35C022B1DD0226853681D
:10465C0010218B435360002D1FD12000FFF79AFFD0
:10466C000500002D06D1A36D0F4A13400432FF3212
:10467C001343A3652268D36801218B43D360542371
:10468C000022E254280070BD00F0FCFF051EDDD0B6
:10469C00A36D40221343A365D8E72000FFF77AFFF0
:1046AC00DFE70225EEE7C046FEFEFFFFF0B583B064
:1046BC000400002301935433C35C012B00D1A2E00E
:1046CC0001265423C654FFF765FF050023689A683A
:1046DC0031001140164209D0A36D10221343A3657B
:1046EC0054230022E254280003B0F0BDA26D4748C9
:1046FC0002400630FF300243A265DE68444A164091
:10470C00DA6844480240DA60080005E0B4229A589E
:10471C007F231340C018013107291CD82768BA68B9
:10472C003D4B1A4018331343BB6023689A68002A28
:10473C00ECDA019B01330193019A384B9A42F4D97C
:10474C00A36D12229343023A1343A3655423002210
:10475C00E2540125C7E7FBF7D1FC226893682E4988
:10476C000B4001210B439360226811698023DB0508
:10477C00994217D22A4B1B68F02189030B40E02188
:10478C0049038B420ED39B0C033B012199400091B2
:10479C00009B5B08009302E0009B013B0093009B95
:1047AC00002BF9D1B42153587F27BB4318435050E9
:1047BC002268936818490B4002210B43936001F067
:1047CC00E3F8070023689A68D20709D4DA68324301
:1047DC00DA60A36D03229343023A1343A3657FE788
:1047EC0001F0D2F8C01B0228ECD923689B68DB07C8
:1047FC00E8D5A36D10221343A365E36D0F3A134361
:10480C00E36501256FE702256DE7C046FDFEFFFF5E
:10481C0003800000FC7FFFFFE8FFFF7FFFF1020039
:10482C000827014070B582B0041E00D15EE2036817
:10483C00DB0739D5C14A916838230B40D168032274
:10484C000A40102B26D0082B26D0636880225202F7
:10485C0093427FD0A022D202934200D181E0B74B89
:10486C001A68B7490A401A601A68B6490A401A60B1
:10487C006368002B00D180E001F086F80500AF4B97
:10488C001B689B0310D401F07FF8401B6428F6D9F9
:10489C0003202CE2032AD6D1A84B1B689B0303D51B
:1048AC006368002B00D124E223689B0731D5A34A0F
:1048BC00916838230B40D16803220A40102B6AD030
:1048CC00002B6BD19D4A1268520503D5E268002A71
:1048DC0000D110E2994842689B490A40616909027B
:1048EC000A434260002B0DD1036898490B402169A3
:1048FC000B4303600368DB0A07221A40944BD34036
:10490C00944A1360944B186800F0F2FF002800D012
:10491C00F3E123681B0700D481E0884B9A683823A5
:10492C001340182B73D0A369002B00D1B4E0834A39
:10493C00136E01210B43136601F026F805007F4B23
:10494C001B6E9B076BD401F01FF8401B0228F6D995
:10495C000320CCE1794A116880235B020B4313607E
:10496C0086E7764B19688022D2020A431A601968CE
:10497C00802252020A431A607AE701F005F805001A
:10498C006E4B1B689B038FD500F0FEFF401B642809
:10499C00F6D90320ABE1022A92D193E7E368002B0E
:1049AC0022D0664A136869490B4021690B43136096
:1049BC00116880235B000B43136000F0E5FF0500DA
:1049CC005E4B1B685B0506D400F0DEFF401B022823
:1049DC00F6D903208BE159494B685B4A1340626955
:1049EC00120213434B6094E7544A13685B490B4023
:1049FC00136000F0C9FF0500504B1B685B0588D5A0
:104A0C0000F0C2FF401B0228F6D903206FE14B4B8C
:104A1C001B6E9B0703D5A369002B00D16FE12368A4
:104A2C005B0700D4A2E0454B9A6838231340202B37
:104A3C0045D0424BDB6BDB004AD4404BDA6B802118
:104A4C0049050A43DA63DB6B0B400193019B01259B
:104A5C00434B1B68DB053DD5A368012B4ED0052BC2
:104A6C0052D0364BDA6D01218A43DA65DA6D0331A7
:104A7C008A43DA65A368002B50D000F085FF06004E
:104A8C002E4BDB6D9B076FD400F07EFF801B354BEC
:104A9C009842F5D903202AE1284A136E01218B4351
:104AAC00136600F071FF0500244B1B6E9B07B6D5F7
:104ABC0000F06AFF401B0228F6D9032017E11F4BB8
:104ACC00DB6D9B0752D5A368002B4FD101200EE163
:104ADC000025BDE7224A116880235B000B4313605D
:104AEC0000F052FF06001E4B1B68DB05B4D400F02F
:104AFC004BFF801B0228F6D90320F8E00F4AD36D38
:104B0C0001210B43D365B5E70C4BDA6D04210A4345
:104B1C00DA65DA6D03390A43DA65ABE700F034FF86
:104B2C000600064BDB6D9B071ED500F02DFF801B8E
:104B3C000C4B9842F5D90320D9E0C0460010024036
:104B4C00FFFFFEFFFFFFFBFFFF80FFFFFFC7FFFF25
:104B5C000024F400200000201C000020FFFEFFFFBA
:104B6C000070004088130000012D19D023689B06AB
:104B7C002FD5E369002B19D06A4A11688023DB0317
:104B8C000B43136000F000FF0500664B1B681B0213
:104B9C001FD400F0F9FE401B0228F6D90320A6E032
:104BAC00604AD36B60490B40D363DFE75D4A1368FF
:104BBC005E490B40136000F0E7FE0500594B1B6883
:104BCC001B0206D500F0E0FE401B0228F6D903209C
:104BDC008DE0236A002B00D193E0524A9168382271
:104BEC000A40102A5AD0022B12D04E4A1368504950
:104BFC000B40136000F0C8FE04004A4B1B689B017D
:104C0C0045D500F0C1FE001B0228F6D903206EE04A
:104C1C00444A136846490B40136000F0B5FE05008A
:104C2C00404B1B689B0106D500F0AEFE401B0228D2
:104C3C00F6D903205BE03B4AD3683E491940636ACE
:104C4C00A06A0343E06A00020343206B0343606BDA
:104C5C000343A06B03430B43D360116880235B04B5
:104C6C000B431360D16880235B050B43D36000F0CA
:104C7C008BFE04002B4B1B689B0106D400F084FEBA
:104C8C00001B0228F6D9032031E000202FE0254A32
:104C9C00D36829490B40D360002028E0012B32D087
:104CAC00204BDA6803231340616A8B422DD17023A9
:104CBC001340A16A8B422AD1FE21C9011140E36A3B
:104CCC001B02994225D1F8239B031340216B8B4285
:104CDC0021D1E0231B051340616B8B421DD1520F78
:104CEC005207A36B9A421AD1002000E0012002B0B7
:104CFC0070BD0120FBE70120F9E70120F7E7012057
:104D0C00F5E70020F3E70120F1E70120EFE70120B0
:104D1C00EDE70120EBE70120E9E70120E7E70120BF
:104D2C00E5E7C04600100240FFFFFFEFFFFFBFFFAB
:104D3C00FFFFFFFE8C80C111FCFFFEEE10B52A4B6D
:104D4C009B6838221A4207D1274B1A68D20A0723CC
:104D5C0013402648D84010BD234B9A683823134083
:104D6C00082B3BD0204B9A6838231340102B0DD0C6
:104D7C001D4B9A6838231340202B31D01A4B9A685C
:104D8C0038231340182B26D00020E4E7164AD168AC
:104D9C000D3B0B40D2681209072111400131032B46
:104DAC000FD01248FBF7AAF90F4BDA68120A7F23CF
:104DBC00134058430C4BD968490F0131FBF79EF94E
:104DCC00C9E70B48FBF79AF9074BDA68120A7F23FD
:104DDC0013405843EEE7FA20C001BCE70448BAE799
:104DEC0080200002B7E7C046001002400024F40007
:104DFC0000127A0070B504000D00002800D1AAE062
:104E0C00574B1A68072313408B4221D323689A0708
:104E1C000ED55B0705D5534A9168E023DB010B43A4
:104E2C009360504A936850490B40A1680B439360C0
:104E3C002368DB0754D56368012B20D0022B3BD0B1
:104E4C00002B3FD1474A126852051CD401206AE05E
:104E5C00434A136807218B432B43136000F094FDE6
:104E6C0006003F4B1A6807231340AB42CED000F02C
:104E7C008BFD801B3D4A9042F3D9032053E0394A05
:104E8C001268920369D537498A6807208243134315
:104E9C008B6000F079FD0600324B9B6838221A407B
:104EAC006368DB009A421BD000F06EFD801B2F4B19
:104EBC009842F1D9032036E02A4A12689201E2D4D2
:104ECC00012030E0032B05D0264AD26D9207DAD4AC
:104EDC00012028E0234A126E9207D4D4012022E04C
:104EEC001F4B1A6807231340AB421DD823685B077E
:104EFC0006D51C4A93681E490B40E1680B4393602E
:104F0C00FFF71CFF174B9A68120A0F231340194A1C
:104F1C009B009A581F231340D840174B1860174B0F
:104F2C00186800F0E5FC70BD0D4A136807218B432F
:104F3C002B43136000F028FD0600094B1A68072369
:104F4C001340AB42D2D000F01FFD801B074B9842A0
:104F5C00F3D90320E7E70120E5E70120E3E7C046AA
:104F6C000020024000100240FFF0FFFF88130000F9
:104F7C00FF8FFFFF141B0108200000201C000020E5
:104F8C00014B18687047C0462000002010B5FFF791
:104F9C00F7FF064B9A68120B07231340044A9B0039
:104FAC009A581F231340D84010BDC0460010024031
:104FBC00F41A0108F0B583B0040003689B0362D5B2
:104FCC00AE4BDB6BDB001ED4AC4BDA6B802149059E
:104FDC000A43DA63DB6B0B400193019B0126A84A61
:104FEC00116880235B000B43136000F0CDFC0500BF
:104FFC00A34B1B68DB0508D400F0C6FC401B022841
:10500C00F6D9032502E00026E9E70025002D23D17F
:10501C009A4BD96DC02292000B001340114212D052
:10502C00226C9A420DD0954AD36D96490B40D06DA7
:10503C00802149020143D165D16D93480140D1656E
:10504C00D365DB0710D4002D06D18C4AD36D8D4966
:10505C000B40216C0B43D365012E15D1874AD36BC2
:10506C008A490B40D3630FE000F08EFC0700834BA2
:10507C00DB6D9B07E7D400F087FCC01B844B984288
:10508C00F5D90325DFE700252368DB0706D57B4A26
:10509C00536D03218B4361680B43536523689B0756
:1050AC0006D5764A536D0C218B43A1680B4353658F
:1050BC0023685B0706D5714A536D30218B43E16839
:1050CC000B4353652368DB0606D56C4A536D714957
:1050DC000B4021690B4353652368DB0406D5674AF3
:1050EC00536D68490B4061690B43536523689B05FD
:1050FC0006D5624A536D68490B40A16A0B43536550
:10510C0023685B0506D55D4A536D64490B40E16A23
:10511C000B43536523689B0606D5584A536D60496B
:10512C000B40A1690B43536523685B0606D5534AB4
:10513C00536D5C490B40E1690B43536523685B0479
:10514C000BD54E4A536D9B009B08216B0B4353654B
:10515C00226B8023DB059A4262D023681B0306D5A1
:10516C00464A536D40218B43616B0B435365236857
:10517C009B020BD5414A536D4B490B40A16B0B4322
:10518C005365A26B8023DB039A4250D023685B02E9
:10519C000BD53A4A536D45490B40E16B0B435365B4
:1051AC00E26B80235B049A4248D023681B0509D527
:1051BC00324A936D03218B43216A0B439365236A17
:1051CC00012B40D023689B0409D52C4A936D0C21EC
:1051DC008B43616A0B439365636A042B39D0236854
:1051EC00DB010BD5254A936D2D490B40616C0B43AC
:1051FC009365626C80239B019A4230D023689B019B
:10520C000BD51E4A936D1F490B40A16C0B43936544
:10521C00A26C80235B009A4228D0280003B0F0BD1A
:10522C00164AD16880235B020B43D36095E7134A7F
:10523C00D16880235B040B43D360A7E70F4AD16886
:10524C000B43D360B1E7D16880235B020B43D3607F
:10525C00B8E7D16880235B020B43D360BFE7074AF2
:10526C00D16880235B040B43D360C7E7034AD16842
:10527C0080235B040B43D360CFE7C0460010024091
:10528C0000700040FFFCFFFFFFFFFEFFFFFFFFEF82
:10529C0088130000FFF3FFFFFFFFF3FFFFFFCFFFBB
:1052AC00FFCFFFFFFF3FFFFFFFFFBFFFFFFFFFFE33
:1052BC00F0B5002359E086685F000324BC40A64388
:1052CC00CC68BC4034438460446894434E683609CF
:1052DC00012232409A402243426056E0DE080836F2
:1052EC00B600375805321A4092000F249440A74359
:1052FC000C69944022003A43325059E0042600E0F5
:10530C000026A64034003C43444E1832920094517F
:10531C003768EA433E00AE434C68E40201D53E00D8
:10532C002E433E4C266067683E0016404C68A40233
:10533C0001D53E002E43394C66608426A7593E00A9
:10534C0016404C68A40301D53E002E43334C8427F1
:10535C00E6518026A65932404C68E40301D52A0058
:10536C0032432E4D80242A5101330C682200DA403E
:10537C0053D001229A40250015401442F4D04E68B7
:10538C0003243440013C012C95D94C680322224063
:10539C00032A08D0C4685E000322B24094438A6892
:1053AC00B2402243C2604C6803222240022A95D0AC
:1053BC0004685E0003221700B740BC434F683A40B4
:1053CC00B240224302604C68C02292021442CBD0FD
:1053DC009A0814001834A400104EA75903241C403A
:1053EC00E4000F26A640B743A026F605B04287D0AE
:1053FC000B4EB0420BD00B4EB0420AD00A4EB0420C
:10540C0009D00A4EB04200D178E7052679E701268B
:10541C0077E7022675E7032673E7F0BD0018024014
:10542C000004005000080050000C00500010005008
:10543C00002A01D0816170478162FCE770B5C46CB1
:10544C00056D6560446D002C02D0846DC56D656082
:10545C00446C1C252540066C0124AC407460046827
:10546C0063608368102B04D0036899600368DA606A
:10547C0070BD03689A600368D960F9E710B5040041
:10548C000268144B9A4215D8436C9B089B00124936
:10549C008C4663448364FF20104008381421FAF7CB
:1054AC002DFE03000D4AE2641F20184001238340A7
:1054BC00236510BD436C9B089B0009498C466344D3
:1054CC008364FF20104008381421FAF717FEC31D1F
:1054DC00E8E7C0460704024000080240800802408A
:1054EC001C08024042687F231340064A9A18920017
:1054FC004265054A8265013B03221A400123934011
:10550C00C36570473F8200104009024070B5041E0D
:10551C005CD005682E4B9D4241D814212D4BE818C8
:10552C00FAF7ECFD800060642B4B236425230222E8
:10553C00E2542B68294A13402B6021680A68A3683F
:10554C00E06803432069034360690343A069034394
:10555C00E0690343206A034313430B602000FFF709
:10556C008DFFA2688023DB019A4222D06168A26C75
:10557C007F230B401360E36C226D5A606368013B20
:10558C00032B19D900236365A365E3650023E3634B
:10559C0025220121A154013AA354002070BD1421ED
:1055AC000F4BE818FAF7AAFD800060640D4B2364DA
:1055BC00BCE700236360D9E72000FFF793FF636D1E
:1055CC0000221A60A36DE26D5A60DFE70120E5E767
:1055DC0007040240F8FFFDBF000002400F80FFFFF0
:1055EC00F8FBFDBF0004024070B504002420205CD1
:1055FC00012845D02420012525540130205C0128A8
:10560C0006D08023E3635C3B0022E254012070BD92
:10561C002430013525540020E063256828680126D4
:10562C00B04328602000FFF709FF236B002B1CD030
:10563C00226813680E210B431360A26C1368DB0302
:10564C0004D5116880235B000B431360636D002B42
:10565C0004D01968802252000A431A602268136829
:10566C0001210B4313600020D1E722681368042149
:10567C008B4313602268136806310B431360DCE71D
:10568C000220C4E7002834D02523C35C022B06D0AB
:10569C000423C36320330022C254012070470268E4
:1056AC0013680E218B431360826C136812490B40F4
:1056BC00136001680A6801239A430A60416C1C223A
:1056CC000A40016C93404B60C36C026D5A60436D91
:1056DC00002B06D01A6808490A401A60836DC26D07
:1056EC005A6025230122C254013B0022C2540020DF
:1056FC00D4E70120D2E7C046FFFEFFFF70B5036C74
:10570C00196804682568426C1C23134004229A40D3
:10571C00114214D06A0712D523689B0603D4236860
:10572C00042293432360436C1C221A40016C042313
:10573C0093404B60036B002B00D0984770BD022246
:10574C009A40114226D0AA0724D523689B0606D47A
:10575C0023680A22934323602523093AC254026822
:10576C001B4B9A420ED9436C1C221A4002239340C5
:10577C00184A536024230022C254C36A002BDDD084
:10578C009847DBE7436C1C221A4002239340124AD1
:10579C005360EFE708229A401142CFD02D07CDD5A8
:1057AC0023680E2293432360436C0E321A40016C23
:1057BC0001231C0094404C60C36325228354233383
:1057CC000022C254436B002BB8D09847B6E7C046B2
:1057DC0080000240000402400000024010B5104A54
:1057EC00136810490B400343136080239B009842BD
:1057FC0001D0002010BD0C4B1B685800C018400095
:10580C000A49FAF77BFC0130054B5B695B0503D554
:10581C00002803D00138F7E70020EBE70320E9E785
:10582C0000700040FFF9FFFF2000002040420F00F5
:10583C0070B5002811DB8308134DC0339B005C59F5
:10584C0003221040C000FC3216008640B44389018C
:10585C000A40824022435A5170BD0F230340083B3B
:10586C009B0806339B00094A944663445C680322F8
:10587C001040C000FC3215008540AC4389010A4041
:10588C00824022435A60E7E700E100E000ED00E0CF
:10589C00013880235B0498420FD2094A50600948B2
:1058AC00036A1B021B0AC02109060B430362002377
:1058BC00936007331360002070470120FCE7C0465B
:1058CC0010E000E000ED00E010B5FFF7B1FF10BDF7
:1058DC00002805DB1F22024001239340014A13607C
:1058EC007047C04600E100E010B5FFF7D1FF10BDD6
:1058FC0010B50400114B1978002901D1012010BDFD
:10590C00FA208000FAF7FAFB01000D4B1868FAF741
:10591C00F5FBFFF7E9FF00280DD1032C01D901207D
:10592C00EDE70130002221004042FFF7CDFF054B8F
:10593C001C600020E3E70120E1E7C0461B000020CB
:10594C00200000201C00002010B5084A116880239C
:10595C005B000B4313600320FFF7CAFF041E02D049
:10596C000124200010BDFDF7D7FFFAE7002002400C
:10597C00034B1B78034A11685B1813607047C046D1
:10598C001B000020701F0020014B18687047C04698
:10599C00701F002070B50400FFF7F6FF0500631CB4
:1059AC0002D0044B1B78E418FFF7EEFF401BA0421B
:1059BC00FAD370BD1B000020034A136803490B4047
:1059CC00034313607047C04600000140FFF9FFFF1E
:1059DC0030B50468184B9C4223D0184901648022CE
:1059EC00A358174D2B40456B2D042B43A3500B0094
:1059FC00703343640568AB58124C2340846B240607
:105A0C002343AB500B00B0338364D833C364982367
:105A1C009B00CB1803659E239B00CB1843650B00A2
:105A2C0003E00949DAE7002204C3D42292008A1861
:105A3C009A42F8D830BDC0460068004000B400401F
:105A4C00FFFFE0FFFFFFFFF050B70040F0B51F0075
:105A5C004B68002B1AD10D698B681D430B689B0496
:105A6C001D430C6A2406CB691C438B691C434B6990
:105A7C001C43CB681B041C43466DFB00DB19DB008D
:105A8C00F618356074600836002015E00B698C68D8
:105A9C0023430C6823438025ED051D43E1E71418CF
:105AAC00E3781B06A5782D042B436478240223434A
:105ABC00145C234308C60430CB68024CE35C83427D
:105ACC00EDD8F0BDBC1A010870B5041E00D1E1E0A0
