:020000040800F2
:10000000004002207DA800081D4B00081F4B00087F
:1000100000000000000000000000000000000000E0
:10002000000000000000000000000000214B00085C
:100030000000000000000000234B0008254B0008D2
:10004000CDA80008CDA80008CDA80008CDA80008BC
:10005000CDA80008CDA80008CDA80008CDA80008AC
:10006000CDA80008314B0008CDA80008CDA8000895
:10007000CDA80008CDA80008CDA80008CDA800088C
:10008000CDA80008CDA80008CDA80008CDA800087C
:10009000CDA80008CDA80008CDA80008CDA800086C
:1000A000CDA80008CDA80008CDA80008CDA800085C
:0C00B000CDA80008CDA80008CDA80008CD
:1000C00002780B78002A03D0013001319A42F7D030
:1000D000D01A70470023C25C0133002AFBD1581E9E
:1000E0007047000002B4714649084900095C4900A4
:1000F0008E4402BC7047C04603B4714649084000B4
:100100004900095E49008E4403BC7047002934D081
:100110000123002210B488422CD301242407A142D9
:1001200004D2814202D209011B01F8E7E400A14296
:1001300004D2814202D249005B00F8E7884201D331
:10014000401A1A434C08A04202D3001B5C08224309
:100150008C08A04202D3001B9C082243CC08A0427A
:1001600002D3001BDC082243002803D01B0901D066
:100170000909E3E7100010BC704701B5002000F04A
:100180005FF802BD0029F8D003B5FFF7C1FF0EBC30
:100190004243891A1847C046002941D010B40400D0
:1001A0004C40A44601230022002900D549420028E2
:1001B00000D5404288422CD301242407A14204D216
:1001C000814202D209011B01F8E7E400A14204D2F6
:1001D000814202D249005B00F8E7884201D3401A0D
:1001E0001A434C08A04202D3001B5C0822438C082F
:1001F000A04202D3001B9C082243CC08A04202D399
:10020000001BDC082243002803D01B0901D0090988
:10021000E3E710006446002C00D5404210BC704754
:1002200001B5002000F00CF802BDC0460029F7D04F
:1002300003B5FFF7B3FF0EBC4243891A1847C04607
:100240007047C0468446100062468C4619006346DB
:1002500000E0C0461FB510F075FB002801D4002156
:10026000C8421FBD10B510F0C7FA4042013010BDA2
:1002700010B510F067FB002801DB002010BD012045
:1002800010BDC04610B510F05DFB002801DD002058
:1002900010BD012010BDC04610B510F0EFFA0028C7
:1002A00001DC002010BD012010BDC04610B510F0CB
:1002B000E5FA002801DA002010BD012010BDC0467B
:1002C000844608006146FFE71FB50FF0EEF90028ED
:1002D00001D40021C8421FBD10B50FF083F9404280
:1002E000013010BD10B50FF0E0F9002801DB00204F
:1002F00010BD012010BDC04610B50FF0D6F9002882
:1003000001DD002010BD012010BDC04610B50FF06A
:100310008EF9002801DC002010BD012010BDC04670
:1003200010B50FF084F9002801DA002010BD01207B
:1003300010BDC046002B11D1002A0FD1002900D1D9
:10034000002802D00021C943080007B4024802A1D6
:100350004018029003BDC046E9FEFFFF03B46846A3
:1003600001B502980EF06AFE019B9E4602B00CBCDD
:100370007047C04603B47146490840004900095A15
:1003800049008E4403BC7047D0400B00D1409C46CE
:10039000203AD34018435242634693401843704773
:1003A0009140030090409C46203A934019435242AA
:1003B0006346D340194370471C2101231B04984214
:1003C00001D3000C10391B0A984201D3000A0839E6
:1003D0001B09984201D30009043902A2105C40189D
:1003E0007047C04604030202010101010000000041
:1003F0000000000010B5002903D1FFF7DDFF203019
:1004000002E00800FFF7D8FF10BDC04610B5064C4B
:100410002378002B07D1054B002B02D0044800E0C5
:1004200000BF0123237010BD5C020020000000000B
:1004300090160108044B10B5002B03D00349044863
:1004400000E000BF10BDC0460000000060020020B8
:1004500090160108BFF34F8F034B044ADA60BFF3D5
:100460004F8FC046FDE7C04600ED00E00400FA05EE
:1004700082B00023019302E0019B01330193019BB1
:10048000312BF9DD02B07047F0B5CE46474680B556
:1004900089B003AC1422002120000CF035F92A4B5E
:1004A0005A6B012632435A635A6B32400092009ACB
:1004B0005A6B022188460A435A635A6B0A400192DA
:1004C000019A596B0822114359635B6B1A400292DF
:1004D000029B1E4F00220321380006F0D0F90122B2
:1004E0000421380006F0CBF9194B994600220D2162
:1004F000180006F0C4F903960496002505950695A4
:100500002100380006F0F4F80623039304960596BC
:1005100006952100380006F0EBF80D2303930496AE
:10052000059506952100484606F0E2F843460393F8
:10053000049505952100484606F0DAF809B0C0BCDC
:10054000B946B046F0BDC04600100240000400505D
:10055000000C005000B583B0094A916B0123194388
:100560009163926B13400193019B002200210920AB
:1005700006F0D2FB092006F0D3FB03B000BDC04655
:100580000010024000B583B00190012304485B4293
:10059000012201A907F0E5FD019803B000BDC046A6
:1005A000301C002010B582B06B46DC1D0023237088
:1005B000013304485B420122210007F04FFE2078FE
:1005C00002B010BD301C0020F0B5CE46474680B5C5
:1005D00089B00600884617000023079380231B017B
:1005E0009A4207D901239946484609B0C0BCB9468A
:1005F000B046F0BD05F07EFF03A802230393F82365
:100600001B06F318DB0A83600123C36007A906F009
:100610002DF88146002801D100240FE005F0ECFF01
:10062000E2E768460CF03EF9009A019B3100012098
:1006300005F0B0FF051E0FD108360834BC420FD2BA
:1006400001225242D31700920193434619193A1BD3
:10065000082AE6D90822E4E705F0CEFFA946C3E759
:1006600005F0CAFFC0E710B50300080019000CF040
:1006700019F910BD10B50268074B9A4200D010BDA1
:10068000064B1B8806485843064B198889B2FFF76A
:100690003DFD054B1880F2E700240140AA75FF1FBD
:1006A000B80B000030000020081C002010B504002A
:1006B00081898068002206F0E2F8FE239B05236111
:1006C0000023636110BD70B50400A188206806F0A6
:1006D000CFF80128F9D00026002500E00136172EBA
:1006E00016DCA189A068012206F0C9F8FFF7C0FE58
:1006F0006D00A189A068002206F0C1F8FFF7B8FEDE
:10070000A188206806F0B4F80028E7D00135E5E7B5
:10071000A189A068012206F0B2F8FFF7A9FEA1891D
:10072000A068002206F0ABF8FFF7A2FE2B0202D56C
:10073000FF231B061D43280070BD10B50400FFF702
:10074000C2FF6369C01A24690FF086FA211C0EF0FB
:1007500067FE10BD70B504000D1C101C0FF05EFA92
:100760006061256170BD000010B50400074B1B6877
:10077000002B00D010BDFFF7ADFC012382B204486E
:100780005B42210007F0EDFCF4E7C046F01B0020BF
:10079000301C002084B010B590B0129013911492C8
:1007A00015931A4C6378A0780002184300040014D3
:1007B0000FF052FAFA2189050EF0B6FF6378FF2B8D
:1007C00014D0134B1B68002B1ED0124C10F0AEFE41
:1007D00002000B00210068460BF08AFE6846FFF716
:1007E000C3FF10B010BC08BC04B01847A378FF2B9F
:1007F000E7D1074B1B68002B04D0074968460BF074
:1008000077FEEBE70549F9E7054CDFE7241C0020FC
:100810000C1C0020CC160108B8160108C0160108EF
:10082000D416010884B010B5029003910492059388
:100830000D4B5B78002B0CD00C4B1B68002B06D0AB
:100840000B48FFF791FF10BC08BC04B018470948DB
:10085000F7E7064B1B68002B03D00748FFF784FF20
:10086000F1E70648FAE7C046241C00200C1C0020D3
:10087000E4160108EC160108F81601080017010833
:1008800084B070B590B014901591169217932E4BBA
:100890005C780220185E0FF0DFF9F62189050EF072
:1008A00043FF2A4B1B68002B19D0294E10F03EFE47
:1008B00002000B00310068460BF01AFE6846FFF795
:1008C00053FF002C0FD1214B1B68002B09D021486E
:1008D000FFF74AFF10B070BC08BC04B018471E4EAA
:1008E000E4E71E48F4E7E30706D5184B1B68002B26
:1008F00021D01B48FFF738FFA30706D5134B1B6811
:10090000002B1AD01748FFF72FFF630706D50F4BB0
:100910001B68002B13D01448FFF726FF240706D5C9
:100920000A4B1B68002B0CD01048FFF71DFF104826
:10093000FFF71AFFCEE70F48DCE70F48E3E70F4861
:10094000EAE70F48F1E7C046241C00200C1C0020F9
:100950000C170108241701081417010828170108AB
:10096000EC3001083C1701084C1701085C1701081E
:1009700070170108341701084017010850170108C3
:100980006017010870B590B006F026FA0400194807
:10099000402106F0A1FC002806D106F01DFA001B3C
:1009A000FA235B009842F2D31248402106F094FCEF
:1009B000002817D0104B06AD0E482A00402106F043
:1009C000DDFB0E4C0AAB6A4643CB43C243CB43C26A
:1009D00006980799089A099B2568A847084B236041
:1009E00010B070BD0748FFF7BFFE074B00221A602A
:1009F000F6E7C046C01E0020241C00202C0000206A
:100A0000B90A000868170108041C002070B58AB0F4
:100A100005000E0001AC2422002120000BF074FE22
:100A2000064B1B680193049605482A00210006F036
:100A30007BFBFFF7A7FF0AB070BDC0462C1C00204F
:100A4000C01E002010B582B0074B1B68002B01D0E0
:100A500002B010BD0549020068460BF049FD68462A
:100A6000FFF782FEF4E7C046F01B00207417010870
:100A700010B50C48FFF778FE002403E00A48FFF7A2
:100A800073FE0134112C07DC084B185DFFF7DAFF09
:100A9000112CF3D00648F2E7044912220548FFF76B
:100AA00093FD10BD7C17010870170108101C002071
:100AB0007817010800F8010884B010B5029003917E
:100AC000049205930E4B1B68002B09D10D48FFF7CC
:100AD0004BFE0B4B00221A6010BC08BC04B0184738
:100AE000094B1A68693A53009B18084A12689B1808
:100AF000013B074A07490968D154FFF7B9FFE5E709
:100B0000041C002094170108001C0020F81B002082
:100B1000101C0020FC1B002070B58CB0060003AC3C
:100B20002422002120000BF0EFFD01AD082200215E
:100B300028000BF0E9FD2E70064B1B680393012380
:100B4000069305482A00210006F0EEFAFFF71AFF87
:100B50000CB070BD2C1C0020C01E002070B52049B8
:100B600012222048FFF77FFD1F4B1B68002B35D05A
:100B70001B4B00225A7100252EE003212800FFF7AD
:100B80000BFB6930194C20601948FFF7EDFD206818
:100B9000FFF758FF1748FFF7E7FD03212800FFF78D
:100BA00045FB0C00481CFFF74DFF1348FFF7DCFD29
:100BB000640001340A4B5B5D5A1E9341E418200027
:100BC000FFF740FF0D48FFF7CFFDE0B2FFF7A4FFAE
:100BD000FA2006F007F90135112DCEDD70BDC046B3
:100BE000101C002000F80108340000202C1C0020FC
:100BF0009C170108A8170108AC1701087017010815
:100C0000F0B5C64600B582B00500884601920023C3
:100C100000E00133274A17689F4208DD264A9421E5
:100C200059438A58AA42F4D1234C0C1900E00024FD
:100C3000202F34D0002C0DD000276668BE4211DD75
:100C40003801083020184146FFF73AFA002828D02A
:100C50000137F2E794207843174C0419154B0137FC
:100C60001F60E9E7082E21D04046FFF733FA0E282F
:100C70001ED830010830201841460BF000FE636892
:100C800001331A01A2180199D17163602560200017
:100C900088300C2200210BF037FD002002E00120FB
:100CA00000E0022002B080BCB846F0BD0320F9E7A6
:100CB0000420F7E7EC1B00206C09002070B506004B
:100CC000184B012252421A600025174B1B68AB4299
:100CD00023DD002400E00134144B94226A439B1866
:100CE0005B68A34217DD230194226A4398180830F9
:100CF0000E4BC0183100FFF7E3F90028EBD10B4A87
:100D000001342301942169435B18D318D879054B2A
:100D10001860885870BD0135D7E7300009F0DCFD58
:100D2000F8E7C04668090020EC1B00206C09002091
:100D3000F0B5DE4657464E464546E0B5664CA544FE
:100D4000DBAC2422002120000BF0DEFC0822002175
:100D500002A80BF0D9FC0123DE93604B1B68002B2B
:100D60002AD05F4802AADBA906F0DEF906F034F8C3
:100D7000040000239A4606F02FF8001BFA235B00BC
:100D800098421DD25648402106F0A6FA0028F2D01B
:100D900053469B005344DB0013AAD21850486B46BD
:100DA000402106F0EBF96B465A780EAB51465A5487
:100DB00001239C46E244DEE74A48FFF7D5FCD0E732
:100DC0000023984655E04848FFF7CEFC474B6A1C85
:100DD000120192199B18D879FFF734FE18E00135FB
:100DE000424B942262439B185B68AB421CDD280196
:100DF00094266643801908303C4B9B465844FFF7C5
:100E0000B3FC6B1C1B019B195B44DB79FF2BDAD114
:100E1000364B942262439B185B68013BAB42DED0A9
:100E20003348FFF7A1FCDAE73248FFF79DFC0134B5
:100E3000314B1B68A3420ADD2C4B94226243D358EA
:100E40009F42F4D12D48FFF78FFC0025C8E72C48BE
:100E5000FFF78AFC0EAB4A469B5C042B24D9294839
:100E6000FFF782FC2848FFF77FFC43460133DBB2E3
:100E70009846C146D0451DDA04A943469A0042442B
:100E8000D20013AB9B180A0031CB31C213CB13C273
:100E900013CB13C21B681360049F3F043F0C380040
:100EA000FFF7D0FD0024C3E7184A9B009858FFF7CE
:100EB0005BFCD7E7094B1B68002B08D0E5239B00A0
:100EC0009D44F0BCBB46B246A946A046F0BD1048C2
:100ED000FFF74AFCF2E7C0466CFCFFFF0C1C002049
:100EE000C01E0020B0170108C41701086C090020BB
:100EF000C8170108CC170108EC1B00204C2501087D
:100F0000D0170108D417010870170108000000204D
:100F1000DC170108F8B505000E000F680A49380013
:100F20000BF0FAFB04000200390028000BF0BAFCB9
:100F30002D1900232B7033681A5D002A00D001346C
:100F40001B193360F8BDC046B025010870B5050017
:100F50000378002B0ED000242800FFF7BBF8A04236
:100F600006D92B5D303BDBB2092B05D80134F3E702
:100F7000012000E0002070BD0020FCE710B5034B0D
:100F800001221A600248FFF7EFFB10BD6409002040
:100F9000EC17010810B5CAB0019042AC01A92000BD
:100FA000FFF7B8FF2A492000FFF78AF800281BD076
:100FB000284942A8FFF784F800281AD0264942A8F9
:100FC000FFF77EF8002819D1244B1B68002B13D0A3
:100FD0002349244B1A8802AC20000BF089FA200028
:100FE000FFF7C2FB4AB010BD1F48FFF7BDFBFFF77C
:100FF00031FAFFF79DFEF5E71C49EAE742AB1B78A3
:10100000002B0CD11A4B01221A60144B1B68002BC9
:1010100003D01848FFF7A8FBE4E71748FAE7144B9A
:1010200001221A600D4B1B68002B0AD01348FFF7F2
:101030009BFB0A4B1B68002B05D01148FFF794FB64
:10104000D0E71048F3E742A8FFF78EFBF5E7C0466C
:10105000D0210108EC210108F42101080C1C00201A
:101060006C210108081C0020D82101087421010806
:10107000640900208421010890210108AC210108A5
:1010800070170108B4210108F0B5C64600B58AB052
:10109000019002AC01A92000FFF73CFF804920002D
:1010A000FFF70EF8002810D07E4902A8FFF708F8D5
:1010B0000090002800D075E00198FFF7FFFD804602
:1010C000002809D000990D0052E07748FFF74CFB4B
:1010D0000AB080BCB846F0BD744B01221A60744B54
:1010E0001B68002B03D07348FFF73EFBF0E7724804
:1010F000FAE77248FFF738FB4046FFF7A3FC704859
:10110000FFF732FB42E06F48FFF72EFB6E4B721C7D
:101110001201D2199B18D879FFF794FC17E0013619
:10112000694B94226A439B185B68B3421BDD330111
:1011300094276F43D8190830634C0019FFF714FB4C
:10114000731C1B01DB19E318DB79FF2BDBD15E4B32
:1011500094226A439B185B68013BB342DFD05B4833
:10116000FFF702FBDBE75A48FFF7FEFA01210135E2
:10117000584B1B68AB420BDD534B94226A43D35848
:101180004345F4D14A4B1B68002BB2D0009EC7E701
:1011900000299DD1464B1B68002B99D14E48FFF783
:1011A000E3FA95E702A8FFF789FD041E25D0019B0D
:1011B0001B78002B09D13D4B01221A603C4B1B6868
:1011C000002B24D03B48FFF7CFFA01A902A8FFF774
:1011D000A1FE019D2B78002B21D02800FFF7B6FE41
:1011E000002816D1314B01221A60314B1B68002BAD
:1011F00013D03048FFF7B8FA6AE72D4B1B68002B75
:1012000003D02C48FFF7B0FA62E73448FAE73448D5
:10121000D9E7280009F060FB03E03148EAE7012044
:101220004042C2B202A92000FFF7EAFC01280DD01B
:10123000022815D003281DD0042825D01C4B1B687C
:10124000002B2BD02748FFF78FFA41E7184B1B687C
:10125000002B03D02448FFF787FA39E72348FAE741
:10126000134B1B68002B03D01F48FFF77DFA2FE7B5
:101270001F48FAE70E4B1B68002B03D01A48FFF7F4
:1012800073FA25E71B48FAE7094B1B68002B03D0CC
:101290001548FFF769FA1BE71748FAE71748D2E73E
:1012A000F0220108EC210108F8220108640900205D
:1012B0000C1C002084210108F821010800230108EA
:1012C000202A0108C41701086C090020C81701086A
:1012D00070170108EC1B00201423010818220108D4
:1012E00040220108941701086C22010874220108A9
:1012F00090220108AC220108C8220108DC22010862
:1013000010B58AB0019002AC01A92000FFF702FEDF
:10131000AF492000FEF7D4FE002825D0AD4902A831
:10132000FEF7CEFE002800D185E0AB4902A8FEF70B
:10133000C7FE002800D1DBE0A84902A8FEF7C0FEE6
:10134000002800D109E102AB1B78002B00D026E178
:10135000A34B01221A60A34B1B68002B00D11CE198
:10136000A148FFF701FA33E00198FFF7A7FC002836
:1013700027D09E4B18609B4B1B68002B2CD09C4B9E
:1013800001221A609B4B994A12681A609A4B0022FC
:101390001A609A4B1B689A4A1360012B23D0022BC8
:1013A0002DD0032B37D08F4B1B68002B3FD0022052
:1013B000FFF7B2FB0420FFF7AFFB0620FFF7ACFB03
:1013C00006E0884B1B68002B04D08748FFF7CCF958
:1013D0000AB010BD8B48F9E70198FFF7C5F98A48B4
:1013E000FFF7C2F9CBE77F4B1B68002B03D002202D
:1013F000FFF792FBECE78548FFF7B6F9F7E7794B83
:101400001B68002B03D00420FFF786FBE0E77F4832
:10141000FFF7AAF9F7E7734B1B68002B03D00620F0
:10142000FFF77AFBD4E77948FFF79EF9F7E77848AA
:10143000FFF79AF9BBE70198FFF740FC002820D09E
:101440006A4B1860674B1B68002B24D0684B012245
:101450001A60684B654909681960674B1A60674BE9
:101460001B68674A1360012B1CD0022B26D0032B6C
:1014700030D05C4B1B68002B38D05B48FFF774F909
:10148000A6E7584B1B68002B03D05748FFF76CF9B1
:101490009EE75C48FAE70198FFF766F95A48FFF7BC
:1014A00063F9D3E74F4B1B68002B03D00120FFF7F4
:1014B00033FB8DE75748FFF757F9F7E7494B1B68B0
:1014C000002B03D00320FFF727FB81E75148FFF7EC
:1014D0004BF9F7E7434B1B68002B03D00520FFF7C0
:1014E0001BFB75E74B48FFF73FF9F7E74A48C5E7AD
:1014F0000198FFF7E3FB002814D0404B1B68013B29
:10150000022B19D8394B1860364B1B68002B1DD0A5
:10151000424B434A1A60394B18681030C0B2FFF78B
:10152000FBFA55E72F4B1B68002B03D02E48FFF723
:101530001BF94DE73348FAE72A4B1B68002B03D011
:101540002948FFF711F943E73348FAE70198FFF715
:101550000BF92D48FFF708F9DAE70198FFF7AEFB22
:10156000002809D0214B18601E4B1B68002B0DD0A2
:10157000FF20FFF7D1FA2BE71A4B1B68002B03D093
:101580001948FFF7F1F823E71E48FAE70198FFF73B
:10159000EBF82448FFF7E8F8EAE72348E1E6104BC8
:1015A00001221A600F4B1B68002B0AD01F48FFF75F
:1015B000DBF80C4B1B68002B05D01D48FFF7D4F857
:1015C00006E71C48F3E702A8FFF7CEF8F5E7C046A8
:1015D000B4230108E823010800240108D0210108F0
:1015E000640900200C1C0020842101082C1C002010
:1015F000041C0020001C0020FC1B002068090020A7
:10160000F81B002030230108202A0108B823010814
:10161000D0230108EC230108502301082C000020EE
:10162000250800080424010874230108AC210108DE
:101630007017010894230108F0B5C64600B584B0C0
:10164000060088460C22002101A80BF05DF8002559
:1016500000272EE094276F4388372B4BFF183B68F9
:10166000002B0AD101333B60F433FF333B81274B1E
:101670007B810023BB80B433FB80BA8842453FD8CE
:10168000F98841453ED343469B1A9BB23C897889F1
:10169000001B5843891AFEF739FD201880B204B0A8
:1016A00080BCB846F0BD94276F438837164BFF18AF
:1016B0000135174B1B68AB421EDD134B94226A4366
:1016C000D458300009F008F98442C3D000240E4BEE
:1016D00094226A439B185B68A342E9DD23019422AC
:1016E0006A4398180830084BC0183100FEF7E8FC30
:1016F0000028D8D00134EAE7002FB0D101AFAEE71F
:101700000020CCE70020CAE76C090020C4090000D3
:10171000EC1B0020F0B585B006000C22002101A8CA
:101720000AF0F2FF002500271CE094276F4388375A
:101730001F4BFF183B68002B0AD101333B60F43389
:10174000FF333B811B4B7B810023BB80B433FB8089
:101750000437380005B0F0BD94276F438837144B29
:10176000FF180135144B1B68AB421EDD104B942251
:101770006A43D458300009F0AFF88442D5D0002431
:101780000B4B94226A439B185B68A342E9DD23015B
:1017900094226A4398180830054BC0183100FEF7B0
:1017A0008FFC0028D8D00134EAE7002FC2D1D0E75F
:1017B0006C090020C4090000EC1B002070B584B047
:1017C00005000E000C22002101A80AF09DFF002355
:1017D00000E00133194A12689A420ADD184A94243B
:1017E0005C43A258AA42F4D123008833144A9B18C0
:1017F00000E001AB1A68002A0AD101321A60F43203
:10180000FF321A810F4A5A8100229A80B432DA805C
:101810009A88B24200D91600D988B14200D20E008F
:10182000B61AB6B21C895889001B7043891AFEF794
:101830006DFC201880B204B070BDC046EC1B0020C7
:101840006C090020C409000070B58CB0019004AC94
:1018500001A92000FFF75EFBB4492000FEF730FC31
:1018600000282CD0B24904A8FEF72AFC002800D199
:1018700086E0B04904A8FEF723FC002800D1DFE091
:10188000AD4904A8FEF71CFC002800D191E1AB494A
:1018900004A8FEF715FC002800D1FAE104AB1B7880
:1018A000002B00D01AE2A64B01221A60A54B1B6840
:1018B000002B00D110E2A448FEF756FF23E0019868
:1018C000FFF7FCF9002817D0A04B18609D4B1B6850
:1018D000002B1CD09E4B1B68012B1FD0022B29D044
:1018E000032B33D0042B3DD0964B1B68002B45D0E7
:1018F0009548FEF739FF06E0924B1B68002B04D099
:101900009148FEF731FF0CB070BD9248F9E701989D
:10191000FEF72AFF9048FEF727FFDBE7894B1B689D
:10192000002B03D00120FFF7F7F8ECE78B48FEF718
:101930001BFFF7E7834B1B68002B03D00220FFF748
:10194000EBF8E0E78548FEF70FFFF7E77D4B1B68F4
:10195000002B03D00320FFF7DFF8D4E77F48FEF722
:1019600003FFF7E7774B1B68002B03D00420FFF73A
:10197000D3F8C8E77948FEF7F7FEF7E77848B8E705
:101980000198FFF79BF9002817D0704B18606D4B3A
:101990001B68002B1BD06E4B1B68012B1ED0022B2B
:1019A00028D0032B32D0042B3CD0664B1B68002B75
:1019B00044D06C48FEF7D8FEA5E7624B1B68002BAD
:1019C00003D06148FEF7D0FE9DE76248FAE7019830
:1019D000FEF7CAFE6048FEF7C7FEDCE7594B1B68FE
:1019E000002B03D00520FFF797F88CE75E48FEF741
:1019F000BBFEF7E7534B1B68002B03D00620FFF715
:101A00008BF880E75848FEF7AFFEF7E74D4B1B68B1
:101A1000002B03D00720FFF77FF874E75248FEF74A
:101A2000A3FEF7E7474B1B68002B03D00820FFF706
:101A300073F868E74C48FEF797FEF7E74848B9E7C0
:101A400004AC01A92000FFF765FA2000FFF736F982
:101A5000002809D13B4B1B68002B03D03A48FEF706
:101A600083FE50E73B48FAE704AD2800FFF752FE3B
:101A7000040001A92800FFF74DFA3C492800FEF7B1
:101A80001FFB00280FD1043401980378002B3FD1AD
:101A90002C4B1B68002B31D02088FEF7D3FF344835
:101AA000FEF762FE2FE7334904A8FEF709FB002882
:101AB00001D10634E8E7304904A8FEF701FB00280D
:101AC000E2D02E4904A8FEF7FBFA002801D1023427
:101AD000DAE71C4B1B68002B0AD02248FEF744FEB5
:101AE000184B1B68002B05D02148FEF73DFECBE7C5
:101AF0002348F3E704A8FEF737FEF5E72148FEF791
:101B000033FE04A8FEF730FE1F48FEF72DFEC3E7A4
:101B100008F0E2FE050086B20A4B1B68002B37D0A6
:101B20001A48FEF721FE2680EDE6C046E8230108AC
:101B3000B4230108E824010830250108D021010858
:101B4000640900200C1C0020842101082C1C0020AA
:101B50006809002030230108202A0108BC2401085C
:101B600018240108AC210108D0240108EC24010844
:101B700070170108F4240108FC2401080825010855
:101B80003C240108142501081C25010894170108AC
:101B90005E48FEF7E9FD04A8FEF7E6FD5C48FEF7A7
:101BA000E3FD2804000CFEF74DFF5A48FEF7DCFD6C
:101BB000B9E704AC01A92000FFF7ACF92000FFF75A
:101BC0007DF8002809D1544B1B68002B03D05348E3
:101BD000FEF7CAFD97E65248FAE7019808F07CFE46
:101BE000040081B200290DD1019B1B78302B09D054
:101BF000494B1B68002B03D04A48FEF7B5FD82E62F
:101C00004948FAE704A8FFF717FD051E29D0474BFE
:101C10001B68013B032B2ED83F4B1B68002B34D194
:101C20000198FEF7A1FD4248FEF79EFD2004000C3E
:101C3000FEF708FF3F48FEF797FD2800FEF702FF7A
:101C40003D48FEF791FD394B1B68103303A8037024
:101C50000D236B441D702D0A5D700321FEF7D6FE27
:101C600051E62D4B1B68002B03D02E48FEF77CFD60
:101C700049E63248FAE7284B1B68002B03D0274877
:101C8000FEF772FD3FE62E48FAE72E48FEF76CFDA0
:101C9000D9E70198FFF712F800280FD02A4B1860F7
:101CA0001D4B1B68002B13D10198FEF75DFD2748E3
:101CB000FEF75AFDFF20FEF72FFF24E6164B1B68A8
:101CC000002B03D01548FEF74FFD1CE61448FAE739
:101CD0001C48FEF749FDEDE71D48EDE51D4B0122CF
:101CE0001A600D4B1B68002B0AD01B48FEF73CFD09
:101CF000094B1B68002B05D00648FEF735FD02E6B0
:101D00001648F3E704A8FEF72FFDF5E720250108A4
:101D100028250108701701080C1C002084210108E7
:101D2000302301086C2201085024010868090020B2
:101D300034250108482501085025010864240108BC
:101D400018240108941701082C1C00200424010801
:101D50007C24010864090020AC2101089C240108AE
:101D600010B58AB0019002AC01A92000FFF7D2F8AB
:101D700064492000FEF7A4F900281CD0624902A89B
:101D8000FEF79EF9002849D0604902A8FEF798F9AD
:101D9000002878D002AB1B78002B00D098E05C4B79
:101DA00001221A605B4B1B68002B00D18EE05A4861
:101DB000FEF7DAFC9DE00198FEF780FF00280CD0CA
:101DC000564B1B68013B022B13D9524B1B68002B4F
:101DD0000DD05148FEF7C8FC8BE04E4B1B68002B22
:101DE00003D04D48FEF7C0FC83E04D48FAE74D486C
:101DF000F0E74D4B18600198FEF7B6FC454B1B68A9
:101E0000002B07D0494B4A4A1A60444B1878FEF71A
:101E100083FE6EE04748FEF7A7FCF3E70198FEF764
:101E20004DFF00280CD03D4B1B68013B022B13D902
:101E3000384B1B68002B0DD03748FEF795FC58E057
:101E4000344B1B68002B03D03348FEF78DFC50E069
:101E50003348FAE73348F0E7334B18600198FEF750
:101E600083FC2C4B1B68002B09D0304B324A1A6084
:101E70002A4B18680330C0B2FEF74EFE39E02D48F9
:101E8000FEF772FCF1E70198FEF718FF00280FD06B
:101E9000254B18601F4B1B68002B13D10198FEF7D0
:101EA00063FC2648FEF760FCFF20FEF735FE20E0CD
:101EB000184B1B68002B03D01748FEF755FC18E0A1
:101EC0001748FAE71E48FEF74FFCEDE71D486FE79D
:101ED0000F4B01221A600F4B1B68002B0BD01A48C6
:101EE000FEF742FC0B4B1B68002B06D01748FEF791
:101EF0003BFC0AB010BD1648F2E702A8FEF734FC1E
:101F0000F4E7C04600240108B4250108D0210108E7
:101F1000640900200C1C00208421010868090020AD
:101F200030230108582501082C1C00202C0000201B
:101F300095070008202A01088108000804240108E8
:101F4000941701087C250108AC21010870170108CD
:101F50009825010830B58DB0019004AC01A920008E
:101F6000FEF7D8FF80492000FEF7AAF800281ED00F
:101F70007E4904A8FEF7A4F8041E46D07C4904A8B4
:101F8000FEF79EF8002800D1B1E004AB1B78002BCF
:101F900000D0D1E0774B01221A60774B1B68002BF1
:101FA00000D1C7E07548FEF7DFFB0DB030BD0198EA
:101FB000FEF784FE00280CD0714B1B68013B022BFE
:101FC00013D96D4B1B68002B0DD06C48FEF7CCFB72
:101FD000EBE7694B1B68002B03D06848FEF7C4FB96
:101FE000E3E76848FAE76848F0E7684B186001984B
:101FF000FEF7BAFB6648FEF7B7FB664B664A1A6007
:102000005F4B1878FEF788FDCFE704AD01A92800E3
:10201000FEF780FF2800FEF751FE051E10D00822B3
:10202000002102A80AF070FB5C4B1B68A34216DD7E
:102030005B4B94226243D358AB420BD00134F3E79D
:102040004D4B1B68002B03D04C48FEF78DFBACE7D3
:102050004C48FAE714008834514BE41800E002AC15
:102060002368002B03D1013323604E4BA38004ADC2
:1020700001A92800FEF74EFF4B492800FEF720F883
:10208000002800D091E701980378002B14D13A4B37
:102090001B68002B06D0A088FEF7D4FC4348FEF74F
:1020A00063FB82E74248FEF75FFB2800FEF75CFB1C
:1020B0004048FEF759FBEEE708F00EFCA0802E4BDF
:1020C0001B68002B03D03C48FEF74EFB6DE73B48F6
:1020D000FEF74AFB04A8FEF747FB3948FEF744FB2E
:1020E000A088FEF7AFFC3148FEF73EFB5DE70198A4
:1020F000FEF7E4FD00280FD0244B18601E4B1B6830
:10210000002B13D10198FEF72FFB2E48FEF72CFB76
:10211000FF20FEF701FD48E7174B1B68002B03D09B
:102120001648FEF721FB40E71648FAE72248FEF77B
:102130001BFBEDE7244836E70E4B01221A600E4BDD
:102140001B68002B0AD02148FEF70EFB0A4B1B68C8
:10215000002B05D01548FEF707FB26E71C48F3E7E0
:1021600004A8FEF701FBF5E700240108E8240108B4
:10217000D0210108640900200C1C002084210108E2
:102180006809002030230108BC2501082C1C002010
:10219000202A01082C00002049240008EC1B002004
:1021A0006C090020B80B0000182601087017010800
:1021B000142501081C250108941701082025010891
:1021C0002825010804240108E0250108AC210108A4
:1021D000FC25010810B5D4B01F4948A807F028FF16
:1021E000002803D11D48FEF7BFFA15E01C48FEF792
:1021F000BBFA2FE0A022120493421FD91B0D194AEB
:10220000194902AC00921222FF326A4420000AF0FF
:102210006FF92000FEF7A8FA42A948A807F064FF6A
:10222000002814D142AB5B7A002B10D0429B802255
:1022300012069342DED99B0F0C4AE1E7A0229201DD
:10224000934202D99B0A0A4ADAE70A4AD8E748A821
:1022500007F035FF54B010BDC41701084826010827
:102260002C260108202601085C2601081C260108EE
:10227000242601082826010810B58AB0019002AC76
:1022800001A92000FEF746FE2E492000FDF718FFA9
:1022900000280CD02C4902A8FDF712FF00280DD110
:1022A0002A4A136802210B4313600AB010BD01983B
:1022B000FEF75AFA2648FEF757FAF6E7254902A82C
:1022C000FDF7FEFE002805D1204A136802218B434A
:1022D0001360EAE7204902A8FDF7F2FE002803D1C7
:1022E0001E4B01221A60E0E71D4902A8FDF7E8FE37
:1022F000002803D1194B00221A60D6E702AB1B78E5
:10230000002B0CD1174B01221A60144B1B68002BB9
:1023100003D01548FEF728FAC7E71448FAE7114B2F
:1023200001221A600D4B1B68002B09D01048FEF7E4
:102330001BFA02A8FEF718FA0548FEF715FAB4E7EB
:102340000C48F4E7A4260108AC260108F01B002085
:1023500070170108B4260108BC2601080C1C0020D7
:10236000C426010864090020842101086C260108A4
:10237000AC21010888260108F8B507000E001500F9
:10238000104C236803E024684D34FF342368002B8D
:10239000F9D1A820400008F0A5FA206039000AF021
:1023A0006EFA2268A0235B00D65022680433D55011
:1023B00021680023A62252008B502168043A8B50DA
:1023C000F8BDC046F804002070B582B005000E00CC
:1023D0000822002168460AF097F9002300E0013343
:1023E000144A12689A420ADD134A94245C43A258A4
:1023F000AA42F4D1230088330F4A9B1800E06B46B1
:102400001A68002A03D101321A600C4A9A8098880F
:102410000DF066FC041C30000DF01EFC08490DF0A8
:102420007BFA011C201C0DF07FF906490CF0F8FF27
:1024300002B070BDEC1B00206C090020B80B00003E
:102440000000FA4300007A4584B030B591B0149092
:10245000159116921793104B5A78997809021143E7
:1024600009040914FFF7B0FF0C4B1B68002B10D0B8
:102470000B4D0FF05BF802000B00290068460AF0D4
:1024800037F86846FEF770F911B030BC08BC04B0EC
:102490001847044DEDE7C046241C00200C1C00200A
:1024A000CC160108CC26010884B010B50290039127
:1024B00004920593074B5A7899780902114309044D
:1024C0000914FFF781FF044B186010BC08BC04B06E
:1024D0001847C046241C0020F41B0020064B1B6834
:1024E00007E0A22149005A58013A5A50A622520048
:1024F0009B58002BF5D17047F804002030B59BB0F5
:10250000019012AC01A92000FEF704FDBE49200095
:10251000FDF7D6FD00282FD1BC4B1B68002B23D024
:10252000BB4D04F059FC020002AC2900200009F068
:10253000DFFF2000FEF718F9B64B1B68002B17D001
:10254000B24B1B68002B11D0B34D04F045FCB14BCE
:102550001A68821A02AC2900200009F0C9FF200085
:10256000FEF702F91BB030BDAC4DDAE7AC4DECE73D
:10257000AC48FEF7F9F8F5E7AB4912A8FDF7A0FD66
:10258000002826D0A94912A8FDF79AFD002837D0C7
:10259000A74912A8FDF794FD002843D0A54912A829
:1025A000FDF78EFD00286BD0A34912A8FDF788FD2A
:1025B000051E00D0C5E0A14B1C68002C00D18DE0A9
:1025C000924B1B68002B00D0A6E09D48FEF7CCF88C
:1025D000A2E004F001FC8F4B18608C4B1B68002BB1
:1025E0000CD0984D04F0F8FB020002AC290020004A
:1025F00009F07EFF2000FEF7B7F8B3E7924DF1E750
:10260000019808F069F9002809D1804B1B68002B5C
:1026100003D08E48FEF7A8F8A4E78D48FAE704F047
:10262000E1FB9FE712AC01A92000FEF773FC20003C
:1026300008F052F9041E03D001980378002B09D149
:10264000724B1B68002B03D08048FEF78DF889E79A
:102650008048FAE722000021FFF78EFE6B4B1B68D3
:10266000002B03D07C48FEF77FF87BE77B48FEF722
:102670007BF82000FEF7E6F97948FEF775F871E778
:1026800012AC01A92000FEF745FC200008F024F957
:10269000041E03D001980378002B09D15B4B1B6803
:1026A000002B03D06948FEF75FF85BE76D48FAE757
:1026B00022002100FFF760FE544B1B68002B03D063
:1026C0006548FEF751F84DE76748FEF74DF82000E2
:1026D000FEF7B8F96248FEF747F843E74B4B1B6833
:1026E000002B03D06148FEF73FF83BE76048FAE76C
:1026F0006048FEF739F8A2235B00E058FEF7A2F924
:102700005D48FEF731F82000FEF72EF84548FEF749
:102710002BF8A6235B00E458002C00D122E70135FA
:102720002800FEF78FF9A0235B00E358002BDFD0D1
:102730005248FEF719F8A0235B00E058FEF782F933
:10274000DEE74F4912A8FDF7BBFC041E17D04D4928
:1027500012A8FDF7B5FC041E00D1A5E012AB1B7852
:10276000002B00D0EAE0484B01221A60274B1B687F
:10277000002B00D1E0E03548FDF7F6FFF2E60198C6
:1027800008F0AAF8002803D1019B1B78002B05D183
:102790002A4B1B68002B0BD0284919E01B4B1B68E8
:1027A000002B03D02948FDF7DFFFDBE63748FAE7C7
:1027B000164B1B68002B03D02C48FDF7D5FFD1E644
:1027C0002B48FAE719004D31FF31A62252009B58E1
:1027D000002B5DD00134A04206D00028F2D1A62201
:1027E00052009A58002AEDD1A62252009A580A6047
:1027F000180008F081F8054B1B68002B52D01648D2
:10280000FDF7B2FFAEE6C046842801080C1C00208C
:10281000DC260108F4040020F0260108E026010867
:10282000F8260108701701088C280108942801086F
:102830009C280108C0280108EC210108F8040020A8
:10284000E02801080C27010810270108842101084D
:10285000242701084027010894170108A42801082B
:10286000B828010868270108C8280108902701082E
:1028700098270108FC28010804290108F428010808
:102880000C290108AC26010864090020AC270108C6
:10289000364B1B68002B03D03548FDF765FF61E61A
:1028A0003448FAE73448ABE7019808F015F80028F7
:1028B00003D1019B1B78002B0BD1304B1B68002BE5
:1028C00016D12A4B1B68002B0DD02D48FDF74CFF6D
:1028D00048E6264B1B68002B03D02548FDF744FF34
:1028E00040E62848FAE72848F0E7A62252009B581D
:1028F000002B15D00134A04206D00028F5D1A62225
:1029000052009A58002AF0D1A42040001958012200
:102910004A401A5001290DD01C48FDF725FF21E639
:10292000124B1B68002B03D01148FDF71DFF19E661
:102930001048FAE71648F0E716481DE7164B012243
:102940001A600A4B1B68002B0AD01448FDF70CFFD5
:10295000064B1B68002B05D01148FDF705FF01E66B
:102960001048F3E712A8FDF7FFFEF5E70C1C002066
:1029700084210108CC270108E8270108F804002079
:102980001C280108FC2701089827010824280108B1
:10299000382801084C28010864090020AC210108EE
:1029A000701701086828010830B5BE4CA544019095
:1029B000FFAC0C3401A92000FEF7ACFABA492000A4
:1029C000FDF77EFB002831D1B84B1B68002B0BD1E3
:1029D00001990B78002B15D1B54B1B68002B0FD03C
:1029E000B448FDF7C1FE06E0B14B1B68002B05D0D3
:1029F000B148FDF7B9FEB14B9D4430BDB048F8E792
:102A0000B048EEE7B048322206F076FF002803D146
:102A1000A64B01221A60EEE7A54B1B68002B03D0E2
:102A2000A548FDF7A1FEE6E7A848FAE7A849FFA8F0
:102A30000C30FDF745FB002831D19C4B1B68002B67
:102A400009D19B4B1B68002B03D09B48FDF78CFEE4
:102A5000D1E7A048FAE7954B00221A609A4807F0A0
:102A600082FA00280CD0924B1B68002B06D09248AB
:102A7000FDF77AFE944807F0C4FABCE79648F7E7FA
:102A8000914807F0BEFA0028B5D0894B1B68002B8F
:102A900003D08948FDF768FEADE79048FAE7904912
:102AA000FFA80C30FDF70CFB00281DD17F4B1B68E5
:102AB000002B09D17E4B1B68002B03D07E48FDF70D
:102AC00053FE98E78348FAE77F4807F04CFA00285E
:102AD00000D190E7764B1B68002B03D07648FDF7BA
:102AE00043FE88E77C48FAE77E49FFA80C30FDF7F3
:102AF000E7FA002807D07C49FFA80C30FDF7E0FA80
:102B0000002800D04DE1694B1B68002B01D002ACBE
:102B100023E0674B1B68002B03D06748FDF724FEBA
:102B200069E76C48FAE76D2B34D0742B00D00BE1C9
:102B300004F052F902006D49200009F0D9FC200090
:102B4000FDF7C8FA019B1B78002B00D10FE12C2365
:102B500023540130241800232370019B1B78002B81
:102B600000D106E1FFAD0C3501A92800FEF7D2F92E
:102B70002B78632B58D0D6D84C2B00D1D8E0502BD3
:102B800012D0272B00D0DFE0FFA90D31200009F083
:102B900076FED4E704F020F9554B1A68821A53499F
:102BA000200009F0A5FCCAE7FFA80D30FEF786F863
:102BB000002819D04F4B1B685A1E022A2AD84E4AA9
:102BC00010604E4D00222A604D4A4E491160D8B225
:102BD000FDF7A2FF28680EF0A9FC02000B004A498D
:102BE000200009F085FCAAE7314B1B68002B0AD0B6
:102BF0004648FDF7B9FD2E4B1B68002B05D0444815
:102C0000FDF7B2FDF7E64348F3E7FFA80D30FDF707
:102C1000ABFDF4E7264B1B68002B03D02548FDF7DE
:102C2000A3FDE8E63C48FAE7FFAB0C335B78732B77
:102C300016D0FFAB0C335B78652B1CD0FFAB0C338D
:102C40005B78612B22D0FFAB0C335B78742B00D008
:102C500075E7324B1A682549200009F049FC6EE7F8
:102C60002F4B18680EF062FC02000B002D4920006B
:102C700009F03EFCDDE72C4B18680EF057FC020013
:102C80000B002849200009F033FCD7E7274B1868D0
:102C90000EF04CFC02000B002249200009F028FC39
:102CA000D1E7C046D4FBFFFF242A0108B002002070
:102CB0000C1C0020842101086C2201082C04000057
:102CC0001429010830290108B40200205029010804
:102CD0002C2A01086C29010884290108A02901086F
:102CE000342A01083C2A0108442A01087417010803
:102CF000F4040020680900202C1C0020F41B002094
:102D00002C000020A92400080C170108AC210108A0
:102D100070170108BC290108BC250108E404002043
:102D2000F00400204C2A0108EC040020E8040020F4
:102D30003148FDF702FD0EF0F9FB02000B002F49B0
:102D4000200009F0D5FBFAE62D4B1B68002B0CD0B8
:102D50002C48FDF709FD2A4B1B68002B00D04AE6E2
:102D6000FFA80C30FDF700FD45E62748F1E70A23F0
:102D7000EEE62649FFA80C30FDF7A2F9002807D09F
:102D80001F4B1B68002B08D002A8FDF7EDFC32E6B4
:102D90001F4902A807F062FBF2E71E48FDF7E4FCBA
:102DA000F2E7FFAB0C331B78002B0CD11A4B01223E
:102DB0001A60134B1B68002B03D01248FDF7D4FC9C
:102DC00019E61648FAE7144B01221A600C4B1B68EF
:102DD000002B0AD01248FDF7C7FC094B1B68002BDB
:102DE00005D01048FDF7C0FC05E60F48F3E7FFA843
:102DF0000C30FDF7B9FCF4E7140000200C170108B3
:102E00000C1C002084210108D02901083C2A01085B
:102E1000B4020020542A010864090020EC290108AA
:102E2000AC21010870170108082A0108F0B5C64650
:102E300000B51A4B1B68002B05D0012B13D00020C6
:102E400080BCB846F0BD164B164A12681A60164C84
:102E500000232360154B164A1A60164B1878FDF7AD
:102E60005BFE2068ECE70E4B0E4A12681A600E4CAF
:102E7000002323600D4D0E4F2F600E4E3078FDF76E
:102E80004BFE236898462F6030680130C0B2FDF7D2
:102E900043FE216840460CF03FFDD1E7A002002030
:102EA0002C1C00209C020020F41B00202C00002081
:102EB000A92400089802002010B582B00E4B1B68B0
:102EC000002B01D002B010BD0CF034F881B20B4CD5
:102ED0002068FEF773FC0300094A1268103201A84B
:102EE00002706A4653711B0A9371064B22681A607E
:102EF0000321FDF78BFDE5E79402002090020020FE
:102F00008C0200202C1C0020F0B5D1B0079008AC3A
:102F100007A92000FDF7FEFFC0492000FDF7D0F80B
:102F2000002831D107980378002B13D1BC4B1B68C4
:102F3000002B27D0BB4CBC4B18680EF0F7FA0200F0
:102F40000B00210010A809F0D3FA10A8FDF70CFC23
:102F500051B0F0BD07F0BBFC0EF02AFB041CB04BD7
:102F60001B68002B0CD0B14D201C0EF0DFFA0200C4
:102F70000B00290010A809F0BBFAAB4B1C60E4E77A
:102F8000AB4DF1E7AB4CD6E7AB4908A8FDF798F895
:102F9000002830D107980378002B12D1A04B1B6872
:102FA000002B26D09F4CA54B18680EF0BFFA0200EC
:102FB0000B00210010A809F09BFA10A8FDF7D4FB24
:102FC000C6E707F084FC0EF0F3FA041C944B1B6870
:102FD000002B0CD0954D201C0EF0A8FA02000B001F
:102FE000290010A809F084FA944B1C60E5E7944D81
:102FF000F1E7944CD7E7944908A8FDF761F8002859
:1030000030D107980378002B12D1854B1B68002B19
:1030100026D0844C8D4B18680EF088FA02000B0005
:10302000210010A809F064FA10A8FDF79DFB8FE7B6
:1030300007F04DFC0EF0BCFA041C794B1B68002B0A
:103040000CD07A4D201C0EF071FA02000B00290002
:1030500010A809F04DFA7D4B1C60E5E77C4DF1E7C7
:103060007C4CD7E77C4908A8FDF72AF8002830D126
:1030700007980378002B12D1694B1B68002B26D0D0
:10308000684C764B18680EF051FA02000B002100D4
:1030900010A809F02DFA10A8FDF766FB58E707F015
:1030A00016FC0EF085FA041C5D4B1B68002B0CD03F
:1030B0005E4D201C0EF03AFA02000B00290010A809
:1030C00009F016FA654B1C60E5E7654DF1E7654CC4
:1030D000D7E7654908A8FCF7F3FF002830D1079827
:1030E0000378002B12D14E4B1B68002B26D04D4C81
:1030F0005E4B18680EF01AFA02000B00210010A8AF
:1031000009F0F6F910A8FDF72FFB21E707F0DFFB28
:103110000EF04EFA041C424B1B68002B0CD0434DA2
:10312000201C0EF003FA02000B00290010A809F081
:10313000DFF94E4B1C60E5E74D4DF1E74D4CD7E70D
:103140004D4908A8FCF7BCFF002826D04B4908A829
:10315000FCF7B6FF002800D1C7E0494908A8FCF7F2
:10316000AFFF002800D02FE107980378002B00D094
:1031700010E12B4B1B68002B00D123E1294C414B64
:1031800018680EF0D3F902000B00210010A809F016
:10319000AFF910A8FDF7E8FADAE608AC07A92000B5
:1031A000FDF7B8FE38492000FCF78AFF002816D149
:1031B000364B00221A600798FDF780FD002875D075
:1031C000334B1860334B344A12681A60144B1B6837
:1031D000002B00D17FE01548FDF7C6FAB8E62F496D
:1031E00008A8FCF76DFF002803D1284B01221A60C4
:1031F000E1E70B4B1B68002B0AD02948FDF7B4FA16
:10320000074B1B68002B05D02648FDF7ADFA9FE65B
:103210002548F3E708A8FDF7A7FAF5E7942E01087B
:103220000C1C0020C42A0108AC02002094170108DD
:10323000602A0108702A0108702C0108A8020020E9
:10324000842A0108942A0108742C0108A402002091
:10325000A82A0108B82A0108782C01088002002059
:10326000CC2A0108DC2A0108182601087C0200206B
:10327000F02A0108002B01087C2C0108A02C010871
:10328000BC2C010888020020842C0108A002002028
:103290009C0200209802002068090020882C010868
:1032A000AC21010870170108142B0108B14B1B68F1
:1032B000002B0AD0B048FDF757FAAE4B1B68002B25
:1032C00005D0AE48FDF750FA42E6AD48F3E707985F
:1032D000FDF74AFAF5E7AB48FDF746FA0798FDF720
:1032E00043FAA648FDF740FA32E608AC07A92000E9
:1032F000FDF710FEA4492000FCF7E2FE00280ED0E6
:103300009C4B1B68002B20D09B48FDF72DFA994B56
:103310001B68002B1BD09948FDF726FA18E69B4B3B
:1033200000221A600798FDF7C9FC002813D0984BBB
:103330001860984B984A12681A608E4B1B68002BD5
:103340001ED09648FDF710FA02E69548DDE708A87A
:10335000FDF70AFADFE7874B1B68002B0AD0864887
:10336000FDF702FA834B1B68002B05D08348FDF75D
:10337000FBF9EDE58B48F3E70798FDF7F5F9F5E77D
:103380008948FDF7F1F90798FDF7EEF97B48FDF75D
:10339000EBF9DDE507F09BFA0EF00AF9041C754B1A
:1033A0001B68002B0CD07D4D201C0EF0BFF80200D6
:1033B0000B00290010A809F09BF87C4B1C60E8E684
:1033C0007B4DF1E77B4CDAE67B4908A8FCF778FEF9
:1033D00000286ED1794B1B68002B0BD06C4B1B68FF
:1033E000002B13D1634B1B68002B0DD07448FDF7E5
:1033F000BBF9ADE55F4B1B68002B03D07048FDF7B0
:10340000B3F9A5E56F48FAE76F48F0E703F0E4FC8D
:103410006E4B1860FFF70AFD6D4B18606D4D2F68FD
:10342000624B19680CF078FA041C28606A490CF0A9
:103430007BF96A4E31680BF077FE051C3060684BF3
:103440001968201C0CF070F9061C664B1968281CC2
:103450000CF06AF9011C301C0BF066FE051C391CCF
:10346000201C0CF059FA604B19680CF05DF95A49B0
:103470000BF0D6FF011C281C0BF056FE5B4B1860AE
:103480005B4B1C68211CFCF72DFF002801D0574B1B
:103490001C60564B1868574B1C68211CFCF736FF04
:1034A000002801D0514B1C60504B1868FFF704FDF9
:1034B0004EE5514908A8FCF703FE002830D1434BE4
:1034C0001E68002E20D02B4B1B68002B26D04B4DA6
:1034D00010AC464B18680EF029F8049005913D4B4E
:1034E00018680EF023F802900391394B18680EF01B
:1034F0001DF80090019132002900200008F0F8FF2B
:103500002000FDF731F923E51A4B1B68002B03D08F
:103510002B48FDF729F91BE53948FAE7394DD7E77C
:1035200008AB1B78002B0CD1374B01221A60114BD2
:103530001B68002B03D02248FDF716F908E5334835
:10354000FAE7314B01221A600A4B1B68002B0AD0A4
:103550000948FDF709F9074B1B68002B05D0074800
:10356000FDF702F9F4E42A48F3E708A8FDF7FCF8B0
:10357000F5E7C0460C1C0020AC21010870170108BB
:103580002C2B01088C2C0108A42C0108940200208B
:10359000900200208C020020680900209417010886
:1035A000442B01085C2B0108AC2C01088802002088
:1035B000742B0108882B0108C42C01089C020020F0
:1035C00084210108A02B0108C42B0108E404002079
:1035D000F0040020EC0400206F12833A84020020E3
:1035E000AC020020A8020020A4020020E804002071
:1035F000800200207C020020C82C0108002C010859
:10360000E82B0108102C010864090020382C01085F
:10361000542C010810B5CAB0019042AC01A9200099
:10362000FDF778FC1E492000FCF74AFD00281BD05E
:103630001C4942A8FCF744FD00281AD01A4942A8A8
:10364000FCF73EFD002812D11848FDF776F80DF082
:103650006DFF02000B00164902AC200008F048FF85
:103660002000FDF781F802E01048FDF71FF84AB08E
:1036700010BD42AC01A92000FDF74CFC200007F072
:1036800026F90DF095FF041C019807F020F90DF0C4
:103690008FFF021C054B211C1800FDF75BF8E6E7C5
:1036A000D02C0108D82C0108E02C010814000020BF
:1036B000E82C010810B50C48FDF756F80B490C48EA
:1036C000012206F0E7F8002806D10A48FDF74CF879
:1036D000094B01221A6010BD0848FDF745F8064B5A
:1036E00000221A60F7E7C046F82C0108502F0108A5
:1036F00030070020202D010860090020102D01084E
:1037000010B506490022002006F0C4F80448FDF771
:103710002BF8044B00221A6010BDC046502F010840
:10372000342D01086009002010B5C2B00E4841AA2E
:1037300040A906F002FD002811D1419B5A69023AC6
:1037400059894A43409B4B43DB0AD20A07496846E2
:1037500008F0CEFE6846FDF707F842B010BD0448F9
:10376000FDF702F8F9E7C046502F01085C2D01086B
:10377000482D010810B58AB0019002AC01A92000C3
:10378000FDF7C8FB2E492000FCF79AFC00280BD15E
:103790002C4B1B68002B04D02B48FCF7E5FF0AB02C
:1037A00010BDFFF787FFFAE7284902A8FCF788FC5D
:1037B00000280AD1234B1B68002B02D0FFF7B4FF6F
:1037C000EDE72348FCF7D0FFE9E7224902A8FCF720
:1037D00077FC00280AD11B4B1B68002B02D0FFF797
:1037E0008FFFDCE71A48FCF7BFFFD8E702AB1B7876
:1037F000002B0CD1184B01221A60184B1B68002BB0
:1038000003D01748FCF7B0FFC9E71648FAE7124B98
:1038100001221A60114B1B68002B0AD01248FCF7DA
:10382000A3FF0E4B1B68002B05D01048FCF79CFF34
:10383000B5E70F48F3E702A8FCF796FFF5E7C046A7
:10384000D02C010860090020DC2D0108FC2D0108A6
:10385000042E0108202E0108640900200C1C002001
:1038600084210108A42D0108AC210108701701086A
:10387000C02D010830B59BB00190854B1B68002B13
:1038800042D004008349FCF71BFC002818D1824B6E
:103890001B68002B12D08149814C226802AD2800A0
:1038A00008F026FE2800FCF75FFF00232360784A1B
:1038B00013607C4806F0A5FB1BB030BD7A49EBE7EE
:1038C0002000FCF707FC02000A2323540132019B6D
:1038D0009B18002119700199724802AB06F003FA97
:1038E00000280CD06C4B1B68002B06D06F48FCF7EF
:1038F0003BFF6C4806F037FBDEE76D48F7E7684AA8
:10390000136801331360F4E712AC01A92000FDF73E
:1039100001FB684B00221A6067492000FCF7D0FBCE
:10392000002863D0654912A8FCF7CAFB002861D0C3
:10393000634912A8FCF7C4FB00285FD0614912A8B4
:10394000FCF7BEFB00285DD05F4912A8FCF7B8FB6E
:1039500000285BD05D4912A8FCF7B2FB002859D0C3
:103960005B4912A8FCF7ACFB002857D0594912A8B4
:10397000FCF7A6FB002855D0574912A8FCF7A0FB7E
:10398000002853D0554912A8FCF79AFB002851D0C3
:10399000534912A8FCF794FB00284FD0514912A8B4
:1039A000FCF78EFB00284DD04F4912A8FCF788FB8E
:1039B00000284BD04D4912A8FCF782FB002849D0C3
:1039C0004B4912A8FCF77CFB002800D174E712AB2E
:1039D0001B78002B44D1374B01221A602E4B1B68F9
:1039E000002B3BD04348FCF7BFFE65E70198FDF78D
:1039F000C5FA61E70198FDF7CDFA5DE70198FDF79B
:103A000043FB59E70198FDF77BFC55E70198FFF769
:103A1000B1FE51E7019800F077F84DE70198FDF706
:103A200013FF49E70198FEF79BF945E70198FEF778
:103A300065FD41E70198FEF71FFC3DE70198FEF7A1
:103A400089FA39E70198FEF7AFFF35E70198FFF7EC
:103A50005BFA31E70198FFF7DDFD2DE72648C2E765
:103A6000144B01221A600C4B1B68002B0AD0234810
:103A7000FCF77AFE084B1B68002B05D02048FCF7AA
:103A800073FE19E71F48F3E712A8FCF76DFEF5E790
:103A9000FC0400208C2E01080C1C0020282E01089C
:103AA0007802002000050020302E01086C22010859
:103AB000482E010864090020982E0108A02E010854
:103AC000A42E0108AC2E0108B42E0108B82E01085E
:103AD000A42C0108C02E0108C42E0108CC2E010818
:103AE000842C0108D02E0108D42E0108DC2E0108F8
:103AF000E02E010884210108642E0108AC21010890
:103B000070170108782E010870B5C34CA5440190C8
:103B1000C24B1B68002B47D0C14B1B68002B05D044
:103B2000C049DEA8FCF7CCFA002841D1DEAC01A9DF
:103B30002000FDF7EFF9BC492000FCF7C1FA00288E
:103B40003AD0BA49DEA8FCF7BBFA00283AD0B84907
:103B5000DEA8FCF7B5FA041E41D0B649DEA8FCF792
:103B6000AFFA061E00D171E0B349DEA8FCF7A8FA4F
:103B7000002800D1A4E0B149DEA8FCF7A1FA002892
:103B800000D00AE1019B1B78002B01D1AC4B0193C3
:103B900001990122E6A805F0AFFE002800D1E6E079
:103BA000A848FCF7E1FD09E0A748FCF7DDFD05E0CA
:103BB000A648FCF7D9FDB9E7FEF70CFBB923DB00FB
:103BC0009D4470BD019806F034FB002803D1A04845
:103BD000FCF7CAFDF2E79B48FCF7C6FDEEE701994A
:103BE0000122E6A805F088FE002803D19948FCF7D9
:103BF000BBFD15E09348FCF7B7FDDFE7002D21D0B2
:103C00000134954902AD2200280008F071FC28001B
:103C1000FCF7AAFD52A8FCF7A7FD9048FCF7A4FD0D
:103C2000A02152AEE6AA4900300006F0EEFB0500E6
:103C30003000FCF74FFA0138335C0A2BDED100224A
:103C40003254DBE7E6A806F0DCF9B7E70199012278
:103C5000E6A805F051FE002803D17E48FCF784FD5C
:103C600018E07848FCF780FDA8E7002C24D0013646
:103C7000794902AC3200200008F03AFC2000FCF741
:103C800073FD52A8FCF770FD7448FCF76DFD14201D
:103C900003F0A8F8A02152ADE6AA4900280006F0DA
:103CA000B4FB04002800FCF715FA01382B5C0A2B42
:103CB000DBD100222A54D8E7E6A806F0A2F97DE776
:103CC00001A9DEA8FDF726F9019806F005FE051EFC
:103CD0000FD00122DEA9E6A805F00EFE00280CD1C7
:103CE0005F490A2252A805F007FE002809D10124E5
:103CF0000CE05C48FCF738FD60E75248FCF734FD07
:103D00005CE75948FCF730FD58E70134A021E6AAEA
:103D1000490002A806F079FB002806D0AC42F4D096
:103D200052A902A806F09AFBEFE7E6A806F069F9A7
:103D300052A806F066F9DEA806F07BFA002809D141
:103D40004748DEA906F0CEFA002807D14748FCF71D
:103D50000BFD33E74648FCF707FD2FE74548FCF726
:103D600003FD2BE7002C14D052A8FFF783FDA02100
:103D700052ADE6AA4900280006F047FB04002800DF
:103D8000FCF7A8F901382B5C0A2BEBD100222A544E
:103D9000E8E7E6A806F035F910E73749DEA8FCF7B2
:103DA0008FF9002814D1019B1B78002B01D1244BE3
:103DB000019301993148322205F09EFD002803D17C
:103DC000174B01221A60F9E61E48FCF7CDFCF5E618
:103DD000DEAB1B78002B0CD1294B01221A60294B3A
:103DE0001B68002B03D02848FCF7BEFCE6E62748FA
:103DF000FAE7234B01221A60224B1B68002B49D0A3
:103E00002348FCF7B1FC1F4B1B68002B44D0134820
:103E1000FCF7AAFCD2E6C04638FAFFFF6009002092
:103E2000FC040020542F0108EC2101080C29010892
:103E3000E02C0108D02F0108DC2F0108C42C010858
:103E40009C3001088C2F0108242F01085C2F0108E9
:103E5000A42F0108B42F0108C82F0108701701080A
:103E60000C300108E42F0108103001088C300108E3
:103E70003430010854300108A83001080005002042
:103E8000640900200C1C002084210108EC2E01088C
:103E9000AC2101080248B4E7DEA8FCF765FCB6E7F0
:103EA000082F010872B6FEE700B585B00C2200218C
:103EB00001A808F029FC1B481B4B03608022120656
:103EC000426000238360C36002610822426103767E
:103ED00043768376073AC261202143549021C9007A
:103EE0004162803981622C21425480225201026356
:103EF0000722426335328354C36401F00DF8002871
:103F00000BD101A9094B019301234B60054801F036
:103F1000DDF9002803D105B000BDFFF7C3FFFFF7AF
:103F2000C1FFC046841F002000240140002000B4CF
:103F300010B51048104B0360002343608360C360DA
:103F400003744374837404224261033A82610D2135
:103F5000C1610B39016242628262C26202634363E1
:103F60008363C36302F0D8FF002800D110BDFFF7C0
:103F700099FFC046C01E00200064004010B51248E2
:103F8000124B0360124B4360002383600122C26026
:103F9000036143618361C361036203F0ABF90028ED
:103FA0000CD10948002103F013FA002808D1064873
:103FB000002103F039FA002804D110BDFFF772FF89
:103FC000FFF770FFFFF76EFF6C1E002000540040EB
:103FD000583D500010B51048104B036082235B0021
:103FE000436000238360C0229200C260036143618A
:103FF000013AFF3A8261C361036243628362FA3A23
:10400000FF3AC26203630833436303F061FB002895
:1040100000D110BDFFF746FF081E00200030014010
:1040200010B51148114B036082235B0043600023ED
:104030008360E022D200C26003614361802292006B
:104040008261D13AFF3AC261036243628362293AD4
:10405000C26203630833436303F03AFB002800D1D4
:1040600010BDFFF71FFFC046A41D00200038004010
:1040700010B51748174B0360E1235B024360002330
:104080008360C36003610C2242618361C361036288
:104090004362836204F0F2F9002811D10C48002138
:1040A00004F08EFA00280DD10948002104F0AEFA80
:1040B000002809D1064804F063FA002806D110BD93
:1040C000FFF7F0FEFFF7EEFEFFF7ECFEFFF7EAFE6C
:1040D000C41C00200038014010B51948194B03607A
:1040E000E1235B02436000238360C36003610C2211
:1040F00042618361C3610362436210338362802340
:104100005B01C36304F0BAF9002811D10C48002107
:1041100004F056FA00280DD10948002104F076FA7F
:10412000002809D1064804F009FA002806D110BD7C
:10413000FFF7B8FEFFF7B6FEFFF7B4FEFFF7B2FEDB
:10414000301C00200044004000B589B0142200213A
:1041500003A808F0D9FA0C220021684608F0D4FA26
:1041600015488023DB050360192343600023836027
:10417000124AC26003618033836106F06DFA002841
:1041800014D103A9002303934B600B4806F002FBF4
:1041900000280DD16946202300930023029306488E
:1041A00006F026FB002805D109B000BDFFF77AFE16
:1041B000FFF778FEFFF776FE581D00204FC3000082
:1041C00010B594B005AC3C220021200008F09CFA08
:1041D0001022002101A808F097FA8020800002F048
:1041E00025FD0223059380225200089200220992A5
:1041F00040210A910D930E930F9206331093802362
:104200009B02119380239B04129380239B0513939D
:10421000200001F01BFC002810D101A80723019306
:10422000053B436000238360A023DB01C3600221C0
:1042300001F0F4FE002803D114B010BDFFF732FEE8
:10424000FFF730FE70B5D2B002F0A6FDFFF7B8FF61
:10425000FCF71AF9FCF77EF9FFF726FEFFF768FE78
:10426000FFF78CFEFFF7B6FEFFF7DAFEFFF700FF61
:10427000FFF732FF04F050FA002801D0FFF712FEDA
:10428000FFF762FFFA20400002F0ACFD50490A68D7
:10429000504B1A408023DB0313430B604E4C20002D
:1042A00001F018FB4D490122200001F029FA4C4889
:1042B00006F036F94B4802F021FF200001F0C8FA61
:1042C00000266662A662200000F026FE200001F0B3
:1042D000E3F96421200000F041FF200000F09EFF80
:1042E00080B2A3235B006B441880C820400002F01A
:1042F00079FDFCF733FCFFF7DDF93B4B1B68586891
:1043000033000222310008F03DF83848FCF72CFA5F
:10431000374C236801252B4323603648FFF7AAFA60
:104320002368AB4323603448FCF7C0F933480123CA
:1043300001224621FF31694403F090FF041E0BD196
:104340004623FF336B441B780D2B15D00A2B13D05B
:10435000721C01A98B55D6B2294D2C68002CE5D0D2
:10436000A2235B00E358002B0EDD25004D35FF3501
:10437000A6235B00E458F1E701AB00229A55180030
:10438000FFF778FA2600E7E7A4235B00E358002B49
:1043900004D0174A136801210B4313602000FFF774
:1043A00069FA134A136801218B431360A0235B0051
:1043B000E358002B03D0A2225200A350CEE7A6233D
:1043C0005B00E3582B60200006F096FA2C68C5E7E6
:1043D00008270140FFFF3FFE841F0020300000201F
:1043E000581D0020C01E0020D0010020B030010860
:1043F000F01B0020C030010814000020301C0020F9
:10440000F804002010B586B00F2169440870172405
:104410006C44054832230093313B220003F0B4FA88
:10442000207806B010BDC046A41D002070B506005F
:1044300002F0D2FC0500FF20FFF7E4FF0400FF2894
:1044400004D002F0C9FC401BB042F4D32000FF3876
:104450004342584170BDF8B507000E00002405E046
:104460003D19FF20FFF7CEFF28700134B442F7D387
:10447000F8BD000010B501220221034802F0FFF947
:10448000FF20FFF7BFFF10BD0004005010B5002251
:104490000221094802F0F3F9FF20FFF7B3FFFA20E9
:1044A0004000FFF7C3FF041E02D00124200010BD0E
:1044B000FFF7E0FFFAE7C0460004005070B50400C3
:1044C0000D0043B2002B20DB0C2C05D0FFF7D2FFF0
:1044D000FFF7DCFF00283AD040202043C0B2FFF7AE
:1044E00091FF280EFFF78EFF280CC0B2FFF78AFF5E
:1044F000280AC0B2FFF786FFE8B2FFF783FF002C5F
:104500000DD0082C1DD001200AE07F231C40002183
:104510003720FFF7D3FF02000128D5D90FE09520FF
:10452000FFF770FF0C2C0ED00A24FF20FFF76AFF64
:104530000200000603D5013CE4B2002CF5D11000C6
:1045400070BD8720ECE7FF20FFF75CFFECE7FF2260
:10455000F5E7000010B501238AB2034C5B4201006D
:10456000200003F037F910BDA41D002070B5040031
:104570000D00FA204000FFF759FF002800D170BD60
:104580002800FFF73FFFFD2D01D10120F7E7802133
:1045900089002000FFF7DEFFFF20FFF733FFFF2039
:1045A000FFF730FFFF20FFF72DFF1F230340052BF0
:1045B00001D10120E3E70020E1E7000010B504008D
:1045C00002F00AFC024B1860024B1C6010BDC04692
:1045D000EC1F0020E81F002010B502F0FDFB044B8B
:1045E0001B68C01A034B1B6898428041404210BDB3
:1045F000EC1F0020E81F002070B505000E00C82049
:10460000FFF7DCFFFF20FFF7FDFE0400FF2803D1CA
:10461000FFF7E2FF0028F5D1FE2C01D0002070BD8D
:1046200031002800FFF717FFFF20FFF7EBFEFF2008
:10463000FFF7E8FE0120F2E770B582B0002800D055
:10464000A7E0554B1B789B0710D4544B1A6813688E
:1046500038218B4308390B4313600A24002C09D0FE
:10466000FF20FFF7CFFE013CE4B2F7E74A4B187892
:10467000C0B21EE000210020FFF720FF0500060069
:10468000012818D0464B1C70FFF7F4FE002C00D117
:104690007BE0424B1A68136838218B4328390B435F
:1046A00013603D4A13780F398B4313703A4B1878D7
:1046B000C0B202B070BDFA208000FFF77FFFD521A5
:1046C00049000820FFF7FAFE012839D1250006E04D
:1046D000FF20FFF797FE01AB58550135EDB2032DD2
:1046E000F6D901AB9B78012BCCD101ABDB78AA2B9F
:1046F000C8D1FFF771FF002806D08021C905A92085
:10470000FFF7DCFE0028F4D1FFF766FF002801D197
:104710000400B7E700213A20FFF7D0FE051E07D0BE
:10472000B0E7FF20FFF76EFE01AB58550135EDB243
:10473000032DF6D901AB1B785B0624D50C24A1E729
:104740000021A920FFF7BAFE01280FD9FFF744FF87
:10475000002805D000213000FFF7B0FE0028F5D179
:10476000FFF73AFF002804D104008BE70225A926B1
:10477000ECE7802189001020FFF7A0FE002800D080
:1047800080E72C007EE704247CE7034B01221A70AB
:104790008CE701208DE7C04638000020A41D0020D2
:1047A000F01F0020002803D1024B1878C0B27047D8
:1047B0000120FCE73800002070B50D0011001C003E
:1047C000002837D1002B37D01D4B1B78DB0735D4A1
:1047D0001C4B1B781B0700D45102012C1CD012204B
:1047E000FFF76CFE002811D1802189002800FFF717
:1047F00003FF002806D080239B009C466544013CB3
:10480000002CF1D100210C20FFF758FEFFF732FEFB
:10481000631E9C41E0B270BD1120FFF74FFE0028DF
:10482000F4D1802189002800FFF7E6FE0028EDD0B2
:104830000024EBE70420EEE70420ECE70320EAE79E
:1048400038000020F01F002070B50D0016001C007D
:10485000002847D1002B47D0264B1B78DB0745D4D7
:10486000244B1B785B0743D4234B1B781A0700D4D7
:104870007602012C21D006221A422CD131001920B7
:10488000FFF71CFE002812D1FC212800FFF76EFE66
:10489000002806D080239B009C466544013C002CE8
:1048A000F2D1FD210020FFF761FE002818D0FFF7AC
:1048B000E1FD631E9C41E0B270BD31001820FFF79E
:1048C000FDFD0028F3D1FE212800FFF74FFE002850
:1048D000EDD00024EBE721009720FFF7EFFDCDE7B7
:1048E0000124E4E70420E7E70420E5E70320E3E709
:1048F0000220E1E738000020F01F002070B584B0EE
:104900000C001600002800D0FEE0814B1B78DB076E
:1049100000D5FBE003295CD011D800291BD0012968
:104920000BD100210920FFF7C9FD051E1AD0250073
:10493000FFF7A0FD280004B070BD0425F8E70429A6
:1049400007D1744B1B7806221A4200D09DE0012546
:10495000EEE70425ECE7FFF799FD002800D0C9E059
:104960000125E5E710216846FFF746FE002800D143
:10497000C2E06B461B789B09012B1BD06A4651791C
:104980000F230B40917AC9095B18507A4000062129
:1049900001405918137A9B09D07980001B1892792D
:1049A0009202C020000102409B18013307398B405E
:1049B0003360BDE76A46537A117A09025B18D279EF
:1049C0001204FC2189030A409B1801339B023360C7
:1049D000AEE7504B1B785B0722D500218D20FFF7F7
:1049E0006DFD002801D00125A2E7FF30FFF70AFD89
:1049F00010216846FFF700FE00280FD1012597E738
:104A0000FF20FFF7FFFC013DEDB2002DF8D16B4612
:104A10009A7A120910239340336089E73025F4E72E
:104A200000210920FFF74AFD041E01D001257FE780
:104A300010216846FFF7E0FD00285FD0354B1B785A
:104A4000022215001D401A420FD06A46917A490091
:104A50007E230B40D17AC9095B180133527B92093E
:104A6000013A93403360250062E769468B7A9B10D8
:104A70001F221A400132C97AC8001823034049098D
:104A80005B1801335343336052E76A460B21FFF74B
:104A900035FF002834D16B461B789B0903D16B4648
:104AA0009B7A5B062ED5316874681A4B1B781B07FE
:104AB00001D4490264022020FFF700FD002801D044
:104AC000012535E721002130FFF7F8FC002801D04F
:104AD00001252DE700212630FFF7F0FC051E01D04F
:104AE000012525E70C48FFF7A1FC002800D01FE7AF
:104AF00001351DE725001BE7250019E7012517E70C
:104B0000012515E7012513E7042513E7032511E720
:104B100038000020F01F002030750000FEE7FEE79F
:104B20007047704710B502F04BF9FDF7D7FC10BD88
:104B300010B5024802F00AF810BDC046241F00203C
:104B400000B583B00B4B196C012211431964196C29
:104B50000A400092009ADA6B802149050A43DA6321
:104B6000DB6B0B400193019BC020C00002F04CF9AD
:104B700003B000BD0010024010B588B0040014223C
:104B8000002103A807F0C0FD22681E4B9A4201D005
:104B900008B010BD1C4B1A6C802149030A431A64EB
:104BA0001A6C0A400192019A596B01221143596310
:104BB0005B6B13400293029B03A9039203234B6098
:104BC000A020C00501F094FD1048114B036005239F
:104BD000436000238360C3608022026180324261AF
:104BE0008022D20082612022C261036201F0B6FEFF
:104BF000002803D1054B23659C62C9E7FFF752F9F2
:104C0000F8E7C0460024014000100240241F0020A5
:104C10000800024010B59AB004001422002115A823
:104C200007F072FD4C22002102A807F06DFD2268FA
:104C3000184B9A4201D01AB010BD80239B040293F6
:104C400002A801F0CBFA002821D1134BDA6B8021A6
:104C500049010A43DA63DA6B0A400092009A596B01
:104C60000122114359635B6B1A400192019B15A904
:104C7000C0235B01159302234B6000238B60CB6044
:104C800003330B61A020C00501F032FDD3E7FFF72D
:104C900009F9DAE7006400400010024010B59AB04C
:104CA00004001422002115A807F02EFD4C2200213B
:104CB00002A807F029FD2268174B9A4201D01AB0CA
:104CC00010BD2023029302A801F088FA00281FD10A
:104CD000124C626B02231A436263626B13400093AF
:104CE000009B15A9C0231593AE3B4B6000238B603E
:104CF000CB6006330B610A4801F0FAFCE36B8022BB
:104D000092031343E363E36B13400193019BD6E7E4
:104D1000FFF7C8F8DCE7C04600540040001002402E
:104D200000040050F0B58BB004001422002105A847
:104D300007F0EAFC2368304A934204D02F4A93429A
:104D40001DD00BB0F0BD2E4B1A6C802149010A43D7
:104D50001A641A6C0A400092009A596B012211439E
:104D600059635B6B1A400192019B05A9C22305930D
:104D7000C03B4B60A020C00501F0BAFCE1E7204B2E
:104D8000DA6B8021C9010A43DA63DA6B0A400292C6
:104D9000029A5A6B012632435A635A6B324003928D
:104DA000039A5A6B02252A435A635B6B2B40049388
:104DB000049B05AC08230593069507960895A02744
:104DC000FF052100380001F093FC102305930695A0
:104DD0000796089509962100380001F089FC802388
:104DE000DB00059306950796089505230993210096
:104DF000044801F07DFCA4E7003001400038004089
:104E0000001002400004005082B002688023DB05DD
:104E10009A4201D002B07047044AD16B0123194372
:104E2000D163D26B13400193019BF3E70010024062
:104E300010B59CB004001422002117A807F064FCF0
:104E40004C22002104A807F05FFC23682E4A9342FD
:104E500004D02E4A93422CD01CB010BD01230493E1
:104E600004A801F0BBF9002820D1294B1A6C80213D
:104E7000C9010A431A641A6C0A400092009A596BDD
:104E80000122114359635B6B13400193019B17A9E6
:104E9000C023DB00179302234B6000238B60CB60A1
:104EA0000A61A020C00501F023FCD5E7FEF7FAFF58
:104EB000DBE70223049304A801F090F900281FD136
:104EC000134BDA6B802189020A43DA63DA6B0A40FA
:104ED0000292029A596B0122114359635B6B134092
:104EE0000393039B17A90B4B179302234B600023DB
:104EF0008B60CB600A61A020C00501F0F9FBABE735
:104F0000FEF7D0FFDCE7C046003801400044004017
:104F1000001002400480000030B583B0040000237C
:104F20000193002800D106E1836D002B13D0236884
:104F30009A68D2001CD49968804A11408022520598
:104F40000A439A607E4B18687E49FBF7DFF8013010
:104F50004000019009E0FFF70FFE0023E3655422B3
:104F6000A354E4E7019B013B0193019B002BF9D182
:104F700023689A68D20000D59DE0A26D10210A43F3
:104F8000A265E26D0F390A43E26501209A680421A7
:104F90000D001540114200D00125A26DD20600D5AA
:104FA000C2E0002D00D0BFE0A26D67490A40063183
:104FB000FF310A43A2659A68D20752D4A268217EC3
:104FC00089030A43617EC9030A43A57E69030A4334
:104FD000216B002901D0802149010A43E1680A437D
:104FE0002169002969DB802189030A432C21615C46
:104FF00049000A432021615C012961D0616A0029CE
:1050000005D0E0256D002940A56A29430A43D968E7
:105010004E4D29400A43DA6063689B0F9B07E26CA0
:105020001A433C21615C012959D021680B69484D24
:105030002B4013430B616368C0221206934210D0C9
:105040008022D20593420CD080221206934208D0CF
:1050500040490A68404D2A40F025AD032B401343D8
:105060000B602168636B4A690725AA4313434B61B0
:105070002168A26B4B696935AB43120113434B6145
:105080002369002B35D12268916A103B0B43936250
:1050900023685A6907231340626B9A423BD0A36D81
:1050A00012229343023A1343A365E36D0F3A13436D
:1050B000E36501203DE0002068E74900490894E7E6
:1050C000002D03D1802149020A4397E7A16D2025D5
:1050D0002943A165E16D1F3D2943E1658EE7216C00
:1050E0000B43616C0B43A16C0B43134301221A4326
:1050F0009BE7802292039342CAD121688B6AE369BD
:10510000013B9B001C221A4010235B429340226EFD
:1051100013438B62BCE70023E365A36D0322934333
:10512000023A1343A36504E0A36D10221343A36561
:10513000012003B030BD0120FBE7C046E8FFFF6F50
:1051400040000020400D0300FDFEFFFF0102DEFFD6
:1051500002FCFF1F08270140FFFFC3FFF8B5040052
:105160000D004669082E04D00368DB68DB071DD4F8
:10517000042601F031FE070023681A6816421BD18D
:105180006B1CF9D001F028FEC01BA84201D8002DED
:10519000F2D123681B681E42EED1A36D0422134393
:1051A000A36554230022E254032029E0836D2022CA
:1051B00013438365012023E0A16D802292000A43FE
:1051C000A265D968C0221201114213D1A27E002A21
:1051D00010D11A6812070DD59A68520711D45A686F
:1051E0000C218A435A60A36D0B4A13400432FF32EC
:1051F0001343A365207E00280CD123680C221A607B
:10520000F8BDA36D20221343A365E36D1F3A13433A
:10521000E365EFE70020F3E7FEFEFFFF0368186C8D
:105220007047704710B5806AFFF7FBFF10BD7047ED
:1052300010B5806A836D402213438365C36D3C3A89
:105240001343C365FFF7F3FF10BD000010B5030063
:10525000806A826D502111422AD1826D80239B0089
:10526000134383650368D968C0221201114213D128
:10527000827E002A10D11A6812070DD59A6852074B
:105280000DD45A680C218A435A60836D0E4A13402C
:105290000432FF3213438365FBF7ECF910BD836DD5
:1052A000202213438365C36D1F3A1343C365F3E79D
:1052B000826DD20604D4026D526B18009047EDE760
:1052C000FFF7B5FFEAE7C046FEFEFFFFF0B583B08B
:1052D00004000023019305695433C35C012B00D102
:1052E0002FE154230122C254006883680332160060
:1052F0001E401A4209D0A36D1C321343A36501203E
:1053000054230022E25403B0F0BD4B68022B00D1BD
:10531000D5E080221206954225D08B4A954222D0B4
:10532000226E1F271F400F25BD40AA430B685D0357
:105330002FD19B0E1F261E40BE40324322664D6871
:10534000AB080133E269934213D80E68826A1F23C7
:105350001D40103B1F00AF40BA43B60E3340AB4078
:105360001343836205E00B68826A5B035B0B1343A4
:10537000836220680B688D6842691B029A432B4048
:10538000724D2B40134343610B68002B4FDB002011
:10539000B6E7DD07D0D49D0727D45D0727D41D07C6
:1053A00027D4DD0627D49D0627D45D0627D41D0605
:1053B00027D4DD0527D49D0527D45D0527D41D05F9
:1053C00027D4DD0427D49D0427D45D0427D41D04ED
:1053D00027D4DD0327D49D0327D48025ED021E00AA
:1053E0002E402B42A8D01226A6E70126A4E70226CB
:1053F000A2E70326A0E704269EE705269CE70626EB
:105400009AE7072698E7082696E7092694E70A26EA
:1054100092E70B2690E70C268EE70D268CE70E26EA
:105420008AE70F2688E7102686E7112684E7484A90
:105430001168E02252040A404648834207D0464899
:10544000834222D0454883422CD0002058E70802EE
:10545000F5D480231B0413433D490A6840480240A9
:1054600013430B603F4B18683F49FAF74FFE01307A
:1054700043001B189B00019302E0019B013B019339
:10548000019B002BF9D100203AE7C801DAD4802330
:105490005B0413432E490A683148024013430B60F2
:1054A00000202DE749024AD48023DB031343284917
:1054B0000A682B48024013430B60002020E780233A
:1054C0001B069D4202D0204B9D4205D10B68826A8B
:1054D0005B035B0B9A4382620B68002B01DB0020AD
:1054E0000EE71B4A12681B498B4207D01A498B42B0
:1054F0000FD01A498B4217D0002001E7A0235B048C
:105500001A4013490B68164803401A430A600020EA
:10551000F6E6C0231B041A400D490B6810480340EF
:105520001A430A600020EBE6C0235B041A400849D6
:105530000B680B4803401A430A600020E0E6002095
:10554000DEE60220DFE6C0460400008000FFFF0721
:1055500008270140001000B0004000B8002000B44F
:10556000FFFF3FFE40000020400D030070B5040027
:10557000026893685B0724D593689B0705D49368FA
:1055800011490B4010210B43936001F025FC0500ED
:1055900023689B685B0712D501F01EFC401B0228A4
:1055A000F6D923689B685B07F2D5A36D10221343DD
:1055B000A365E36D0F3A1343E365012002E0002089
:1055C00000E0002070BDC046E8FFFF7F30B583B02B
:1055D00004000023019303689A68D2074FD49968A6
:1055E000284A114211D19A6827490A4001210A43E9
:1055F0009A60264B1B681B0217D5254B1868254956
:10560000FAF784FD013001900CE0836D1022134302
:105610008365C36D0F3A1343C365012030E0019BDE
:10562000013B0193019B002BF9D1637E012B01D13A
:10563000002025E001F0D0FB050023681A68D2079E
:105640001BD49A68D20705D49A680F490A400121F1
:105650000A439A6001F0C0FB401B0228EDD9236881
:105660001B68DB07E9D4A36D10221343A365E36D28
:105670000F3A1343E365012002E0002000E0002020
:1056800003B030BD17000080E8FFFF7F082701400E
:1056900040000020400D030010B5040003689B6823
:1056A0005B0724D45423C35C012B22D05423012252
:1056B000C254FFF78BFF002815D1A26D0E4B1A4084
:1056C00080235B001343A3650023E36522681C214C
:1056D00011605422A3542268936808490B400421A6
:1056E0000B43936004E054230022E25400E00220C4
:1056F00010BD0220FCE7C046FEF0FFFFE8FFFF7F81
:1057000070B504000D001600026893685B0747D46B
:105710005423C35C012B45D0012354214354D16849
:105720000B420DD19368DB0705D593681E490B40EA
:1057300002210B4393602268D36801210B43D3609D
:105740002000FFF743FF00282BD1A26D174B1A4012
:1057500080235B001343A3650023E365226D144996
:10576000D162226D13491163226D1349516322687E
:105770001C2111605422A354226853680C390B4336
:10578000536021684031206D33002A0001F054F944
:105790002268936804490B4004210B43936000E0A6
:1057A000022070BD0220FCE7E8FFFF7FFEF0FFFF54
:1057B0004D520008255200083152000870B504000F
:1057C00003689A68022108001040114200D00120AD
:1057D0009A68D20735D5002835D1996805220A4044
:1057E000012A09D0A36D10221343A365E36D0F3A7C
:1057F0001343E365012025E09A6814490A40022119
:105800000A439A60236803221A6001F0E5FA050052
:1058100023689B68DB0712D501F0DEFA401B0228E3
:10582000F6D923689B68DB07F2D5A36D10221343DA
:10583000A365E36D0F3A1343E365012002E0002006
:1058400000E0002070BD0020FCE7C046E8FFFF7FBD
:1058500070B504005423C35C012B36D054230122BD
:10586000C254FFF783FE051E1DD1206D2523C35CA6
:10587000022B1DD02268536810218B435360002DEA
:105880001FD12000FFF79AFF0500002D06D1A36D60
:105890000F4A13400432FF321343A3652268D368D2
:1058A00001218B43D36054230022E254280070BDB1
:1058B00001F010F9051EDDD0A36D40221343A3654E
:1058C000D8E72000FFF77AFFDFE70225EEE7C046C2
:1058D000FEFEFFFFF0B583B00400002301935433B4
:1058E000C35C012B00D1A2E001265423C654FFF76C
:1058F00065FF050023689A6831001140164209D0FF
:10590000A36D10221343A36554230022E254280000
:1059100003B0F0BDA26D474802400630FF3002439D
:10592000A265DE68444A1640DA6844480240DA60FC
:10593000080005E0B4229A587F231340C0180131B3
:1059400007291CD82768BA683D4B1A4018331343FF
:10595000BB6023689A68002AECDA019B013301934B
:10596000019A384B9A42F4D9A36D12229343023A1A
:105970001343A36554230022E2540125C7E7FAF735
:10598000C5FB226893682E490B4001210B439360AD
:10599000226811698023DB05994217D22A4B1B68C4
:1059A000F02189030B40E02149038B420ED39B0C6D
:1059B000033B012199400091009B5B08009302E0AA
:1059C000009B013B0093009B002BF9D1B42153585D
:1059D0007F27BB43184350502268936818490B40F7
:1059E00002210B43936001F0F7F9070023689A68DE
:1059F000D20709D4DA683243DA60A36D03229343F5
:105A0000023A1343A3657FE701F0E6F9C01B0228C1
:105A1000ECD923689B68DB07E8D5A36D10221343FC
:105A2000A365E36D0F3A1343E36501256FE7022594
:105A30006DE7C046FDFEFFFF03800000FC7FFFFF17
:105A4000E8FFFF7FFFF102000827014070B582B038
:105A5000041E00D15EE20368DB0739D5C14A9168B4
:105A600038230B40D16803220A40102B26D0082B84
:105A700026D063688022520293427FD0A022D202B5
:105A8000934200D181E0B74B1A68B7490A401A60C7
:105A90001A68B6490A401A606368002B00D180E09A
:105AA00001F09AF90500AF4B1B689B0310D401F07D
:105AB00093F9401B6428F6D903202CE2032AD6D19F
:105AC000A84B1B689B0303D56368002B00D124E21D
:105AD00023689B0731D5A34A916838230B40D168CE
