:020000040800F2
:100000000040022095770008652A0008672A00084A
:1000100000000000000000000000000000000000E0
:10002000000000000000000000000000692A000835
:1000300000000000000000006B2A00086D2A000884
:10004000E5770008E5770008E5770008E577000820
:10005000E5770008E5770008E5770008E577000810
:10006000E5770008E5770008E5770008E577000800
:10007000E5770008E5770008E5770008E5770008F0
:10008000E5770008E5770008E5770008E5770008E0
:10009000E5770008E5770008E5770008E5770008D0
:1000A000E5770008E5770008E5770008E5770008C0
:0C00B000E5770008E5770008E577000818
:1000BC0002780B78002A03D0013001319A42F7D034
:1000CC00D01A70470023C25C0133002AFBD1581EA2
:1000DC007047000002B4714649084900095C4900A8
:1000EC008E4402BC7047C04603B4714649084000B8
:1000FC004900095E49008E4403BC7047002934D086
:10010C000123002210B488422CD301242407A142DD
:10011C0004D2814202D209011B01F8E7E400A1429A
:10012C0004D2814202D249005B00F8E7884201D335
:10013C00401A1A434C08A04202D3001B5C0822430D
:10014C008C08A04202D3001B9C082243CC08A0427E
:10015C0002D3001BDC082243002803D01B0901D06A
:10016C000909E3E7100010BC704701B5002000F04E
:10017C005FF802BD0029F8D003B5FFF7C1FF0EBC34
:10018C004243891A1847C046002941D010B40400D4
:10019C004C40A44601230022002900D549420028E6
:1001AC0000D5404288422CD301242407A14204D21A
:1001BC00814202D209011B01F8E7E400A14204D2FA
:1001CC00814202D249005B00F8E7884201D3401A11
:1001DC001A434C08A04202D3001B5C0822438C0833
:1001EC00A04202D3001B9C082243CC08A04202D39D
:1001FC00001BDC082243002803D01B0901D009098D
:10020C00E3E710006446002C00D5404210BC704758
:10021C0001B5002000F00CF802BDC0460029F7D053
:10022C0003B5FFF7B3FF0EBC4243891A1847C0460B
:10023C007047C0468446100062468C4619006346DF
:10024C0000E0C0461FB50BF087FC002801D400214C
:10025C00C8421FBD10B50BF0D9FB4042013010BD98
:10026C0010B50BF079FC002801DB002010BD01203B
:10027C0010BDC04610B50BF06FFC002801DD00204E
:10028C0010BD012010BDC04610B50BF001FC0028BC
:10029C0001DC002010BD012010BDC04610B50BF0D4
:1002AC00F7FB002801DA002010BD012010BDC0466C
:1002BC00002B11D1002A0FD1002900D1002802D027
:1002CC000021C943080007B4024802A1401802905B
:1002DC0003BDC0465DFFFFFF03B4684601B502983D
:1002EC000AF030FA019B9E4602B00CBC7047C04627
:1002FC0003B47146490840004900095A49008E442C
:10030C0003BC7047D0400B00D1409C46203AD340F0
:10031C001843524263469340184370479140030080
:10032C0090409C46203A9340194352426346D34036
:10033C00194370471C2101231B04984201D3000C64
:10034C0010391B0A984201D3000A08391B0998423C
:10035C0001D30009043902A2105C40187047C04652
:10036C000403020201010101000000000000000072
:10037C0010B5002903D1FFF7DDFF203002E00800A3
:10038C00FFF7D8FF10BDC04610B5064C2378002BE4
:10039C0007D1054B002B02D0044800E000BF01231D
:1003AC00237010BD0002002000000000D0C7000820
:1003BC00044B10B5002B03D00349044800E000BFE8
:1003CC0010BDC0460000000004020020D0C7000889
:1003DC00BFF34F8F034B044ADA60BFF34F8FC04615
:1003EC00FDE7C04600ED00E00400FA05F0B5C64696
:1003FC0000B588B003AC14220021200008F0D4F81A
:10040C00244B5A6B01252A435A635A6B2A4000929B
:10041C00009A596B022211435963596B0A4001929D
:10042C00019A596B0822114359635B6B1A40029273
:10043C00029B194F00220321380003F077FD0122A3
:10044C000421380003F072FD144B984600220F2152
:10045C00180003F06BFD039504950026059606968F
:10046C002100380003F0A2FC0623039304950595A4
:10047C0006962100380003F099FC0F230393049592
:10048C00059606962100404603F090FC08B080BC0F
:10049C00B846F0BD0010024000040050000C0050A3
:1004AC0010B50400074B1B68002B00D010BDFFF7E4
:1004BC0009FE012382B204485B42210004F0CBFF09
:1004CC00F4E7C0461C190020F419002084B010B5C4
:1004DC0002900391049205930348FFF7E1FF10BCCF
:1004EC0008BC04B01847C046E8C7000884B010B573
:1004FC0090B01290139114921593164C6378A078C7
:10050C0000021843000400140AF0EEFCFA218905DD
:10051C000AF070FA6378FF2B02D1A378FF2B0FD06F
:10052C000CF00EF902000B000B49684607F0CEFFE9
:10053C006846FFF7B5FF10B010BC08BC04B01847F4
:10054C006A46064B11CB11C211001A880A809B789F
:10055C008B70EDE720190020FCC70008F0C70008DD
:10056C0084B010B590B01290139114921593114B56
:10057C005A78987800021043000400140AF0B4FC76
:10058C000D490AF02FFB0D490AF034FA0C490AF018
:10059C004FF90CF0D5F802000B000A49684607F039
:1005AC0095FF6846FFF77CFF10B010BC08BC04B088
:1005BC001847C046201900200000FA4300803B4534
:1005CC0000007A450CC8000884B030B591B0149086
:1005DC001591169217931D4B5C780220185E0AF049
:1005EC0083FCF62189050AF005FA0CF0A9F8020043
:1005FC000B001749684607F069FF6846FFF750FF84
:10060C00002C0FD0E30711D4A30713D4630715D420
:10061C00240717D40F48FFF743FF11B030BC08BCB8
:10062C0004B018470C48FFF73BFFF6E70B48FFF701
:10063C0037FFE9E70A48FFF733FFE7E70948FFF719
:10064C002FFFE5E70848FFF72BFFE3E72019002011
:10065C001CC8000868C800082CC8000838C8000866
:10066C0040C800084CC8000858C8000870B590B0C5
:10067C0003F02CFD04001748402103F0A7FF0028CD
:10068C0006D103F023FD001BFA235B009842F2D342
:10069C001048402103F09AFF002817D00E4B06ADEE
:1006AC000C482A00402103F0E3FE0C4C0AAB6A46CE
:1006BC0043CB43C243CB43C206980799089A099B84
:1006CC002568A847064B236010B070BD0548FFF79E
:1006DC00E7FEF9E7701B0020201900201400002011
:1006EC00D904000860C8000870B58AB005000E0077
:1006FC0001AC24220021200007F056FF064B1B689A
:10070C000193049605482A00210003F087FEFFF7A9
:10071C00ADFF0AB070BDC04628190020701B002028
:10072C0070B58CB0060003AC24220021200007F029
:10073C003BFF01AD08220021280007F035FF2E7089
:10074C00064B1B6803930123069305482A002100DE
:10075C0003F064FEFFF78AFF0CB070BD281900206F
:10076C00701B002010B582B0074B1B68002B01D00A
:10077C0002B010BD05490200684607F0A7FE6846A6
:10078C00FFF78EFEF4E7C0461C1900206CC8000869
:10079C00F0B5C64600B582B005008846019200232C
:1007AC0000E00133274A17689F4208DD264A94214E
:1007BC0059438A58AA42F4D1234C0C1900E0002466
:1007CC00202F34D0002C0DD000276668BE4211DDDE
:1007DC003801083020184146FFF76AFC002828D061
:1007EC000137F2E794207843174C0419154B013765
:1007FC001F60E9E7082E21D04046FFF763FC0E2866
:10080C001ED8300108302018414607F078FF636885
:10081C0001331A01A2180199D1716360256020007F
:10082C0088300C22002107F0BFFE002002E00120DE
:10083C0000E0022002B080BCB846F0BD0320F9E70E
:10084C000420F7E7181900209806002070B5060060
:10085C00184B012252421A600025174B1B68AB4201
:10086C0023DD002400E00134144B94226A439B18CE
:10087C005B68A34217DD230194226A439818083061
:10088C000E4BC0183100FFF713FC0028EBD10B4ABC
:10089C0001342301942169435B18D318D879054B93
:1008AC001860885870BD0135D7E7300006F095FF09
:1008BC00F8E7C0469406002018190020980600207E
:1008CC00F0B5CE46474680B599B00FAC2422002136
:1008DC00200007F069FE03AD08220021280007F074
:1008EC0063FE012312934348FFF7DAFD42482A00C6
:1008FC00210003F093FD03F0E9FB040003F0E6FB99
:10090C00001BFA235B0098426CD23B48402103F059
:10091C005DFE0028F2D0384801AB05AA402103F057
:10092C00A7FD059B1B041B0C98461800FFF71AFF2C
:10093C00002534E03148FFF7B3FD314B721C120136
:10094C00D2199B18D879FFF70DFF18E001362C4B04
:10095C0094226A439B185B68B3421CDD33019427D5
:10096C006F43D8190830264B99464844FFF798FD39
:10097C00731C1B01DB194B44DB79FF2BDAD1204BA9
:10098C0094226A439B185B68013BB342DED01D483E
:10099C00FFF786FDDAE71C48FFF782FD01351B4B9C
:1009AC001B68AB420ADD164B94226A43D358984518
:1009BC00F4D11748FFF774FD0026C8E71548FFF778
:1009CC006FFD01AB5B78042B06D91348FFF768FD6C
:1009DC001248FFF765FD91E7114A9B009858FFF705
:1009EC005FFDF5E70F48FFF75BFD19B0C0BCB946DA
:1009FC00B046F0BD70C80008701B002084C8000809
:100A0C009806002088C800088CC800081819002017
:100A1C00B4CB000890C8000894C8000868C8000847
:100A2C00000000209CC80008F8B505000E000F68F7
:100A3C000A49380007F0C0FD040002003900280004
:100A4C0007F070FE2D1900232B7033681A5D002AF5
:100A5C0000D001341B193360F8BDC04664CC0008CB
:100A6C0070B505000378002B0ED000242800FFF78A
:100A7C0029FBA04206D92B5D303BDBB2092B05D8F4
:100A8C000134F3E7012000E0002070BD0020FCE7FA
:100A9C0010B5034B01221A600248FFF701FD10BD8F
:100AAC0090060020ACC8000810B58AB0019002ACCA
:100ABC0001A92000FFF7B8FF16492000FFF7F8FA4C
:100ACC00002811D0144902A8FFF7F2FA002810D020
:100ADC0002AB1B78002B0FD1104B01221A6010486F
:100AEC00FFF7DEFC0AB010BD0E48FFF7D9FCFFF78C
:100AFC006FFCFFF7E5FEF5E7084B01221A600A4888
:100B0C00FFF7CEFC02A8FFF7CBFC0848FFF7C8FCA8
:100B1C00E8E7C046B4C80008D0C80008900600201A
:100B2C00D8C80008BCC80008F4C8000868C8000889
:100B3C00F0B5CE4600B58AB0019002AC01A92000F8
:100B4C00FFF772FF61492000FFF7B2FA00280ED0C0
:100B5C005F4902A8FFF7ACFA0090002866D1019813
:100B6C00FFF774FE041E09D000990D0043E05948AC
:100B7C00FFF796FC0AB080BCB946F0BD564B01227B
:100B8C001A605648FFF78CFCF4E75548FFF788FCD1
:100B9C00544B721C1201D2199B18D879FFF7E2FD45
:100BAC0018E001364F4B94226A439B185B68B342A2
:100BBC001CDD330194276F43D8190830494B9946F3
:100BCC004844FFF76DFC731C1B01DB194B44DB79AC
:100BDC00FF2BDAD1434B94226A439B185B68013B91
:100BEC00B342DED04048FFF75BFCDAE73F48FFF743
:100BFC0057FC012101353E4B1B68AB4210DD394BD4
:100C0C0094226A43D358A342F4D13A48FFF748FCE4
:100C1C002000FFF7A7FD3848FFF742FC009EC1E714
:100C2C000029A7D13548FFF73BFCA3E702A8FFF743
:100C3C000DFE041E24D0019B1B78002B24D001A98F
:100C4C0002A8FFF7F1FE019D2B78002B2AD028007B
:100C5C00FFF706FF00281ED0280006F0BEFDC2B22A
:100C6C0002A92000FFF794FD01281ED0022820D0F5
:100C7C00032822D0042824D02148FFF711FC79E75F
:100C8C002048FFF70DFC75E7134B01221A601E4834
:100C9C00FFF706FCD3E7104B01221A601A48FFF746
:100CAC00FFFB67E701204042D9E71848FFF7F8FB44
:100CBC0060E71748FFF7F4FB5CE71648FFF7F0FB1B
:100CCC0058E71548FFF7ECFB54E7C04610C900087D
:100CDC00D0C80008ACC800089006002018C900084D
:100CEC0084C800089806002088C8000868C8000856
:100CFC001819002038C9000850CD00084CC900084C
:100D0C0024CA000868C9000890C90008BCC90008BA
:100D1C00D8C90008F4C9000810CA000810B58AB078
:100D2C00019002AC01A92000FFF77EFE574920007C
:100D3C00FFF7BEF9002819D0554902A8FFF7B8F9FA
:100D4C0000284ED0534902A8FFF7B2F9002800D171
:100D5C0079E002AB1B78002B00D089E04E4B0122CE
:100D6C001A604E48FFF79CFB0AB010BD0198FFF7C4
:100D7C006DFD00281CD04A4B18600198FFF790FBC2
:100D8C004848FFF78DFB484B1B68012B14D0022BF6
:100D9C0019D0032B1ED04548FFF782FB0220FFF72A
:100DAC00BFFC0420FFF7BCFC0620FFF7B9FCDBE717
:100DBC003F48FFF775FBD7E73E48FFF771FB022072
:100DCC00FFF7AEFCD0E73B48FFF76AFB0420FFF7C8
:100DDC00A7FCC9E73748FFF763FB0620FFF7A0FC29
:100DEC00C2E70198FFF732FD002813D02C4B186096
:100DFC000198FFF755FB2B48FFF752FB2A4B1B685A
:100E0C00012B0BD0022B10D0032B15D02A48FFF747
:100E1C0047FBA9E72648FFF743FBA5E72748FFF761
:100E2C003FFB0120FFF77CFC9EE72448FFF738FBD3
:100E3C000320FFF775FC97E72048FFF731FB0520EF
:100E4C00FFF76EFC90E70198FFF700FD00280BD030
:100E5C00134B18600198FFF723FB1948FFF720FB91
:100E6C00FF20FFF75DFC7FE71148FFF719FB7BE7DD
:100E7C00094B01221A601348FFF712FB02A8FFF777
:100E8C000FFB1148FFF70CFB6EE7C04638CA000891
:100E9C008CCA0008B4C8000890060020DCCA000800
:100EAC002819002050CD00089406002074CA0008B0
:100EBC003CCA00085CCA0008A4CA000890CA000812
:100ECC00C8CA0008FCCA000868C80008F0B5C646C5
:100EDC0000B584B0060088460C22002101A807F05A
:100EEC0063FB002500272FE094276F4388372C4B9A
:100EFC00FF183B68002B0BD101333B60FA239B009E
:100F0C003B81FA23DB007B810023BB80B433FB8065
:100F1C00BA8842453FD8F98841453ED343469B1A8F
:100F2C009BB23C897889001B5843891AFFF7E6F875
:100F3C00201880B204B080BCB846F0BD94276F4333
:100F4C008837174BFF180135164B1B68AB421EDD5B
:100F5C00134B94226A43D458300006F03EFC844272
:100F6C00C2D000240E4B94226A439B185B68A342A8
:100F7C00E9DD230194226A4398180830084BC01805
:100F8C003100FFF795F80028D8D00134EAE7002F9C
:100F9C00AFD101AFADE70020CCE70020CAE7C046D7
:100FAC00980600201819002030B58DB0019004ACC3
:100FBC0001A92000FFF738FD87492000FFF778F8DA
:100FCC0000281FD0854904A8FFF772F8002855D0D7
:100FDC00834904A8FFF76CF8002800D189E0814907
:100FEC0004A8FFF765F8002800D1D2E004AB1B7809
:100FFC00002B00D0E2E07C4B01221A607B48FFF70B
:10100C004FFA1DE00198FFF721FC002815D0784B12
:10101C0018600198FFF744FA7648FFF741FA764BCF
:10102C001B68012B0ED0022B13D0032B18D0042BD2
:10103C001DD07248FFF734FA02E07148FFF730FA1E
:10104C000DB030BD6F48FFF72BFA0120FFF768FB9E
:10105C00F6E76C48FFF724FA0220FFF761FBEFE795
:10106C006848FFF71DFA0320FFF75AFBE8E76548CD
:10107C00FFF716FA0420FFF753FBE1E70198FFF79F
:10108C00E5FB002815D05A4B18600198FFF708FAB9
:10109C005848FFF705FA584B1B68012B0DD0022B53
:1010AC0012D0032B17D0042B1CD05448FFF7F8F99F
:1010BC00C6E75348FFF7F4F9C2E75348FFF7F0F9D6
:1010CC000520FFF72DFBBBE74F48FFF7E9F906209A
:1010DC00FFF726FBB4E74C48FFF7E2F90720FFF7D0
:1010EC001FFBADE74848FFF7DBF90820FFF718FBBB
:1010FC00A6E704AC01A92000FFF796FC2000FFF73F
:10110C00A5FB002835D0019806F067FB040081B2DE
:10111C00002903D1019B1B78302B2ED104A8FFF79B
:10112C00D5FE051E2DD0344B1B68013B032B2CD850
:10113C000198FFF7B5F93548FFF7B2F92004000C18
:10114C00FFF710FB3248FFF7ABF92800FFF70AFB5B
:10115C003048FFF7A5F9284B1B68103303A8037020
:10116C000D236B441D702D0A5D700321FFF7BCFA33
:10117C0066E72348FFF794F962E72748FFF790F9F1
:10118C005EE72648FFF78CF95AE71C48FFF788F909
:10119C0056E70198FFF75AFB00280BD0144B186048
:1011AC000198FFF77DF91E48FFF77AF9FF20FFF74A
:1011BC00B7FA45E71248FFF773F941E70A4B0122EA
:1011CC001A601848FFF76CF904A8FFF769F916487C
:1011DC00FFF766F934E7C0468CCA000838CA000825
:1011EC006CCB0008B4C8000890060020C0CB0008E7
:1011FC002819002050CD00089406002030CB0008A0
:10120C003CCA00081CCB000854CB00089CCB00083F
:10121C00B0CB0008B8CB000870CB000884CB00081A
:10122C00C8CA0008E0CB000868C8000810B58AB02E
:10123C00019002AC01A92000FFF7F6FB4249200007
:10124C00FEF736FF002816D0404902A8FEF730FF03
:10125C00002833D03E4902A8FEF72AFF002851D0BF
:10126C0002AB1B78002B62D13A4B01221A603A4830
:10127C00FFF716F918E00198FFF7E8FA002815D0E7
:10128C00364B1B68013B022B14D8354B1860019868
:10129C00FFF706F93348FFF703F9334B334A1A606B
:1012AC002E4B1878FFF73CFA0AB010BD3048FFF708
:1012BC00F7F8F9E72F48FFF7F3F8F5E70198FFF790
:1012CC00C5FA002816D0254B1B68013B022B15D8FC
:1012DC00234B18600198FFF7E3F82248FFF7E0F87A
:1012EC00214B254A1A601D4B18680330C0B2FFF71A
:1012FC0017FAD9E71E48FFF7D3F8D5E71D48FFF7D3
:10130C00CFF8D1E70198FFF7A1FA00280BD0144BC6
:10131C0018600198FFF7C4F81848FFF7C1F8FF20D0
:10132C00FFF7FEF9C0E71248FFF7BAF8BCE7094B24
:10133C0001221A601248FFF7B3F802A8FFF7B0F8C1
:10134C001048FFF7ADF8AFE700CC000828CC000838
:10135C00B4C800089006002030CC00089406002089
:10136C002819002050CD000814000020F9040008B2
:10137C003CCA000804CC0008D5050008C8CA0008FF
:10138C004CCC000868C8000810B58AB0019002ACBB
:10139C0001A92000FFF748FB2D492000FEF788FE2D
:1013AC00002811D02B4902A8FEF782FE00282DD070
:1013BC0002AB1B78002B3ED1274B01221A60274829
:1013CC00FFF76EF80AB010BD0198FFF73FFA00283E
:1013DC0014D0234B1B68013B022B13D8214B1860F4
:1013EC000198FFF75DF82048FFF75AF81F4B204A89
:1013FC001A601B4B1878FFF793F9E3E71D48FFF7CA
:10140C004FF8DFE71C48FFF74BF8DBE70198FFF7D5
:10141C001DFA00280BD0134B18600198FFF740F809
:10142C001648FFF73DF8FF20FFF77AF9CAE7114895
:10143C00FFF736F8C6E7084B01221A601048FFF791
:10144C002FF802A8FFF72CF80E48FFF729F8B9E798
:10145C0000CC0008B4C80008900600208CCC000812
:10146C00940600202819002050CD000814000020FC
:10147C006D0500083CCA000868CC0008C8CA000802
:10148C00A8CC000868C8000810B5D4B01F4948A8FB
:10149C0005F026FF002803D11D48FFF701F815E0E1
:1014AC001C48FEF7FDFF2FE0A022120493421FD927
:1014BC001B0D194A194902AC00921222FF326A44E0
:1014CC00200007F003F82000FEF7EAFF42A948A825
:1014DC0005F062FF002814D142AB5B7A002B10D0D0
:1014EC00429B802212069342DED99B0F0C4AE1E705
:1014FC00A0229201934202D99B0A0A4ADAE70A4ACD
:10150C00D8E748A805F033FF54B010BD84C80008D4
:10151C00F0CC0008D4CC0008C8CC000804CD0008DE
:10152C00C4CC0008CCCC0008D0CC000810B58AB0D4
:10153C00019002AC01A92000FFF776FA12492000B5
:10154C00FEF7B6FD00280BD002AB1B78002B0ED19A
:10155C000E4B01221A600E48FEF7A2FF0AB010BD16
:10156C000198FEF79DFF0B48FEF79AFFF6E7074B35
:10157C0001221A600848FEF793FF02A8FEF790FFBD
:10158C000448FEF78DFFE9E714CD00089006002013
:10159C001CCD000868C8000838CD0008F8B5070055
:1015AC000E0015000E4C236803E024684934FF3408
:1015BC002368002BF9D1A620400006F015F9206015
:1015CC00390007F09CF82268A0235B00D6502268F3
:1015DC000433D550226804330021D150F8BDC046E5
:1015EC0024020020064B1B6807E0A22149005A5830
:1015FC00013A5A50A42252009B58002BF5D1704747
:10160C002402002030B59BB0019012AC01A920003F
:10161C00FFF70AFA96492000FEF74AFD002828D069
:10162C00944912A8FEF744FD002842D0924912A812
:10163C00FEF73EFD00284DD0904912A8FEF738FD6C
:10164C00002853D08E4912A8FEF732FD002800D195
:10165C006CE08C4912A8FEF72BFD051E00D0B1E002
:10166C00894B1C68002C00D180E08848FEF718FFDD
:10167C0094E002F02BFD0200854902AC200006F03C
:10168C0025FF2000FEF70CFF824B1B68002B0CD0B3
:10169C0002F01CFD7F4B1A68821A7F49200006F06D
:1016AC0015FF2000FEF7FCFE12E07C48FEF7F8FE6A
:1016BC000EE002F00BFD774B186002F007FD020004
:1016CC00774902AC200006F001FF2000FEF7E8FE8F
:1016DC001BB030BD019806F080F8002802D002F053
:1016EC00FBFCF5E76F48FEF7DBFEF1E712AC01A956
:1016FC002000FFF799F9200006F06FF8041E03D0C4
:10170C0001980378002B03D16748FEF7C9FEDFE789
:10171C0022000021FFF742FF6448FEF7C1FE2000C3
:10172C00FFF720F86248FEF7BBFED1E712AC01A927
:10173C002000FFF779F9200006F04FF8041E03D0C3
:10174C0001980378002B03D15A48FEF7A9FEBFE796
:10175C0022002100FFF722FF5748FEF7A1FE2000D0
:10176C00FFF700F85248FEF79BFEB1E75348FEF72F
:10177C0097FEADE75248FEF793FEA2235B00E058BC
:10178C00FEF7F0FF4F48FEF78BFE2000FEF788FEB9
:10179C004248FEF785FEA4235B00E458002C97D04A
:1017AC0001352800FEF7DEFFA0235B00E358002B79
:1017BC00E0D04548FEF774FEA0235B00E058FEF72E
:1017CC00D1FFDFE7414912A8FEF772FC041E0AD0D4
:1017DC0012AB1B78002B3ED13D4B01221A603D48C9
:1017EC00FEF75EFE74E7019805F0F7FF002803D1C1
:1017FC00019B1B78002B05D1234B1B68002B05D0BC
:10180C0021490DE03448FEF74BFE61E72B48FEF70B
:10181C0047FE5DE719004931FF31A42252009B5865
:10182C00002B14D00134A04206D00028F2D1A422FF
:10183C0052009A58002AEDD1A42252009A580A60FC
:10184C00180005F0DBFF2548FEF72AFE40E7244888
:10185C00FEF726FE3CE71E4B01221A602148FEF7DC
:10186C001FFE12A8FEF71CFE0C48FEF719FE2FE710
:10187C0054CD000880CD00089CCD0008C0CD0008D8
:10188C000CCE0008D0C800082402002068CE000846
:10189C005CCD0008200200206CCD000868C8000850
:1018AC0088CD0008A4CD0008C8CD0008F0CD0008F4
:1018BC0004CE000814CE00083CCE000854CE00081C
:1018CC0084CE00088CCE00087CCE000894CE000894
:1018DC0090060020ECCE00089CCE0008BCCE000880
:1018EC00D0CE000808CF000810B50C48FEF7D8FD84
:1018FC000B490C48012205F025F9002806D10A48AD
:10190C00FEF7CEFD094B01221A6010BD0848FEF708
:10191C00C7FD064B00221A60F7E7C04624CF00082B
:10192C0050D100085C0400204CCF00088C0600202D
:10193C003CCF000810B506490022002005F002F942
:10194C000448FEF7ADFD044B00221A6010BDC046E2
:10195C0050D1000860CF00088C06002010B5C2B032
:10196C000E4841AA40A905F040FD002811D1419B29
:10197C005A69023A59894A43409B4B43DB0AD20AC3
:10198C000749684606F0A2FD6846FEF789FD42B09D
:10199C0010BD0448FEF784FDF9E7C04650D100089D
:1019AC0088CF000874CF000810B58AB0019002AC43
:1019BC0001A92000FFF738F825492000FEF778FB35
:1019CC0000280BD1234B1B68002B04D02248FEF7B8
:1019DC0067FD0AB010BDFFF787FFFAE71F4902A8A1
:1019EC00FEF766FB00280AD11A4B1B68002B02D0AD
:1019FC00FFF7B4FFEDE71A48FEF752FDE9E7194986
:101A0C0002A8FEF755FB00280AD1124B1B68002BCD
:101A1C0002D0FFF78FFFDCE71348FEF741FDD8E754
:101A2C0002AB1B78002B06D1104B01221A60104818
:101A3C00FEF736FDCDE70D4B01221A600D48FEF77F
:101A4C002FFD02A8FEF72CFD0B48FEF729FDC0E781
:101A5C00D0CF00088C060020D8CF0008F8CF0008A3
:101A6C0000D000081CD0000824D0000890060020EC
:101A7C0040D000085CD0000868C8000830B59BB0A6
:101A8C000190644B1B68002B36D004006249FEF7B2
:101A9C000FFB002812D1614C2268614902AD28006D
:101AAC0006F014FD2800FEF7FBFC00232360594AC6
:101ABC0013605C4805F0FDFB1BB030BD2000FEF749
:101ACC0001FB02000A2323540132019B9B180021C5
:101ADC0019700199534802AB05F05DFA002807D143
:101AEC004E4A1368013313604E4805F094FBE3E74C
:101AFC004D48FEF7D5FCF7E712AC01A92000FEF724
:101B0C0093FF4A4B00221A6049492000FEF7D0FA95
:101B1C00002846D0474912A8FEF7CAFA002844D03C
:101B2C00454912A8FEF7C4FA002842D0434912A82E
:101B3C00FEF7BEFA002840D0414912A8FEF7B8FAC9
:101B4C0000283ED03F4912A8FEF7B2FA00283CD03C
:101B5C003D4912A8FEF7ACFA00283AD03B4912A82E
:101B6C00FEF7A6FA002838D0394912A8FEF7A0FAD9
:101B7C00002836D0374912A8FEF79AFA002834D03C
:101B8C00354912A8FEF794FA002832D012AB1B7814
:101B9C00002B32D1254B01221A603048FEF780FC15
:101BAC008AE70198FEF774FF86E70198FEF77CFF41
:101BBC0082E70198FEF7BCFF7EE70198FFF7AEF8CD
:101BCC007AE70198FFF7F0FE76E7019800F04CF801
:101BDC0072E70198FFF7E8F96EE70198FFF726FB2B
:101BEC006AE70198FFF70EFD66E70198FFF79EFC88
:101BFC0062E70198FFF7C8FB5EE70C4B01221A6005
:101C0C001748FEF74DFC12A8FEF74AFC1548FEF7E4
:101C1C0047FC51E72802002078D000081C02002065
:101C2C0084D000082C0200209CD0000890060020D4
:101C3C00B8D00008C0D00008C4D00008CCD0000830
:101C4C00D4D00008D8D00008E0D00008E8D00008B4
:101C5C00ECD00008F4D00008F8D00008FCD0000844
:101C6C0010D1000868C8000870B59C4CA5440190C0
:101C7C009B4B1B68002B3FD09A4B1B68002B05D04D
:101C8C009949DEA8FEF714FA002839D1DEAC01A977
:101C9C002000FEF7C9FE95492000FEF709FA00283E
:101CAC0032D09349DEA8FEF703FA002832D09149CE
:101CBC00DEA8FEF7FDF9041E39D08F49DEA8FEF729
:101CCC00F7F900286AD08D49DEA8FEF7F1F9002853
:101CDC0000D0D0E0019B1B78002B01D1884B0193E5
:101CEC0001990122E6A804F05FFF002800D1ACE0C6
:101CFC008448FEF7D5FB09E08348FEF7D1FB05E0ED
:101D0C008248FEF7CDFBC1E7FFF7BEFBB923DB0032
:101D1C009D4470BD019805F0E4FB002803D17C487C
:101D2C00FEF7BEFBF2E77748FEF7BAFBEEE7019948
:101D3C000122E6A804F038FF002803D17548FEF70D
:101D4C00AFFB15E06F48FEF7ABFBDFE7002D21D0B2
:101D5C000134714902AD2200280006F0B7FB2800BF
:101D6C00FEF79EFB52A8FEF79BFB6C48FEF798FB18
:101D7C00A02152AEE6AA4900300005F09EFC0500F9
:101D8C003000FEF79FF90138335C0A2BDED10022BC
:101D9C003254DBE7E6A805F08CFAB7E701A9DEA818
:101DAC00FEF742FE019805F018FD051E0FD001222A
:101DBC00DEA9E6A804F0F8FE00280CD158490A2246
:101DCC0052A804F0F1FE002809D101240CE055487A
:101DDC00FEF766FB9AE74B48FEF762FB96E7524824
:101DEC00FEF75EFB92E70134A021E6AA490002A8A7
:101DFC0005F063FC002806D0AC42F4D052A902A82E
:101E0C0005F084FCEFE7E6A805F053FA52A805F0BC
:101E1C0050FADEA805F065FB002809D14048DEA980
:101E2C0005F0B8FB002807D14048FEF739FB6DE7F9
:101E3C003F48FEF735FB69E73E48FEF731FB65E7A7
:101E4C00002C14D052A8FFF719FEA02152ADE6AA1F
:101E5C004900280005F031FC04002800FEF732F997
:101E6C0001382B5C0A2BEBD100222A54E8E7E6A8B8
:101E7C0005F01FFA4AE73049DEA8FEF719F90028E9
:101E8C0014D1019B1B78002B01D11D4B019301999F
:101E9C002A48322204F088FE002803D1114B01227B
:101EAC001A6033E71748FEF7FBFA2FE7DEAB1B7817
:101EBC00002B06D1224B01221A602248FEF7F0FAC1
:101ECC0024E71F4B01221A601F48FEF7E9FADEA82F
:101EDC00FEF7E6FA1148FEF7E3FA17E738FAFFFFC8
:101EEC008C0600202802002054D10008D0C800081D
:101EFC0094CE0008B4D10008D8D1000898D20008BC
:101F0C009CD200088CD1000824D100085CD10008B8
:101F1C00A4D10008BCD10008D0D1000868C80008C2
:101F2C0008D20008E0D100080CD2000888D20008C2
:101F3C0030D2000850D20008A8D200082C02002091
:101F4C0090060020B0D20008CCD2000872B6FEE792
:101F5C0000B585B00C22002101A806F025FB19481C
:101F6C00194B03608023DB05436000238360C3604F
:101F7C00036104224261037643768376033AC2619D
:101F8C001F328354436283620C3283540363436372
:101F9C00836310328354C36400F050FF00280CD1CB
:101FAC0001A90123019300234B608B60054801F0CC
:101FBC0067F8002803D105B000BDFFF7C7FFFFF796
:101FCC00C5FFC046D41B00200024014010B51048AA
:101FDC00104B0360002343608360C360037443743D
:101FEC00837404224261033A82610D21C1610B3971
:101FFC00016242628262C262026343638363C363AF
:10200C0002F004F9002800D110BDFFF79FFFC04675
:10201C00701B00200064004010B51248124B036086
:10202C00124B4360002383600122C2600361436151
:10203C008361C361036202F0D7FA00280CD109480E
:10204C00002102F03FFB002808D10648002102F0D5
:10205C0065FB002804D110BDFFF778FFFFF776FF72
:10206C00FFF774FF1C1B002000540040583D50002B
:10207C0010B51048104B036082235B0043600023B3
:10208C008360C0229200C26003614361013AFF3A4F
:10209C008261C361036243628362FA3AFF3AC262AD
:1020AC0003630833436302F08DFC002800D110BD9C
:1020BC00FFF74CFF901900200030014010B511487B
:1020CC00114B036082235B00436000238360E0229A
:1020DC00D200C26003614361802292008261D13AD6
:1020EC00FF3AC261036243628362293AC2620363AC
:1020FC000833436302F066FC002800D110BDFFF7E3
:10210C0025FFC0462C1900200038004010B5174898
:10211C00174B0360E1235B02436000238360C360C1
:10212C0003610C2242618361C36103624362836277
:10213C0003F01EFB002811D10C48002103F098FB82
:10214C0000280DD10948002103F0B8FB002809D163
:10215C00064803F06DFB002806D110BDFFF7F6FE14
:10216C00FFF7F4FEFFF7F2FEFFF7F0FE881A0020EF
:10217C000038014010B51748174B0360E1235B0290
:10218C00436000238360C36003610C22426183615E
:10219C00C36103624362836203F0EAFA002811D13F
:1021AC000C48002103F064FB00280DD109480021E4
:1021BC0003F084FB002809D1064803F039FB002802
:1021CC0006D110BDFFF7C2FEFFF7C0FEFFF7BEFE43
:1021DC00FFF7BCFEF41900200044004010B594B089
:1021EC0005AC3C220021200006F0DEF91022002173
:1021FC0001A806F0D9F98020800001F09DFE022391
:10220C000593FE3308930023099340220A920D9301
:10221C00200001F085F800280DD101A807230193B7
:10222C00002343608360C360002101F061FB002840
:10223C0003D114B010BDFFF789FEFFF787FE000035
:10224C0070B5D2B001F022FFFFF7C8FFFEF7CEF851
:10225C00FFF77EFEFFF7BAFEFFF7DEFEFFF708FF83
:10226C00FFF72CFFFFF752FFFFF784FF03F0ACFBE7
:10227C00002801D0FFF76AFE2B4802F0B9F8C820FD
:10228C00400001F029FFFFF72FFB2848FEF708F963
:10229C00274C012323602748FFF7F0FB002626601C
:1022AC002548012301224821FF31694403F050F9EC
:1022BC00041E0BD14823FF336B441B780D2B15D018
:1022CC000A2B13D0721C01A98B55D6B21B4D2C684E
:1022DC00002CE5D0A2235B00E358002B0EDD25007B
:1022EC004935FF35A4235B00E458F1E701AB00222C
:1022FC009A551800FFF7C2FB2600E7E72000FFF70E
:10230C00BDFBA0235B00E358002B03D0A22252009C
:10231C00A350DDE7A4235B00E3582B60200005F0FD
:10232C006DFA2C68D4E7C046701B0020E8D2000878
:10233C001C190020F8D20008F419002024020020F7
:10234C0010B586B00F216944087017246C440548F9
:10235C0032230093313B220002F090FC207806B02F
:10236C0010BDC0462C19002070B5060001F0AEFE61
:10237C000500FF20FFF7E4FF0400FF2804D001F064
:10238C00A5FE401BB042F4D32000FF384342584115
:10239C0070BDF8B507000E00002405E03D19FF20C4
:1023AC00FFF7CEFF28700134B442F7D3F8BD00001C
:1023BC0010B501220221034801F0B8FDFF20FFF700
:1023CC00BFFF10BD0004005010B5002202210948C7
:1023DC0001F0ACFDFF20FFF7B3FFFA204000FFF740
:1023EC00C3FF041E02D00124200010BDFFF7E0FF44
:1023FC00FAE7C0460004005070B504000D0043B26B
:10240C00002B20DB0C2C05D0FFF7D2FFFFF7DCFFF5
:10241C0000283AD040202043C0B2FFF791FF280E8D
:10242C00FFF78EFF280CC0B2FFF78AFF280AC0B254
:10243C00FFF786FFE8B2FFF783FF002C0DD0082CC6
:10244C001DD001200AE07F231C4000213720FFF71C
:10245C00D3FF02000128D5D90FE09520FFF770FFBC
:10246C000C2C0ED00A24FF20FFF76AFF0200000696
:10247C0003D5013CE4B2002CF5D1100070BD8720CF
:10248C00ECE7FF20FFF75CFFECE7FF22F5E700002D
:10249C0010B501238AB2034C5B420100200002F00C
:1024AC0013FB10BD2C19002070B504000D00FA2090
:1024BC004000FFF759FF002800D170BD2800FFF73E
:1024CC003FFFFD2D01D10120F7E78021890020007D
:1024DC00FFF7DEFFFF20FFF733FFFF20FFF730FF92
:1024EC00FF20FFF72DFF1F230340052B01D10120F7
:1024FC00E3E70020E1E7000010B5040001F0E6FD81
:10250C00024B1860024B1C6010BDC0463C1C0020E6
:10251C00381C002010B501F0D9FD044B1B68C01A03
:10252C00034B1B6898428041404210BD3C1C00206C
:10253C00381C002070B505000E00C820FFF7DCFF2A
:10254C00FF20FFF7FDFE0400FF2803D1FFF7E2FF99
:10255C000028F5D1FE2C01D0002070BD31002800E0
:10256C00FFF717FFFF20FFF7EBFEFF20FFF7E8FE5A
:10257C000120F2E770B582B0002800D0A7E0554BDF
:10258C001B789B0710D4544B1A68136838218B4363
:10259C0008390B4313600A24002C09D0FF20FFF7E5
:1025AC00CFFE013CE4B2F7E74A4B1878C0B21EE00C
:1025BC0000210020FFF720FF05000600012818D09D
:1025CC00464B1C70FFF7F4FE002C00D17BE0424B15
:1025DC001A68136838218B4328390B4313603D4A22
:1025EC0013780F398B4313703A4B1878C0B202B082
:1025FC0070BDFA208000FFF77FFFD521490008202D
:10260C00FFF7FAFE012839D1250006E0FF20FFF77D
:10261C0097FE01AB58550135EDB2032DF6D901AB40
:10262C009B78012BCCD101ABDB78AA2BC8D1FFF75F
:10263C0071FF002806D08021C905A920FFF7DCFE18
:10264C000028F4D1FFF766FF002801D10400B7E79A
:10265C0000213A20FFF7D0FE051E07D0B0E7FF207F
:10266C00FFF76EFE01AB58550135EDB2032DF6D9CF
:10267C0001AB1B785B0624D50C24A1E70021A92013
:10268C00FFF7BAFE01280FD9FFF744FF002805D049
:10269C0000213000FFF7B0FE0028F5D1FFF73AFF1C
:1026AC00002804D104008BE70225A926ECE7802141
:1026BC0089001020FFF7A0FE002800D080E72C0036
:1026CC007EE704247CE7034B01221A708CE701207F
:1026DC008DE7C046180000202C190020401C00205B
:1026EC00002803D1024B1878C0B270470120FCE7D8
:1026FC001800002070B50D0011001C00002837D107
:10270C00002B37D01D4B1B78DB0735D41C4B1B78AB
:10271C001B0700D45102012C1CD01220FFF76CFEB9
:10272C00002811D1802189002800FFF703FF002821
:10273C0006D080239B009C466544013C002CF1D1C3
:10274C0000210C20FFF758FEFFF732FE631E9C4160
:10275C00E0B270BD1120FFF74FFE0028F4D18021AC
:10276C0089002800FFF7E6FE0028EDD00024EBE7F7
:10277C000420EEE70420ECE70320EAE71800002031
:10278C00401C002070B50D0016001C00002847D11D
:10279C00002B47D0264B1B78DB0745D4244B1B78EA
:1027AC005B0743D4234B1B781A0700D47602012C09
:1027BC0021D006221A422CD131001920FFF71CFE21
:1027CC00002812D1FC212800FFF76EFE002806D04D
:1027DC0080239B009C466544013C002CF2D1FD21DA
:1027EC000020FFF761FE002818D0FFF7E1FD631E03
:1027FC009C41E0B270BD31001820FFF7FDFD0028B0
:10280C00F3D1FE212800FFF74FFE0028EDD0002465
:10281C00EBE721009720FFF7EFFDCDE70124E4E77C
:10282C000420E7E70420E5E70320E3E70220E1E7E3
:10283C0018000020401C002070B584B00C0016005D
:10284C00002800D0FEE0814B1B78DB0700D5FBE0B5
:10285C0003295CD011D800291BD001290BD10021F0
:10286C000920FFF7C9FD051E1AD02500FFF7A0FDB2
:10287C00280004B070BD0425F8E7042907D1744B77
:10288C001B7806221A4200D09DE00125EEE70425B4
:10289C00ECE7FFF799FD002800D0C9E00125E5E73A
:1028AC0010216846FFF746FE002800D1C2E06B46B7
:1028BC001B789B09012B1BD06A4651790F230B40C7
:1028CC00917AC9095B18507A4000062101405918C9
:1028DC00137A9B09D07980001B1892799202C02040
:1028EC00000102409B18013307398B403360BDE770
:1028FC006A46537A117A09025B18D2791204FC21C8
:10290C0089030A409B1801339B023360AEE7504B9E
:10291C001B785B0722D500218D20FFF76DFD002869
:10292C0001D00125A2E7FF30FFF70AFD1021684610
:10293C00FFF700FE00280FD1012597E7FF20FFF7D6
:10294C00FFFC013DEDB2002DF8D16B469A7A1209CD
:10295C0010239340336089E73025F4E700210920E8
:10296C00FFF74AFD041E01D001257FE710216846C0
:10297C00FFF7E0FD00285FD0354B1B7802221500D5
:10298C001D401A420FD06A46917A49007E230B40B3
:10299C00D17AC9095B180133527B9209013A9340F1
:1029AC003360250062E769468B7A9B101F221A4020
:1029BC000132C97AC8001823034049095B18013356
:1029CC005343336052E76A460B21FFF735FF00286B
:1029DC0034D16B461B789B0903D16B469B7A5B0603
:1029EC002ED5316874681A4B1B781B0701D4490229
:1029FC0064022020FFF700FD002801D0012535E7F7
:102A0C0021002130FFF7F8FC002801D001252DE72B
:102A1C0000212630FFF7F0FC051E01D0012525E72B
:102A2C000C48FFF7A1FC002800D01FE701351DE77B
:102A3C0025001BE7250019E7012517E7012515E7F8
:102A4C00012513E7042513E7032511E718000020DF
:102A5C00401C002030750000FEE7FEE77047704711
:102A6C0010B501F027FBFEF7BDFD10BD00B583B01E
:102A7C000B4B196C012211431964196C0A4000921A
:102A8C00009ADA6B802149050A43DA63DB6B0B4051
:102A9C000193019BC020C00001F030FB03B000BDCE
:102AAC000010024010B588B004001422002103A8C5
:102ABC0005F07AFD2268104B9A4201D008B010BD87
:102ACC000E4B1A6C802149030A431A641A6C0A4093
:102ADC000192019A596B0122114359635B6B1340AC
:102AEC000293029B03A9039203234B60A020C00511
:102AFC0001F05CF9E2E7C0460024014000100240FE
:102B0C0010B59AB004001422002115A805F04CFD54
:102B1C004C22002102A805F047FD2268184B9A426E
:102B2C0001D01AB010BD80239B04029302A800F0C0
:102B3C00BFFF002821D1134BDA6B802149010A43D6
:102B4C00DA63DA6B0A400092009A596B0122114346
:102B5C0059635B6B1A400192019B15A9C0235B0161
:102B6C00159302234B6000238B60CB6003330B6106
:102B7C00A020C00501F01AF9D3E7FFF7E7F9DAE76F
:102B8C00006400400010024010B59AB004001422FA
:102B9C00002115A805F008FD4C22002102A805F023
:102BAC0003FD2268174B9A4201D01AB010BD2023A6
:102BBC00029302A800F07CFF00281FD1124C626B1C
:102BCC0002231A436263626B13400093009B15A9A6
:102BDC00C0231593AE3B4B6000238B60CB60063358
:102BEC000B610A4801F0E2F8E36B80229203134375
:102BFC00E363E36B13400193019BD6E7FFF7A6F960
:102C0C00DCE7C046005400400010024000040050B5
:102C1C0010B59EB004001422002119A805F0C4FCC4
:102C2C004C22002106A805F0BFFC2368454A9342BC
:102C3C0007D0454A934230D0444A934258D01EB0F4
:102C4C0010BD80235B01069306A800F031FF00281D
:102C5C0020D13F4BD96B80221143D963D96B0A40E9
:102C6C000092009A596B0122114359635B6B1A4015
:102C7C000192019B19A9C023DB01199302234B601C
:102C8C0000238B60CB600A330B61A020C00501F0E0
:102C9C008DF8D4E7FFF75AF9DBE70123069306A872
:102CAC0000F006FF002820D1294B1A6C8021C901A5
:102CBC000A431A641A6C0A400292029A596B012256
:102CCC00114359635B6B13400393039B19A9C023F6
:102CDC00DB00199302234B6000238B60CB600A61ED
:102CEC00A020C00501F062F8A9E7FFF72FF9DBE798
:102CFC000223069306A800F0DBFE00281FD1144B1C
:102D0C00DA6B802189020A43DA63DA6B0A40049297
:102D1C00049A596B0122114359635B6B1340059361
:102D2C00059B19A90B4B199302234B6000238B6055
:102D3C00CB600A61A020C00501F038F87FE7FFF7EF
:102D4C0005F9DCE7008400400038014000440040F5
:102D5C000010024004800000F0B58BB00400142277
:102D6C00002105A805F020FC2368304A934204D0CA
:102D7C002F4A93421DD00BB0F0BD2E4B1A6C802104
:102D8C0049010A431A641A6C0A400092009A596B62
:102D9C000122114359635B6B1A400192019B05A9F7
:102DAC00C2230593C03B4B60A020C00500F0FEFF82
:102DBC00E1E7204BDA6B8021C9010A43DA63DA6B55
:102DCC000A400292029A5A6B012632435A635A6B9A
:102DDC0032400392039A5A6B02252A435A635B6B67
:102DEC002B400493049B05AC08230593069507968A
:102DFC000895A027FF052100380000F0D7FF10230D
:102E0C00059306950796089509962100380000F061
:102E1C00CDFF8023DB0005930695079608950523C7
:102E2C0009932100044800F0C1FFA4E700300140E1
:102E3C0000380040001002400004005030B583B050
:102E4C00040000230193002800D106E1836D002BC0
:102E5C0013D023689A68D2001CD49968804A114018
:102E6C00802252050A439A607E4B18687E49FDF712
:102E7C0045F901304000019009E0FFF713FE0023F3
:102E8C00E3655422A354E4E7019B013B0193019BAE
:102E9C00002BF9D123689A68D20000D59DE0A26D71
:102EAC0010210A43A265E26D0F390A43E265012045
:102EBC009A6804210D001540114200D00125A26D25
:102ECC00D20600D5C2E0002D00D0BFE0A26D67494C
:102EDC000A400631FF310A43A2659A68D20752D4E0
:102EEC00A268217E89030A43617EC9030A43A57E39
:102EFC0069030A43216B002901D0802149010A434F
:102F0C00E1680A432169002969DB802189030A43AE
:102F1C002C21615C49000A432021615C012961D0AC
:102F2C00616A002905D0E0256D002940A56A294376
:102F3C000A43D9684E4D29400A43DA6063689B0FF7
:102F4C009B07E26C1A433C21615C012959D0216832
:102F5C000B69484D2B4013430B616368C02212066A
:102F6C00934210D08022D20593420CD080221206BC
:102F7C00934208D040490A68404D2A40F025AD03E1
:102F8C002B4013430B602168636B4A690725AA43E6
:102F9C0013434B612168A26B4B696935AB4312013A
:102FAC0013434B612369002B35D12268916A103B86
:102FBC000B43936223685A6907231340626B9A424E
:102FCC003BD0A36D12229343023A1343A365E36DE6
:102FDC000F3A1343E36501203DE0002068E7490008
:102FEC00490894E7002D03D1802149020A4397E751
:102FFC00A16D20252943A165E16D1F3D2943E165A4
:10300C008EE7216C0B43616C0B43A16C0B43134398
:10301C0001221A439BE7802292039342CAD1216872
:10302C008B6AE369013B9B001C221A4010235B4214
:10303C009340226E13438B62BCE70023E365A36DC0
:10304C0003229343023A1343A36504E0A36D1022B9
:10305C001343A365012003B030BD0120FBE7C0463C
:10306C00E8FFFF6F20000020400D0300FDFEFFFF76
:10307C000102DEFF02FCFF1F08270140FFFFC3FF18
:10308C00F0B583B004000023019305695433C35C8D
:10309C00012B00D12FE154230122C2540068836814
:1030AC00033216001E401A4209D0A36D1C32134382
:1030BC00A365012054230022E25403B0F0BD4B68F9
:1030CC00022B00D1D5E080221206954225D08B4AE6
:1030DC00954222D0226E1F271F400F25BD40AA43C8
:1030EC000B685D032FD19B0E1F261E40BE40324342
:1030FC0022664D68AB080133E269934213D80E681F
:10310C00826A1F231D40103B1F00AF40BA43B60E0E
:10311C003340AB401343836205E00B68826A5B0368
:10312C005B0B1343836220680B688D6842691B023A
:10313C009A432B40724D2B40134343610B68002B79
:10314C004FDB0020B6E7DD07D0D49D0727D45D0701
:10315C0027D41D0727D4DD0627D49D0627D45D066A
:10316C0027D41D0627D4DD0527D49D0527D45D055E
:10317C0027D41D0527D4DD0427D49D0427D45D0452
:10318C0027D41D0427D4DD0327D49D0327D4802501
:10319C00ED021E002E402B42A8D01226A6E70126D7
:1031AC00A4E70226A2E70326A0E704269EE705264D
:1031BC009CE706269AE7072698E7082696E709264D
:1031CC0094E70A2692E70B2690E70C268EE70D264D
:1031DC008CE70E268AE70F2688E7102686E711264D
:1031EC0084E7484A1168E02252040A404648834268
:1031FC0007D04648834222D0454883422CD0002039
:10320C0058E70802F5D480231B0413433D490A6890
:10321C004048024013430B603F4B18683F49FCF792
:10322C006DFF013043001B189B00019302E0019BD2
:10323C00013B0193019B002BF9D100203AE7C80117
:10324C00DAD480235B0413432E490A6831480240C8
:10325C0013430B6000202DE749024AD48023DB0383
:10326C00134328490A682B48024013430B60002083
:10327C0020E780231B069D4202D0204B9D4205D1A6
:10328C000B68826A5B035B0B9A4382620B68002BB0
:10329C0001DB00200EE71B4A12681B498B4207D04A
:1032AC001A498B420FD01A498B4217D0002001E7E4
:1032BC00A0235B041A4013490B68164803401A43B9
:1032CC000A600020F6E6C0231B041A400D490B6867
:1032DC00104803401A430A600020EBE6C0235B044D
:1032EC001A4008490B680B4803401A430A60002037
:1032FC00E0E60020DEE60220DFE6C04604000080A7
:10330C0000FFFF0708270140001000B0004000B884
:10331C00002000B4FFFF3FFE20000020400D030002
:10332C0070B582B0041E00D15EE20368DB0739D5AC
:10333C00C14A916838230B40D16803220A40102BF4
:10334C0026D0082B26D063688022520293427FD06D
:10335C00A022D202934200D181E0B74B1A68B74940
:10336C000A401A601A68B6490A401A606368002B52
:10337C0000D180E000F0AAFE0500AF4B1B689B0358
:10338C0010D400F0A3FE401B6428F6D903202CE2D5
:10339C00032AD6D1A84B1B689B0303D56368002B6B
:1033AC0000D124E223689B0731D5A34A91683823C6
:1033BC000B40D16803220A40102B6AD0002B6BD132
:1033CC009D4A1268520503D5E268002A00D110E22A
:1033DC00994842689B490A40616909020A43426064
:1033EC00002B0DD1036898490B4021690B430360F6
:1033FC000368DB0A07221A40944BD340944A1360AB
:10340C00944B186800F016FE002800D0F3E12368F6
:10341C001B0700D481E0884B9A6838231340182B83
:10342C0073D0A369002B00D1B4E0834A136E012141
:10343C000B43136600F04AFE05007F4B1B6E9B0787
:10344C006BD400F043FE401B0228F6D90320CCE1DC
:10345C00794A116880235B020B43136086E7764B35
:10346C0019688022D2020A431A601968802252021B
:10347C000A431A607AE700F029FE05006E4B1B68C0
:10348C009B038FD500F022FE401B6428F6D9032045
:10349C00ABE1022A92D193E7E368002B22D0664A73
:1034AC00136869490B4021690B4313601168802331
:1034BC005B000B43136000F009FE05005E4B1B68BC
:1034CC005B0506D400F002FE401B0228F6D903204F
:1034DC008BE159494B685B4A1340626912021343F2
:1034EC004B6094E7544A13685B490B40136000F03F
:1034FC00EDFD0500504B1B685B0588D500F0E6FD23
:10350C00401B0228F6D903206FE14B4B1B6E9B0727
:10351C0003D5A369002B00D16FE123685B0700D4AE
:10352C00A2E0454B9A6838231340202B45D0424BE0
:10353C00DB6BDB004AD4404BDA6B802149050A4334
:10354C00DA63DB6B0B400193019B0125434B1B683A
:10355C00DB053DD5A368012B4ED0052B52D0364B45
:10356C00DA6D01218A43DA65DA6D03318A43DA6553
:10357C00A368002B50D000F0A9FD06002E4BDB6D8C
:10358C009B076FD400F0A2FD801B354B9842F5D9F8
:10359C0003202AE1284A136E01218B43136600F0A5
:1035AC0095FD0500244B1B6E9B07B6D500F08EFDD8
:1035BC00401B0228F6D9032017E11F4BDB6D9B073C
:1035CC0052D5A368002B4FD101200EE10025BDE799
:1035DC00224A116880235B000B43136000F076FDD8
:1035EC0006001E4B1B68DB05B4D400F06FFD801B7E
:1035FC000228F6D90320F8E00F4AD36D01210B43C2
:10360C00D365B5E70C4BDA6D04210A43DA65DA6D44
:10361C0003390A43DA65ABE700F058FD0600064BA8
:10362C00DB6D9B071ED500F051FD801B0C4B9842A7
:10363C00F5D90320D9E0C04600100240FFFFFEFF81
:10364C00FFFFFBFFFF80FFFFFFC7FFFF0024F4001D
:10365C00200000201C000020FFFEFFFF0070004037
:10366C0088130000012D19D023689B062FD5E36920
:10367C00002B19D06A4A11688023DB030B431360BB
:10368C0000F024FD0500664B1B681B021FD400F0E4
:10369C001DFD401B0228F6D90320A6E0604AD36B1F
:1036AC0060490B40D363DFE75D4A13685E490B400A
:1036BC00136000F00BFD0500594B1B681B0206D56F
:1036CC0000F004FD401B0228F6D903208DE0236A8C
:1036DC00002B00D193E0524A916838220A40102AFC
:1036EC005AD0022B12D04E4A136850490B4013602B
:1036FC0000F0ECFC04004A4B1B689B0145D500F024
:10370C00E5FC001B0228F6D903206EE0444A13683E
:10371C0046490B40136000F0D9FC0500404B1B6878
:10372C009B0106D500F0D2FC401B0228F6D90320E1
:10373C005BE03B4AD3683E491940636AA06A034385
:10374C00E06A00020343206B0343606B0343A06BEE
:10375C0003430B43D360116880235B040B4313605A
:10376C00D16880235B050B43D36000F0AFFC0400F1
:10377C002B4B1B689B0106D400F0A8FC001B0228F5
:10378C00F6D9032031E000202FE0254AD3682949DF
:10379C000B40D360002028E0012B32D0204BDA689C
:1037AC0003231340616A8B422DD170231340A16A0D
:1037BC008B422AD1FE21C9011140E36A1B029942B6
:1037CC0025D1F8239B031340216B8B4221D1E0239D
:1037DC001B051340616B8B421DD1520F5207A36B1B
:1037EC009A421AD1002000E0012002B070BD0120E5
:1037FC00FBE70120F9E70120F7E70120F5E70020BE
:10380C00F3E70120F1E70120EFE70120EDE70120CC
:10381C00EBE70120E9E70120E7E70120E5E7C046F7
:10382C0000100240FFFFFFEFFFFFBFFFFFFFFFFE97
:10383C008C80C111FCFFFEEE10B52A4B9B68382220
:10384C001A4207D1274B1A68D20A0723134026487D
:10385C00D84010BD234B9A6838231340082B3BD01B
:10386C00204B9A6838231340102B0DD01D4B9A68AF
:10387C0038231340202B31D01A4B9A68382313402D
:10388C00182B26D00020E4E7164AD1680D3B0B40DC
:10389C00D2681209072111400131032B0FD01248B5
:1038AC00FCF72CFC0F4BDA68120A7F2313405843A9
:1038BC000C4BD968490F0131FCF720FCC9E70B48C8
:1038CC00FCF71CFC074BDA68120A7F2313405843A1
:1038DC00EEE7FA20C001BCE70448BAE780200002FA
:1038EC00B7E7C046001002400024F40000127A0032
:1038FC0070B504000D00002800D1AAE0574B1A68DF
:10390C00072313408B4221D323689A070ED55B07FC
:10391C0005D5534A9168E023DB010B439360504A71
:10392C00936850490B40A1680B4393602368DB07F5
:10393C0054D56368012B20D0022B3BD0002B3FD1F8
:10394C00474A126852051CD401206AE0434A1368A6
:10395C0007218B432B43136000F0B8FB06003F4B51
:10396C001A6807231340AB42CED000F0AFFB801B8C
:10397C003D4A9042F3D9032053E0394A126892032E
:10398C0069D537498A680720824313438B6000F05E
:10399C009DFB0600324B9B6838221A406368DB00A3
:1039AC009A421BD000F092FB801B2F4B9842F1D90E
:1039BC00032036E02A4A12689201E2D4012030E05A
:1039CC00032B05D0264AD26D9207DAD4012028E0C9
:1039DC00234A126E9207D4D4012022E01F4B1A689E
:1039EC0007231340AB421DD823685B0706D51C4A3E
:1039FC0093681E490B40E1680B439360FFF71CFF73
:103A0C00174B9A68120A0F231340194A9B009A58B5
:103A1C001F231340D840174B1860174B186800F041
:103A2C0009FB70BD0D4A136807218B432B431360B0
:103A3C0000F04CFB0600094B1A6807231340AB42FD
:103A4C00D2D000F043FB801B074B9842F3D90320E4
:103A5C00E7E70120E5E70120E3E7C046002002404C
:103A6C0000100240FFF0FFFF88130000FF8FFFFFE4
:103A7C00A4D30008200000201C000020014B186873
:103A8C007047C0462000002010B5FFF7F7FF064B2B
:103A9C009A68120B07231340044A9B009A581F2361
:103AAC001340D84010BDC0460010024084D300081B
:103ABC00F0B583B0040003689B0362D5AE4BDB6B9F
:103ACC00DB001ED4AC4BDA6B802149050A43DA6368
:103ADC00DB6B0B400193019B0126A84A11688023E4
:103AEC005B000B43136000F0F1FA0500A34B1B685D
:103AFC00DB0508D400F0EAFA401B0228F6D90325AE
:103B0C0002E00026E9E70025002D23D19A4BD96D60
:103B1C00C02292000B001340114212D0226C9A4228
:103B2C000DD0954AD36D96490B40D06D802149023A
:103B3C000143D165D16D93480140D165D365DB0755
:103B4C0010D4002D06D18C4AD36D8D490B40216CBD
:103B5C000B43D365012E15D1874AD36B8A490B4091
:103B6C00D3630FE000F0B2FA0700834BDB6D9B07C9
:103B7C00E7D400F0ABFAC01B844B9842F5D903256F
:103B8C00DFE700252368DB0706D57B4A536D03214D
:103B9C008B4361680B43536523689B0706D5764AB4
:103BAC00536D0C218B43A1680B43536523685B0752
:103BBC0006D5714A536D30218B43E1680B43536535
:103BCC002368DB0606D56C4A536D71490B4021699D
:103BDC000B4353652368DB0406D5674A536D68496C
:103BEC000B4061690B43536523689B0506D5624AFC
:103BFC00536D68490B40A16A0B43536523685B0501
:103C0C0006D55D4A536D64490B40E16A0B4353651D
:103C1C0023689B0606D5584A536D60490B40A16931
:103C2C000B43536523685B0606D5534A536D5C49B9
:103C3C000B40E1690B43536523685B040BD54E4A7B
:103C4C00536D9B009B08216B0B435365226B8023A8
:103C5C00DB059A4262D023681B0306D5464A536D96
:103C6C0040218B43616B0B43536523689B020BD53F
:103C7C00414A536D4B490B40A16B0B435365A26BEF
:103C8C008023DB039A4250D023685B020BD53A4A5F
:103C9C00536D45490B40E16B0B435365E26B80233D
:103CAC005B049A4248D023681B0509D5324A936DB0
:103CBC0003218B43216A0B439365236A012B40D06C
:103CCC0023689B0409D52C4A936D0C218B43616AA4
:103CDC000B439365636A042B39D02368DB010BD546
:103CEC00254A936D2D490B40616C0B439365626CB7
:103CFC0080239B019A4230D023689B010BD51E4A2E
:103D0C00936D1F490B40A16C0B439365A26C8023F0
:103D1C005B009A4228D0280003B0F0BD164AD16847
:103D2C0080235B020B43D36095E7134AD168802351
:103D3C005B040B43D360A7E70F4AD1680B43D360F6
:103D4C00B1E7D16880235B020B43D360B8E7D1683D
:103D5C0080235B020B43D360BFE7074AD168802303
:103D6C005B040B43D360C7E7034AD16880235B0431
:103D7C000B43D360CFE7C0460010024000700040F8
:103D8C00FFFCFFFFFFFFFEFFFFFFFFEF88130000AC
:103D9C00FFF3FFFFFFFFF3FFFFFFCFFFFFCFFFFF9F
:103DAC00FF3FFFFFFFFFBFFFFFFFFFFEF0B500234C
:103DBC0059E086685F000324BC40A643CC68BC4035
:103DCC0034438460446894434E683609012232407F
:103DDC009A402243426056E0DE080836B600375857
:103DEC0005321A4092000F249440A7430C6994406A
:103DFC0022003A43325059E0042600E00026A64047
:103E0C0034003C43444E1832920094513768EA43D4
:103E1C003E00AE434C68E40201D53E002E433E4CBE
:103E2C00266067683E0016404C68A40201D53E002F
:103E3C002E43394C66608426A7593E0016404C68C8
:103E4C00A40301D53E002E43334C8427E651802633
:103E5C00A65932404C68E40301D52A0032432E4D5A
:103E6C0080242A5101330C682200DA4053D00122FD
:103E7C009A40250015401442F4D04E680324344077
:103E8C00013C012C95D94C6803222240032A08D00E
:103E9C00C4685E000322B24094438A68B240224355
:103EAC00C2604C6803222240022A95D004685E004E
:103EBC0003221700B740BC434F683A40B24022433C
:103ECC0002604C68C02292021442CBD09A081400B3
:103EDC001834A400104EA75903241C40E4000F26EC
:103EEC00A640B743A026F605B04287D00B4EB04291
:103EFC000BD00B4EB0420AD00A4EB04209D00A4E3B
:103F0C00B04200D178E7052679E7012677E702264B
:103F1C0075E7032673E7F0BD00180240000400505B
:103F2C0000080050000C005000100050002A01D076
:103F3C00816170478162FCE710B5104A1368104923
:103F4C000B400343136080239B00984201D0002058
:103F5C0010BD0C4B1B685800C01840000A49FCF7F8
:103F6C00CDF80130054B5B695B0503D5002803D008
:103F7C000138F7E70020EBE70320E9E70070004089
:103F8C00FFF9FFFF2000002040420F0070B5002811
:103F9C0011DB8308134DC0339B005C590322104086
:103FAC00C000FC3216008640B44389010A408240AE
:103FBC0022435A5170BD0F230340083B9B08063324
:103FCC009B00094A944663445C6803221040C0007D
:103FDC00FC3215008540AC4389010A4082402243E3
:103FEC005A60E7E700E100E000ED00E001388023D3
:103FFC005B0498420FD2094A50600948036A1B02BD
:10400C001B0AC02109060B4303620023936007338C
:10401C001360002070470120FCE7C04610E000E070
:10402C0000ED00E010B5FFF7B1FF10BD10B5FFF7C4
:10403C00DDFF10BD10B50400114B1978002901D11A
:10404C00012010BDFA208000FCF758F801000D4B40
:10405C001868FCF753F8FFF7E9FF00280DD1032C83
:10406C0001D90120EDE70130002221004042FFF789
:10407C00D9FF054B1C600020E3E70120E1E7C046B7
:10408C0019000020200000201C00002010B5084A58
:10409C00116880235B000B4313600320FFF7CAFFFA
:1040AC00041E02D00124200010BDFEF7DFFCFAE74D
:1040BC0000200240034B1B78034A11685B18136005
:1040CC007047C04619000020441C0020014B1868A2
:1040DC007047C046441C002070B50400FFF7F6FF83
:1040EC000500631C02D0044B1B78E418FFF7EEFFAD
:1040FC00401BA042FAD370BD19000020034A13687C
:10410C0003490B40034313607047C0460000014055
:10411C00FFF9FFFF30B50468184B9C4223D01849B7
:10412C0001648022A358174D2B40456B2D042B4363
:10413C00A3500B00703343640568AB58124C2340FA
:10414C00846B24062343AB500B00B0338364D83309
:10415C00C36498239B00CB1803659E239B00CB184C
:10416C0043650B0003E00949DAE7002204C3D422BB
:10417C0092008A189A42F8D830BDC04600680040B8
:10418C0000B40040FFFFE0FFFFFFFFF050B700401E
:10419C00F0B51F004B68002B1AD10D698B681D43BD
:1041AC000B689B041D430C6A2406CB691C438B696A
:1041BC001C434B691C43CB681B041C43466DFB0022
:1041CC00DB19DB00F618356074600836002015E04A
:1041DC000B698C6823430C6823438025ED051D4334
:1041EC00E1E71418E3781B06A5782D042B436478BB
:1041FC0024022343145C234308C60430CB68024CCE
:10420C00E35C8342EDD8F0BD4CD3000870B5041EBE
:10421C0000D1E1E05C23C35C002B19D022689369C8
:10422C0010218B439361FFF751FF050022689369BE
:10423C001B0713D5FFF74AFF401B0A28F6D9236E3C
:10424C000122134323665C230232E254012070BD29
:10425C005D330022C254FEF753FCDFE79369012162
:10426C000B439361FFF732FF050022689369DB076C
:10427C000DD4FFF72BFF401B0A28F6D9236E012221
:10428C00134323665C230232E2540120DFE7936977
:10429C0002210B4393612268504B9A4243D0237CFA
:1042AC00012B44D02268936940210B439361637CBA
:1042BC00012B42D02268936949490B409361A37C3E
:1042CC00012B41D02268916980235B010B439361E0
:1042DC002268936943490B40A1680B4393612268A0
:1042EC009369A4218B4393612268136994398B439E
:1042FC001361E368012B2DD0002B30D0022B54D04E
:10430C002268936980210B43936122681369703989
:10431C000B431361E368032B21D12268936910319D
:10432C000B4393611BE062682F4B1A60B7E722685E
:10433C00936940218B439361B9E72268916980238B
:10434C00DB010B439361BAE72268936927490B4061
:10435C009361BDE7226893690C390B439361A369A0
:10436C00013B5B06E269013A12021343226A013AED
:10437C0013436269013A120421681343CB61A268AA
:10438C00C0239B009A4216D02168C0228B58E06B48
:10439C0003438B502000FFF7BDFE0023A36523666B
:1043AC005C330122E254002051E7226893692021FA
:1043BC000B439361D3E7A36A013BE26A013A120211
:1043CC001343226B013A12011343626A013A12043D
:1043DC0021681343CB60D7E7012038E70064004025
:1043EC00FFBFFFFFFFFCFFFF00650040FFEFFFFF7B
:1043FC005C23C35C012B05D0036E042213430366BC
:10440C00012070475B330222C25402689369012178
:10441C008B439361002303660020F2E770B5040020
:10442C005C23C35C022B1CD10068C233C3589B02B3
:10443C0006D5226E80239B0013432366012015E0D2
:10444C00C423C3581B0C03251D402B002000FFF771
:10445C009FFE21680123AB40CC228B50A36500202A
:10446C0004E0036E082213430366012070BD0000B4
:10447C00F0B55C24045D022C00D09FE040290BD0E9
:10448C000468982565592D0731D1026E80235B0095
:10449C0013430366012096E00468902565592D07A7
:1044AC0006D1026E80235B001343036601208AE071
:1044BC009025665980256D0437002F402E4208D078
:1044CC00802566598135FF3537002F402E4200D0AC
:1044DC000127902565592D0A03242C40BC46A44481
:1044EC00856C6446E4006444E4002D191CE09825B6
:1044FC00665980256D0437002F402E4207D0802549
:10450C006659803537002F402E4200D00127982560
:10451C0065592D0A03242C40BC46A444C56C644642
:10452C00E4006444E4002D192C688026F605344020
:10453C00546028D12C68A40C6405640D14602C689C
:10454C008026B605344094602C68E40FE4071461AF
:10455C006C682404240CD461EE880F243440D4609D
:10456C006C6880267603344054616C688026B603F0
:10457C0034409461EE797F24344014626C68E40F0B
:10458C005462002408E02C68E400E4081460D6E7C8
:10459C002E19367A1E550134D6680B4FBE5DA642D5
:1045AC00F6D8402905D002689C236146D1500020E2
:1045BC0009E0026894236146D150F8E7036E0822A3
:1045CC00134303660120F0BD4CD30008402905D0ED
:1045DC0002689823D3580F20184070470268902324
:1045EC00D3580F201840F8E710B5041E60D04123B3
:1045FC00C35C002B48D041232422E2542268136868
:10460C0001218B431360636822682A490B401361B4
:10461C002268936828490B409360E368012B39D0DA
:10462C00A168226884231B020B439360E368022B6E
:10463C0037D02268536821490B4053602268516877
:10464C001F4B0B4353602268D3681B490B40D3604C
:10465C00236962691343A269120221681343CB6078
:10466C00E369216A22680B431360226813680121F5
:10467C000B4313600023636441221F31A154236355
:10468C000132A354002010BD40330022C254FEF767
:10469C007BFAB0E7A168226880231B020B4393606E
:1046AC00C4E72268516880231B010B435360C5E7A4
:1046BC000120E8E7FFFFFFF0FF7FFFFFFFF7FFFFA1
:1046CC0000800002F0B54123C35C202B20D12033A5
:1046DC00C35C012B1ED0402401220255412524230A
:1046EC0043550668336893433360066833680A4F52
:1046FC003B403360066833680B43336001680B68DA
:10470C0013430B6020234355002303550020F0BDB9
:10471C000220FCE70220FAE7FFEFFFFFF0B5412390
:10472C00C35C202B1ED12033C35C012B1CD0402436
:10473C0001220255412524234355066833689343CF
:10474C00336006683368094F3B40090219433160F6
:10475C0001680B6813430B6020234355002303555A
:10476C000020F0BD0220FCE70220FAE7FFF0FFFF7B
:10477C00F0B5D6464F464646C0B582B006000D0091
:10478C0090461F00FFF7A2FC0A9B181A8146B944F9
:10479C00FFF79CFC82462C4B1B685B011B0D4A46A9
:1047AC005343019333689C682C40641B63425C4107
:1047BC00444542D07B1CF5D0FFF788FC5346C01A09
:1047CC00484508D2019A002A00D04A46019B013B79
:1047DC0001939146E6E732685368E0218B435360BE
:1047EC00726882235B009A420CD0B26A80239B01D0
:1047FC009A4216D05D230122F254013B0022F2545E
:10480C0003201BE0B36880221202934203D0802263
:10481C00D2009342E9D13268136840218B43136074
:10482C00E3E73268136809490B401360326811687A
:10483C0080239B010B431360DCE7002002B0E0BC3B
:10484C00BA46B146A846F0BD20000020FFDFFFFFAE
:10485C00F0B5DE4657464E464546E0B583B00700F8
:10486C000D00160098466B460022DA70FFF72EFCFE
:10487C000C9B181A40448146FFF728FC82463B6883
:10488C009B46344B1B689A00D218D3009B1A1B0D05
:10489C004A465343019302E04346013311D13B682E
:1048AC009C682C40B4424DD0C023DB009D42F3D118
:1048BC00002EF1D15B461B7BDBB26A46D370D378FA
:1048CC00EAE7FFF703FC5346C01A484508D2019AA1
:1048DC00002A00D04A46019B013B01939146DEE73A
:1048EC003A685368E0218B4353607A6882235B00FB
:1048FC009A420CD0BA6A80239B019A4216D05D234F
:10490C000122FA54013B0022FA5403201BE0BB683D
:10491C0080221202934203D08022D2009342E9D12A
:10492C003A68136840218B431360E3E73A681368D5
:10493C0009490B4013603A68116880239B010B43B3
:10494C001360DCE7002003B0F0BCBB46B246A946BE
:10495C00A046F0BD20000020FFDFFFFF70B582B045
:10496C0004000D001600C02100922B00002249010A
:10497C00FFF76EFF002818D100962B000022802133
:10498C002000FFF7F5FE002816D1C02100962B0061
:10499C000022C9002000FFF75BFF00280AD0236E1D
:1049AC00202213432366032004E0236E20221343AA
:1049BC002366032002B070BD236E202213432366AE
:1049CC000320F7E770B5041E00D178E0436A002B92
:1049DC0007D142680533FF339A4205D00023C361E7
:1049EC0002E00023036143610023A3625D33E35CB7
:1049FC00002B5AD05D230222E25422681368402116
:104A0C008B431360E368E022D200934254D9002216
:104A1C00F02109018B4205D0E021C9008B4201D065
:104A2C000023A3626368822149000B40A1688420A3
:104A3C00000201400B432069022101400B436069D5
:104A4C00012108400343A0698025AD0028400343A1
:104A5C00E569382028400343256A80202840034319
:104A6C00A06A8025AD012840256803432B60608B2C
:104A7C0004230340656A102028400343656B08201B
:104A8C0028400343E068F0252D01284003432068AB
:104A9C00134343602268D3690A480340D36100235F
:104AAC0023665D33E154002070BD5C330022E25478
:104ABC002000FEF751F99DE780225201A8E7012062
:104ACC00F2E7C046FFF7FFFFF0B5CE4600B584B065
:104ADC000400019191461D005C23C35C012B00D1A5
:104AEC00C9E05C230122C254FFF7F0FA06005D23F3
:104AFC00E35CDFB2012B00D0B4E00199002900D1B6
:104B0C00B1E04B46002B00D1ADE05D230322E25413
:104B1C0000232366A1634A46A287E28723644422CA
:104B2C00A3520232A3522365E364A26880231B02C2
:104B3C009A421ED0226813685B0603D41368402186
:104B4C000B431360E268E023DB009A423DD96368B3
:104B5C00002B02D04B46012B20D1A26B236812886C
:104B6C00DA60A36B0233A363E38F013B9BB2E38751
:104B7C0014E02268136840218B431360226811688B
:104B8C008023DB010B431360D4E7FFF79FFA801BF4
:104B9C00A84201D36B1C13D1002D11D0E38F002B35
:104BAC0045D0226893689B07EFD5A36B1B88D36015
:104BBC00A36B0233A363E38F013B9BB2E387EDE767
:104BCC005D230122E25403274DE06368002B02D0E1
:104BDC004B46012B14D1A26B236812781A73A36B6A
:104BEC000133A363E38F013B9BB2E38708E0FFF73C
:104BFC006DFA801BA84201D36B1C13D1002D11D070
:104C0C00E38F002B13D0226893689B07EFD5A36B1F
:104C1C001B781373A36B0133A363E18F013989B242
:104C2C00E187EDE75D230122E25403271BE032000C
:104C3C0029002000FFF792FE002801D020232366D4
:104C4C00A368002B06D103932368DA6803929B6850
:104C5C000393039B236E002B05D15D330122E25499
:104C6C00002700E002275C230022E254380004B045
:104C7C0080BCB946F0BD0227F8E70000F0B583B060
:104C8C000400009101921E00089D5C23C35C012B63
:104C9C0000D116E15C230122C254FFF717FA07007A
:104CAC005D23E35CD9B26268012B0BD082235B00DD
:104CBC009A4200D0F3E0A368002B00D0F5E0042961
:104CCC0000D0F4E0009B002B00D1F2E0019B002B04
:104CDC0000D1F0E0002E00D1EFE05D23E35C042B6B
:104CEC0002D05D230522E25400232366019A22643C
:104CFC004622A652023AA652009AA263E687A687DB
:104D0C00E3642365E268E023DB009A4223D922683E
:104D1C0053686D490B40536023681A68520603D4DC
:104D2C001A6840210A431A60E268E023DB009A42C9
:104D3C0054D96368002B01D0012E0AD1A26B2368D1
:104D4C001288DA60A36B0233A363E38F013B9BB23F
:104D5C00E38701262CE02268516880235B010B431A
:104D6C005360D9E7A36B1B88D360A36B0233A36397
:104D7C00E38F013B9BB2E387002622689368DB0735
:104D8C000FD54623E35A002B0BD0D268236C1A8024
:104D9C00236C023323644622A35A013B9BB2A352D9
:104DAC000126FFF793F9C01BA84201D36B1C10D14D
:104DBC00E38F002B03D14633E35A002B5ED02268DD
:104DCC0093689B07D9D5E38F002BD6D0012ED4D175
:104DDC00C8E75D230122E254032061E06368002BE5
:104DEC0001D0012E0AD1A26B236812781A73A36B1F
:104DFC000133A363E38F013B9BB2E38701261CE0E5
:104E0C0022689368DB070FD54623E35A002B0BD09F
:104E1C00236C127B1A70236C013323644622A35A31
:104E2C00013B9BB2A3520126FFF750F9C01BA842CD
:104E3C0001D36B1C1DD1002D1BD0E38F002B03D194
:104E4C004633E35A002B19D0226893689B07D7D5B9
:104E5C00E38F002BD4D0012ED2D1A36B1B7813730C
:104E6C00A36B0133A363E38F013B9BB2E387002663
:104E7C00C6E75D230122E254032011E03A00290029
:104E8C002000FFF76BFD002802D0202323660120B1
:104E9C00236E002B13D15D330122E25400E002207B
:104EAC005C230022E25403B0F0BD0220F8E702209C
:104EBC00F6E70120F4E70120F2E70120F0E70120FA
:104ECC00EEE70220EFE7C046FFEFFFFF30B5EFF350
:104EDC001084012282F3108801680B68124D2B405C
:104EEC000B6084F31088EFF3108182F31088026852
:104EFC0093680E4C2340936081F31088C36E012B92
:104F0C0006D08C232022C2500023C366436730BDD9
:104F1C00EFF3108183F31088026813681024A34305
:104F2C00136081F31088ECE7DFFEFFFFFEFFFFEF5D
:104F3C00F8B504000168836802691343426913439E
:104F4C00C26913430A68B048024013430B602268DD
:104F5C005368AE490B40E1680B435360A16922686A
:104F6C00AB4B9A4204D0AB4B9A4201D0236A194303
:104F7C009368A94803400B4393602268D36A0F21BE
:104F8C008B43616A0B43D3622368A44A934219D0C2
:104F9C00A34A934227D0A34A934235D0A24A9342C4
:104FAC0000D188E0A14A934200D19DE0A04A9342EF
:104FBC0000D19BE0964A934237D0964A93424CD00C
:104FCC00102279E09B4A516D03220A40022A5CD0E0
:104FDC0005D8002A5BD0012A5BD103326CE0032A8E
:104FEC0059D1053268E0934A516D0C220A40082AC7
:104FFC0053D005D8002A52D0042A5DD010225BE091
:10500C000C2A4ED1043A57E08A4A516D30220A409C
:10501C00202A48D005D8002A47D0102A47D10C3A6C
:10502C004AE0302A45D1283A46E0824A526DC021E6
:10503C0009010A40802109018A4259D007D8002A67
:10504C0058D08021C9008A4256D1042234E0C021B4
:10505C0009018A4252D108222EE0764A526DC021B3
:10506C0089000A400139FF398A4249D007D8002A01
:10507C0048D00139FF398A4246D104221CE0C021B4
:10508C0089008A4242D1082216E0022214E0002252
:10509C0012E0102210E010220EE002220CE000229E
:1050AC000AE0102208E0022206E0002204E01022AE
:1050BC0002E0102200E0002255498B4228D05549CD
:1050CC008B4225D0E06980231B0298426AD0042AC7
:1050DC0000D1E1E000D9BEE0002A00D1C2E0022AF2
:1050EC0000D0B6E05448C1E00022E5E70022E3E737
:1050FC000222E1E70022DFE71022DDE71022DBE7E6
:10510C000222D9E70022D7E71022D5E71022D3E7F5
:10511C00042A43D007D8002A0CD0022A01D1464DCC
:10512C000EE00120BEE0082A02D180252D0207E006
:10513C000120B7E0FEF7A8FC0500002D00D1AEE081
:10514C00626A3E4B5200D75A39002800FAF7D6FF54
:10515C00666873009B19834200D9A2E03303834233
:10516C0000D2A8E03A00002328000021FBF7A0F8A9
:10517C00050E0B022B4302027008002180185941C6
:10518C0032000023FBF794F82D4BC2182D4B9A429A
:10519C0000D992E02368D860002083E0FEF74CFB36
:1051AC000500CAE7042A51D007D8002A09D0022AE0
:1051BC0001D121480AE0012074E0082A06D0012020
:1051CC0070E0FEF761FC002800D178E0626A1B4BAE
:1051DC005200D15AFAF792FF400061684B08C01890
:1051EC00FAF78CFF0200103A174B9A4200D968E08C
:1051FC0082B20F239A434008083B034013432268B2
:10520C00D36000204EE0C046F369FFCFFFCFFFFF15
:10521C000080004000840040FFF4FF110038014082
:10522C000044004000480040004C0040005000404A
:10523C00003C0140001002400024F4005CD3000844
:10524C0000FDFFFFFFFC0F00EFFF0000FEF7F4FA7C
:10525C00B9E7012026E0082A02D18020000205E0EF
:10526C0001201FE0FEF710FC00282CD0626A184BBE
:10527C005200D15AFAF742FF61684B08C018FAF78E
:10528C003DFF0200103A134B9A421ED823680004CB
:10529C00000CD860002005E0FEF7CEFAE4E7002011
:1052AC0000E0012001236A22A352023AA3520023F8
:1052BC006367A367F8BD0120F4E70120F2E7002043
:1052CC00F0E70120EEE70020ECE70120EAE7C0461A
:1052DC005CD30008EFFF0000836A1B0706D5026849
:1052EC0053682C490B40816B0B435360836ADB077B
:1052FC0006D50268536828490B40C16A0B435360BA
:10530C00836A9B0706D50268536824490B40016BDE
:10531C000B435360836A5B0706D5026853682049C8
:10532C000B40416B0B435360836ADB0606D5026866
:10533C0093681C490B40C16B0B439360836A9B06BB
:10534C0006D50268936818490B40016C0B439360B7
:10535C00836A5B060BD50268536814490B40416C99
:10536C000B435360426C80235B039A420AD0836ADE
:10537C001B0606D5026853680D490B40C16C0B43E4
:10538C0053607047026853680A490B40816C0B43A9
:10539C005360ECE7FF7FFFFFFFFFFDFFFFFFFEFF0A
:1053AC00FFFFFBFFFFEFFFFFFFDFFFFFFFFFEFFF45
:1053BC00FFFFF7FFFFFF9FFFF8B5CE46474680B5CE
:1053CC0006000D0017009946089B98463368DC6967
:1053DC002C40641B63425C41BC4233D143460133D5
:1053EC00F4D0FEF773FE4B46C01A40452FD8434607
:1053FC00002B2ED0326813685B07E7D5802DE5D0E3
:10540C00402DE3D0D3691B0710D4D3691B05DDD520
:10541C0080231B0113623000FFF758FD90232022DC
:10542C00F2500C3B0022F25403200CE008241462CE
:10543C003000FFF74BFD9023F4500C3B0022F2544C
:10544C00012000E00020C0BCB946B046F8BD0320E6
:10545C00F9E70320F7E7F0B5C64600B582B00400C3
:10546C000D0090461E008823C358202B65D10029BF
:10547C0068D0002A68D0826880235B019A4204D1EC
:10548C000369002B01D1CB0760D490230022E2509A
:10549C00083B2132E250FEF719FE07005423424626
:1054AC00E2520233E252A26880235B019A4202D09C
:1054BC000023984618E02369002B29D00023984636
:1054CC0012E088232022E250032037E043461B8859
:1054DC002268DB05DB0D936202239C46E0445623D5
:1054EC00E25A013A92B2E2525623E35A002B12D0FE
:1054FC0000963B00002280212000FFF75DFF002872
:10550C00DFD1002DE2D02A7823689A620135E6E7D4
:10551C00A8460025E8E700963B0000224021200029
:10552C00FFF74AFF002803D188232022E25005E030
:10553C0088232022E250032000E0022002B080BC2D
:10554C00B846F0BD0120F9E70120F7E70120F5E7A7
:10555C00F0B5C64600B584B004000E0015001F005F
:10556C008C23C358202B00D08AE0002900D18CE07A
:10557C00002A00D18BE0826880235B019A4205D11E
:10558C000369002B02D1CB0700D582E000239022C7
:10559C00A350043A2221A150E366FEF797FD804602
:1055AC005C23E5520233E552A368802252019342F8
:1055BC0008D0002B15D12269002A0ED16032FF21B0
:1055CC00A15215E02269002A03D160323249A1525E
:1055DC000EE06022FF21A1520AE060227F21A1523D
:1055EC0006E08022520593420BD060220021A1528A
:1055FC006022A25A03928022520193420CD00025C1
:10560C001FE02269002A03D160327F21A152EFE70B
:10561C0060223F21A152EBE72369002B28D0002503
:10562C000FE08C232022E25003202AE023685B6ADF
:10563C00039A13402B8002355E23E25A013A92B250
:10564C00E2525E23E35A002B15D00097434600220A
:10565C0020212000FFF7B0FE0028E2D1002EE5D07B
:10566C0023685B6A6A46127B134033700136E3E7AA
:10567C0035000026E5E78C332022E250002000E0C4
:10568C00022004B080BCB846F0BD0120F9E701202F
:10569C00F7E70120F5E7C046FF01000030B583B005
:1056AC00040090230022C250FEF710FD0500236871
:1056BC001B681B0710D423681B685B072BD42023A3
:1056CC008822A3500432A3500023E3662367083AD0
:1056DC00A354002003B030BD8021234B0093030062
:1056EC00002289032000FFF767FE0028E3D0EFF3C8
:1056FC001081012383F31088226813688020834370
:10570C00136081F3108888232022E250043B00228E
:10571C00E2547D38DEE78021134B00932B000022EE
:10572C00C9032000FFF748FE0028C8D0EFF3108013
:10573C00012282F3108821680B680C4D2B400B6002
:10574C0080F31088EFF3108082F3108821688B6847
:10575C0093438B6080F310888C231F32E250083BFC
:10576C000022E2540320B5E7FFFFFF01DFFEFFFF3D
:10577C0010B5041E30D08823C358002B22D08823A8
:10578C002422E2502268136801218B431360A36A20
:10579C00002B1DD12000FFF7CBFB012811D0226874
:1057AC0053680E490B405360226893682A218B433F
:1057BC0093602268136829390B4313602000FFF7AC
:1057CC006DFF10BD84330022C254FDF721FAD6E7D9
:1057DC002000FFF781FDDDE70120F2E7FFB7FFFFB7
:1057EC00F8B50400436E002B05D101336A228352B5
:1057FC00023A8352F8BD026895686D0E07231D406E
:10580C009268520F1340084FF85CC000074EF15CD1
:10581C00FAF7BAFC6A23E052785DC000715DFAF7C2
:10582C00B3FC6823E052E5E77CD3000874D300088E
:10583C0070B58423C35C012B15D084240126065536
:10584C00882524234351026813681168B143116001
:10585C00064A13400022426601680B602023435124
:10586C000255002070BD0220FCE7C046FFFFFFDFA1
:10587C00F8B504000A008423C35C012B1BD08425DB
:10588C000120605588262423A35123681F681968BA
:10589C008143196020688368DB00D908114381605B
:1058AC002000FFF79DFF23681F602023A3510023D6
:1058BC0063550020F8BD0220FCE70000F8B5040099
:1058CC000B008422825C012A1BD0842501206055A8
:1058DC0088262422A251226817681168814311601E
:1058EC002268916808480140194391602000FFF735
:1058FC0077FF23681F602023A351002363550020EA
:10590C00F8BD0220FCE7C046FFFFFFF17047000026
:10591C0010B503000C4A0D49521A0D4909680029AB
:10592C0007D00B490868C318934206D8084A13607D
:10593C0010BD074907480860F3E702F0B3FE0C23DB
:10594C00036001204042F3E7004002200004000005
:10595C00481C0020D81D00200120704710B502F013
:10596C00A1FE162303600120404210BD10B5012199
:10597C004942FFF7F3FFFEE770B50C001600002557
:10598C0004E000E000BF207001350134B542F8DBC3
:10599C00300070BD70B51600002405E04D1C087871
:1059AC0000E000BF01342900B442F7DB300070BDC9
:1059BC0001204042704780239B014B6000207047C0
:1059CC00012070470020704710B50649064801F0C9
:1059DC00D5FE002803D1054B01221A7010BD012001
:1059EC004042FBE7501C0020240000204C1C0020EF
:1059FC000020704710B5FCF7BDFD10BD10B5FCF7CD
:105A0C006FFE10BD10B5FCF775FE10BD10B5FCF7A0
:105A1C00B9FE10BD10B5FCF70FFF10BD10B5044B4F
:105A2C0082009A18526852681B18187A904710BD59
:105A3C007C1C002010B5084B1B5C002B0AD1064BBC
:105A4C0001221A5482009A18526812681B18187A8C
:105A5C00904710BD0020FCE77C1C002070B5044C66
:105A6C00850065196D68AD682418207AA84770BD4B
:105A7C007C1C002070B5044C850065196D68ED68C0
:105A8C002418207AA84770BD7C1C002010B5044B4C
:105A9C0084001C19646824691B18187AA04710BD6F
:105AAC007C1C0020437800781B02184370470200CE
:105ABC00C3781B0281780B431802537818430002F9
:105ACC001378184370470170090A417070470170D0
