:020000040800F2
:1000000000400220FDA60008DD9E0008DF9E0008DB
:1000100000000000000000000000000000000000E0
:10002000000000000000000000000000E19E000849
:100030000000000000000000E39E0008E59E0008AC
:100040004DA700084DA700084DA700084DA70008C0
:100050004DA700084DA700084DA700084DA70008B0
:100060004DA70008F19E00084DA700084DA7000805
:100070004DA700084DA700084DA700084DA7000890
:100080004DA700084DA700084DA700084DA7000880
:100090004DA700084DA700084DA700084DA7000870
:1000A0004DA700084DA700084DA700084DA7000860
:0C00B0004DA700084DA700084DA7000850
:1000BC0002780B78002A03D0013001319A42F7D034
:1000CC00D01A70470023C25C0133002AFBD1581EA2
:1000DC007047000002B4714649084900095C4900A8
:1000EC008E4402BC7047C04603B4714649084000B8
:1000FC004900095E49008E4403BC70470022430846
:10010C008B4274D303098B425FD3030A8B4244D3D3
:10011C00030B8B4228D3030C8B420DD3FF22090215
:10012C0012BA030C8B4202D31212090265D0030BD4
:10013C008B4219D300E0090AC30B8B4201D3CB03CA
:10014C00C01A5241830B8B4201D38B03C01A52410C
:10015C00430B8B4201D34B03C01A5241030B8B420E
:10016C0001D30B03C01A5241C30A8B4201D3CB02F9
:10017C00C01A5241830A8B4201D38B02C01A5241DE
:10018C00430A8B4201D34B02C01A5241030A8B42E1
:10019C0001D30B02C01A5241CDD2C3098B4201D3F9
:1001AC00CB01C01A524183098B4201D38B01C01A77
:1001BC00524143098B4201D34B01C01A52410309EE
:1001CC008B4201D30B01C01A5241C3088B4201D39D
:1001DC00CB00C01A524183088B4201D38B00C01A4A
:1001EC00524143088B4201D34B00C01A5241411A71
:1001FC0000D20146524110467047FFE701B500207E
:10020C0000F0F0F802BDC0460029F7D076E7704741
:10021C0003460B437FD4002243088B4274D303095B
:10022C008B425FD3030A8B4244D3030B8B4228D3FC
:10023C00030C8B420DD3FF22090212BA030C8B4222
:10024C0002D31212090265D0030B8B4219D300E0C2
:10025C00090AC30B8B4201D3CB03C01A5241830B47
:10026C008B4201D38B03C01A5241430B8B4201D3F7
:10027C004B03C01A5241030B8B4201D30B03C01A20
:10028C005241C30A8B4201D3CB02C01A5241830A9A
:10029C008B4201D38B02C01A5241430A8B4201D3C9
:1002AC004B02C01A5241030A8B4201D30B02C01AF3
:1002BC005241CDD2C3098B4201D3CB01C01A52415A
:1002CC0083098B4201D38B01C01A524143098B42E3
:1002DC0001D34B01C01A524103098B4201D30B01CC
:1002EC00C01A5241C3088B4201D3CB00C01A5241F1
:1002FC0083088B4201D38B00C01A524143088B42B6
:10030C0001D34B00C01A5241411A00D2014652414E
:10031C00104670475DE0CA0F00D04942031000D36D
:10032C004042534000229C4603098B422DD3030AC2
:10033C008B4212D3FC22890112BA030A8B420CD3D2
:10034C00890192118B4208D3890192118B4204D3FB
:10035C0089013AD0921100E08909C3098B4201D37B
:10036C00CB01C01A524183098B4201D38B01C01AB5
:10037C00524143098B4201D34B01C01A524103092C
:10038C008B4201D30B01C01A5241C3088B4201D3DB
:10039C00CB00C01A524183088B4201D38B00C01A88
:1003AC005241D9D243088B4201D34B00C01A52415F
:1003BC00411A00D20146634652415B10104601D3EC
:1003CC004042002B00D54942704763465B1000D376
:1003DC00404201B5002000F005F802BD0029F8D01C
:1003EC0016E770477047C0468446100062468C463C
:1003FC001900634600E0C0461FB50FF0EDFC002865
:10040C0001D40021C8421FBD10B50FF02FFC404293
:10041C00013010BD10B50FF0DFFC002801DB00200F
:10042C0010BD012010BDC04610B50FF0D5FC002842
:10043C0001DD002010BD012010BDC04610B50FF02D
:10044C005BFC002801DC002010BD012010BDC04663
:10045C0010B50FF051FC002801DA002010BD01206E
:10046C0010BDC046844608006146FFE71FB50EF07C
:10047C0033F8002801D40021C8421FBD10B50DF07F
:10048C00BBFF4042013010BD10B50EF025F800281E
:10049C0001DB002010BD012010BDC04610B50EF0D0
:1004AC001BF8002801DD002010BD012010BDC04646
:1004BC0010B50DF0C9FF002801DC002010BD012093
:1004CC0010BDC04610B50DF0BFFF002801DA0020AA
:1004DC0010BD012010BDC046002B11D1002A0FD138
:1004EC00002900D1002802D00021C943080007B41C
:1004FC00024802A14018029003BDC046E9FEFFFF6E
:10050C0003B4684601B502980DF086FB019B9E462C
:10051C0002B00CBC7047C0461C2101231B0498423E
:10052C0001D3000C10391B0A984201D3000A083978
:10053C001B09984201D30009043902A2105C40182F
:10054C007047C046040302020101010100000000D3
:10055C000000000010B5002903D1FFF7DDFF2030AB
:10056C0002E00800FFF7D8FF10BDC04610B5064CDE
:10057C002378002B07D1054B002B02D0044800E058
:10058C0000BF0123237010BD1C02002000000000DE
:10059C007C0F0108044B10B5002B03D00349044811
:1005AC0000E000BF10BDC04600000000200200208B
:1005BC007C0F010810B50649064801F0C1FE002861
:1005CC0003D1054B01221A7010BD01204042FBE7FC
:1005DC003C0200203C000020380200200020704724
:1005EC0010B5044B82009A18526852681B18187A7E
:1005FC00904710BD8803002010B5084B1B5C002BE6
:10060C000AD1064B01221A5482009A1852681268B9
:10061C001B18187A904710BD0020FCE788030020B7
:10062C0070B5044C850065196D68AD682418207A86
:10063C00A84770BD8803002070B5044C850065196F
:10064C006D68ED682418207AA84770BD88030020D7
:10065C0010B5044B84001C19646824691B18187AA3
:10066C00A04710BD88030020437800781B02184374
:10067C0070470200C3781B0281780B431802537831
:10068C00184300021378184370470170090A41702F
:10069C00704701700B0A43700B0C8370090EC1700C
:1006AC00704710B5002A06D00C7801310470013067
:1006BC00013A002AF8D110BD01700130013A002A2C
:1006CC00FAD1704710B50400207801340B78013151
:1006DC00C01A013A002A01D00028F5D010BD030041
:1006EC0000E001331878002801D08842F9D1704716
:1006FC0030B50025002301E001250133132B15D85B
:10070C00184A1C01A258002AF6D00468A242F4D15F
:10071C00144A1C011219546882689442EDD1114A92
:10072C001C011219946842699442E6D1142B0BD027
:10073C00002915D10B4A1B01D218928980235B002A
:10074C009A420BD0002030BD002D05D1022901D0DA
:10075C001220F8E70020F6E70020F4E71020F2E77B
:10076C001020F0E740020020002000E001301328A8
:10077C0004D8044B0201D358002BF7D11438431E74
:10078C00984170474002002030B50400002000E082
:10079C000130132813D8244B0201D25823689A42F3
:1007AC00F6D1214B02019B185A68A3689A42EFD1EB
:1007BC001D4B02019B189A6863699A42E8D1142870
:1007CC0020D0002920D0184B02019B189B89002BAC
:1007DC0028D1802252001DE00130132804D8124B7E
:1007EC000201D358002BF7D1142819D025680E4BD1
:1007FC000201D550A5689B185D6062699A60002261
:10080C009A81DEE70020E8E7074B02019B189A89E2
:10081C00013292B2044B01015B189A81013030BD58
:10082C000020FCE70020FAE74002002001381328E2
:10083C0019D80F4B02019B189B89802252009342BE
:10084C0004D0002B09D0013B9BB200E00023084AE6
:10085C00010152189381002B07D1054B0001002296
:10086C00C250002070470220FCE70020FAE7C04687
:10087C004002002010B5002300E00133132B08D8F0
:10088C00044A19018A588242F7D1024A00248C503A
:10089C00F3E710BD4002002002394369023B8B4252
:1008AC0004D943895943806A081870470020FCE733
:1008BC0010B50368C46A0434480A5989FFF71EFC52
:1008CC00020001E0121A08342068002803D082428A
:1008DC00F8D26068801810BD70B506000C000800D6
:1008EC001A30FFF7C1FE05003378032B00D070BD22
:1008FC0020001430FFF7B8FE00042843F7E770B56A
:10090C0006000C00150091B220001A30FFF7BDFE56
:10091C003378032B00D070BD290C20001430FFF766
:10092C00B4FEF8E7F8B507000E0000234B72C3695C
:10093C00002B2AD00022002305E0092C0ED0B11880
:10094C004B72013223000A2B0DD83D6A5C1CEB5C08
:10095C00202BF7D0052BF0D1E033EEE7B1182E2089
:10096C0048720132EBE7B218002353723B6ADB7A10
:10097C003372386A1C30FFF77CFE3060386A1630F0
:10098C00FFF777FEF080000CB080F8BDF8B5DE46BE
:10099C0057464E464546E0B581468A460F682423A5
:1009AC004B449B460B2220211800FFF785FE0026A6
:1009BC000023082290462FE001357B5D2F2BFBD0C6
:1009CC005C2BF9D07F1953461F60002E4BD024238B
:1009DC004A46D35CE52B3BD0202C3ED804222F2357
:1009EC004946CA54002029E008260B23984612E0F9
:1009FC0063B2002B28DB1D482100FFF770FE002896
:100A0C002FD12300613BDBB2192B01D8203CE4B27F
:100A1C005B469C5501362B005D1CFC5C202CD1D90F
:100A2C002F2CCAD05C2CC8D02E2C01D0B045DFD8CE
:100A3C0043460B2B13D02E2CD6D00620F0BCBB4635
:100A4C00B246A946A046F8BD803C094B1C5DD2E7D6
:100A5C00C13B05224946CA54BEE70022BFE7062027
:100A6C00ECE70620EAE70620E8E7C046980F010805
:100A7C00EC29010810B501000068002807D002001D
:100A8C001378202B05D93A2B03D00132F8E7013823
:100A9C0002E03A2B01D0002010BD431C0078303806
:100AAC00092809D89A4202D001204042F4E70028D4
:100ABC0005D101320A60EFE701204042ECE701204A
:100ACC004042E9E70160002343608360704770B5E2
:100ADC0004000D00002818D00368002B17D01A78DA
:100AEC00002A17D08188DA88914203D0092000248B
:100AFC002C6070BD5878FFF773FD030001221000C5
:100B0C0018401A4209D12468F2E70920F0E71C00CA
:100B1C000920EDE709200024EAE709200024E7E793
:100B2C00F0B5C64600B50400C578002D03D12800E9
:100B3C0080BCB846F0BDC76A3023984680444078E4
:100B4C002F3B3A004146FFF777FD051E14D10023D9
:100B5C00E370236AFB1AA2699342E8D2A67808E0F4
:100B6C00A369FF18607801233A004146FFF764FD42
:100B7C00013E012EF4D8DAE70125D8E770B5040060
:100B8C000D00C36A8B4202D10026300070BDFFF706
:100B9C00C7FF061EF9D121003031607801232A00ED
:100BAC00FFF73EFD002802D0013601256D42E562BB
:100BBC00EBE7000070B504000023C370013BC36277
:100BCC00FFF7DCFF051E24D1144BE018FFF74CFD9A
:100BDC00134B98421FD13023E35CE92B07D0236BD6
:100BEC00104A1340104A934201D0022514E0200011
:100BFC006630FFF73EFD0002000A0C4B98420BD00A
:100C0C0020008230FFF735FD094B984204D00225B5
:100C1C0002E0042500E00325280070BD2E02000030
:100C2C0055AA0000FF00FF00EB0090004641540065
:100C3C0046415433F0B5DE4657464E464546E0B580
:100C4C0087B00F00150000230B60FFF713FF061E83
:100C5C0000DA51E1BE4B8200D458002C00D154E193
:100C6C003C6001239D432F002378002B0FD060782C
:100C7C00FFF7B6FC01231D000540034207D1002FEE
:100C8C0000D13AE1400700D437E10A2535E10023D1
:100C9C002370F0B26070FFF7AFFC01231D0005401C
:100CAC00034200D033E1002F02D0400700D530E1E1
:100CBC0000212000FFF77EFF022800D182E00026F1
:100CCC00042800D127E1012800D926E120003B307F
:100CDC00FFF7CAFC80239B00984200D01FE1200044
:100CEC004630FFF7C1FC071E04D120005430FFF73B
:100CFC00C0FC0700A7614023E25CA270531EDBB26C
:100D0C00012B00D90DE17A4390463D23E35C9A46D2
:100D1C006381002B00D106E1013B5246134200D007
:100D2C0003E120004130FFF79FFC81460300009057
:100D3C0020811B0700D0FAE020004330FFF794FC21
:100D4C008346002804D120005030FFF792FC8346E4
:100D5C0020003E30FFF788FC0190002800D1E8E02D
:100D6C00020042444B461B099BB291469944CB4529
:100D7C0000D2E0E05B464A469B1A9B46514618005F
:100D8C00FFF7BCF9D34500D2D7E0724B98422FD86D
:100D9C00714B984268D902239B462BE00020B2008D
:100DAC0002ABD0500136032E0ED820003030330168
:100DBC00BF33FF33C0180379002BEFD00830FFF797
:100DCC0058FCECE70026EEE700270AE03100200093
:100DDC00FFF7F0FE012800D872E70137032F00D986
:100DEC006EE7BB0002AA9E58002EEFD10320F4E759
:100DFC0003239B46831C9A466361E661019B9B1906
:100E0C0023624A46B218A2625A46032A2FD0009A8D
:100E1C00002A00D197E0434463625B46022B37D033
:100E2C0053465B0053445B08012251460A409B1811
:100E3C004A4A944663445B0ABB4200D985E00123CD
:100E4C005B422361E360813323715B46032B22D029
:100E5C005B462370424A138801339BB21380E380B4
:100E6C002000FFF707FD48E001239B46C2E7200066
:100E7C005A30FFF7F9FB002861D1009B002B60D1A1
:100E8C0020005C30FFF7F5FB606253469B00CFE718
:100E9C0053465B00CCE720006030FFF7E5FB0128F0
:100EAC00D6D1711C2000FFF769FE0028D0D1002399
:100EBC0023712C4BE018FFF7D7FB2B4B9842C7D173
:100ECC0020003030FFF7D5FB284B9842C0D185234A
:100EDC009B00E018FFF7CDFB254B9842B8D1862339
:100EEC009B00E018FFF7C5FB206187239B00E018EF
:100EFC00FFF7BFFBE060ABE70B25280007B0F0BCA9
:100F0C00BB46B246A946A046F0BD0C25F5E7032525
:100F1C00F3E70A25F1E70125EFE70D25EDE70D25B0
:100F2C00EBE70D25E9E70D25E7E70D25E5E70D25B1
:100F3C00E3E70D25E1E70D25DFE70D25DDE70D25C1
:100F4C00DBE70D25D9E70D25D7E70D25D5E7C046FD
:100F5C0084030020F5FF0000F50F0000FF010000E6
:100F6C00800300202E02000055AA0000525261415D
:100F7C0072724161F0B5D6464F464646C0B5060082
:100F8C000C001700012900D880E043698B4200D87F
:100F9C0083E00378022B49D0032B5BD0012B00D0CC
:100FAC007DE04B0898468844016A43465B0AC918A1
:100FBC00FFF7E4FD051E6AD130239A46B2442F3B5D
:100FCC00434499464346DB05DB0D53440122110093
:100FDC002140884622421ED018783A010F21014048
:100FEC000A43D2B21A700123F370316A4B465B0A82
:100FFC00C9183000FFF7C2FD051E48D14B46DB0572
:10100C00DB0D53444246002A07D03A09D2B21A707B
:10101C000123F3703BE0FAB2E4E71A783F0A7FB29F
:10102C000F2139400F2082430A43F0E7016A230A5B
:10103C00C918FFF7A3FD051E29D13000303064001C
:10104C00FF235B001C40B9B20019FFF71EFB012304
:10105C00F3701CE0016AE309C918FFF78FFD051E48
:10106C0015D13F013F0933003033A400FE2252005A
:10107C0014401C192000FFF7FCFA010F0907394333
:10108C002000FFF706FB0123F37000E00225280087
:10109C00E0BCBA46B146A846F0BD0225F7E70225EA
:1010AC00F5E7F8B50C000568012956D96B698B4238
:1010BC0055D92B78022B2CD0032B3BD0012B50D1A4
:1010CC004E087618296A730AC9182800FFF756FDCE
:1010DC00002802D00120404240E0771CF605F60DB6
:1010EC00AE1930363678296A7B0AC9182800FFF702
:1010FC0045FD002837D1FB05DB0DEB183033187894
:10110C0000023043E40701D5000927E00005000D7B
:10111C0024E0296A230AC9182800FFF72FFD0028AC
:10112C0024D130356400FF235B001C402819FFF7E5
:10113C009BFA13E0296AE309C9182800FFF71EFD82
:10114C00002816D13035A400FE235B001C40281962
:10115C00FFF78FFA0001000900E00120F8BD012023
:10116C00FCE70120FAE701204042F7E7012040426A
:10117C00F4E701204042F1E7F0B5C64600B50700A0
:10118C000E000368984680239B0399423ED2CB06FF
:10119C0040D141618468002C1ED143461B78022B40
:1011AC0001D943465C6A002C16D173094246128958
:1011BC00934231D243465B6AFB61BC61FB69002BF5
:1011CC0032D0720A9B18FB6143463033F105C90DCE
:1011DC005B183B6200201AE043465D896D02AE420B
:1011EC000ED321003800FFF75CFF0400431C15D020
:1011FC00012815D943465B69834213D9761BEEE768
:10120C0021004046FFF748FBF861D6E7022080BC7E
:10121C00B846F0BD0220FAE70220F8E70120F6E715
:10122C000220F4E70220F2E70220F0E7F0B5C64610
:10123C0000B5050088460668002907D1F768002F1D
:10124C000FD07369BB420DD801270BE0FFF729FFC4
:10125C00012844D9431C47D07369834244D847467C
:10126C0000E001273C000BE021002800FFF719FFEC
:10127C0000280DD0012837D0431C35D0BC4232D0C9
:10128C0001347369A342EFD8012F2AD90224EBE76A
:10129C000122524221003000FFF76CFE002818D1C9
:1012AC004346002B0FD1002813D1F46032697369C7
:1012BC00023B9A4201D8013A32613379012213433D
:1012CC003371200010E0220041463000FFF752FE3F
:1012DC00E9E7012801D0012006E0023804E00120F2
:1012EC0002E0002000E0002080BCB846F0BDF8B55C
:1012FC0006000C0011000568012C2CD96B69A34267
:10130C002BD9002A09D0012252422800FFF732FEC5
:10131C00002802D022E0A24220D927002100300070
:10132C00FFF7BFFE041E1AD001281AD0431C1AD096
:10133C00002239002800FFF71DFE00280ED12B6972
:10134C006A69911E8B42E6D201332B612B79012104
:10135C000B432B71DFE7022000E00220F8BD0020D8
:10136C00FCE70220FAE70120F8E770B504000568F5
:10137C00C1692800FFF702FC002804D1236AE5228A
:10138C001A700123EB7070BDF0B5D6464F4680B590
:10139C0083B004000191076845692035C369002BAF
:1013AC0000D174E080229203954200D371E0EA05EB
:1013BC00D60D002A08D10133C3618169002911D1EE
:1013CC006B093A89934209D265613037B8192062AA
:1013DC00002003B0C0BCBA46B146F0BD0023C361C7
:1013EC000420F6E76B0A7A89013A1000184081460E
:1013FC001A42E9D12000FFF754FE8246030001286F
:10140C0049D9013349D07B69834238D8019B002BE1
:10141C0011D0A1692000FFF709FF8246031E3ED0C0
:10142C0001283ED001333ED03800FFF779FB00286D
:10143C0004D00120CDE7E3610420CAE73800303046
:10144C00802292000021FFF737F951463800FFF750
:10145C0023FAF8627B8999450DD20123FB70380081
:10146C00FFF75EFB002820D101239C46E144FB6A78
:10147C000133FB62EEE7FB6A4A469B1AFB6253465A
:10148C00A36151463800FFF707FAE0619CE704209E
:10149C009FE704209DE702209BE7012099E70720A6
:1014AC0097E7022095E7012093E7012091E770B5BB
:1014BC00050006680021FFF75FFE041E07D0200020
:1014CC0070BD00212800FFF75FFF041EF7D1E9690A
:1014DC003000FFF753FB041EF1D1286A0378002B70
:1014EC000ED0C27A3F231340AB71C37A1B07E8D4EA
:1014FC00290024310B22FFF7E5F80028E1D1DEE7C3
:10150C000424DCE730B583B004000191056801E0E8
:10151C0001330193019B1A782F2AF9D05C2AF7D05A
:10152C000022A2601B781F2B1CD901A92000FFF7F9
:10153C002DFA00281DD12000FFF7B9FF2F23E35C03
:10154C00002818D15B0714D4A379DB0619D5290020
:10155C0030316369DB05DB0DC9182800FFF7BCF9D6
:10156C00A060E2E72F238032E25400212000FFF735
:10157C0003FE03B030BD0428FBD15B07F9D4052072
:10158C00F7E70520F5E7F8B504000D000668002123
:10159C00FFF7F2FD002818D1002708E00137AF4211
:1015AC0013D001212000FFF7EFFE00280DD1E169D7
:1015BC003000FFF7E3FA002807D1236A1B78E52BEC
:1015CC00ECD0002BEAD00027EBE7042800D0F8BDC4
:1015DC000330FCE770B5050006680121FFF7D3FF67
:1015EC00041E01D0200070BDE9693000FFF7C6FA77
:1015FC00041EF7D1286A20220021FFF75DF8286A23
:10160C00290024310B22FFF74CF80123F370E9E792
:10161C0070B504000E000568042005E000212000D0
:10162C00FFF7B2FE00281ED1E16900291BD028006B
:10163C00FFF7A4FA002816D1236A1A78002A11D0D1
:10164C00D97A3F230B40A371E52AE7D02E2AE5D0A7
:10165C000F2BE3D020229343083B5A425341B34211
:10166C00DCD100E00420002801D00023E36170BD30
:10167C0070B50400FFF754FA051E0AD12378032B2A
:10168C0009D0607800220021FEF7E2FF002800D08C
:10169C000125280070BD2379012BF2D126003036AC
:1016AC008022920000213000FFF706F81249134BFC
:1016BC00E018FEF7EAFF12493000FEF7EAFF852337
:1016CC009B00E0180F49FEF7E4FF216986239B007D
:1016DC00E018FEF7DEFFE16887239B00E018FEF7B9
:1016EC00D8FFE2690132E262607801233100FEF733
:1016FC00A3FF00232371C4E755AA00002E020000AB
:10170C00525261417272416170B584B00190009186
:10171C001500039103A8FFF7ADF9041E1FDB124B54
:10172C008200D658002E04D03000FFF7A3F8002317
:10173C003370019B002B01D000221A70019A0A4BC6
:10174C00A400E250002A0CD0012D02D0002004B0DD
:10175C0070BD002201A96846FFF76CFAF7E70B2071
:10176C00F5E70020F3E7C04684030020F0B5D64629
:10177C004F464646C0B590B00500019116000028B2
:10178C0000D10DE13F2717403A0003A901A8FFF74C
:10179C0051FA041E08D000232B60200010B0E0BCCE
:1017AC00BA46B146A846F0BD039B0493019904A820
:1017BC00FFF7A8FE041E0CD104AA2F23D356002B2E
:1017CC002DDB3E2131404B1E99411000FEF790FF5E
:1017DC0004001C23334279D0002C30D0042C20D0B0
:1017EC0008231F43FFB2002CD5D13B0731D4002C6A
:1017FC00D1D13B0702D540231F43FFB2039BDB6AC9
:10180C006B6204A8036AAB620121B9428941494267
:10181C00FEF7BAFF2861002865D10224BBE7062435
:10182C00D7E7FEF7A1FF002804D108231F43FFB21E
:10183C000E34DCE704A8FFF7CDFE0400D0E704ABC0
:10184C009B7911221A4200D0A4E07607CBD508244C
:10185C00A1E7FEF7C3FE80460C980E304146FEF71A
:10186C0018FF0C9816304146FEF713FF0C9B2022F4
:10187C00DA72039B99460C9B9A4619004846FFF76F
:10188C002BF88046002251464846FFF738F80C9852
:10189C001C300021FEF7FDFE039B0122DA7043464B
:1018AC00002BA4D0039BDE6A0022414604A8FFF75C
:1018BC001EFD041E00D06EE703983100FFF75EF9A1
:1018CC000400039A4346013BD36090E7002C00D000
:1018DC0061E704AB9B79DA065ED4B60787D5DB07E4
:1018EC0085D5072457E7039B98460C9E31001800BA
:1018FC00FEF7F2FFA86030001C30FEF7BAFEE8607D
:10190C000023EB6242462A60D288AA802F756B7541
:10191C002B62AB6130339846A844802292000021A0
:10192C004046FEF7C9FEBF0630D5EE68002E2DD01E
:10193C00AE61039B5F897F02A96801E00224F61B5C
:10194C00002C0BD1BE4209D92800FFF7AAFB0100DD
:10195C000128F3D9431CF2D10124F0E7E961002CF2
:10196C0000D018E7F30511D0039F3800FEF794FF61
:10197C00002801D102240EE7720A12182A62787824
:10198C0001234146FEF74CFE002807D1002C00D164
:10199C0003E700E70724FEE60424FCE60124FAE64C
:1019AC000924FAE6F0B5DE4657464E464546E0B504
:1019BC0085B004000E0017009846002342461360C1
:1019CC0003A9FFF784F88146002800D0A4E0637DCA
:1019DC009946002B00D09FE0237DDB0700D4B9E0B3
:1019EC00E568A369ED1ABD425BD33D0059E0E36A9B
:1019FC00002B03D02000FEF75BFF63E0E1692000C1
:101A0C00FFF74FFB5EE002236375994684E00123E8
:101A1C006375994680E00223637599467CE0142334
:101A2C00E356002B02DB019B5F0230E0236ADB1BD9
:101A3C00019A9342F7D25B02F018210030318022D8
:101A4C009200FEF72EFEEEE7226A82420ED014239D
:101A5C00E356002B68DB039B2100303158780123BF
:101A6C003A00FEF7DDFD002800D06FE02762A36985
:101A7C00DB05DB0D8027BF00FF1ABD4200D22F0013
:101A8C0021003031C9183A003000FEF70AFEF61971
:101A9C00A369DB19A36143461B68DB19424613603B
:101AAC00ED1B002D38D0A169CB05E0D14B0A039A70
:101ABC005289013A1000184083461A4207D1002976
:101ACC0095D1A06801289ED9431CA0D0E061039B4E
:101ADC009A46E1691800FEF7DFFE00289BD05844B7
:101AEC0007006A0A019280239B009D42ACD313002D
:101AFC005B4452465289934202D95B46D31A0193F6
:101B0C0053465878019B3A003100FEF789FD0028B6
:101B1C0085D0012363759946484605B0F0BCBB4699
:101B2C00B246A946A046F0BD210030315346587844
:101B3C000123FEF781FD002804D1227D7F23134071
:101B4C00237588E7012363759946E5E701236375DF
:101B5C009946E1E707239946DEE7F0B5DE4657469E
:101B6C004E464546E0B585B004000E00150098467B
:101B7C0000234246136003A9FEF7A9FF8146002803
:101B8C0049D1637D9946002B45D1237D9B0700D419
:101B9C00DBE0A3695A19934200D8A9E0DD43A7E022
:101BAC00E36A002B3FD02000FEF782FE002800D114
:101BBC00C6E001283CD0431C3ED0E061A368002B5A
:101BCC0000D1A0601423E356002B39DB039B9A460B
:101BDC00E1691800FEF760FE002844D05844070065
:101BEC006A0A019280239B009D4255D313005B44EB
:101BFC0052465289934202D95B46D31A01935346FB
:101C0C005878019B3A003100FEF716FD00282ED0C3
:101C1C00012363759946484605B0F0BCBB46B246F5
:101C2C00A946A046F0BDE1692000FFF7FFFABDE729
:101C3C00022363759946EEE7012363759946EAE73B
:101C4C00039B21003031226A58780123FEF7F4FC03
:101C5C00002804D1227D7F2313402375B6E701238E
:101C6C0063759946D7E7022363759946D3E7216AD2
:101C7C00C91B019B994202D3019B5F0229E0200002
:101C8C0030304902711880229200FEF70AFD227D45
:101C9C007F2313402375EFE7236A834203D0A269A5
:101CAC00E3689A423ED32762A369DB05DB0D8027EC
:101CBC00BF00FF1ABD4200D22F0020003030C018E8
:101CCC003A003100FEF7EDFC227D80235B4213438A
:101CDC002375F619A369DB19A361E268934200D25C
:101CEC001300E36043461B68DB1942461360ED1B8F
:101CFC00002D25D0A169CB05D6D14B0A039A528968
:101D0C00013A1000184083461A4200D05AE70029C5
:101D1C0000D045E7A068002800D04AE72000FFF774
:101D2C0085FA43E7210030315346587801233A00B5
:101D3C00FEF776FC0028B6D00123637599466AE756
:101D4C00237D40221343237565E70723994662E7F9
:101D5C0070B582B004000D000A290DD06368002B09
:101D6C0008DB5E1CE3181D733C2E09DC6660A3685F
:101D7C000133A36002B070BD0D21FFF7E9FFEDE761
:101D8C0021000C31206801AB3200FFF7E6FE019B0D
:101D9C009E4202D001267642E8E70026E6E710B51F
:101DAC0082B004004268002A0EDB01000C3100688E
:101DBC0001ABFFF7D2FE002809D16268019B9A4261
:101DCC0008D1A06802B010BD01204042FAE7012002
:101DDC004042F7E701204042F4E770B582B00400BE
:101DEC0001A9FEF774FE00280ED1237D5A060BD5EF
:101DFC005BB2002B0ADBFEF7F1FB0500616A019870
:101E0C00FEF7BCFE002810D002B070BD019B210073
:101E1C003031226A58780123FEF70EFC002828D1B5
:101E2C00227D7F2313402375E5E7A66AF37A2022EF
:101E3C001343F372A26820683100FEF760FDE1687D
:101E4C0030001C30FEF725FC300016302900FEF760
:101E5C0020FC300012300021FEF717FC019B012200
:101E6C00DA700198FFF704FC237D4022934323751D
:101E7C00CAE70120C8E710B582B00400FFF7ADFF38
:101E8C00002801D002B010BD01A92000FEF71FFEF2
:101E9C000028F7D12069FEF7C9FC0028F2D10023F5
:101EAC002360EFE730B585B0051E01913FD00022CD
:101EBC0003A901A8FEF7BEFE041E04D000232B606C
:101ECC00200005B030BD039B2B6001992800FFF763
:101EDC0019FB041E24D12F23EB56002B07DBAB7907
:101EEC00DB061CD5296A0398FEF7F6FCA860039B59
:101EFC00DB88AB8000212800FFF73EF9041E0FD1D0
:101F0C00AB68002B02D100232B6109E000212800D3
:101F1C00FEF73AFC2861002802D1122402E00524C5
:101F2C00042C02D0002CCBD0C8E70524C6E709242A
:101F3C00C6E710B582B0040001A9FEF7C8FD002861
:101F4C0006D12369002B05D1002801D10023236081
:101F5C0002B010BD1800FEF769FCF5E770B582B051
:101F6C0005000E0001A9FEF7B2FD041E1AD1002EC9
:101F7C0013D000212800FFF74BFB042801D00028C8
:101F8C0013D131002800FEF7CDFC00212800FFF70B
:101F9C00FBF9042806D0040004E000212800FFF718
:101FAC00EBF80400200002B070BD0400FAE7F0B5B5
:101FBC00D6464F464646C0B588B0019089461400B7
:101FCC00002207A901A8FEF735FE051E62D1079B6A
:101FDC0023601A695E69B11E8A4202D84B461A60A8
:101FEC0058E01F78012F06D01B6A9A460024002760
:101FFC000023984635E0029302240023984604E01F
:10200C000134079B5B69A3423BD9210002A8FFF76F
:10201C0048F8431C34D0012843D00028F0D10123C8
:10202C009C46E044ECE753465F1C07985146FEF78C
:10203C00A5FD051E25D1079C3034BA468027BF006C
:10204C0011E02000FEF710FB002802D101239C4672
:10205C00E0440234023F01E00434043F013E002E10
:10206C000FD0002FDFD0079B1B78022BE9D020006C
:10207C00FEF7FFFA0001EFD101239C46E044EBE7A9
:10208C003D004B4642461A60079B1A611A790121A2
:10209C000A431A71280008B0E0BCBA46B146A846FB
:1020AC00F0BD0225EDE7F0B59DB00190022203A929
:1020BC0001A8FEF7BFFD041E039B109302D0200065
:1020CC001DB0F0BD019910A8FFF71CFA041EF6D143
:1020DC00022110A8FEF70CFB041EF0D110AA2F232E
:1020EC00D356002B34DB9579EB0733D4039F189927
:1020FC003800FEF7F1FB0600ED060FD4002CDED104
:10210C0010A8FFF732F9041ED9D1002E19D1002CDA
:10211C00D5D10398FFF7ACFA0400D0E704A80497D4
:10212C0086600021FFF728F8041EC8D1002104A8FE
:10213C00FFF76EFA041E02D00428DFD1E0E7072473
:10214C00DCE70022310010A8FFF7D1F80400DEE72D
:10215C000624B4E70724B2E730B5A3B00190009190
:10216C006846FEF787FC022209A901A8FEF762FD6A
:10217C00041E02D0200023B030BD099B1693019998
:10218C0016A8FFF7BFF9041E0AD116AA2F23D35C99
:10219C005F22934371D1022116A8FEF7A9FA04001D
:1021AC00002CE7D116AD1E990B31152203A8FEF7B2
:1021BC0078FA0AAC302229002000FEF772FA009956
:1021CC002000FFF79FF9041E0BD10C9A189B9A4222
:1021DC0001D0082407E00F9A1B9B9A420FD00834B9
:1021EC0001E004280BD0002CC4D116A8FFF7BDF8D1
:1021FC00041EBFD10998FFF73BFA0400BAE70AA8FE
:10220C00FFF7E8F9041EB5D1129D28000D301322FA
:10221C000E216944FEF745FA03AB1B7820221343C9
:10222C00EB72099B0122DA70EB7ADB06DBD5189A8C
:10223C000C9B9A42D7D0099C29002000FEF74CFB3E
:10224C0001002000FEF728FB011E01D1022491E7BA
:10225C002000FEF793FC0400099801005031002C7B
:10226C0000D087E75123C35C2E2BBCD10C9AFEF710
:10227C0046FB099B0122DA70B5E706247AE7F0B534
:10228C0085B001900F0016000400002501E022002B
:10229C0014007B1EAB4212DD02AB012203A93000FD
:1022AC00FFF780FB029B012B09D103AB1B780D2B95
:1022BC00EDD0621C237001350A2BE9D114000023E8
:1022CC002370002D02D0019805B0F0BD0020FBE773
:1022DC0010B594B0040001A8FEF7F4FB03E0013440
:1022EC0001A8FFF735FD21780029F8D101A8FFF7E7
:1022FC0056FD14B010BD000070B504000F4B5B7A96
:10230C00D8B2002B17D10D4B5D7AEDB200265E557D
:10231C005D7AAD005D196C605C7A1C1922725A7A78
:10232C00541CE4B25C7230320A703A234B700B3B93
:10233C008B70CE7070BD0120FCE7C0468803002076
:10234C0010B50022FFF7D8FF10BD0000BFF34F8F70
:10235C00034B044ADA60BFF34F8FC046FDE7C0461B
:10236C0000ED00E00400FA0582B00023019302E0C6
:10237C00019B01330193019B312BF9DD02B07047B6
:10238C00F0B5CE46474680B589B003AC1422002187
:10239C00200009F04DFB2A4B5A6B012632435A633D
:1023AC005A6B32400092009A5A6B022188460A43BB
:1023BC005A635A6B0A400192019A596B08221143D5
:1023CC0059635B6B1A400292029B1E4F0022032141
:1023DC00380005F092FA01220421380005F08DFA3C
:1023EC00194B994600220D21180005F086FA039628
:1023FC0004960025059506952100380005F0B6F9E0
:10240C00062303930496059606952100380005F0E3
:10241C00ADF90D23039304960595069521004846C6
:10242C0005F0A4F94346039304950595210048460D
:10243C0005F09CF909B0C0BCB946B046F0BDC04629
:10244C000010024000040050000C005000B583B096
:10245C00094A916B012319439163926B13400193C9
:10246C00019B00220021092004F032FD092004F018
:10247C0033FD03B000BDC0460010024000B583B070
:10248C000190012304485B42012201A907F0A3FA41
:10249C00019803B000BDC046601D002010B582B08D
:1024AC006B46DC1D00232370013304485B42012280
:1024BC00210007F00DFB207802B010BD601D00203C
:1024CC0010B50268074B9A4200D010BD064B1B8812
:1024DC0006485843064B198889B2FDF70FFE054B89
:1024EC001880F2E700240140AA75FF1FB80B00000A
:1024FC0030000020381D002010B504008189806850
:10250C00002205F0FAF9FE239B0523610023636189
:10251C0010BD70B50400A188206805F0E7F901280A
:10252C00F9D00026002500E00136172E16DCA18913
:10253C00A068012205F0E1F9FFF716FF6D00A189F3
:10254C00A068002205F0D9F9FFF70EFFA1882068DA
:10255C0005F0CCF90028E7D00135E5E7A189A068A2
:10256C00012205F0CAF9FFF7FFFEA189A06800223D
:10257C0005F0C3F9FFF7F8FE2B0202D5FF231B066B
:10258C001D43280070BD10B50400FFF7C2FF63693E
:10259C00C01A24690CF09CFB211C0BF017FE10BD1B
:1025AC0070B504000D1C101C0CF072FB60612561F1
:1025BC0070BD000010B50400074B1B68002B00D049
:1025CC0010BDFDF77FFD012382B204485B42210060
:1025DC0007F001FAF4E7C046081D0020601D00203A
:1025EC0084B010B502900391049205930D4B1B68B7
:1025FC00002B0CD00C4B1A68693A53009B180B4AF1
:10260C0012689B18013B0A4A0A490968D1540A48C6
:10261C00FFF7D0FF034B00221A6010BC08BC04B0BB
:10262C001847C046341D0020301D0020281D0020F6
:10263C00401D00202C1D0020A80F010884B010B5EF
:10264C0090B012901391149215931A4C6378A07851
:10265C0000021843000400140CF03AFBFA2189051F
:10266C000BF082FF6378FF2B14D0134B1B68002BED
:10267C001ED0124C0EF0ACFB02000B002100684681
:10268C0009F068F96846FFF795FF10B010BC08BC5C
:10269C0004B01847A378FF2BE7D1074B1B68002B1E
:1026AC0004D00749684609F055F9EBE70549F9E705
:1026BC00054CDFE7541D00203C1D0020C40F010811
:1026CC00B00F0108B80F0108CC0F010884B010B589
:1026DC0002900391049205930D4B5B78002B0CD068
:1026EC000C4B1B68002B06D00B48FFF763FF10BC8C
:1026FC0008BC04B018470948F7E7064B1B68002BC9
:10270C0003D00748FFF756FFF1E70648FAE7C04643
:10271C00541D00203C1D0020DC0F0108E40F0108B3
:10272C00F00F0108F80F010884B010B590B01290AA
:10273C001391149215930A4B59789A7812020A4302
:10274C00D9781B791B020B430649684609F002F93C
:10275C006846FFF72FFF10B010BC08BC04B0184738
:10276C00541D00200410010884B070B590B0149072
:10277C001591169217932E4B5C780220185E0CF074
:10278C00A7FAF62189050BF0EFFE2A4B1B68002BEC
:10279C0019D0294E0EF01CFB02000B0031006846CC
:1027AC0009F0D8F86846FFF705FF002C0FD1214B34
:1027BC001B68002B09D02148FFF7FCFE10B070BC41
:1027CC0008BC04B018471E4EE4E71E48F4E7E307C4
:1027DC0006D5184B1B68002B21D01B48FFF7EAFECF
:1027EC00A30706D5134B1B68002B1AD01748FFF70D
:1027FC00E1FE630706D50F4B1B68002B13D0144862
:10280C00FFF7D8FE240706D50A4B1B68002B0CD00B
:10281C001048FFF7CFFE1048FFF7CCFECEE70F486D
:10282C00DCE70F48E3E70F48EAE70F48F1E7C0465B
:10283C00541D00203C1D00201C1001083410010800
:10284C002410010838100108D42901084C10010883
:10285C005C1001086C10010880100108441001087C
:10286C0050100108601001087010010870B590B08C
:10287C0003F024FD04001948402104F069FF0028EE
:10288C0006D103F01BFD001BFA235B009842F2D328
:10289C001248402104F05CFF002817D0104B06AD05
:1028AC000E482A00402104F0A5FE0E4C0AAB6A46E5
:1028BC0043CB43C243CB43C206980799089A099B62
:1028CC002568A847084B236010B070BD0748FFF778
:1028DC0071FE074B00221A60F6E7C046F01F00207D
:1028EC00541D00202C000020ED2500087810010854
:1028FC00341D002070B58AB005000E0001AC2422F6
:10290C000021200009F094F8064B1B6801930496F3
:10291C0005482A00210004F043FEFFF7A7FF0AB088
:10292C0070BDC0465C1D0020F01F002010B582B0A9
:10293C00074B1B68002B01D002B010BD05490200EB
:10294C00684609F007F86846FFF734FEF4E7C0461E
:10295C00081D00208410010870B58CB0060003AC73
:10296C0024220021200009F063F801AD0822002187
:10297C00280009F05DF82E70064B1B6803930123A9
:10298C00069305482A00210004F00AFEFFF76EFFAB
:10299C000CB070BD5C1D0020F01F0020F0B5C646C9
:1029AC0000B582B0050088460192002300E0013397
:1029BC00274A17689F4208DD264A942159438A58B2
:1029CC00AA42F4D1234C0C1900E00024202F34D05F
:1029DC00002C0DD000276668BE4211DD380108308E
:1029EC0020184146FDF764FB002828D00137F2E798
:1029FC0094207843174C0419154B01371F60E9E7F5
:102A0C00082E21D04046FDF75DFB0E281ED8300164
:102A1C0008302018414609F0C2F8636801331A01E6
:102A2C00A2180199D17163602560200088300C22B6
:102A3C00002108F0FDFF002002E0012000E0022050
:102A4C0002B080BCB846F0BD0320F9E70420F7E7DC
:102A5C00041D0020840A002070B50600184B0122CA
:102A6C0052421A600025174B1B68AB4223DD002431
:102A7C0000E00134144B94226A439B185B68A34218
:102A8C0017DD230194226A43981808300E4BC018A6
:102A9C003100FDF70DFB0028EBD10B4A013423016B
:102AAC00942169435B18D318D879054B1860885862
:102ABC0070BD0135D7E7300007F048FEF8E7C04697
:102ACC00241D0020041D0020840A0020F0B5DE46E1
:102ADC0057464E464546E0B5664CA544DBAC242231
:102AEC000021200008F0A4FF0822002102A808F011
:102AFC009FFF0123DE93604B1B68002B2AD05F489D
:102B0C0002AADBA904F04CFD03F0D8FB040000235F
:102B1C009A4603F0D3FB001BFA235B0098421DD2AC
:102B2C005648402104F014FE0028F2D053469B0076
:102B3C005344DB0013AAD21850486B46402104F0D2
:102B4C0059FD6B465A780EAB51465A5401239C469C
:102B5C00E244DEE74A48FFF72DFDD0E70023984614
:102B6C0055E04848FFF726FD474B6A1C12019219A5
:102B7C009B18D879FFF7DAFE18E00135424B942206
:102B8C0062439B185B68AB421CDD280194266643AC
:102B9C00801908303C4B9B465844FFF70BFD6B1CCF
:102BAC001B019B195B44DB79FF2BDAD1364B94224A
:102BBC0062439B185B68013BAB42DED03348FFF7A6
:102BCC00F9FCDAE73248FFF7F5FC0134314B1B68AE
:102BDC00A3420ADD2C4B94226243D3589F42F4D17A
:102BEC002D48FFF7E7FC0025C8E72C48FFF7E2FC6F
:102BFC000EAB4A469B5C042B24D92948FFF7DAFC20
:102C0C002848FFF7D7FC43460133DBB29846C14650
:102C1C00D0451DDA04A943469A004244D20013ABB6
:102C2C009B180A0031CB31C213CB13C213CB13C286
:102C3C001B681360049F3F043F0C3800FFF776FEBF
:102C4C000024C3E7184A9B009858FFF7B3FCD7E75A
:102C5C00094B1B68002B08D0E5239B009D44F0BC5E
:102C6C00BB46B246A946A046F0BD1048FFF7A2FCF1
:102C7C00F2E7C0466CFCFFFF3C1D0020F01F00205B
:102C8C00881001089C100108840A0020A01001087B
:102C9C00A4100108041D00202C1E0108A810010816
:102CAC00AC1001088010010800000020B4100108CD
:102CBC00F8B505000E000F680A49380008F0C0FE90
:102CCC00040002003900280008F071FF2D190023C0
:102CDC002B7033681A5D002A00D001341B19336045
:102CEC00F8BDC046901E010870B505000378002B96
:102CFC000ED000242800FDF7E5F9A04206D92B5D83
:102D0C00303BDBB2092B05D80134F3E7012000E09E
:102D1C00002070BD0020FCE710B5034B01221A60A7
:102D2C000248FFF747FC10BD800A0020C4100108C0
:102D3C0010B5CAB0019042AC01A92000FFF7B8FF52
:102D4C002A492000FDF7B4F900281BD0284942A8D5
:102D5C00FDF7AEF900281AD0264942A8FDF7A8F9CC
:102D6C00002819D1244B1B68002B13D02349244B6A
:102D7C001A8802AC200008F0EDFD2000FFF71AFCC9
:102D8C004AB010BD1F48FFF715FCFFF7DFFAFFF73D
:102D9C009DFEF5E71C49EAE742AB1B78002B0CD1F2
:102DAC001A4B01221A60144B1B68002B03D01848D5
:102DBC00FFF700FCE4E71748FAE7144B01221A600E
:102DCC000D4B1B68002B0AD01348FFF7F3FB0A4B83
:102DDC001B68002B05D01148FFF7ECFBD0E710481F
:102DEC00F3E742A8FFF7E6FBF5E7C046A81A01088F
:102DFC00C41A0108CC1A01083C1D0020441A010811
:102E0C00381D0020B01A01084C1A0108800A002055
:102E1C005C1A0108681A0108841A0108801001085C
:102E2C008C1A0108F0B5C64600B58AB0019002AC08
:102E3C0001A92000FFF73CFF80492000FDF738F97D
:102E4C00002810D07E4902A8FDF732F90090002826
:102E5C0000D075E00198FFF7FFFD8046002809D0EF
:102E6C0000990D0052E07748FFF7A4FB0AB080BC34
:102E7C00B846F0BD744B01221A60744B1B68002BD2
:102E8C0003D07348FFF796FBF0E77248FAE77248F5
:102E9C00FFF790FB4046FFF749FD7048FFF78AFBB0
:102EAC0042E06F48FFF786FB6E4B721C1201D21981
:102EBC009B18D879FFF73AFD17E00136694B94223D
:102ECC006A439B185B68B3421BDD330194276F4345
:102EDC00D8190830634C0019FFF76CFB731C1B01ED
:102EEC00DB19E318DB79FF2BDBD15E4B94226A43B1
:102EFC009B185B68013BB342DFD05B48FFF75AFB82
:102F0C00DBE75A48FFF756FB01210135584B1B688C
:102F1C00AB420BDD534B94226A43D3584345F4D157
:102F2C004A4B1B68002BB2D0009EC7E700299DD1ED
:102F3C00464B1B68002B99D14E48FFF73BFB95E79E
:102F4C0002A8FFF789FD041E25D0019B1B78002BDE
:102F5C0009D13D4B01221A603C4B1B68002B24D03D
:102F6C003B48FFF727FB01A902A8FFF7A1FE019D33
:102F7C002B78002B21D02800FFF7B6FE002816D1A5
:102F8C00314B01221A60314B1B68002B13D0304897
:102F9C00FFF710FB6AE72D4B1B68002B03D02C4866
:102FAC00FFF708FB62E73448FAE73448D9E7280012
:102FBC0007F0CCFB03E03148EAE701204042C2B203
:102FCC0002A92000FFF7EAFC01280DD0022815D039
:102FDC0003281DD0042825D01C4B1B68002B2BD09C
:102FEC002748FFF7E7FA41E7184B1B68002B03D083
:102FFC002448FFF7DFFA39E72348FAE7134B1B683D
:10300C00002B03D01F48FFF7D5FA2FE71F48FAE72C
:10301C000E4B1B68002B03D01A48FFF7CBFA25E7A1
:10302C001B48FAE7094B1B68002B03D01548FFF728
:10303C00C1FA1BE71748FAE71748D2E7C81B010883
:10304C00C41A0108D01B0108800A00203C1D002076
:10305C005C1A0108D01A0108D81B010800230108CA
:10306C009C100108840A0020A0100108801001089F
:10307C00041D0020EC1B0108F01A0108181B0108A4
:10308C00A80F0108441B01084C1B0108681B010810
:10309C00841B0108A01B0108B41B010810B58AB0E1
:1030AC00019002AC01A92000FFF702FEB8492000F4
:1030BC00FCF7FEFF00282CD0B64902A8FCF7F8FF5D
:1030CC00002800D18CE0B44902A8FCF7F1FF0028DD
:1030DC0000D1E2E0B14902A8FCF7EAFF002800D1D8
:1030EC00FEE0AF4902A8FCF7E3FF002800D12CE179
:1030FC0002AB1B78002B00D07CE1AA4B01221A609A
:10310C00A94B1B68002B00D13FE1A848FFF752FAEE
:10311C0033E00198FFF7A0FC002827D0A44B1860DF
:10312C00A14B1B68002B2CD0A24B01221A60A24B86
:10313C009F4A12681A60A14B00221A60A04B1B68B0
:10314C00A04A1360012B23D0022B2DD0032B37D098
:10315C00954B1B68002B3FD00220FFF7FDFB042092
:10316C00FFF7FAFB0620FFF7F7FB06E08E4B1B6818
:10317C00002B04D08D48FFF71DFA0AB010BD924801
:10318C00F9E70198FFF716FA9048FFF713FACBE727
:10319C00854B1B68002B03D00220FFF7DDFBECE70F
:1031AC008B48FFF707FAF7E77F4B1B68002B03D020
:1031BC000420FFF7D1FBE0E78548FFF7FBF9F7E7C1
:1031CC00794B1B68002B03D00620FFF7C5FBD4E717
:1031DC007F48FFF7EFF9F7E77E48FFF7EBF9BBE71E
:1031EC000198FFF739FC002820D0714B18606E4B0A
:1031FC001B68002B24D06F4B01221A606E4B6C495C
:10320C00096819606D4B1A606D4B1B686D4A136031
:10321C00012B1CD0022B26D0032B30D0624B1B6809
:10322C00002B38D06148FFF7C5F9A6E75E4B1B6849
:10323C00002B03D05D48FFF7BDF99EE76248FAE723
:10324C000198FFF7B7F96148FFF7B4F9D3E7564B8C
:10325C001B68002B03D00120FFF77EFB8DE75E4837
:10326C00FFF7A8F9F7E7504B1B68002B03D003209E
:10327C00FFF772FB81E75848FFF79CF9F7E74A4BD9
:10328C001B68002B03D00520FFF766FB75E752483F
:10329C00FFF790F9F7E75148C5E70198FFF7DCFB1A
:1032AC0000280CD0424B18603F4B1B68002B10D0F1
:1032BC004B4B4C4A1A602020FFF74EFB5DE73A4B14
:1032CC001B68002B03D03948FFF774F955E73E48CB
:1032DC00FAE70198FFF76EF93C48FFF76BF9E7E75F
:1032EC000198FFF7B9FB002814D0354B1B68013B44
:1032FC00022B19D82E4B18602B4B1B68002B1DD0A2
:10330C00374B394A1A602E4B18680F30C0B2FFF792
:10331C0023FB32E7244B1B68002B03D02348FFF719
:10332C0049F92AE72848FAE71F4B1B68002B03D002
:10333C001E48FFF73FF920E72848FAE70198FFF706
:10334C0039F92248FFF736F9DAE70198FFF784FBE1
:10335C00002809D0164B1860134B1B68002B0DD09E
:10336C00FF20FFF7F9FA08E70F4B1B68002B03D07F
:10337C000E48FFF71FF900E71348FAE70198FFF72B
:10338C0019F91A48FFF716F9EAE71948BEE6C046DC
:10339C008C1C0108C01C0108D81C0108E01C010889
:1033AC00A81A0108800A00203C1D00205C1A0108A4
:1033BC005C1D0020341D0020301D00202C1D002021
:1033CC00241D0020281D0020081C010800230108D2
:1033DC00901C0108A81C0108C41C0108281C010829
:1033EC002C00002035270008D9260008E41C010811
:1033FC004C1C01080B4B01221A600B4B1B68002B59
:10340C000AD00A48FFF7D6F8074B1B68002B05D0EB
:10341C000748FFF7CFF8B0E60648F3E702A8FFF736
:10342C00C9F8F5E7800A00203C1D0020841A010829
:10343C00801001086C1C0108F0B5C64600B584B0BC
:10344C00060088460C22002101A808F0F1FA00259C
:10345C0000272EE094276F4388372B4BFF183B68CF
:10346C00002B0AD101333B60F433FF333B81274BF4
:10347C007B810023BB80B433FB80BA8842453FD8A4
:10348C00F98841453ED343469B1A9BB23C897889C7
:10349C00001B5843891AFCF731FE201880B204B087
:1034AC0080BCB846F0BD94276F438837164BFF1885
:1034BC000135174B1B68AB421EDD134B94226A433C
:1034CC00D458300007F042F98442C3D000240E4B8C
:1034DC0094226A439B185B68A342E9DD2301942282
:1034EC006A4398180830084BC0183100FCF7E0FD0F
:1034FC000028D8D00134EAE7002FB0D101AFAEE7F5
:10350C000020CCE70020CAE7840A0020C409000090
:10351C00041D0020F0B585B006000C22002101A886
:10352C0008F086FA002500271CE094276F438837A3
:10353C001F4BFF183B68002B0AD101333B60F4335F
:10354C00FF333B811B4B7B810023BB80B433FB805F
:10355C000437380005B0F0BD94276F438837144BFF
:10356C00FF180135144B1B68AB421EDD104B942227
:10357C006A43D458300007F0E9F88442D5D00024CF
:10358C000B4B94226A439B185B68A342E9DD230131
:10359C0094226A4398180830054BC0183100FCF788
:1035AC0087FD0028D8D00134EAE7002FC2D1D0E73C
:1035BC00840A0020C4090000041D002070B584B0EA
:1035CC0005000E000C22002101A808F031FA00239E
:1035DC0000E00133194A12689A420ADD184A942411
:1035EC005C43A258AA42F4D123008833144A9B1896
:1035FC0000E001AB1A68002A0AD101321A60F432D9
:10360C00FF321A810F4A5A8100229A80B432DA8032
:10361C009A88B24200D91600D988B14200D20E0065
:10362C00B61AB6B21C895889001B7043891AFCF76C
:10363C0065FD201880B204B070BDC046041D00208A
:10364C00840A0020C409000070B58CB0019004AC51
:10365C0001A92000FFF72CFBB4492000FCF728FD42
:10366C0000282CD0B24904A8FCF722FD002800D178
:10367C0086E0B04904A8FCF71BFD002800D1DFE070
:10368C00AD4904A8FCF714FD002800D191E1AB4929
:10369C0004A8FCF70DFD002800D1FCE104AB1B785D
:1036AC00002B00D01CE2A64B01221A60A54B1B6814
:1036BC00002B00D112E2A448FEF77CFF23E0019816
:1036CC00FFF7CAF9002817D0A04B18609D4B1B6858
:1036DC00002B1CD09E4B1B68012B1FD0022B29D01A
:1036EC00032B33D0042B3DD0964B1B68002B45D0BD
:1036FC009548FEF75FFF06E0924B1B68002B04D049
:10370C009148FEF757FF0CB070BD9248F9E701984D
:10371C00FEF750FF9048FEF74DFFDBE7894B1B6827
:10372C00002B03D00120FFF717F9ECE78B48FEF7CD
:10373C0041FFF7E7834B1B68002B03D00220FFF7F8
:10374C000BF9E0E78548FEF735FFF7E77D4B1B6883
:10375C00002B03D00320FFF7FFF8D4E77F48FEF7D8
:10376C0029FFF7E7774B1B68002B03D00420FFF7EA
:10377C00F3F8C8E77948FEF71DFFF7E77848B8E794
:10378C000198FFF769F9002817D0704B18606D4B42
:10379C001B68002B1BD06E4B1B68012B1ED0022B01
:1037AC0028D0032B32D0042B3CD0664B1B68002B4B
:1037BC0044D06C48FEF7FEFEA5E7624B1B68002B5D
:1037CC0003D06148FEF7F6FE9DE76248FAE70198E0
:1037DC00FEF7F0FE6048FEF7EDFEDCE7594B1B6888
:1037EC00002B03D00520FFF7B7F88CE75E48FEF7F7
:1037FC00E1FEF7E7534B1B68002B03D00620FFF7C5
:10380C00ABF880E75848FEF7D5FEF7E74D4B1B6841
:10381C00002B03D00720FFF79FF874E75248FEF700
:10382C00C9FEF7E7474B1B68002B03D00820FFF7B6
:10383C0093F868E74C48FEF7BDFEF7E74848B9E750
:10384C0004AC01A92000FFF733FA2000FFF704F9BC
:10385C00002809D13B4B1B68002B03D03A48FEF7DC
:10386C00A9FE50E73B48FAE704AD2800FFF752FEEB
:10387C00040001A92800FFF71BFA3C492800FCF7BB
:10388C0017FC00280FD1043401980378002B3FD18A
:10389C002C4B1B68002B31D02088FFF747F834489D
:1038AC00FEF788FE2FE7334904A8FCF701FC00283B
:1038BC0001D10634E8E7304904A8FCF7F9FB0028ED
:1038CC00E2D02E4904A8FCF7F3FB002801D1023406
:1038DC00DAE71C4B1B68002B0AD02248FEF76AFE65
:1038EC00184B1B68002B05D02148FEF763FECBE775
:1038FC002348F3E704A8FEF75DFEF5E72148FEF741
:10390C0059FE04A8FEF756FE1F48FEF753FEC3E708
:10391C0006F01CFF050086B20A4B1B68002B37D043
:10392C001A48FEF747FE2680EDE6C046C01C01088B
:10393C008C1C0108C81D0108101E0108A81A0108DA
:10394C00800A00203C1D00205C1A01085C1D002030
:10395C00241D0020081C0108002301089C1D0108DF
:10396C00F81C0108841A0108B01D0108CC1D0108BF
:10397C0080100108D41D0108DC1D0108E81D010898
:10398C001C1D0108F41D0108FC1D0108A80F0108ED
:10399C005F48FEF70FFE04A8FEF70CFE5D48FEF72D
:1039AC0009FE2804000CFEF7C1FF5B48FEF702FE7F
:1039BC00B9E704AC01A92000FFF77AF92000FFF762
:1039CC004BF8564B1860002809D1554B1B68002B3F
:1039DC0003D05448FEF7EEFD95E65348FAE70198FC
:1039EC0006F0B4FE040081B200290DD1019B1B78B6
:1039FC00302B09D04A4B1B68002B03D04B48FEF7E9
:103A0C00D9FD80E64A48FAE704A8FFF715FD051E24
:103A1C0029D0484B1B68013B032B2ED8404B1B680D
:103A2C00002B34D10198FEF7C5FD4348FEF7C2FDCB
:103A3C002004000CFEF77AFF4048FEF7BBFD28007F
:103A4C00FEF774FF3E48FEF7B5FD3A4B1B6810338A
:103A5C0003A803700D236B441D702D0A5D700321A8
:103A6C00FEF748FF4FE62E4B1B68002B03D02F4868
:103A7C00FEF7A0FD47E63348FAE7294B1B68002BFD
:103A8C0003D02848FEF796FD3DE62F48FAE72F486D
:103A9C00FEF790FDD9E70198FEF7DEFF00280FD066
:103AAC001E4B18601E4B1B68002B13D10198FEF7A0
:103ABC0081FD2748FEF77EFDFF20FEF74DFF22E635
:103ACC00174B1B68002B03D01648FEF773FD1AE644
:103ADC001548FAE71D48FEF76DFDEDE71D48EBE5CF
:103AEC001D4B01221A600E4B1B68002B0AD01B4881
:103AFC00FEF760FD0A4B1B68002B05D00648FEF74D
:103B0C0059FD00E61648F3E704A8FEF753FDF5E768
:103B1C00001E0108081E0108801001085C1D002011
:103B2C003C1D00205C1A0108081C0108441B0108FC
:103B3C00301D0108241D0020141E0108281E010838
:103B4C00301E0108441D0108F81C0108A80F0108CB
:103B5C00E41C01085C1D0108800A0020841A01087D
:103B6C007C1D010810B58AB0019002AC01A920009F
:103B7C00FFF79EF864492000FCF79AFA00281CD045
:103B8C00624902A8FCF794FA002849D0604902A8BF
:103B9C00FCF78EFA002878D002AB1B78002B00D0F3
:103BAC0098E05C4B01221A605B4B1B68002B00D128
:103BBC008EE05A48FEF7FEFC9DE00198FEF74CFFA4
:103BCC0000280CD0564B1B68013B022B13D9524BCF
:103BDC001B68002B0DD05148FEF7ECFC8BE04E4BD4
:103BEC001B68002B03D04D48FEF7E4FC83E04D48E6
:103BFC00FAE74D48F0E74D4B18600198FEF7DAFCF8
:103C0C00454B1B68002B07D0494B4A4A1A60444B62
:103C1C001878FEF7A1FE6EE04748FEF7CBFCF3E701
:103C2C000198FEF719FF00280CD03D4B1B68013B97
:103C3C00022B13D9384B1B68002B0DD03748FEF7DD
:103C4C00B9FC58E0344B1B68002B03D03348FEF70B
:103C5C00B1FC50E03348FAE73348F0E7334B1860D7
:103C6C000198FEF7A7FC2C4B1B68002B09D0304B9E
:103C7C00324A1A602A4B18680330C0B2FEF76CFE49
:103C8C0039E02D48FEF796FCF1E70198FEF7E4FECB
:103C9C0000280FD0254B18601F4B1B68002B13D12D
:103CAC000198FEF787FC2648FEF784FCFF20FEF700
:103CBC0053FE20E0184B1B68002B03D01748FEF76F
:103CCC0079FC18E01748FAE71E48FEF773FCEDE79D
:103CDC001D486FE70F4B01221A600F4B1B68002B1E
:103CEC000BD01A48FEF766FC0B4B1B68002B06D05A
:103CFC001748FEF75FFC0AB010BD1648F2E702A8A1
:103D0C00FEF758FCF4E7C046E01C0108941E0108BD
:103D1C00A81A0108800A00203C1D00205C1A01082A
:103D2C00241D0020081C0108381E01085C1D002001
:103D3C002C000020492600080023010875270008E4
:103D4C00E41C0108A80F01085C1E0108841A010874
:103D5C0080100108781E010830B58BB0019002ACC0
:103D6C0001A92000FEF7A4FF7D492000FCF7A0F973
:103D7C0000281DD07B4902A8FCF79AF9002845D0F1
:103D8C00794902A8FCF794F9002800D1A9E002AB0C
:103D9C001B78002B00D0C9E0744B01221A60744BC5
:103DAC001B68002B00D1BFE07248FEF703FCCEE08D
:103DBC000198FEF751FE00280CD06F4B1B68013B9D
:103DCC00022B13D96A4B1B68002B0DD06948FEF7E8
:103DDC00F1FBBCE0664B1B68002B03D06548FEF77B
:103DEC00E9FBB4E06548FAE76548F0E7654B186015
:103DFC000198FEF7DFFB6448FEF7DCFB634B644A7B
:103E0C001A605D4B1878FEF7A7FDA0E002AC01A983
:103E1C002000FEF74DFF2000FEF71EFE041E09D108
:103E2C00534B1B68002B03D05248FEF7C3FB8EE0AC
:103E3C005248FAE702AD01A92800FEF739FF5549AF
:103E4C002800FCF735F9002800D080E001980378B1
:103E5C00002B1DD1464B1B68002B0FD0913CFF3C17
:103E6C0063001B19444A12689B184B4A5B00985A12
:103E7C00FEF75CFD4948FEF79DFB68E04848FEF7FD
:103E8C0099FB2800FEF796FB4648FEF793FBE5E707
:103E9C0006F05CFC913CFF3C63001C19364B1B6824
:103EAC00E3183D4A5B00D052314B1B68002B03D00A
:103EBC003D48FEF77FFB4AE03C48FEF77BFB02A83F
:103ECC00FEF778FB3A48FEF775FB2B4B1B68E418A2
:103EDC00314B6400E05AFEF729FD3048FEF76AFBCF
:103EEC0035E00198FEF7B8FD00280FD0254B18607F
:103EFC001F4B1B68002B13D10198FEF75BFB2D4861
:103F0C00FEF758FBFF20FEF727FD20E0184B1B683F
:103F1C00002B03D01748FEF74DFB18E01748FAE7C3
:103F2C002148FEF747FBEDE723483EE70F4B012204
:103F3C001A600F4B1B68002B0BD02048FEF73AFB86
:103F4C000B4B1B68002B06D01448FEF733FB0BB051
:103F5C0030BD1B48F2E702A8FEF72CFBF4E7C04685
:103F6C00E01C0108C81D0108A81A0108800A0020DD
:103F7C003C1D00205C1A0108241D0020081C0108AF
:103F8C009C1E01085C1D0020002301082C00002051
:103F9C0009420008F81E0108101D002080100108BD
:103FAC00F41D0108FC1D0108A80F0108001E0108E2
:103FBC00081E0108E41C0108C01E0108841A01082F
:103FCC00DC1E010810B5D4B01F4948A8FDF76AFFE4
:103FDC00002803D11D48FEF7EDFA15E01C48FEF74A
:103FEC00E9FA2FE0A022120493421FD91B0D194AA3
:103FFC00194902AC00921222FF326A44200007F0E9
:10400C00A9FC2000FEF7D6FA42A948A8FDF7A6FFA6
:10401C00002814D142AB5B7A002B10D0429B80223B
:10402C0012069342DED99B0F0C4AE1E7A0229201C3
:10403C00934202D99B0A0A4ADAE70A4AD8E748A807
:10404C00FDF777FF54B010BD9C100108281F010824
:10405C000C1F0108001F01083C1F0108FC1E010871
:10406C00041F0108081F010810B58AB0019002ACAA
:10407C0001A92000FEF71CFE2E492000FCF718F8C1
:10408C0000280CD02C4902A8FCF712F800280DD1FE
:10409C002A4A136802210B4313600AB010BD019821
:1040AC00FEF788FA2648FEF785FAF6E7254902A8B6
:1040BC00FBF7FEFF002805D1204A136802218B4331
:1040CC001360EAE7204902A8FBF7F2FF002803D1AE
:1040DC001E4B01221A60E0E71D4902A8FBF7E8FF1E
:1040EC00002803D1194B00221A60D6E702AB1B78CB
:1040FC00002B0CD1174B01221A60144B1B68002BA0
:10410C0003D01548FEF756FAC7E71448FAE7114BE7
:10411C0001221A600D4B1B68002B09D01048FEF7CA
:10412C0049FA02A8FEF746FA0548FEF743FAB4E747
:10413C000C48F4E7841F01088C1F0108081D00209F
:10414C0080100108941F01089C1F01083C1D0020D1
:10415C00A41F0108800A00205C1A01084C1F0108EA
:10416C00841A0108681F0108F8B507000E00150035
:10417C00104C236803E024684D34FF342368002B73
:10418C00F9D1A820400006F0E7FA2060390007F0CA
:10419C0006FD2268A0235B00D65022680433D5505C
:1041AC0021680023A62252008B502168043A8B50C0
:1041BC00F8BDC0461406002070B515009138FF38C4
:1041CC004300181841180A4B4900C85A0AF0D0FD90
:1041DC00041C28000AF07CFD06490AF017FB011CA0
:1041EC00201C0AF0C1F9044909F0F0FF70BDC0466B
:1041FC00101D00200000FA4300007A4584B030B551
:10420C0091B01490159116921793114B59789A7886
:10421C0012020A43120412140E4B1968FFF7CCFF5A
:10422C000D4B1B68002B10D00C4D0CF0D1FD020077
:10423C000B002900684607F08DFB6846FEF7BAF9BB
:10424C0011B030BC08BC04B01847054DEDE7C046B2
:10425C00541D0020241D00203C1D0020C40F01080B
:10426C00AC1F010884B010B5029003910492059321
:10427C00084B59789A7812020A4312041214064B0E
:10428C001968FFF799FF054B186010BC08BC04B007
:10429C001847C046541D0020241D00200C1D002072
:1042AC00064B1B6807E0A22149005A58013A5A50A4
:1042BC00A62252009B58002BF5D170471406002003
:1042CC0030B59BB0019012AC01A92000FEF7F0FCB8
:1042DC00BE492000FBF7ECFE00282FD1BC4B1B681D
:1042EC00002B23D0BB4D01F0E9FF020002AC2900EA
:1042FC00200007F02FFB2000FEF75CF9B64B1B6883
:10430C00002B17D0B24B1B68002B11D0B34D01F012
:10431C00D5FFB14B1A68821A02AC2900200007F0B5
:10432C0019FB2000FEF746F91BB030BDAC4DDAE7A7
:10433C00AC4DECE7AC48FEF73DF9F5E7AB4912A8FC
:10434C00FBF7B6FE002826D0A94912A8FBF7B0FE51
:10435C00002837D0A74912A8FBF7AAFE002843D0A3
:10436C00A54912A8FBF7A4FE00286BD0A34912A8FC
:10437C00FBF79EFE051E00D0C5E0A14B1C68002C6F
:10438C0000D18DE0924B1B68002B00D0A6E09D481D
:10439C00FEF710F9A2E001F091FF8F4B18608C4BE7
:1043AC001B68002B0CD0984D01F088FF020002AC6A
:1043BC002900200007F0CEFA2000FEF7FBF8B3E747
:1043CC00924DF1E7019806F0C1F9002809D1804B14
:1043DC001B68002B03D08E48FEF7ECF8A4E78D4841
:1043EC00FAE701F071FF9FE712AC01A92000FEF77C
:1043FC005FFC200006F0AAF9041E03D00198037894
:10440C00002B09D1724B1B68002B03D08048FEF7A0
:10441C00D1F889E78048FAE722000021FFF7A4FED3
:10442C006B4B1B68002B03D07C48FEF7C3F87BE773
:10443C007B48FEF7BFF82000FEF778FA7948FEF7C4
:10444C00B9F871E712AC01A92000FEF731FC20008D
:10445C0006F07CF9041E03D001980378002B09D1D7
:10446C005B4B1B68002B03D06948FEF7A3F85BE796
:10447C006D48FAE722002100FFF776FE544B1B68CB
:10448C00002B03D06548FEF795F84DE76748FEF71B
:10449C0091F82000FEF74AFA6248FEF78BF843E7E2
:1044AC004B4B1B68002B03D06148FEF783F83BE7AE
:1044BC006048FAE76048FEF77DF8A2235B00E058FD
:1044CC00FEF734FA5D48FEF775F82000FEF772F837
:1044DC004548FEF76FF8A6235B00E458002C00D18A
:1044EC0022E701352800FEF721FAA0235B00E358F0
:1044FC00002BDFD05248FEF75DF8A0235B00E0589C
:10450C00FEF714FADEE74F4912A8FBF7D1FD041EA3
:10451C0017D04D4912A8FBF7CBFD041E00D1A5E026
:10452C0012AB1B78002B00D0EAE0484B01221A603A
:10453C00274B1B68002B00D1E0E03548FEF73AF81A
:10454C00F2E6019806F002F9002803D1019B1B78D2
:10455C00002B05D12A4B1B68002B0BD0284919E0E6
:10456C001B4B1B68002B03D02948FEF723F8DBE616
:10457C003748FAE7164B1B68002B03D02C48FEF784
:10458C0019F8D1E62B48FAE719004D31FF31A62274
:10459C0052009B58002B5DD00134A04206D000285D
:1045AC00F2D1A62252009A58002AEDD1A62252002E
:1045BC009A580A60180006F0D9F8054B1B68002BB6
:1045CC0052D01648FDF7F6FFAEE6C046642101084E
:1045DC003C1D0020BC1F010810060020D01F010844
:1045EC00C01F0108D81F0108801001086C210108A8
:1045FC00742101087C210108A0210108C41A0108BA
:10460C0014060020C0210108EC1F0108F01F01084E
:10461C005C1A01080420010820200108A80F0108D9
:10462C00842101089821010848200108A8210108CB
:10463C007020010878200108DC210108E421010820
:10464C00D4210108EC2101088C1F0108800A0020EC
:10465C008C200108364B1B68002B03D03548FDF726
:10466C00A9FF61E63448FAE73448ABE7019806F055
:10467C006DF8002803D1019B1B78002B0BD1304B1C
:10468C001B68002B16D12A4B1B68002B0DD02D4814
:10469C00FDF790FF48E6264B1B68002B03D02548FE
:1046AC00FDF788FF40E62848FAE72848F0E7A622FD
:1046BC0052009B58002B15D00134A04206D0002884
:1046CC00F5D1A62252009A58002AF0D1A42040001D
:1046DC00195801224A401A5001290DD01C48FDF7E7
:1046EC0069FF21E6124B1B68002B03D01148FDF724
:1046FC0061FF19E61048FAE71648F0E716481DE77F
:10470C00164B01221A600A4B1B68002B0AD0144866
:10471C00FDF750FF064B1B68002B05D01148FDF729
:10472C0049FF01E61048F3E712A8FDF743FFF5E750
:10473C003C1D00205C1A0108AC200108C8200108AF
:10474C0014060020FC200108DC2001087820010858
:10475C0004210108182101082C210108800A0020DD
:10476C00841A0108801001084821010870B5B94C61
:10477C00A5440190FFAC0C3401A92000FEF798FA77
:10478C00B5492000FBF794FC002832D1B34B1B68D1
:10479C00002B0BD101990B78002B16D1B04B1B6859
:1047AC00002B10D0AF48FDF705FF06E0AC4B1B68A3
:1047BC00002B06D0AC48FDF7FDFE8523DB009D44A5
:1047CC0070BDAA48F7E7AA48EDE7AA483222FCF7E1
:1047DC00CDFF002803D1A14B01221A60EDE7A04BBD
:1047EC001B68002B03D0A048FDF7E4FEE5E7A248C8
:1047FC00FAE7A249FFA80C30FBF75AFC002831D18C
:10480C00964B1B68002B09D1954B1B68002B03D0D2
:10481C009548FDF7CFFED0E79948FAE78F4B002279
:10482C001A609448FDF7D9FA00280CD08C4B1B6801
:10483C00002B06D08C48FDF7BDFE8E48FDF71BFB08
:10484C00BBE79048F7E78B48FDF715FB0028B4D081
:10485C00834B1B68002B03D08348FDF7ABFEACE702
:10486C008948FAE78949FFA80C30FBF721FC00289E
:10487C001DD17A4B1B68002B09D1794B1B68002B7F
:10488C0003D07948FDF796FE97E77D48FAE779481B
:10489C00FDF7A3FA002800D18FE7714B1B68002BA2
:1048AC0003D07148FDF786FE87E77648FAE778492A
:1048BC00FFA80C30FBF7FCFB061E07D07549FFA8C0
:1048CC000C30FBF7F5FB002800D044E1634B1B6870
:1048DC00002B01D002AC23E0614B1B68002B03D0F2
:1048EC006148FDF767FE68E76548FAE76D2B34D041
:1048FC00742B00D007E101F0E1FC020066492000B6
:10490C0007F028F82000FBF7DDFB019B1B78002B40
:10491C0000D10BE12C2323540130241800232370E5
:10492C00019B1B78002B00D102E1FFAD0C3501A9D6
:10493C002800FEF7BDF92B78632B58D0D6D84C2B1A
:10494C0000D1D4E0502B12D0272B00D0DBE0FFA9F4
:10495C000D31200007F023F9D4E701F0AFFC4F4BE9
:10496C001A68821A4C49200006F0F4FFCAE7FFA827
:10497C000D30FEF771F8002819D0494B1B685A1EF0
:10498C00022A2AD8474A1060474D00222A60474A1B
:10499C0047491160D8B2FDF7DFFF28680CF018FA10
:1049AC0002000B004349200006F0D4FFAAE72C4B71
:1049BC001B68002B0AD04048FDF7FCFD284B1B68F8
:1049CC00002B05D03D48FDF7F5FDF6E63C48F3E736
:1049DC00FFA80D30FDF7EEFDF4E7214B1B68002B13
:1049EC0003D02048FDF7E6FDE7E63648FAE7FFABD3
:1049FC000C335B78732B16D0FFAB0C335B78652BC9
:104A0C001CD0FFAB0C335B78612B65D0FFAB0C3348
:104A1C005B78742B00D075E72B4B1A681E4920006D
:104A2C0006F098FF6EE7294B18680CF0D1F90200DC
:104A3C000B002749200006F08DFFDDE7254B186899
:104A4C000CF0C6F902000B002149200006F082FF91
:104A5C00D7E7C046D8FBFFFF04230108CC03002096
:104A6C003C1D00205C1A0108441B0108F4210108BC
:104A7C0010220108D0030020302201080C23010869
:104A8C004C22010864220108802201081423010829
:104A9C001C2301082423010884100108100600209F
:104AAC00241D00205C1D00200C1D00202C0000206B
:104ABC00714200081C100108841A010880100108BA
:104ACC009C2201089C1E0108000600200C060020F8
:104ADC002C23010808060020344B18680CF078F9D8
:104AEC0002000B003249200006F034FF8EE73148FB
:104AFC00FDF749FD0CF06CF902000B002E4920006B
:104B0C0006F028FFFEE62D4B1B68002B0CD02C4822
:104B1C00FDF750FD294B1B68002B00D04DE6FFA87C
:104B2C000C30FDF747FD48E62648F1E70A23F2E68C
:104B3C00002E07D0214B1B68002B08D002A8FDF7D4
:104B4C0039FD3AE6204902A8FDF7C2FBF2E71F48FF
:104B5C00FDF730FDF2E7FFAB0C331B78002B0CD1CB
:104B6C001B4B01221A60154B1B68002B03D01448F9
:104B7C00FDF720FD21E61748FAE7154B01221A60D4
:104B8C000E4B1B68002B0AD01348FDF713FD0B4B83
:104B9C001B68002B05D01148FDF70CFD0DE61048E5
:104BAC00F3E7FFA80C30FDF705FDF4E70406002041
:104BBC002C230108140000201C1001083C1D0020AF
:104BCC005C1A0108B0220108D0030020342301082C
:104BDC00800A0020CC220108841A010880100108E8
:104BEC00E8220108F0B5C64600B51A4B1B68002B2D
:104BFC0005D0012B13D0002080BCB846F0BD164B5D
:104C0C00164A12681A60164C00232360154B164A7C
:104C1C001A60164B1878FDF79FFE2068ECE70E4BD8
:104C2C000E4A12681A600E4C002323600D4D0E4F75
:104C3C002F600E4E3078FDF78FFE236898462F605C
:104C4C0030680130C0B2FDF787FE2168404609F09C
:104C5C00DDFDD1E7BC0300205C1D0020B803002063
:104C6C000C1D00202C00002071420008B403002011
:104C7C0010B582B00E4B1B68002B01D002B010BDDA
:104C8C0008F044FF81B20B4C2068FEF797FC030040
:104C9C00094A1268103201A802706A4653711B0A45
:104CAC009371064B22681A600321FDF723FEE5E79A
:104CBC00B0030020AC030020A80300205C1D0020E2
:104CCC00F0B5D1B0079008AC07A92000FDF7F0FFB4
:104CDC00C0492000FBF7ECF9002831D10798037884
:104CEC00002B13D1BC4B1B68002B27D0BB4CBC4BEF
:104CFC0018680CF06DF802000B00210010A806F0EB
:104D0C0029FE10A8FDF756FC51B0F0BD05F019FDB9
:104D1C000CF0A6F8041CB04B1B68002B0CD0B14D4A
:104D2C00201C0CF055F802000B00290010A806F00E
:104D3C0011FEAB4B1C60E4E7AB4DF1E7AB4CD6E797
:104D4C00AB4908A8FBF7B4F9002830D107980378D1
:104D5C00002B12D1A04B1B68002B26D09F4CA54BCF
:104D6C0018680CF035F802000B00210010A806F0B2
:104D7C00F1FD10A8FDF71EFCC6E705F0E2FC0CF0F7
:104D8C006FF8041C944B1B68002B0CD0954D201C09
:104D9C000CF01EF802000B00290010A806F0DAFD3A
:104DAC00944B1C60E5E7944DF1E7944CD7E794499C
:104DBC0008A8FBF77DF9002830D107980378002B61
:104DCC0012D1854B1B68002B26D0844C8D4B186858
:104DDC000BF0FEFF02000B00210010A806F0BAFD3C
:104DEC0010A8FDF7E7FB8FE705F0ABFC0CF038F8EB
:104DFC00041C794B1B68002B0CD07A4D201C0BF03B
:104E0C00E7FF02000B00290010A806F0A3FD7D4B64
:104E1C001C60E5E77C4DF1E77C4CD7E77C4908A8A2
:104E2C00FBF746F9002830D107980378002B12D1F4
:104E3C00694B1B68002B26D0684C764B18680BF01E
:104E4C00C7FF02000B00210010A806F083FD10A87C
:104E5C00FDF7B0FB58E705F074FC0CF001F8041CEE
:104E6C005D4B1B68002B0CD05E4D201C0BF0B0FF73
:104E7C0002000B00290010A806F06CFD654B1C60AD
:104E8C00E5E7654DF1E7654CD7E7654908A8FBF701
:104E9C000FF9002830D107980378002B12D14E4B14
:104EAC001B68002B26D04D4C5E4B18680BF090FF06
:104EBC0002000B00210010A806F04CFD10A8FDF715
:104ECC0079FB21E705F03DFC0BF0CAFF041C424BBB
:104EDC001B68002B0CD0434D201C0BF079FF0200FB
:104EEC000B00290010A806F035FD4E4B1C60E5E7C1
:104EFC004D4DF1E74D4CD7E74D4908A8FBF7D8F8D5
:104F0C00002826D04B4908A8FBF7D2F8002800D17E
:104F1C00C7E0494908A8FBF7CBF8002800D02FE1DF
:104F2C0007980378002B00D010E12B4B1B68002B4B
:104F3C0000D123E1294C414B18680BF049FF0200CA
:104F4C000B00210010A806F005FD10A8FDF732FBA0
:104F5C00DAE608AC07A92000FDF7AAFE38492000C4
:104F6C00FBF7A6F8002816D1364B00221A600798DA
:104F7C00FDF772FD002875D0334B1860334B344A63
:104F8C0012681A60144B1B68002B00D17FE0154887
:104F9C00FDF710FBB8E62F4908A8FBF789F80028A5
:104FAC0003D1284B01221A60E1E70B4B1B68002B45
:104FBC000AD02948FDF7FEFA074B1B68002B05D0D9
:104FCC002648FDF7F7FA9FE62548F3E708A8FDF712
:104FDC00F1FAF5E7742701083C1D0020A423010811
:104FEC00C8030020A80F0108402301085023010822
:104FFC0050250108C4030020642301087423010810
:10500C0054250108C00300208823010898230108B7
:10501C00582501089C030020AC230108BC2301087F
:10502C00F81E010898030020D0230108E023010892
:10503C005C250108802501089C250108A40300209B
:10504C0064250108BC030020B8030020B403002031
:10505C00241D002068250108841A0108801001080D
:10506C00F4230108B14B1B68002B0AD0B048FDF7A4
:10507C00A1FAAE4B1B68002B05D0AE48FDF79AFA8F
:10508C0042E6AD48F3E70798FDF794FAF5E7AB482D
:10509C00FDF790FA0798FDF78DFAA648FDF78AFA06
:1050AC0032E608AC07A92000FDF702FEA449200057
:1050BC00FAF7FEFF00280ED09C4B1B68002B20D06B
:1050CC009B48FDF777FA994B1B68002B1BD099482E
:1050DC00FDF770FA18E69B4B00221A600798FDF753
:1050EC00BBFC002813D0984B1860984B984A126858
:1050FC001A608E4B1B68002B1ED09648FDF75AFA8F
:10510C0002E69548DDE708A8FDF754FADFE7874B80
:10511C001B68002B0AD08648FDF74CFA834B1B68A2
:10512C00002B05D08348FDF745FAEDE58B48F3E7F6
:10513C000798FDF73FFAF5E78948FDF73BFA079822
:10514C00FDF738FA7B48FDF735FADDE505F0F9FA9D
:10515C000BF086FE041C754B1B68002B0CD07D4D90
:10516C00201C0BF035FE02000B00290010A806F0E5
:10517C00F1FB7C4B1C60E8E67B4DF1E77B4CDAE6FF
:10518C007B4908A8FAF794FF00286ED1794B1B686D
:10519C00002B0BD06C4B1B68002B13D1634B1B6883
:1051AC00002B0DD07448FDF705FAADE55F4B1B687D
:1051BC00002B03D07048FDF7FDF9A5E56F48FAE721
:1051CC006F48F0E701F07AF86E4B1860FFF70AFDB4
:1051DC006D4B18606D4D2F68624B196809F016FB0A
:1051EC00041C28606A4909F0BFF96A4E316808F05E
:1051FC00DFFD051C3060684B1968201C09F0B4F900
:10520C00061C664B1968281C09F0AEF9011C301CF1
:10521C0008F0CEFD051C391C201C09F0F7FA604B78
:10522C00196809F0A1F95A4908F0D0FF011C281C93
:10523C0008F0BEFD5B4B18605B4B1C68211CFBF738
:10524C0023F9002801D0574B1C60564B1868574B5C
:10525C001C68211CFBF72CF9002801D0514B1C6059
:10526C00504B1868FFF704FD4EE5514908A8FAF7B2
:10527C001FFF002830D1434B1E68002E20D02B4B33
:10528C001B68002B26D04B4D10AC464B18680BF00E
:10529C009FFD049005913D4B18680BF099FD029011
:1052AC000391394B18680BF093FD0090019132007B
:1052BC002900200006F04EFB2000FDF77BF923E5CA
:1052CC001A4B1B68002B03D02B48FDF773F91BE519
:1052DC003948FAE7394DD7E708AB1B78002B0CD1CE
:1052EC00374B01221A60114B1B68002B03D022484C
:1052FC00FDF760F908E53348FAE7314B01221A60F3
:10530C000A4B1B68002B0AD00948FDF753F9074BD1
:10531C001B68002B05D00748FDF74CF9F4E42A482C
:10532C00F3E708A8FDF746F9F5E7C0463C1D002059
:10533C00841A0108801001080C2401086C2501084E
:10534C0084250108B0030020AC030020A803002032
:10535C00241D0020A80F0108242401083C24010866
:10536C008C250108A403002054240108682401089A
:10537C00A4250108B80300205C1A01088024010848
:10538C00A4240108000600200C06002008060020BA
:10539C006F12833AA0030020C8030020C40300202E
:1053AC00C0030020040600209C030020980300206A
:1053BC00A8250108E0240108C8240108F0240108EC
:1053CC00800A0020182501083425010810B5CAB040
:1053DC00019042AC01A92000FDF76AFC1E49200097
:1053EC00FAF766FE00281BD01C4942A8FAF760FEAB
:1053FC0000281AD01A4942A8FAF75AFE002812D1EE
:10540C001848FDF7C0F80BF0E3FC02000B0016493E
:10541C0002AC200006F09EFA2000FDF7CBF802E06B
:10542C001048FDF769F84AB010BD42AC01A9200044
:10543C00FDF73EFC200005F084F90BF011FD041C77
:10544C00019805F07EF90BF00BFD021C054B211C9D
:10545C001800FDF7A5F8E6E7B0250108B825010806
:10546C00C025010814000020C825010810B58AB019
:10547C00019002AC01A92000FDF71AFC094920009B
:10548C00FAF716FE002801D00AB010BD01A92000C1
:10549C00FDF70EFC200005F059F9019805F056F9BE
:1054AC00F2E7C046101E010810B50C48FDF782F853
:1054BC000B490C480122FCF727F9002806D10A48B1
:1054CC00FDF778F8094B01221A6010BD0848FDF76A
:1054DC0071F8064B00221A60F7E7C046D825010880
:1054EC00382801084C080020002601087C0A0020FE
:1054FC00F025010810B5064900220020FCF704F93C
:10550C000448FDF757F8044B00221A6010BDC04642
:10551C0038280108142601087C0A002010B5C2B0F6
:10552C000E4841AA40A9FCF742FD002811D1419B2D
:10553C005A69023A59894A43409B4B43DB0AD20AC7
:10554C000749684606F006FA6846FDF733F842B09C
:10555C0010BD0448FDF72EF8F9E7C04638280108BD
:10556C003C2601082826010810B58AB0019002AC2F
:10557C0001A92000FDF79CFB2E492000FAF798FDAD
:10558C0000280BD12C4B1B68002B04D02B48FDF7AB
:10559C0011F80AB010BDFFF787FFFAE7284902A8F7
:1055AC00FAF786FD00280AD1234B1B68002B02D08A
:1055BC00FFF7B4FFEDE72348FCF7FCFFE9E72249CE
:1055CC0002A8FAF775FD00280AD11B4B1B68002BAB
:1055DC0002D0FFF78FFFDCE71A48FCF7EBFFD8E7A8
:1055EC0002AB1B78002B0CD1184B01221A60184B04
:1055FC001B68002B03D01748FCF7DCFFC9E71648E3
:10560C00FAE7124B01221A60114B1B68002B0AD0CF
:10561C001248FCF7CFFF0E4B1B68002B05D010482F
:10562C00FCF7C8FFB5E70F48F3E702A8FCF7C2FF89
:10563C00F5E7C046B02501087C0A0020BC2601080D
:10564C00DC260108E426010800270108800A002056
:10565C003C1D00205C1A010884260108841A0108EC
:10566C0080100108A026010830B59BB001908A4B30
:10567C001B68002B42D004008849FAF719FD00285A
:10568C0018D1874B1B68002B12D08649864C226898
:10569C0002AD280006F05EF92800FCF78BFF002312
:1056AC0023607D4A13608148FCF7E5FB1BB030BDDD
:1056BC007F49EBE72000FAF705FD02000A2323548B
:1056CC000132019B9B18002119700199774802AB9C
:1056DC00FCF743FA00280CD0714B1B68002B06D04A
:1056EC007448FCF767FF7148FCF777FBDEE77248FC
:1056FC00F7E76D4A136801331360F4E712AC01A9A4
:10570C002000FDF7D5FA6D4B00221A606C49200081
:10571C00FAF7CEFC002869D06A4912A8FAF7C8FC3F
:10572C00002867D0684912A8FAF7C2FC002865D097
:10573C00664912A8FAF7BCFC002863D0644912A889
:10574C00FAF7B6FC002861D0624912A8FAF7B0FC4F
:10575C0000285FD0604912A8FAF7AAFC00285DD097
:10576C005E4912A8FAF7A4FC00285BD05C4912A889
:10577C00FAF79EFC002859D05A4912A8FAF798FC5F
:10578C00002857D0584912A8FAF792FC002855D097
:10579C00564912A8FAF78CFC002853D0544912A889
:1057AC00FAF786FC002851D0524912A8FAF780FC6F
:1057BC0000284FD0504912A8FAF77AFC00284DD097
:1057CC004E4912A8FAF774FC002800D16EE712AB10
:1057DC001B78002B48D1394B01221A60304B1B68C7
:1057EC00002B3FD04648FCF7E5FE5FE70198FDF73C
:1057FC0093FA5BE70198FDF79BFA57E70198FDF7E1
:10580C0011FB53E70198FDF749FC4FE70198FFF7AF
:10581C00ABFE4BE7019800F07DF847E70198FDF7E8
:10582C0013FF43E70198FEF79DF93FE70198FEF758
:10583C0047FD3BE70198FEF717FC37E70198FEF7A9
:10584C008BFA33E70198FEF791FF2FE70198FFF7EA
:10585C0037FA2BE70198FFF7B9FD27E70198FFF717
:10586C0005FE23E72748BEE7144B01221A600C4BB8
:10587C001B68002B0AD02448FCF79CFE084B1B68C5
:10588C00002B05D02148FCF795FE0FE72048F3E7E5
:10589C0012A8FCF78FFEF5E7180600206C2701080C
:1058AC003C1D002008270108940300201C06002042
:1058BC0010270108441B010828270108800A002032
:1058CC007827010880270108842701088C27010804
:1058DC00942701089827010884250108A0270108AE
:1058EC00A4270108AC27010864250108B02701088A
:1058FC00B4270108BC270108C0270108C8270108E4
:10590C005C1A010844270108841A01088010010858
:10591C005827010870B5C34CA5440190C24B1B68B5
:10592C00002B47D0C14B1B68002B05D0C049DEA80B
:10593C00FAF7BEFB002841D1DEAC01A92000FDF72F
:10594C00B7F9BC492000FAF7B3FB00283AD0BA49A2
:10595C00DEA8FAF7ADFB00283AD0B849DEA8FAF772
:10596C00A7FB041E41D0B649DEA8FAF7A1FB061E20
:10597C0000D171E0B349DEA8FAF79AFB002800D1F8
:10598C00A4E0B149DEA8FAF793FB002800D00AE1A5
:10599C00019B1B78002B01D1AC4B01930199012287
:1059AC00E6A8FBF7E3FE002800D1E6E0A848FCF7E8
:1059BC0001FE09E0A748FCF7FDFD05E0A648FCF751
:1059CC00F9FDB9E7FEF7FEFAB923DB009D4470BD83
:1059DC000198FCF768FB002803D1A048FCF7EAFD0E
:1059EC00F2E79B48FCF7E6FDEEE701990122E6A8F9
:1059FC00FBF7BCFE002803D19948FCF7DBFD15E052
:105A0C009348FCF7D7FDDFE7002D21D001349549F1
:105A1C0002AD2200280005F09DFF2800FCF7CAFD0E
:105A2C0052A8FCF7C7FD9048FCF7C4FDA02152AE6C
:105A3C00E6AA49003000FCF722FC05003000FAF71A
:105A4C0041FB0138335C0A2BDED100223254DBE7F8
:105A5C00E6A8FCF710FAB7E701990122E6A8FBF7D4
:105A6C0085FE002803D17E48FCF7A4FD18E0784899
:105A7C00FCF7A0FDA8E7002C24D00136794902AC34
:105A8C003200200005F066FF2000FCF793FD52A8C1
:105A9C00FCF790FD7448FCF78DFD142000F014FC0D
:105AAC00A02152ADE6AA49002800FCF7E8FB04004F
:105ABC002800FAF707FB01382B5C0A2BDBD10022FC
:105ACC002A54D8E7E6A8FCF7D6F97DE701A9DEA8A9
