:020000040800F2
:1000000000780020011E0008FD050008FF0500081B
:1000100000000000000000000000000000000000E0
:1000200000000000000000000000000001060008C1
:10003000000000000000000003060008050600089C
:10004000511E000800000000511E0008511E00084B
:10005000511E0008511E0008511E0008511E0008C4
:1000600000000000511E0008511E0008511E00082B
:10007000511E0008511E0008511E0008511E0008A4
:10008000511E00080000000000000000511E000882
:10009000511E0008511E0008511E0008511E000884
:1000A000511E0008511E0008511E0008511E000874
:1000B000511E0008511E0008511E0008511E000864
:1000C000002934D00123002210B488422CD301240B
:1000D0002407A14204D2814202D209011B01F8E7A0
:1000E000E400A14204D2814202D249005B00F8E759
:1000F000884201D3401A1A434C08A04202D3001B85
:100100005C0822438C08A04202D3001B9C082243B7
:10011000CC08A04202D3001BDC082243002803D0F5
:100120001B0901D00909E3E7100010BC704701B5B5
:10013000002000F00BF802BD0029F8D003B5FFF74E
:10014000C1FF0EBC4243891A1847C0467047C046DB
:1001500010B5064C2378002B07D1054B002B02D09D
:10016000044800E000BF0123237010BD0C000020F4
:1001700000000000AC1E0008044B10B5002B03D09B
:100180000349044800E000BF10BDC0460000000065
:1001900010000020AC1E0008BFF34F8F034B044A31
:1001A000DA60BFF34F8FC046FDE7C04600ED00E0C8
:1001B0000400FA05F0B5D6464F464646C0B588B0AD
:1001C00003AC14220021200001F043FE2B4B596B9D
:1001D000022211435963596B0A400092009A596BED
:1001E000042211435963596B0A400192019A5A6BD8
:1001F000012632435A635B6B33400293029B204BD0
:100200009A4601228021180000F042FFC0231B0201
:1002100099461C4B984601224946180000F038FFC9
:10022000A027FF0500220321380000F031FF012242
:100230001021380000F02CFF802303930496002542
:10024000059506952100504600F044FE4B46039369
:100250000496059506952100404600F03BFE1323C9
:1002600003930496059506952100380000F032FEB0
:1002700008B0E0BCBA46B146A846F0BD0010024046
:100280000004005000080050F0B5C64600B582B02A
:1002900004000E0017001D0000223900300000F09D
:1002A000F7FE01235B42042201A9200001F0C0FCFB
:1002B000040001223900300000F0EAFE002C2AD1AF
:1002C00001AB1A781206597809040A439978090291
:1002D0000A43DB781343100C012101402971900C73
:1002E000020080218901084201D00D490A432A8079
:1002F000190908B20A05120D090501D5094A024378
:100300006A80012211001940697159081140A971D0
:100310009B081A40EA71200002B080BCB846F0BDCC
:1003200000C0FFFF00F0FFFF70B58AB004000D00B1
:1003300001AE24220021300001F08BFD96235B00EA
:1003400001930495054801F007F90028FAD0034805
:10035000220001A901F01AF80AB070BD8C0000203B
:1003600072B6FEE710B51048104B036000234360DF
:100370008360C36001220274437483740421416169
:1003800082610931C1610B39016242628262C262DB
:10039000026342638363C36300F0F6FE002800D16A
:1003A00010BDFFF7DDFFC0468C0000200064004058
:1003B00010B51048104B036082235B00436000239C
:1003C0008360E022D200C260036143618022920018
:1003D0008261C361036243628362FA3AFF3AC26296
:1003E00003630833436301F02FFA002800D110BDE6
:1003F000FFF7B6FF280000200030014010B58CB098
:1004000005AC1C220021200001F023FD1422002154
:10041000684601F01EFD134A136807218B431360E1
:1004200002230593FE33089380235B010993402345
:100430000A93200000F04CFA00280ED168460723EA
:10044000009300230193029303930493002100F08F
:10045000D5FB002803D10CB010BDFFF781FFFFF7DB
:100460007FFFC0460020024010B590B000F0ACF90C
:10047000FFF7C4FFFFF79EFEFFF774FFFFF798FF3B
:100480005A4800F06DFF33E0FF2B31D1022102A862
:10049000FFF74AFF0A2000F0B5F9FFF77DFE02A83A
:1004A000032343700221FFF73FFF21E050486B46D2
:1004B00080225049FFF7E8FE38E080224C486B4626
:1004C000D2014D49FFF7E0FE34E0802248486B46F8
:1004D00012024949FFF7D8FE30E009226A446B4610
:1004E0001B8813701B0A5370032102A8FFF71CFF1F
:1004F0003E48402101F022F80028F9D004AC3B48E6
:10050000230006AA402100F06BFF237802AA137093
:1005100000215170062BB7D8042B18D2002BBED067
:100520005A1ED2B2022AE3D8012BBFD004AB1B78EB
:10053000022BC2D004AB1B78032BC6D06B461B79B1
:10054000002BCAD002ABFF225A709A70CCE7042B62
:1005500035D004AB1B78052B38D004AB1B78062BA9
:100560003CD002AB00225A706B46DB79002B02D0E4
:1005700002AB01325A706B465B79002B04D002AAA1
:10058000517802230B4353706B469B79002B04D0A8
:1005900002AA517804230B4353706B461B79002B3E
:1005A00004D002AA517808230B4353706B460222F1
:1005B0009B5E02A843800421FFF7B6FE98E70C4833
:1005C0006B4680220B49FFF75FFEC2E78022084896
:1005D0006B46D2010849FFF757FEBEE78022044868
:1005E0006B4612020449FFF74FFEBAE78C00002069
:1005F000280000200004005000080050FEE7FEE73D
:100600007047704710B500F0EBF810BD82B00A4B90
:10061000196C012211431964196C0A400092009A66
:10062000DA6B802149050A43DA63DB6B0B400193E7
:10063000019B02B07047C04600100240F0B591B077
:100640000400142200210BA801F003FC2022002149
:1006500003A801F0FEFB2268214B9A4201D011B0A1
:10066000F0BD03A810230393F033436100F08EFB29
:10067000002831D11B4BDA6B802149010A43DA6330
:10068000DA6B0A400092009A586B012210435863BB
:10069000586B02400192019A5A6B022632435A6308
:1006A0005B6B33400293029B0BAC0B910C960025C5
:1006B0000D950E9504270F97A0202100C00500F08E
:1006C00009FC20230B930C960D950E950F97210096
:1006D000054800F0FFFBC2E7FFF742FECAE7C0464D
:1006E00000640040001002400004005010B590B0BB
:1006F0000400142200210BA801F0ABFB20220021F2
:1007000003A801F0A6FB2268174B9A4201D010B053
:1007100010BD0423039303A800F038FB00281FD169
:10072000124B1A6C802149010A431A641A6C0A4060
:100730000192019A596B0122114359635B6B1A4074
:100740000292029B0BA9E0230B93DE3B4B6000233C
:100750008B60CB600B61A020C00500F0BBFBD6E72F
:10076000FFF7FEFDDCE7C04600300140001002400C
:1007700010B50400114B1978002901D1012010BDDA
:10078000FA208000FFF79CFC01000D4B1868FFF772
:1007900097FC00F099F800280DD1032C01D9012015
:1007A000EDE7013000222100404200F089F8054BBE
:1007B0001C600020E3E70120E1E7C04600000020C4
:1007C000080000200400002010B50320FFF7D0FF30
:1007D000041E02D00124200010BDFFF717FFFAE726
:1007E000034B1B78034A11685B1813607047C046BF
:1007F00000000020F0000020014B18687047C04640
:10080000F000002070B50400FFF7F6FF0500631C40
:1008100002D0044B1B78E418FFF7EEFF401BA04208
:10082000FAD370BD0000002070B5002811DB8308EA
:10083000134DC0339B005C5903221040C000FC32B2
:1008400016008640B44389010A40824022435A512F
:1008500070BD0F230340083B9B0806339B00094AE9
:10086000944663445C6803221040C000FC321500CB
:100870008540AC4389010A40824022435A60E7E741
:1008800000E100E000ED00E0013880235B049842C5
:100890000FD2094A50600948036A1B021B0AC02193
:1008A00009060B43036200239360073313600020A3
:1008B00070470120FCE7C04610E000E000ED00E0DA
:1008C00010B5FFF7B1FF10BD10B5FFF7DDFF10BD8C
:1008D00070B5041E00D139E10368DB072CD5A14BAC
:1008E0009A6838231340082B22D043688022520292
:1008F00093422ED0A022D202934231D0994B1A6853
:1009000099490A401A601A6898490A401A6063684F
:10091000002B31D0FFF770FF0500924B1B689B0343
:100920000AD4FFF769FF401B6428F6D903200EE1C3
:100930004368002B00D10BE123689B0747D5894B07
:100940009B6838221A4261D1E368002B22D1012032
:10095000FDE0844A116880235B020B431360D6E7F5
:10096000804B19688022D2020A431A6019688022DB
:1009700052020A431A60CAE7FFF73EFF0500794BAF
:100980001B689B03D8D5FFF737FF401B6428F6D9B7
:100990000320DCE0734B5A6875490A40616909021B
:1009A0000A435A601A6873490A4021690A431A6067
:1009B0001B68DB0A07221A406F4BD3406F4A136053
:1009C0006F4B1868FFF7D4FE002800D0C2E0236800
:1009D0001B0757D5634B9A6838231340182B4ED00A
:1009E000A369002B77D05F4A136E01210B43136676
:1009F000FFF702FF05005B4B1B6E9B0742D4FFF71E
:100A0000FBFE401B0228F6D90320A0E0E368002B80
:100A100022D0544A136857490B4021690B43136095
:100A2000116880235B000B431360FFF7E5FE0500B0
:100A30004C4B1B685B0506D4FFF7DEFE401B02280B
:100A4000F6D9032083E047494B68494A134062695D
:100A5000120213434B60BAE7424A136849490B40FC
:100A60001360FFF7C9FE05003E4B1B685B05AED562
:100A7000FFF7C2FE401B0228F6D9032067E0A369F6
:100A8000002B69D023685B0768D5364B9A683823FA
:100A90001340202B32D0A368012B34D0052B38D043
:100AA000304BDA6D01218A43DA65DA6D03318A430E
:100AB000DA65A368002B38D0FFF79EFE0400294BAF
:100AC000DB6D9B072FD4FFF797FE001B2E4B984240
:100AD000F5D903203BE0234A136E01218B431366B3
:100AE000FFF78AFE05001F4B1B6E9B07CAD5FFF759
:100AF00083FE401B0228F6D9032028E0A368002BC0
:100B00002ED0002023E0174AD36D01210B43D3657B
:100B1000CFE7144BDA6D04210A43DA65DA6D033945
:100B20000A43DA65C5E7002011E0FFF765FE04001F
:100B30000C4BDB6D9B0707D5FFF75EFE001B124BCE
:100B40009842F5D9032002E0002000E0012070BDAA
:100B50000120FCE70120FAE70120F8E70020F6E792
:100B60000120F4E700100240FFFFFEFFFFFFFBFF44
:100B7000FF80FFFFFFC7FFFF006CDC0208000020C2
:100B800004000020FFFEFFFF8813000010B5184A84
:100B900013689B08072119400131936838221A42D3
:100BA00009D1134B1A68D20A072313401148D840C1
:100BB000FFF786FA10BD0E4B9A6838231340082BB6
:100BC00010D00B4B9A6838231340202B0CD0084BC5
:100BD0009A6838231340182B01D00020E8E7FA2048
:100BE000C001E5E70448E3E780200002E0E7C046F3
:100BF00000100240006CDC0200127A0070B50400A4
:100C00000D00002800D1AAE0574B1A6807231340B3
:100C10008B4228D323689A0710D55B0707D5534921
:100C20008A68534B1A40B0231B0113438B604F4A11
:100C3000936850490B40E1680B4393602368DB07DE
:100C400052D54A4A13681C218B43A1680B43136099
:100C50006368012B1ED0002B38D1444A126852051C
:100C60001BD4012063E0404A136807218B432B43C8
:100C70001360FFF7C1FD06003B4B1A6807231340C2
:100C8000AB42C7D0FFF7B8FD801B3B4A9042F3D977
:100C900003204CE01268920363D534498A68072028
:100CA000824313438B60FFF7A7FD06002F4B9B6821
:100CB00038221A406368DB009A4215D0FFF79CFD8A
:100CC000801B2D4B9842F1D9032030E0032B05D037
:100CD000264AD26D9207E0D4012028E0234A126E02
:100CE0009207DAD4012022E01F4B1A680723134031
:100CF000AB421DD823685B0706D51C4A93681F4981
:100D00000B4021690B439360FFF740FF174B9A6834
:100D1000120A0F2313401A4A9B009A581F231340AC
:100D2000D840184B1860184B1868FFF721FD70BDAC
:100D30000D4A136807218B432B431360FFF75CFDBB
:100D40000600094B1A6807231340AB42D2D0FFF7C5
:100D500053FD801B084B9842F3D90320E7E701209D
:100D6000E5E70120E3E7C046002002400010024012
:100D7000FF84FFFFFFF0FFFF88130000FF8FFFFFDE
:100D8000D41E0008080000200400002070B582B0C6
:100D9000040003685B0650D5474BDB6BDB0035D4A2
:100DA000454BDA6B802149050A43DA63DB6B0B4064
:100DB0000193019B0125404BD96DC02292000B008D
:100DC0001340114235D0E2699A420DD03A4AD36DB0
:100DD0003A490B40D06D802149020143D165D16D64
:100DE00037480140D165D365DB0711D4324AD36D52
:100DF00032490B40E1690B43D3650020012D1DD121
:100E00002D4AD36B2F490B40D36317E00025D2E75F
:100E1000FFF7F2FC0600284BDB6D9B0707D4FFF7BA
:100E2000EBFC801B284B9842F5D9032002E0002000
:100E300000E000200028E1D1D8E700202368DB078C
:100E400006D51D4A536D03218B43A1680B4353659F
:100E500023689B0706D5184A536D1C490B40E1686F
:100E60000B43536523689B0606D5134A536D9B00BD
:100E70009B08A1690B4353652368DB0606D50E4A20
:100E8000536D0E490B4061690B43536523685B0743
:100E900006D5094A536D0E490B4021690B43536532
:100EA00023681B0606D5044A1368E0218B4361685A
:100EB0000B43136002B070BD00100240FFFCFFFF47
:100EC000FFFFFEFFFFFFFFEF88130000FFCFFFFFD4
:100ED000FF3FFFFFF0B5D6464F464646C0B500235C
:100EE0003BE0052500E00025A5402C003C43634D78
:100EF0001832920054518022AF584A46D2433D00E6
:100F00004C46A5434C68E40302D53D004C462543BE
:100F10005A4C8027E551842567593D0015404C689F
:100F2000A40302D53D004C462543544C8427E5518B
:100F300027683D0015404C68E40202D53D004C4650
:100F400025434E4C256065682A404C68A40201D5B3
:100F50004A462A43494C626001330C682200DA4059
:100F600000D186E001229A4026001640B146144284
:100F7000F2D04C68022C01D0122C18D1DD080835B3
:100F8000AD002C58A44607271F40BF000F24A246DF
:100F90002600BE40B04666464446A643B4460C69A9
:100FA000564626403400BC40664634432C50046804
:100FB000A4465D000324A2462700AF40B846FF4385
:100FC00066464446A643B4464C685646264034001E
:100FD000AC406646344304604C68661E012E03D95B
:100FE000112C01D0122C12D184683C40A446CC684C
:100FF000AC40664634438460446894434A681209AE
:1010000094460122664632409A40224342604A6832
:10101000032A05D0C4683C408A68AA402243C260C3
:101020004A68D20098D59A0814001834A400134DC9
:10103000675903241C40E4000F25A540AF43A025B9
:10104000ED05A84200D14EE70D4DA8420BD00D4D45
:10105000A8420AD00C4DA84209D00C4DA84200D19C
:101060003FE7062540E701253EE702253CE703254B
:101070003AE7E0BCBA46B146A846F0BD00180240C7
:101080000004005000080050000C005000140050F4
:10109000002A01D0816170478162FCE730B5124BB4
:1010A0000364056880216A58104C2240446B240474
:1010B00022436A500E4A426405686A580D4C224029
:1010C000846B240622436A500B4A82640B4AC26432
:1010D0000B4A02650B4A426501E0002204C30A4A3A
:1010E0009342FAD930BDC04600B40040FFFFE0FF94
:1010F00070B40040FFFFFFF0B0B4004088B500407E
:1011000060B6004078B600404FB70040F0B51F0011
:101110004B68002B1AD10D698B681D430B689B042B
:101120001D430C6A2406CB691C438B691C434B6925
:101130001C43CB681B041C43466DFB00DB19DB0022
:10114000F618356074600836002015E00B698C686D
:1011500023430C6823438025ED051D43E1E7141864
:10116000E3781B06A5782D042B43647824022343DF
:10117000145C234308C60430CB68024CE35C834212
:10118000EDD8F0BDC41E000870B5041E00D1DCE02F
:101190005C23C35C002B19D02268936910218B4318
:1011A0009361FFF729FB0500226893691B0713D59C
:1011B000FFF722FB401B0A28F6D9236E01221343B6
:1011C00023665C230232E254012070BD5D330022AD
:1011D000C254FFF733FADFE7936901210B439361B0
:1011E000FFF70AFB050022689369DB070DD4FFF7C0
:1011F00003FB401B0A28F6D9236E01221343236602
:101200005C230232E2540120DFE7936902210B43A1
:10121000936162684E4B1A60237C012B40D0226898
:10122000936940210B439361637C012B3ED022687C
:10123000936948490B409361A37C012B3DD0226800
:10124000916980235B010B43936122689369424952
:101250000B40A1680B43936122689369A4218B43DF
:1012600093612268136994398B431361E368012BFE
:1012700029D0002B2CD0022B50D0226893698021DA
:101280000B4393612268136970390B431361E36860
:10129000032B1DD12268936910310B43936117E032
:1012A000226893693E318B439361BDE7226891695F
:1012B0008023DB010B439361BEE7226893692749D2
:1012C0000B409361C1E7226893690C390B4393612A
:1012D000A369013B5B06E269013A12021343226AE9
:1012E000013A13436269013A120421681343CB6146
:1012F000A268C0239B009A4216D02168C0228B5856
:10130000E06B03438B502000FFF7C8FE0023A3656A
:1013100023665C330122E254002056E72268936979
:1013200020210B439361D3E7A36A013BE26A013AB0
:1013300012021343226B013A12011343626A013A0B
:10134000120421681343CB60D7E701203DE7C04674
:1013500000650040FFBFFFFFFFFCFFFFFFEFFFFF47
:101360005C23C35C012B05D0036E04221343036688
:10137000012070475B330222C25402689369012145
:101380008B439361002303660020F2E770B50400ED
:101390005C23C35C022B1CD10068C233C3589B0280
:1013A00006D5226E80239B0013432366012015E09F
:1013B000C423C3581B0C03251D402B002000FFF73E
:1013C000A5FE21680123AB40CC228B50A3650020F1
:1013D00004E0036E082213430366012070BD000081
:1013E000F0B55C24045D022C00D09FE040290BD0B6
:1013F0000468982565592D0731D1026E80235B0062
:1014000013430366012096E00468902565592D0773
:1014100006D1026E80235B001343036601208AE03D
:101420009025665980256D0437002F402E4208D044
:10143000802566598135FF3537002F402E4200D078
:101440000127902565592D0A03242C40BC46A4444D
:10145000856C6446E4006444E4002D191CE0982582
:10146000665980256D0437002F402E4207D0802515
:101470006659803537002F402E4200D0012798252D
:1014800065592D0A03242C40BC46A444C56C64460F
:10149000E4006444E4002D192C688026F6053440ED
:1014A000546028D12C68A40C6405640D14602C6869
:1014B0008026B605344094602C68E40FE40714617C
:1014C0006C682404240CD461EE880F243440D4606A
:1014D0006C6880267603344054616C688026B603BD
:1014E00034409461EE797F24344014626C68E40FD8
:1014F0005462002408E02C68E400E4081460D6E795
:101500002E19367A1E550134D6680B4FBE5DA642A1
:10151000F6D8402905D002689C236146D1500020AE
:1015200009E0026894236146D150F8E7036E08226F
:10153000134303660120F0BDC41E0008402905D0F6
:1015400002689823D3580F201840704702689023F0
:10155000D3580F201840F8E70268C423D358072057
:1015600018407047F0B5D6464F464646C0B582B0E3
:1015700006000D0090461F00FFF73EF90A9B181A5F
:101580008146B944FFF738F982462C4B1B685B0152
:101590001B0D4A465343019333689C682C40641BDF
:1015A00063425C41444542D07B1CF5D0FFF724F9EF
:1015B0005346C01A484508D2019A002A00D04A462C
:1015C000019B013B01939146E6E732685368E021B5
:1015D0008B435360726882235B009A420CD0B26ADC
:1015E00080239B019A4216D05D230122F254013BD5
:1015F0000022F25403201BE0B368802212029342BF
:1016000003D08022D2009342E9D13268136840218E
:101610008B431360E3E73268136809490B4013609A
:101620003268116880239B010B431360DCE70020C4
:1016300002B0E0BCBA46B146A846F0BD08000020A2
:10164000FFDFFFFFF0B5DE4657464E464546E0B5A4
:1016500083B007000D00160098466B460022DA7032
:10166000FFF7CAF80C9B181A40448146FFF7C4F8EC
:1016700082463B689B46344B1B689A00D218D300C5
:101680009B1A1B0D4A465343019302E04346013324
:1016900011D13B689C682C40B4424DD0C023DB0084
:1016A0009D42F3D1002EF1D15B461B7BDBB26A4633
:1016B000D370D378EAE7FFF79FF85346C01A48453E
:1016C00008D2019A002A00D04A46019B013B0193AF
:1016D0009146DEE73A685368E0218B4353607A68AD
:1016E00082235B009A420CD0BA6A80239B019A4203
:1016F00016D05D230122FA54013B0022FA54032044
:101700001BE0BB6880221202934203D08022D200E9
:101710009342E9D13A68136840218B431360E3E7B1
:101720003A68136809490B4013603A6811688023CE
:101730009B010B431360DCE7002003B0F0BCBB4609
:10174000B246A946A046F0BD08000020FFDFFFFF1B
:1017500070B582B004000D001600C02100922B006D
:1017600000224901FFF76EFF002818D100962B00D8
:10177000002280212000FFF7F5FE002816D1C021AD
:1017800000962B000022C9002000FFF75BFF002815
:101790000AD0236E202213432366032004E0236E25
:1017A000202213432366032002B070BD236E202243
:1017B000134323660320F7E770B582B004000D00E1
:1017C0001600426882235B009A420FD000962B00DD
:1017D000002280212000FFF7C5FE002815D1626895
:1017E00082235B009A4216D002B070BD83688022CB
:1017F0001202934203D08022D2009342E6D12268A3
:10180000136840218B431360E0E7236E20221343CB
:1018100023660320E8E7A36880221202934203D0E4
:101820008022D2009342DFD1C02100962B000022FB
:10183000C9002000FFF706FF0028D5D0236E202224
:10184000134323660320CFE770B5041E00D178E070
:10185000436A002B07D142680533FF339A4205D013
:101860000023C36102E00023036143610023A362FC
:101870005D33E35C002B5AD05D230222E2542268E0
:10188000136840218B431360E368E022D200934247
:1018900054D90022F02109018B4205D0E021C90072
:1018A0008B4201D00023A3626368822149000B4070
:1018B000A1688420000201400B43206902210140FD
:1018C0000B436069012108400343A0698025AD00F6
:1018D00028400343E569382028400343256A8020D7
:1018E00028400343A06A8025AD01284025680343B2
:1018F0002B60608B04230340656A1020284003435B
:10190000656B082028400343E068F0252D0128403E
:1019100003432068134343602268D3690A480340A5
:10192000D361002323665D33E154002070BD5C3336
:101930000022E2542000FEF7D9FE9DE780225201EA
:10194000A8E70120F2E7C046FFF7FFFFF0B5CE465B
:1019500000B582B00400894601921F00089DFEF781
:101960004BFF06005D23E35CD9B26268012B0BD00C
:1019700082235B009A4200D046E1A368002B00D08E
:1019800047E1042900D046E14B46002B00D144E159
:10199000019B002B00D142E1002F00D141E15C23EB
:1019A000E35C012B00D13EE15C230122E2540133D0
:1019B000E35C042B02D05D230432E254002323664F
:1019C000019A22644622A752023AA7524A46A263CB
:1019D000E787A787E3642365E268E023DB009A4298
:1019E00001D8012F23D92268536890490B405360D6
:1019F00023681A68520603D41A6840210A431A6001
:101A0000E268E023DB009A4258D96368002B01D0DA
:101A1000012F0AD1A26B23681288DA60A36B02330C
:101A2000A363E38F013B9BB2E38701272CE022688D
:101A3000516880235B010B435360D9E7A36B1B887C
:101A4000D360A36B0233A363E38F013B9BB2E387B5
:101A5000002722689368DB070FD54623E35A002B43
:101A60000BD0D268236C1A80236C02332364462285
:101A7000A35A013B9BB2A3520127FEF7BDFE801B78
:101A8000A84201D36B1C11D1E38F002B04D1463344
:101A9000E35A002B00D19EE0226893689B07D8D5BB
:101AA000E38F002BD5D0012FD3D1C7E75D230122CF
:101AB000E254013B0022E2540320A6E06368002BBD
:101AC00001D0012F0DD1E38F012B0CD9A26B23681C
:101AD0001288DA60A36B0233A363E38F023B9BB2ED
:101AE000E387012743E0A26B236812781A73A36B84
:101AF0000133A363E38F013B9BB2E387F1E7E38FFD
:101B0000012B0BD9A36B1B88D360A36B0233A36398
:101B1000E38F023B9BB2E387002738E0A36B1B787F
:101B20001373A36B0133A363E38F013B9BB2E38782
:101B300000272CE02268516880235B010B4353602F
:101B400001270BE0236C127B1A70236C0133236492
:101B50004622A35A013B9BB2A3520127FEF74CFE3B
:101B6000801BA84201D36B1C2DD1002D2BD0E38FFD
:101B7000002B03D14633E35A002B2CD02268936804
:101B80009B0704D5E38F002B01D0012FB7D022682B
:101B90009368DB07E2D54623E35A002BDED04623C9
:101BA000E35A012BCED9D268236C1A80236C0233FE
:101BB00023644622A35A023B9BB2A352A35A012B91
:101BC000B8D90127CAE75D230122E254013B002274
:101BD000E254032019E0320029002000FFF7B8FD8D
:101BE00000280AD15D230122E254013B0022E25485
:101BF000236E002B09D0012007E0202323663C330D
:101C00000022E254012000E0022002B080BCB9466C
:101C1000F0BD0220F9E70220F7E70120F5E70120F7
:101C2000F3E70120F1E70220EFE7C046FFEFFFFFF7
:101C3000F0B5CE46474680B583B00400894690464D
:101C40001D005D23C35CDFB2012B00D0C2E04268FF
:101C50000433FF339A4202D18368002B40D0FEF751
:101C6000CBFD06004B46002B00D1B4E04346002BD1
:101C700000D1B0E05C23E35C012B00D1B1E05C2338
:101C80000122E25401330332E254002323664A4620
:101C9000226444224146A1520232A152A363A38787
:101CA000E387E3642365E268E023DB009A4221D9FD
:101CB000226853684C490B405360A26880231B0282
:101CC0009A421ED0226813685B0603D41368402131
:101CD0000B431360E268E023DB009A4225D949E018
:101CE0005D330422C254009543460A00FFF72EFEDE
:101CF000070070E02268516880235B010B4353604A
:101D0000DBE72268136840218B4313602268136865
:101D100036490B401360D5E7FEF76EFD801BA842E5
:101D200001D36B1C15D1002D13D04623E35A002B91
:101D30003CD022689368DB07EED5236C127B1A70C7
:101D4000236C013323644623E15A013989B2E152FD
:101D5000EBE75D230122E254013B0022E25403271A
:101D600039E0FEF749FD801BA84201D36B1C15D159
:101D7000002D13D04623E35A002B17D02268936816
:101D8000DB07EED5D268236C1A80236C0233236400
:101D90004623E15A013989B2E152EBE75D23012282
:101DA000E254013B0022E254032714E032002900F0
:101DB0002000FFF701FD002801D0202323665D23CA
:101DC0000122E254013B0022E254236E002B02D197
:101DD000002700E00227380003B0C0BCB946B04677
:101DE000F0BD0227F7E7C046FFEFFFFFFFBFFFFF91
:101DF000024B802212059A607047C04600ED00E059
:101E00000D488546FFF7F4FF002103E00B4B5B58BC
:101E1000435004310A480B4B42189A42F6D30A4AFF
:101E200002E0002313600432084B9A42F9D300F019
:101E300019F8FEF719FBFEE7007800201C1F0008C8
:101E4000000000200C0000200C000020F400002006
:101E5000FEE703008218934200D1704719700133E6
:101E6000F9E7000070B500260C4C0D4D641BA41062
:101E7000A64209D1002600F019F80A4C0A4D641B4D
:101E8000A410A64205D170BDB300EB5898470136A7
:101E9000EEE7B300EB5898470136F2E7141F00084D
:101EA000141F0008181F0008141F0008F8B5C046CA
:101EB000F8BC08BC9E467047F8B5C046F8BC08BCE4
:041EC0009E46704783
:101EC4000001020304050607080C10141820304012
:101ED40000000000000000000000000000000000FE
:101EE40000000000000000000000000000000000EE
:101EF40001000000020000000300000004000000D4
:101F040006000000070000000800000009000000AF
:041F14007901000847
:041F1800510100086B
:0C1F1C000100000004000000001BB700E2
:0400000508001E01D0
:00000001FF
