:020000040800F2
:100000000078002045140008AD040008AF04000883
:1000100000000000000000000000000000000000E0
:10002000000000000000000000000000B104000813
:100030000000000000000000B3040008B504000840
:10004000951400080000000095140008951400089D
:1000500095140008951400089514000895140008DC
:10006000000000009514000895140008951400087D
:1000700095140008951400089514000895140008BC
:10008000951400080000000000000000951400080E
:10009000951400089514000895140008951400089C
:1000A000951400089514000895140008951400088C
:1000B000951400089514000895140008951400087C
:1000C000002934D00123002210B488422CD301240B
:1000D0002407A14204D2814202D209011B01F8E7A0
:1000E000E400A14204D2814202D249005B00F8E759
:1000F000884201D3401A1A434C08A04202D3001B85
:100100005C0822438C08A04202D3001B9C082243B7
:10011000CC08A04202D3001BDC082243002803D0F5
:100120001B0901D00909E3E7100010BC704701B5B5
:10013000002000F00BF802BD0029F8D003B5FFF74E
:10014000C1FF0EBC4243891A1847C0467047C046DB
:1001500010B5064C2378002B07D1054B002B02D09D
:10016000044800E000BF0123237010BD0C000020F4
:1001700000000000F0140008044B10B5002B03D061
:100180000349044800E000BF10BDC0460000000065
:1001900010000020F0140008BFF34F8F034B044AF7
:1001A000DA60BFF34F8FC046FDE7C04600ED00E0C8
:1001B0000400FA05F0B589B003AC14220021200038
:1001C00001F069F9184B5A6B01252A435A635A6B9F
:1001D0002A400192019A596B0222114359635B6BC9
:1001E0001A400292029BA026F6050022412130000F
:1001F00000F06BFE01221C21300000F066FE41235E
:10020000039304950027059706972100300000F01E
:1002100077FD1C2303930495059506972100300074
:1002200000F06EFD09B0F0BD0010024070B58AB05C
:1002300004000D0001AE24220021300001F02BF952
:10024000652301930495064801F0EEF80028FAD0E2
:100250000348220001A901F001F80AB070BDC046B0
:100260002800002072B6FEE710B588B01C481D4B70
:100270000360002343608360C360012202744374FF
:1002800083740421416182610931C1610B390162CA
:1002900042628262C262026342638363C36300F0AC
:1002A00091FE002819D102AC18220021200001F093
:1002B000F2F801230493059364330693084B21005D
:1002C0001C00180000F06AFF0223009302220221A2
:1002D000200000F092FF08B010BDFFF7C3FFC0463A
:1002E000280000200064004010B58CB005AC1C2232
:1002F0000021200001F0CFF814220021684601F00F
:10030000CAF8134A136807218B431360022305932D
:10031000FE33089380235B01099340230A93200056
:1003200000F0ECF900280ED1684607230093002363
:100330000193029303930493002100F075FB0028BE
:1003400003D10CB010BDFFF78DFFFFF78BFFC04648
:100350000020024030B591B000F04CF9FFF7C4FF27
:10036000FFF728FFFFF780FF4E4800F061FF11E024
:10037000FF2B0FD1022102A8FFF758FF0A2000F03F
:1003800057F9FFF709FF02AB01225A70022102A8B8
:10039000FFF74CFF4348402101F038F80028F9D01E
:1003A00004AC4048230006AA402100F081FF2378D6
:1003B00002AA137000215170132BD9D8EAD89B00E0
:1003C000394AD3589F46A02000220421C00500F0DE
:1003D0007CFDDBE7A02001220421C00500F075FDB3
:1003E000D4E7A02000220821C00500F06EFDCDE773
:1003F000A02001220821C00500F067FDC6E7A0206B
:1004000000221021C00500F060FDBFE7A0200122FE
:100410001021C00500F059FDB8E7A0200421C00557
:1004200000F04CFD4342434102A843700221FFF714
:10043000FDFEAFE7A0200821C00500F03FFD4342CC
:10044000434102A843700221FFF7F0FEA2E7A0207B
:100450001021C00500F032FD4342434102A8437021
:100460000221FFF7E3FE95E7A025ED050421280012
:1004700000F024FD4342584102AC6070082128007E
:1004800000F01CFD43425841A0701021280000F0EC
:1004900015FD43425841E07004212000FFF7C6FEDD
:1004A00078E7C0462800002008150008FEE7FEE7B0
:1004B0007047704710B500F0A9F810BD82B00A4B24
:1004C000196C012211431964196C0A400092009AB8
:1004D000DA6B802149050A43DA63DB6B0B40019339
:1004E000019B02B07047C04600100240F0B591B0C9
:1004F0000400142200210BA800F0CDFF20220021CF
:1005000003A800F0C8FF2268214B9A4201D011B025
:10051000F0BD03A810230393F033436100F04CFBBC
:10052000002831D11B4BDA6B802149010A43DA6381
:10053000DA6B0A400092009A586B0122104358630C
:10054000586B02400192019A5A6B022632435A6359
:100550005B6B33400293029B0BAC0B910C96002516
:100560000D950E9504270F97A0202100C00500F0DF
:10057000C7FB20230B930C960D950E950F9721002A
:10058000054800F0BDFBC2E7FFF76CFECAE7C046B6
:1005900000640040001002400004005010B5040048
:1005A000114B1978002901D1012010BDFA208000DB
:1005B000FFF786FD01000D4B1868FFF781FD00F085
:1005C00099F800280DD1032C01D90120EDE7013065
:1005D00000222100404200F089F8054B1C600020F9
:1005E000E3E70120E1E7C04600000020080000200A
:1005F0000400002010B50320FFF7D0FF041E02D036
:100600000124200010BDFFF759FFFAE7034B1B78C8
:10061000034A11685B1813607047C0460000002051
:100620008C000020014B18687047C0468C000020E9
:1006300070B50400FFF7F6FF0500631C02D0044B01
:100640001B78E418FFF7EEFF401BA042FAD370BD01
:100650000000002070B5002811DB8308134DC03363
:100660009B005C5903221040C000FC3216008640FB
:10067000B44389010A40824022435A5170BD0F237E
:100680000340083B9B0806339B00094A9446634499
:100690005C6803221040C000FC3215008540AC436A
:1006A00089010A40824022435A60E7E700E100E006
:1006B00000ED00E0013880235B0498420FD2094A24
:1006C00050600948036A1B021B0AC02109060B433C
:1006D00003620023936007331360002070470120FA
:1006E000FCE7C04610E000E000ED00E010B5FFF7C9
:1006F000B1FF10BD10B5FFF7DDFF10BD70B5041ED2
:1007000000D139E10368DB072CD5A14B9A68382367
:100710001340082B22D043688022520293422ED0ED
:10072000A022D202934231D0994B1A6899490A40CB
:100730001A601A6898490A401A606368002B31D021
:10074000FFF770FF0500924B1B689B030AD4FFF76D
:1007500069FF401B6428F6D903200EE14368002B93
:1007600000D10BE123689B0747D5894B9B68382252
:100770001A4261D1E368002B22D10120FDE0844AB6
:10078000116880235B020B431360D6E7804B196826
:100790008022D2020A431A601968802252020A4358
:1007A0001A60CAE7FFF73EFF0500794B1B689B0301
:1007B000D8D5FFF737FF401B6428F6D90320DCE0CB
:1007C000734B5A6875490A40616909020A435A60C5
:1007D0001A6873490A4021690A431A601B68DB0AD8
:1007E00007221A406F4BD3406F4A13606F4B186853
:1007F000FFF7D4FE002800D0C2E023681B0757D5BE
:10080000634B9A6838231340182B4ED0A369002BF2
:1008100077D05F4A136E01210B431366FFF702FF87
:1008200005005B4B1B6E9B0742D4FFF7FBFE401B92
:100830000228F6D90320A0E0E368002B22D0544A16
:10084000136857490B4021690B43136011688023DB
:100850005B000B431360FFF7E5FE05004C4B1B6884
:100860005B0506D4FFF7DEFE401B0228F6D9032005
:1008700083E047494B68494A1340626912021343B7
:100880004B60BAE7424A136849490B401360FFF7CF
:10089000C9FE05003E4B1B685B05AED5FFF7C2FEE7
:1008A000401B0228F6D9032067E0A369002B69D01A
:1008B00023685B0768D5364B9A6838231340202B92
:1008C00032D0A368012B34D0052B38D0304BDA6DF1
:1008D00001218A43DA65DA6D03318A43DA65A36858
:1008E000002B38D0FFF79EFE0400294BDB6D9B07E1
:1008F0002FD4FFF797FE001B2E4B9842F5D903200B
:100900003BE0234A136E01218B431366FFF78AFEF7
:1009100005001F4B1B6E9B07CAD5FFF783FE401BCC
:100920000228F6D9032028E0A368002B2ED000204F
:1009300023E0174AD36D01210B43D365CFE7144B56
:10094000DA6D04210A43DA65DA6D03390A43DA65A0
:10095000C5E7002011E0FFF765FE04000C4BDB6DDE
:100960009B0707D5FFF75EFE001B124B9842F5D997
:10097000032002E0002000E0012070BD0120FCE720
:100980000120FAE70120F8E70020F6E70120F4E76C
:1009900000100240FFFFFEFFFFFFFBFFFF80FFFF95
:1009A000FFC7FFFF006CDC020800002004000020ED
:1009B000FFFEFFFF8813000010B5184A13689B085C
:1009C000072119400131936838221A4209D1134B8B
:1009D0001A68D20A072313401148D840FFF770FB6A
:1009E00010BD0E4B9A6838231340082B10D00B4BC8
:1009F0009A6838231340202B0CD0084B9A68382370
:100A00001340182B01D00020E8E7FA20C001E5E7E9
:100A10000448E3E780200002E0E7C04600100240FF
:100A2000006CDC0200127A0070B504000D00002892
:100A300000D1AAE0574B1A68072313408B4228D3F2
:100A400023689A0710D55B0707D553498A68534B2B
:100A50001A40B0231B0113438B604F4A93685049DF
:100A60000B40E1680B4393602368DB0752D54A4A89
:100A700013681C218B43A1680B4313606368012B2F
:100A80001ED0002B38D1444A126852051BD40120D5
:100A900063E0404A136807218B432B431360FFF741
:100AA000C1FD06003B4B1A6807231340AB42C7D079
:100AB000FFF7B8FD801B3B4A9042F3D903204CE07E
:100AC0001268920363D534498A680720824313432E
:100AD0008B60FFF7A7FD06002F4B9B6838221A405A
:100AE0006368DB009A4215D0FFF79CFD801B2D4BFD
:100AF0009842F1D9032030E0032B05D0264AD26D6D
:100B00009207E0D4012028E0234A126E9207DAD43B
:100B1000012022E01F4B1A6807231340AB421DD867
:100B200023685B0706D51C4A93681F490B4021695F
:100B30000B439360FFF740FF174B9A68120A0F238D
:100B400013401A4A9B009A581F231340D840184B51
:100B50001860184B1868FFF721FD70BD0D4A136827
:100B600007218B432B431360FFF75CFD0600094B05
:100B70001A6807231340AB42D2D0FFF753FD801B06
:100B8000084B9842F3D90320E7E70120E5E701206D
:100B9000E3E7C0460020024000100240FF84FFFF50
:100BA000FFF0FFFF88130000FF8FFFFF68150008AC
:100BB000080000200400002070B582B00400036823
:100BC0005B0650D5474BDB6BDB0035D4454BDA6B0E
:100BD000802149050A43DA63DB6B0B400193019BDB
:100BE0000125404BD96DC02292000B0013401142E9
:100BF00035D0E2699A420DD03A4AD36D3A490B405A
:100C0000D06D802149020143D165D16D3748014043
:100C1000D165D365DB0711D4324AD36D32490B401D
:100C2000E1690B43D3650020012D1DD12D4AD36B03
:100C30002F490B40D36317E00025D2E7FFF7F2FC02
:100C40000600284BDB6D9B0707D4FFF7EBFC801BEE
:100C5000284B9842F5D9032002E0002000E0002054
:100C60000028E1D1D8E700202368DB0706D51D4A1C
:100C7000536D03218B43A1680B43536523689B0786
:100C800006D5184A536D1C490B40E1680B43536568
:100C900023689B0606D5134A536D9B009B08A169E8
:100CA0000B4353652368DB0606D50E4A536D0E4988
:100CB0000B4061690B43536523685B0706D5094AFE
:100CC000536D0E490B4021690B43536523681B0686
:100CD00006D5044A1368E0218B4361680B43136017
:100CE00002B070BD00100240FFFCFFFFFFFFFEFFDF
:100CF000FFFFFFEF88130000FFCFFFFFFF3FFFFF65
:100D0000F0B5D6464F464646C0B500233BE0052524
:100D100000E00025A5402C003C43634D18329200B2
:100D200054518022AF584A46D2433D004C46A54319
:100D30004C68E40302D53D004C4625435A4C8027BD
:100D4000E551842567593D0015404C68A40302D540
:100D50003D004C462543544C8427E55127683D000F
:100D600015404C68E40202D53D004C4625434E4CEC
:100D7000256065682A404C68A40201D54A462A438A
:100D8000494C626001330C682200DA4000D186E0F1
:100D900001229A4026001640B1461442F2D04C6817
:100DA000022C01D0122C18D1DD080835AD002C58CA
:100DB000A44607271F40BF000F24A2462600BE40BE
:100DC000B04666464446A643B4460C69564626409D
:100DD0003400BC40664634432C500468A4465D0091
:100DE0000324A2462700AF40B846FF436646444668
:100DF000A643B4464C68564626403400AC4066468E
:100E0000344304604C68661E012E03D9112C01D0B6
:100E1000122C12D184683C40A446CC68AC40664693
:100E200034438460446894434A681209944601221A
:100E3000664632409A40224342604A68032A05D0FF
:100E4000C4683C408A68AA402243C2604A68D20013
:100E500098D59A0814001834A400134D6759032438
:100E60001C40E4000F25A540AF43A025ED05A84296
:100E700000D14EE70D4DA8420BD00D4DA8420AD02F
:100E80000C4DA84209D00C4DA84200D13FE70625E1
:100E900040E701253EE702253CE703253AE7E0BCB1
:100EA000BA46B146A846F0BD001802400004005002
:100EB00000080050000C00500014005003690B4261
:100EC00001D0012070470020FCE7002A01D0816199
:100ED00070478162FCE7000030B5124B036405687F
:100EE00080216A58104C2240446B240422436A50EB
:100EF0000E4A426405686A580D4C2240846B2406F1
:100F000022436A500B4A82640B4AC2640B4A026550
:100F10000B4A426501E0002204C30A4A9342FAD90F
:100F200030BDC04600B40040FFFFE0FF70B4004099
:100F3000FFFFFFF0B0B4004088B5004060B600404D
:100F400078B600404FB70040F0B51F004B68002B4B
:100F50001AD10D698B681D430B689B041D430C6AF5
:100F60002406CB691C438B691C434B691C43CB682B
:100F70001B041C43466DFB00DB19DB00F6183560D3
:100F800074600836002015E00B698C6823430C68F8
:100F900023438025ED051D43E1E71418E3781B0684
:100FA000A5782D042B43647824022343145C234347
:100FB00008C60430CB68024CE35C8342EDD8F0BD38
:100FC0005815000870B5041E00D1DCE05C23C35C3A
:100FD000002B19D02268936910218B439361FFF78E
:100FE00021FB0500226893691B0713D5FFF71AFB45
:100FF000401B0A28F6D9236E0122134323665C2383
:101000000232E254012070BD5D330022C254FFF76A
:101010006DFADFE7936901210B439361FFF702FB50
:10102000050022689369DB070DD4FFF7FBFA401B2C
:101030000A28F6D9236E0122134323665C23023269
:10104000E2540120DFE7936902210B439361626858
:101050004E4B1A60237C012B40D0226893694021BB
:101060000B439361637C012B3ED02268936948490E
:101070000B409361A37C012B3DD0226891698023B2
:101080005B010B4393612268936942490B40A1685D
:101090000B43936122689369A4218B439361226877
:1010A000136994398B431361E368012B29D0002B1A
:1010B0002CD0022B50D02268936980210B4393617E
:1010C0002268136970390B431361E368032B1DD148
:1010D0002268936910310B43936117E0226893698A
:1010E0003E318B439361BDE7226891698023DB0128
:1010F0000B439361BEE72268936927490B409361D4
:10110000C1E7226893690C390B439361A369013BE2
:101110005B06E269013A12021343226A013A134361
:101120006269013A120421681343CB61A268C023AB
:101130009B009A4216D02168C0228B58E06B034373
:101140008B502000FFF7C8FE0023A36523665C33A5
:101150000122E254002056E72268936920210B43C4
:101160009361D3E7A36A013BE26A013A1202134397
:10117000226B013A12011343626A013A1204216898
:101180001343CB60D7E701203DE7C0460065004030
:10119000FFBFFFFFFFFCFFFFFFEFFFFF10B55C236A
:1011A000C35C013BDBB2012B05D9036E0222134362
:1011B0000366012010BD0B68002B0FD18B689B07C5
:1011C000CA68D20613430A69120413434A691343D7
:1011D000006C4A68920083500020EBE7CA6852070F
:1011E0000B691A438B689B074C692343406C496821
:1011F000C90041180A604B60EEE770B55C24045DDD
:10120000012C05D0036E042213430366012070BD38
:1012100005687F3428593F26B043090192001143E5
:101220005B001943049B1943014329510020EEE759
:101230005C23C35C012B05D0036E042213430366B9
:10124000012070475B330222C25402689369012176
:101250008B439361002303660020F2E770B504001E
:101260005C23C35C022B1CD10068C233C3589B02B1
:1012700006D5226E80239B0013432366012015E0D0
:10128000C423C3581B0C03251D402B002000FFF76F
:101290005BFE21680123AB40CC228B50A36500206C
:1012A00004E0036E082213430366012070BD0000B2
:1012B000F0B55C24045D022C00D09FE040290BD0E7
:1012C0000468982565592D0731D1026E80235B0093
:1012D00013430366012096E00468902565592D07A5
:1012E00006D1026E80235B001343036601208AE06F
:1012F0009025665980256D0437002F402E4208D076
:10130000802566598135FF3537002F402E4200D0A9
:101310000127902565592D0A03242C40BC46A4447E
:10132000856C6446E4006444E4002D191CE09825B3
:10133000665980256D0437002F402E4207D0802546
:101340006659803537002F402E4200D0012798255E
:1013500065592D0A03242C40BC46A444C56C644640
:10136000E4006444E4002D192C688026F60534401E
:10137000546028D12C68A40C6405640D14602C689A
:101380008026B605344094602C68E40FE4071461AD
:101390006C682404240CD461EE880F243440D4609B
:1013A0006C6880267603344054616C688026B603EE
:1013B00034409461EE797F24344014626C68E40F09
:1013C0005462002408E02C68E400E4081460D6E7C6
:1013D0002E19367A1E550134D6680B4FBE5DA642D3
:1013E000F6D8402905D002689C236146D1500020E0
:1013F00009E0026894236146D150F8E7036E0822A1
:10140000134303660120F0BD58150008402905D09C
:1014100002689823D3580F20184070470268902321
:10142000D3580F201840F8E70268C423D358072088
:1014300018407047024B802212059A607047C046E0
:1014400000ED00E00D488546FFF7F4FF002103E0C2
:101450000B4B5B58435004310A480B4B42189A42DD
:10146000F6D30A4A02E0002313600432084B9A4282
:10147000F9D300F019F8FEF76DFFFEE700780020C1
:10148000B0150008000000200C0000200C00002017
:1014900090000020FEE703008218934200D17047BD
:1014A00019700133F9E7000070B500260C4C0D4DA2
:1014B000641BA410A64209D1002600F019F80A4CBA
:1014C0000A4D641BA410A64205D170BDB300EB58B1
:1014D00098470136EEE7B300EB5898470136F2E73C
:1014E000A8150008A8150008AC150008A8150008E4
:1014F000F8B5C046F8BC08BC9E467047F8B5C04673
:08150000F8BC08BC9E467047D0
:1015080086030008C6030008D4030008E2030008A5
:10151800F0030008FE0300080C0400089403000808
:101528009403000894030008940300089403000837
:101538009403000894030008940300089403000827
:101548001A040008340400084E040008680400085F
:101558000001020304050607080C10141820304087
:101568000000000000000000000000000000000073
:101578000000000000000000000000000000000063
:101588000100000002000000030000000400000049
:101598000600000007000000080000000900000025
:0415A80079010008BD
:0415AC0051010008E1
:0C15B0000100000004000000001BB70058
:040000050800144596
:00000001FF
