:020000040800F2
:1000000000780020792600089D0600089F06000859
:1000100000000000000000000000000000000000E0
:10002000000000000000000000000000A106000821
:100030000000000000000000A3060008A50600085C
:10004000C926000800000000C9260008C9260008CB
:10005000C9260008C9260008C9260008C9260008C4
:1000600000000000AD060008C9260008C9260008E7
:10007000C9260008C9260008C9260008C9260008A4
:10008000C92600080000000000000000C926000882
:10009000C9260008C9260008C9260008C926000884
:1000A000C9260008C9260008C9260008C926000874
:1000B000C9260008C9260008C9260008C926000864
:1000C000002934D00123002210B488422CD301240B
:1000D0002407A14204D2814202D209011B01F8E7A0
:1000E000E400A14204D2814202D249005B00F8E759
:1000F000884201D3401A1A434C08A04202D3001B85
:100100005C0822438C08A04202D3001B9C082243B7
:10011000CC08A04202D3001BDC082243002803D0F5
:100120001B0901D00909E3E7100010BC704701B5B5
:10013000002000F00BF802BD0029F8D003B5FFF74E
:10014000C1FF0EBC4243891A1847C0467047C046DB
:1001500010B5064C2378002B07D1054B002B02D09D
:10016000044800E000BF0123237010BD0C000020F4
:100170000000000024270008044B10B5002B03D01A
:100180000349044800E000BF10BDC0460000000065
:100190001000002024270008BFF34F8F034B044AB0
:1001A000DA60BFF34F8FC046FDE7C04600ED00E0C8
:1001B0000400FA05F0B589B003AC14220021200038
:1001C00002F083FA184B5A6B01252A435A635A6B83
:1001D0002A400192019A596B0222114359635B6BC9
:1001E0001A400292029BA026F60501221C21300033
:1001F00000F0E9FF00224021300000F0E4FF1C2362
:10020000039304950595002706972100300000F020
:10021000F5FE4023039304950597069721003000CF
:1002200000F0ECFE09B0F0BD0010024000B583B054
:10023000094A916B012319439163926B1340019317
:10024000019B00220021092000F0C2FB092000F0E0
:10025000C3FB03B000BDC0460010024070B58AB0B9
:1002600004000D0001AE24220021300002F02DFA1E
:100270006F2301930495064801F0B6FB0028FAD0DD
:100280000348220001A901F0C9FA0AB070BDC046B6
:100290007C00002010B502680B4B9A4200D010BDC4
:1002A0000A4B59881C880A4B1B880A485843FFF799
:1002B00007FF094B18800004000C60430749FFF753
:1002C000FFFE074B1880EAE7002401402C000020C5
:1002D0006A75FF1FB80B00002A000020FF0F000006
:1002E0002800002072B6FEE710B588B01C481D4BF0
:1002F0000360002343608360C3600122027443747F
:1003000083740421416182610931C1610B39016249
:1003100042628262C262026342638363C36301F02A
:1003200031F9002819D102AC18220021200002F076
:10033000CCF90123049305936E330693084B2100F7
:100340001C00180001F00AFA022300930222022185
:10035000200001F032FA08B010BDFFF7C3FFC0461D
:100360007C0000200064004000B585B00C22002114
:1003700001A802F0AAF91F481F4B03608022120651
:10038000426000238360C3600261082242610376F9
:1003900043768376073AC261202143549021C900F5
:1003A0004162803981622C214254802252010263D1
:1003B0000622426336328354C36401F023FB0028D3
:1003C00012D101A9012301934B600A4801F08EFC70
:1003D00000280BD1094B0193064801A901F086FCC6
:1003E000002805D105B000BDFFF77CFFFFF77AFFBD
:1003F000FFF778FF3C01002000240140000400A822
:1004000000B589B01422002103A802F05EF90C2285
:100410000021684602F059F915488023DB05036086
:100420001923436000238360124AC2600361803352
:10043000836102F015F8002814D103A90023039367
:100440004B600B4802F0AAF800280DD16946202322
:10045000009300230293064802F0CEF8002805D14D
:1004600009B000BDFFF73EFFFFF73CFFFFF73AFF83
:10047000300000204FC3000010B58CB005AC1C222A
:100480000021200002F021F914220021684602F028
:100490001CF9134A136807218B4313600223059349
:1004A000FE33089380235B01099340230A932000C5
:1004B00000F0A2FA00280ED168460723009300231B
:1004C0000193029303930493002100F02BFC002876
:1004D00003D10CB010BDFFF705FFFFF703FFC046C7
:1004E0000020024030B591B000F0F6F9FFF7C4FFEC
:1004F000FFF760FEFFF79AFEFFF7F6FEFFF734FF07
:10050000FFF77EFF5E4801F073F95E4C200001F0BA
:1005100035FE5D490222200001F08CFD5B4801F0B0
:1005200011FF11E0FF2B0FD1022102A8FFF796FE69
:100530000A2000F0EFF9FFF72FFE02AB01225A70FC
:10054000022102A8FFF78AFE4D48402101F03EFA41
:100550000028F9D004AC4A48230006AA402101F043
:1005600087F9237802AA137000215170202BD9D863
:10057000EAD89B00464AD3589F46A0200022042177
:10058000C00500F020FEDBE7A02001220421C00509
:1005900000F019FED4E7A02000220821C00500F0D9
:1005A00012FECDE7A02001220821C00500F00BFEBD
:1005B000C6E7A02000221021C00500F004FEBFE71E
:1005C000A02001221021C00500F0FDFDB8E7A02009
:1005D0000421C00500F0F0FD4342434102A84370EE
:1005E0000221FFF73BFEAFE7A0200821C00500F085
:1005F000E3FD4342434102A843700221FFF72EFE70
:10060000A2E7A0201021C00500F0D6FD43424341DF
:1006100002A843700221FFF721FE95E7A025ED0512
:100620000421280000F0C8FD4342584102AC60702C
:100630000821280000F0C0FD43425841A07010215D
:10064000280000F0B9FD43425841E0700421200029
:10065000FFF704FE78E70F4B1A880B23534302AAD7
:10066000511C9AB20B70120A4A700B4B02AA1B88DB
:10067000D3701B0A1371052102A8FFF7EFFD63E792
:100680007C0000203C0100202C00002030000020D5
:100690003C270008280000202A000020FEE7FEE793
:1006A0007047704710B500F023F910BD10B502482F
:1006B00000F08CFE10BDC046E000002082B00A4B66
:1006C000196C012211431964196C0A400092009AB6
:1006D000DA6B802149050A43DA63DB6B0B40019337
:1006E000019B02B07047C0460010024030B591B087
:1006F0000400142200210BA801F0E7FF20220021B2
:1007000003A801F0E2FF2268234B9A4201D011B006
:1007100030BD2023039303A800F0CCFB002834D184
:100720001E4B1A6C802149030A431A641A6C0A4052
:100730000192019A596B0122114359635B6B13407B
:100740000293029B0BA90B9203234B6000258D6043
:10075000A020C00500F052FC1148124B0360052395
:1007600043608560C5607B330361803343618023D0
:10077000DB0083612023C361056200F07FFD002858
:1007800006D1074B23659C62C1E7FFF7ABFDC7E7C6
:10079000FFF7A8FDF5E7C046002401400010024025
:1007A000E000002008000240F0B591B004001422DF
:1007B00000210BA801F089FF2022002103A801F0ED
:1007C00084FF2268214B9A4201D011B0F0BD03A8EA
:1007D00010230393F033436100F06CFB002831D108
:1007E0001B4BDA6B802149010A43DA63DA6B0A405A
:1007F0000092009A586B012210435863586B0240D4
:100800000192019A5A6B022632435A635B6B334062
:100810000293029B0BAC0B910C9600250D950E9547
:1008200004270F97A0202100C00500F0E7FB20233C
:100830000B930C960D950E950F972100054800F02F
:10084000DDFBC2E7FFF74EFDCAE7C046006400408B
:10085000001002400004005082B002688023DB05D3
:100860009A4201D002B07047044AD16B0123194368
:10087000D163D26B13400193019BF3E70010024058
:1008800010B50400114B1978002901D1012010BDC9
:10089000FA208000FFF714FC01000D4B1868FFF7E9
:1008A0000FFC00F0A5F800280DD1032C01D9012080
:1008B000EDE7013000222100404200F089F8054BAD
:1008C0001C600020E3E70120E1E7C04600000020B3
:1008D000080000200400002010B50320FFF7D0FF1F
:1008E000041E02D00124200010BDFFF7E7FEFAE746
:1008F000034B1B78034A11685B1813607047C046AE
:1009000000000020A0010020014B18687047C0467D
:10091000A001002070B50400FFF7F6FF0500631C7E
:1009200002D0044B1B78E418FFF7EEFF401BA042F7
:10093000FAD370BD0000002070B5002811DB8308D9
:10094000134DC0339B005C5903221040C000FC32A1
:1009500016008640B44389010A40824022435A511E
:1009600070BD0F230340083B9B0806339B00094AD8
:10097000944663445C6803221040C000FC321500BA
:100980008540AC4389010A40824022435A60E7E730
:1009900000E100E000ED00E0013880235B049842B4
:1009A0000FD2094A50600948036A1B021B0AC02182
:1009B00009060B4303620023936007331360002092
:1009C00070470120FCE7C04610E000E000ED00E0C9
:1009D00010B5FFF7B1FF10BD002805DB1F22024054
:1009E00001239340014A13607047C04600E100E0D4
:1009F00010B5FFF7D1FF10BD70B5041E00D139E16D
:100A00000368DB072CD5A14B9A6838231340082BC9
:100A100022D043688022520293422ED0A022D202DA
:100A2000934231D0994B1A6899490A401A601A6862
:100A300098490A401A606368002B31D0FFF764FFC1
:100A40000500924B1B689B030AD4FFF75DFF401B18
:100A50006428F6D903200EE14368002B00D10BE196
:100A600023689B0747D5894B9B6838221A4261D17E
:100A7000E368002B22D10120FDE0844A1168802325
:100A80005B020B431360D6E7804B19688022D202C9
:100A90000A431A601968802252020A431A60CAE7A0
:100AA000FFF732FF0500794B1B689B03D8D5FFF792
:100AB0002BFF401B6428F6D90320DCE0734B5A68F7
:100AC00075490A40616909020A435A601A68734904
:100AD0000A4021690A431A601B68DB0A07221A4090
:100AE0006F4BD3406F4A13606F4B1868FFF7C8FE17
:100AF000002800D0C2E023681B0757D5634B9A68D3
:100B000038231340182B4ED0A369002B77D05F4AAF
:100B1000136E01210B431366FFF7F6FE05005B4BD6
:100B20001B6E9B0742D4FFF7EFFE401B0228F6D94D
:100B30000320A0E0E368002B22D0544A13685749F1
:100B40000B4021690B431360116880235B000B434A
:100B50001360FFF7D9FE05004C4B1B685B0506D4FC
:100B6000FFF7D2FE401B0228F6D9032083E0474955
:100B70004B68494A13406269120213434B60BAE75B
:100B8000424A136849490B401360FFF7BDFE050058
:100B90003E4B1B685B05AED5FFF7B6FE401B022837
:100BA000F6D9032067E0A369002B69D023685B07AF
:100BB00068D5364B9A6838231340202B32D0A3686F
:100BC000012B34D0052B38D0304BDA6D01218A430C
:100BD000DA65DA6D03318A43DA65A368002B38D011
:100BE000FFF792FE0400294BDB6D9B072FD4FFF724
:100BF0008BFE001B2E4B9842F5D903203BE0234A85
:100C0000136E01218B431366FFF77EFE05001F4B19
:100C10001B6E9B07CAD5FFF777FE401B0228F6D94B
:100C2000032028E0A368002B2ED0002023E0174AE1
:100C3000D36D01210B43D365CFE7144BDA6D04214B
:100C40000A43DA65DA6D03390A43DA65C5E700203D
:100C500011E0FFF759FE04000C4BDB6D9B0707D535
:100C6000FFF752FE001B124B9842F5D9032002E019
:100C7000002000E0012070BD0120FCE70120FAE720
:100C80000120F8E70020F6E70120F4E70010024019
:100C9000FFFFFEFFFFFFFBFFFF80FFFFFFC7FFFF20
:100CA000006CDC020800002004000020FFFEFFFFB3
:100CB0008813000010B5184A13689B0807211940D3
:100CC0000131936838221A4209D1134B1A68D20AAB
:100CD000072313401148D840FFF7F2F910BD0E4B1F
:100CE0009A6838231340082B10D00B4B9A6838238E
:100CF0001340202B0CD0084B9A6838231340182B34
:100D000001D00020E8E7FA20C001E5E70448E3E766
:100D100080200002E0E7C04600100240006CDC02C8
:100D200000127A0070B504000D00002800D1AAE07E
:100D3000574B1A68072313408B4228D323689A071E
:100D400010D55B0707D553498A68534B1A40B02327
:100D50001B0113438B604F4A936850490B40E16875
:100D60000B4393602368DB0752D54A4A13681C2162
:100D70008B43A1680B4313606368012B1ED0002BCB
:100D800038D1444A126852051BD4012063E0404A1E
:100D9000136807218B432B431360FFF7B5FD060053
:100DA0003B4B1A6807231340AB42C7D0FFF7ACFD9B
:100DB000801B3B4A9042F3D903204CE01268920317
:100DC00063D534498A680720824313438B60FFF759
:100DD0009BFD06002F4B9B6838221A406368DB009E
:100DE0009A4215D0FFF790FD801B2D4B9842F1D908
:100DF000032030E0032B05D0264AD26D9207E0D4C1
:100E0000012028E0234A126E9207DAD4012022E062
:100E10001F4B1A6807231340AB421DD823685B079A
:100E200006D51C4A93681F490B4021690B43936008
:100E3000FFF740FF174B9A68120A0F2313401A4A14
:100E40009B009A581F231340D840184B1860184B2A
:100E50001868FFF715FD70BD0D4A136807218B4315
:100E60002B431360FFF750FD0600094B1A68072358
:100E70001340AB42D2D0FFF747FD801B084B98428E
:100E8000F3D90320E7E70120E5E70120E3E7C046C7
:100E90000020024000100240FF84FFFFFFF0FFFF30
:100EA00088130000FF8FFFFFD027000808000020F4
:100EB0000400002070B582B0040003685B0650D5C2
:100EC000474BDB6BDB0035D4454BDA6B80214905A2
:100ED0000A43DA63DB6B0B400193019B0125404B16
:100EE000D96DC02292000B001340114235D0E26947
:100EF0009A420DD03A4AD36D3A490B40D06D8021C9
:100F000049020143D165D16D37480140D165D365B0
:100F1000DB0711D4324AD36D32490B40E1690B43F0
:100F2000D3650020012D1DD12D4AD36B2F490B40D5
:100F3000D36317E00025D2E7FFF7E6FC0600284B55
:100F4000DB6D9B0707D4FFF7DFFC801B284B984223
:100F5000F5D9032002E0002000E000200028E1D1C4
:100F6000D8E700202368DB0706D51D4A536D03210F
:100F70008B43A1680B43536523689B0706D5184A2A
:100F8000536D1C490B40E1680B43536523689B0676
:100F900006D5134A536D9B009B08A1690B4353650B
:100FA0002368DB0606D50E4A536D0E490B40616976
:100FB0000B43536523685B0706D5094A536D0E49F9
:100FC0000B4021690B43536523681B0606D5044A71
:100FD0001368E0218B4361680B43136002B070BD5E
:100FE00000100240FFFCFFFFFFFFFEFFFFFFFFEFCF
:100FF00088130000FFCFFFFFFF3FFFFFF0B5D6468D
:101000004F464646C0B500233BE0052500E00025DD
:10101000A5402C003C43634D18329200545180226D
:10102000AF584A46D2433D004C46A5434C68E403C2
:1010300002D53D004C4625435A4C8027E551842576
:1010400067593D0015404C68A40302D53D004C464D
:101050002543544C8427E55127683D0015404C68D2
:10106000E40202D53D004C4625434E4C25606568A0
:101070002A404C68A40201D54A462A43494C626082
:1010800001330C682200DA4000D186E001229A4048
:1010900026001640B1461442F2D04C68022C01D012
:1010A000122C18D1DD080835AD002C58A4460727AE
:1010B0001F40BF000F24A2462600BE40B046664631
:1010C0004446A643B4460C69564626403400BC400C
:1010D000664634432C500468A4465D000324A246AF
:1010E0002700AF40B846FF4366464446A643B44691
:1010F0004C68564626403400AC4066463443046093
:101100004C68661E012E03D9112C01D0122C12D16D
:1011100084683C40A446CC68AC4066463443846056
:10112000446894434A681209944601226646324054
:101130009A40224342604A68032A05D0C4683C4072
:101140008A68AA402243C2604A68D20098D59A08A9
:1011500014001834A400134D675903241C40E40004
:101160000F25A540AF43A025ED05A84200D14EE7CD
:101170000D4DA8420BD00D4DA8420AD00C4DA842EF
:1011800009D00C4DA84200D13FE7062540E70125D4
:101190003EE702253CE703253AE7E0BCBA46B14604
:1011A000A846F0BD0018024000040050000800509E
:1011B000000C00500014005003690B4201D00120C4
:1011C00070470020FCE7002A01D0816170478162EE
:1011D000FCE70000F0B5846CC56C6560046D002C04
:1011E00002D0446D856D65600B4F7C68056C1C26D4
:1011F0002E400125B5402C437C6004686360836801
:10120000102B04D0036899600368DA60F0BD0368AE
:101210009A600368D960F9E70000024010B5040045
:101220000368FF20184008381421FEF749FF236C9B
:101230009B08064A944663449B006364044BA36482
:101240001C2318401B3B8340E36410BD0082001048
:10125000800802404268FF231340064A9A18920011
:101260000265054A4265013B03221A40012393406F
:10127000836570473F8200104009024070B5041E2C
:101280004DD00568274BE8181421FEF719FF8000A0
:10129000206425230222E2542B68234A13402B604A
:1012A00021680A68A368E068034320690343606912
:1012B0000343A0690343E0690343206A03431343E4
:1012C0000B602000FFF7AAFFA2688023DB019A428F
:1012D00018D06168626CFF230B401360A36CE26C52
:1012E0005A606368013B032B0FD9002323656365B4
:1012F000A3650023E36325220121A154013AA354ED
:10130000002070BD00236360E3E72000FFF7A2FF29
:10131000236D00221A60636DA26D5A60E9E7012017
:10132000EFE7C046F8FFFDBF0F80FFFF70B5040078
:101330002420205C012846D024200125255401309A
:10134000205C012807D024230022E2540220242319
:101350000022E25470BD2430013525540020E063A2
:10136000256828680126B04328602000FFF732FF77
:10137000236B002B1CD0226813680E210B431360D3
:10138000626C1368DB0304D5116880235B000B4398
:101390001360236D002B04D01968802252000A4389
:1013A0001A602268136801210B4313600020CEE706
:1013B0002268136804218B43136022681368063186
:1013C0000B431360DCE70220C4E7000070B5314B2B
:1013D000196804682568026C1C23134004229A4093
:1013E000114216D06A0714D523689B0603D42368DC
:1013F000042293432360274C6368026C1C21114034
:1014000004228A4013436360036B002B00D098478B
:1014100070BD02229A4011421CD0AA071AD5236837
:101420009B0606D423680A22934323602523093AA6
:10143000C254184C6368026C1C21114002228A407D
:101440001343636024230022C254C36A002BDFD0FD
:101450009847DDE708229A401142D9D02D07D7D509
:1014600023680E22934323600A4C6268036C1C219C
:10147000194001231D008D402A436260C363252269
:10148000835423330022C254436B002BC0D09847AF
:10149000BEE7C0460000024030B5124B0364056849
:1014A00080216A58104C2240446B240422436A5025
:1014B0000E4A426405686A580D4C2240846B24062B
:1014C00022436A500B4A82640B4AC2640B4A02658B
:1014D0000B4A426501E0002204C30A4A9342FAD94A
:1014E00030BDC04600B40040FFFFE0FF70B40040D4
:1014F000FFFFFFF0B0B4004088B5004060B6004088
:1015000078B600404FB70040F0B51F004B68002B85
:101510001AD10D698B681D430B689B041D430C6A2F
:101520002406CB691C438B691C434B691C43CB6865
:101530001B041C43466DFB00DB19DB00F61835600D
:1015400074600836002015E00B698C6823430C6832
:1015500023438025ED051D43E1E71418E3781B06BE
:10156000A5782D042B43647824022343145C234381
:1015700008C60430CB68024CE35C8342EDD8F0BD72
:10158000C027000870B5041E00D1DCE05C23C35CFA
:10159000002B19D02268936910218B439361FFF7C8
:1015A000B3F90500226893691B0713D5FFF7ACF95F
:1015B000401B0A28F6D9236E0122134323665C23BD
:1015C0000232E254012070BD5D330022C254FFF7A5
:1015D000EBF8DFE7936901210B439361FFF794F97F
:1015E000050022689369DB070DD4FFF78DF9401BD6
:1015F0000A28F6D9236E0122134323665C230232A4
:10160000E2540120DFE7936902210B439361626892
:101610004E4B1A60237C012B40D0226893694021F5
:101620000B439361637C012B3ED022689369484948
:101630000B409361A37C012B3DD0226891698023EC
:101640005B010B4393612268936942490B40A16897
:101650000B43936122689369A4218B4393612268B1
:10166000136994398B431361E368012B29D0002B54
:101670002CD0022B50D02268936980210B439361B8
:101680002268136970390B431361E368032B1DD182
:101690002268936910310B43936117E022689369C4
:1016A0003E318B439361BDE7226891698023DB0162
:1016B0000B439361BEE72268936927490B4093610E
:1016C000C1E7226893690C390B439361A369013B1D
:1016D0005B06E269013A12021343226A013A13439C
:1016E0006269013A120421681343CB61A268C023E6
:1016F0009B009A4216D02168C0228B58E06B0343AE
:101700008B502000FFF7C8FE0023A36523665C33DF
:101710000122E254002056E72268936920210B43FE
:101720009361D3E7A36A013BE26A013A12021343D1
:10173000226B013A12011343626A013A12042168D2
:101740001343CB60D7E701203DE7C046006500406A
:10175000FFBFFFFFFFFCFFFFFFEFFFFF10B55C23A4
:10176000C35C013BDBB2012B05D9036E022213439C
:101770000366012010BD0B68002B0FD18B689B07FF
:10178000CA68D20613430A69120413434A69134311
:10179000006C4A68920083500020EBE7CA68520749
:1017A0000B691A438B689B074C692343406C49685B
:1017B000C90041180A604B60EEE770B55C24045D17
:1017C000012C05D0036E042213430366012070BD73
:1017D00005687F3428593F26B04309019200114320
:1017E0005B001943049B1943014329510020EEE794
:1017F0005C23C35C012B05D0036E042213430366F4
:10180000012070475B330222C254026893690121B0
:101810008B439361002303660020F2E770B5040058
:101820005C23C35C022B1CD10068C233C3589B02EB
:1018300006D5226E80239B0013432366012015E00A
:10184000C423C3581B0C03251D402B002000FFF7A9
:101850005BFE21680123AB40CC228B50A3650020A6
:1018600004E0036E082213430366012070BD0000EC
:10187000F0B55C24045D022C00D09FE040290BD021
:101880000468982565592D0731D1026E80235B00CD
:1018900013430366012096E00468902565592D07DF
:1018A00006D1026E80235B001343036601208AE0A9
:1018B0009025665980256D0437002F402E4208D0B0
:1018C000802566598135FF3537002F402E4200D0E4
:1018D0000127902565592D0A03242C40BC46A444B9
:1018E000856C6446E4006444E4002D191CE09825EE
:1018F000665980256D0437002F402E4207D0802581
:101900006659803537002F402E4200D00127982598
:1019100065592D0A03242C40BC46A444C56C64467A
:10192000E4006444E4002D192C688026F605344058
:10193000546028D12C68A40C6405640D14602C68D4
:101940008026B605344094602C68E40FE4071461E7
:101950006C682404240CD461EE880F243440D460D5
:101960006C6880267603344054616C688026B60328
:1019700034409461EE797F24344014626C68E40F43
:101980005462002408E02C68E400E4081460D6E700
:101990002E19367A1E550134D6680B4FBE5DA6420D
:1019A000F6D8402905D002689C236146D15000201A
:1019B00009E0026894236146D150F8E7036E0822DB
:1019C000134303660120F0BDC0270008402905D05D
:1019D00002689823D3580F2018407047026890235C
:1019E000D3580F201840F8E70268C423D3580720C3
:1019F00018407047024B802212059A607047C0461B
:101A000000ED00E030B583B004000023019300280E
:101A100000D105E1836D002B12D023689A68D200B3
:101A20001BD499687F4A1140802252050A439A606C
:101A30007D4B18687D49FEF743FB4000019009E0AB
:101A4000FEF754FE0023E3655422A354E5E7019B0F
:101A5000013B0193019B002BF9D123689A68D200C6
:101A600000D59DE0A26D10210A43A265E26D0F39F9
:101A70000A43E26501209A6804210D0015401142D5
:101A800000D00125A26DD20600D5C2E0002D00D005
:101A9000BFE0A26D66490A400631FF310A43A265E4
:101AA0009A68D20752D4A268217E89030A43617ED4
:101AB000C9030A43A57E69030A43216B002901D0AB
:101AC000802149010A43E1680A432169002969DB51
:101AD000802189030A432C21615C49000A432021AB
:101AE000615C012961D0616A002905D0E0256D00A3
:101AF0002940A56A29430A43D9684E4D29400A4323
:101B0000DA6063689B0F9B07E26C1A433C21615CBF
:101B1000012959D021680B69474D2B4013430B61B4
:101B20006368C0221206934210D08022D2059342ED
:101B30000CD080221206934208D040490A68404DDA
:101B40002A40F025AD032B4013430B602168636BE3
:101B50004A690725AA4313434B612168A26B4B696D
:101B60006935AB43120113434B612369002B35D117
:101B70002268916A103B0B43936223685A690723DA
:101B80001340626B9A423BD0A36D12229343023AF8
:101B90001343A365E36D0F3A1343E36501203DE072
:101BA000002068E74900490894E7002D03D180210F
:101BB00049020A4397E7A16D20252943A165E16DFC
:101BC0001F3D2943E1658EE7216C0B43616C0B439C
:101BD000A16C0B43134301221A439BE7802292031B
:101BE0009342CAD121688B6AE369013B9B001C22A6
:101BF0001A4010235B429340226E13438B62BCE772
:101C00000023E365A36D03229343023A1343A365C4
:101C100004E0A36D10221343A365012003B030BD7F
:101C20000120FBE7E8FFFF6F08000020400D0300E4
:101C3000FDFEFFFF0102DEFF02FCFF1F082701403F
:101C4000FFFFC3FF704710B5806AFFF7FBFF10BDB1
:101C5000704710B5806A836D402213438365C36D5E
:101C60003C3A1343C365FFF7F3FF10BD10B5030003
:101C7000806A826D502111422AD1826D80239B009F
:101C8000134383650368D968C0221201114213D13E
:101C9000827E002A10D11A6812070DD59A68520761
:101CA0000DD45A680C218A435A60836D0E4A134042
:101CB0000432FF3213438365FEF7ECFA10BD836DE7
:101CC000202213438365C36D1F3A1343C365F3E7B3
:101CD000826DD20604D4026D526B18009047EDE776
:101CE000FFF7B6FFEAE7C046FEFEFFFFF0B583B0A0
:101CF00004000023019305695433C35C012B00D118
:101D000021E154230122C254006883680332160083
:101D10001E401A4209D0A36D1C321343A365012053
:101D200054230022E25403B0F0BD4B68022B00D1D3
:101D3000D5E080221206954225D0844A954222D0D1
:101D4000226E1F271F400F25BD40AA430B685D026E
:101D50002FD19B0E1F261E40BE40324322664D6887
:101D6000AB080133E269934213D80E68826A1F23DD
:101D70001D40103B1F00AF40BA43B60E3340AB408E
:101D80001343836205E00B68826A5B025B0A1343BC
:101D9000836220680B688D6842691B029A432B405E
:101DA0006B4D2B40134343610B68002B5FDB00201E
:101DB000B6E7DD07D0D49D072FD45D072FD41D07CC
:101DC0002FD4DD062FD49D062FD45D062FD41D06FB
:101DD0002FD4DD052FD49D052FD45D052FD41D05EF
:101DE0002FD4DD042FD49D042FD45D042FD41D04E3
:101DF0002FD4DD032FD49D032FD45D032FD41D03D7
:101E00002FD4DD022FD49D022FD48025ED031E0098
:101E10002E402B42A0D016269EE701269CE70226E4
:101E20009AE7032698E7042696E7052694E7062610
:101E300092E7072690E708268EE709268CE70A2610
:101E40008AE70B2688E70C2686E70D2684E70E2610
:101E500082E70F2680E710267EE711267CE7122610
:101E60007AE7132678E7142676E7152674E7394AC9
:101E70001168C02212040A403748834204D0374810
:101E800083421FD000204BE70802F8D480231B04B4
:101E9000134330490A683248024013430B60314B08
:101EA00018683149FEF70CF943001B189B000133F9
:101EB000019302E0019B013B0193019B002BF9D1AF
:101EC00000202DE749023CD48023DB031343214942
:101ED0000A682348024013430B60002020E7802358
:101EE0001B069D4202D0194B9D4205D10B68826AA8
:101EF0005B025B0A9A4382620B68002B01DB0020C5
:101F00000EE7144A126814498B4204D013498B42DD
:101F10000CD0002004E78023DB031A400D490B6836
:101F20000F4803401A430A600020F9E680231B048F
:101F30001A4008490B680A4803401A430A60002007
:101F4000EEE60020ECE60220EDE6C046040000804C
:101F500000FFFF7F08270140000200A4000400A842
:101F6000FFFF3FFF08000020400D030030B583B0A5
:101F700004000023019303689A68D2074DD499683E
:101F8000274A114217D19A6826490A4001210A437B
:101F90009A60254B1B681B0217D5244B18682449EF
:101FA000FEF78EF801300190019B002B0DD0019BB4
:101FB000013B0193F8E7836D102213438365C36DE2
:101FC0000F3A1343C365012028E0637E012B01D142
:101FD000002023E0FEF798FC050004E0FEF794FCE7
:101FE000401B02280DD823681A68D20713D49A68B8
:101FF000D207F3D49A680B490A4001210A439A6038
:10200000ECE7A36D10221343A365E36D0F3A13436E
:10201000E365012002E0002000E0002003B030BDB5
:1020200017000080E8FFFF7F08270140080000201C
:10203000400D030070B504000D001600026893689F
:102040005B0747D45423C35C012B45D001235421A3
:102050004354D1680B420DD19368DB0705D59368D3
:102060001E490B4002210B4393602268D368012173
:102070000B43D3602000FFF779FF00282BD1A26D1E
:10208000174B1A4080235B001343A3650023E365CD
:10209000226D1449D162226D13491163226D1349D7
:1020A000516322681C2111605422A3542268536892
:1020B0000C390B43536021684031206D33002A00F6
:1020C000FFF734F92268936804490B4004210B435D
:1020D000936000E0022070BD0220FCE7E8FFFF7F74
:1020E000FEF0FFFF6D1C0008471C0008531C000891
:1020F00070B5040003689A6802210800104011427C
:1021000000D001209A68D20731D5002831D19968D2
:1021100005220A40012A09D0A36D10221343A365AA
:10212000E36D0F3A1343E365012021E09A681249F9
:102130000A4002210A439A60236803221A60FEF7CC
:10214000E3FB050023689B68DB070ED5FEF7DCFB8D
:10215000401B0228F6D9A36D10221343A365E36D3B
:102160000F3A1343E365012002E0002000E0002065
:1021700070BD0020FCE7C046E8FFFF7FF0B583B0EC
:102180000400002301935433C35C012B00D1A6E06B
:1021900001265423C654FFF7ABFF050023689A6855
:1021A00031001140164209D0A36D10221343A365DC
:1021B00054230022E254280003B0F0BDA26D494828
:1021C00002400630FF300243A265DE68464A1640F0
:1021D000DA6846480240DA60080006E0B4229A58FD
:1021E0007F2313400133C018013107291DD8276808
:1021F000BA683F4B1A4018331343BB6023689A6890
:10220000002AEBDA019B01330193019AAE239B0272
:102210009A42F3D3A36D12229343023A1343A36568
:1022200054230022E2540125C5E74B081818FDF796
:1022300047FF226893682E490B4001210B439360AE
:10224000226811698023DB05994217D2294B1B684C
:10225000F02189030B40E02149038B420ED39B0CF4
:10226000033B012199400091009B5B08009302E031
:10227000009B013B0093009B002BF9D1B4215358E4
:102280007F27BB43184350502268936818490B407E
:1022900002210B439360FEF737FB070023689A681F
:1022A000D20709D4DA683243DA60A36D032293437C
:1022B000023A1343A3657BE7FEF726FBC01B022807
:1022C000ECD923689B68DB07E8D5A36D1022134384
:1022D000A365E36D0F3A1343E36501256BE7022520
:1022E00069E7C046FDFEFFFF03800000FC7FFFFFA3
:1022F000E8FFFF7F0827014030B5036A046A012523
:10230000AC4304628469EF35AC43120122430A24D2
:10231000A3430B438261036230BD000030B5036A02
:10232000046A1025AC4304628469054D2C401203F5
:102330002243A024A343090119438261016230BDF5
:10234000FF0FFFFF3D23C35C012B24D13C3302224E
:10235000C2540368134A93420FD08022D20593429D
:102360000BD0114A934208D0104A934205D01A6804
:1023700001210A431A6000200EE09A680C490A40C5
:10238000062A0AD007398A4209D01A6801210A436D
:102390001A60002000E0012070470020FCE70020C8
:1023A000FAE7C046002C0140000400400040014014
:1023B000070001000368234A904206D08022D2051C
:1023C000904202D0204A904203D1702293434A683F
:1023D00013431C4A904212D08022D20590420ED064
:1023E000194A90420BD0194A904208D0184A90429C
:1023F00005D0184A904202D0174A904203D1174A9A
:102400001A40CB681343802293434A6913438A6876
:10241000C2620A6882620B4A904208D00C4A90421B
:1024200005D00C4A904202D00B4A904201D10A6971
:102430000263026804210A430260012242610360D0
:102440007047C046002C01400004004000200040BE
:10245000004001400044014000480140FFFCFFFFF4
:1024600070B5041E2AD03D23C35C002B20D03D252F
:1024700002236355210001C9FFF79CFF0123482275
:10248000A3540A3AA3540132A3540132A354013293
:10249000A3540132A3540132A3540132A354013294
:1024A000A3540132A3540132A3546355002070BDDC
:1024B0003C330022C254FEF7CFF9D8E70120F6E7FB
:1024C00030B58468034D2C401B0213430B43234358
:1024D000836030BDFF00FFFF70B50B000468A1688A
:1024E0002C4A11405A680A432B490A4019680A438A
:1024F000A2605A68502A31D00BD9602A35D0702A90
:1025000044D1D9689A681B690068FFF7D9FF002099
:1025100070BD402A0DD02FD8202A2FD005D8002AF0
:102520002ED0102A2ED10020F2E7302A2CD1002004
:10253000EEE71A68052A2BD00268146A116A012591
:10254000A943116201688A69EF35AA431B691B011F
:1025500013438B6103681C620020D9E799681A69EC
:102560000068FFF7C9FE0020D2E799681A69006881
:10257000FFF7D4FE0020CBE70120C9E70020C7E722
:102580000020C5E70120C3E70120C1E70120BFE724
:102590000120BDE78FFFCFFFF8FFFEFF10B504005D
:1025A0003C23C35C012B22D03C230122C2540133C3
:1025B0000132C254FFF790FF002810D12268D3687F
:1025C00040218B43D3602268D3680A490B40D36013
:1025D0003D230122E254013B0022E25410BD3D2381
:1025E0000122E254013B0022E2540120F6E70220DE
:1025F000F4E7C046FFBFFFFF30B53C23C35C012BAF
:1026000030D03C230122C25401330132C25402684B
:1026100053689568144CA2421FD07024A3430C68E1
:10262000234353600368104A934209D08022D205A5
:10263000934205D00D4A934202D00D4A934204D1F1
:10264000802295438A682A439A603D230122C2541E
:10265000013B0022C254002030BD064C23404C6890
:102660002343DAE70220F7E7002C01400004004092
:1026700000400140FFFF0FFF0D488546FFF7BAF904
:10268000002103E00B4B5B58435004310A480B4BCD
:1026900042189A42F6D30A4A02E000231360043239
:1026A000084B9A42F9D300F019F8FDF71BFFFEE73B
:1026B0000078002018280008000000200C000020EE
:1026C0000C000020A4010020FEE7030082189342C2
:1026D00000D1704719700133F9E7000070B500268A
:1026E0000C4C0D4D641BA410A64209D1002600F02D
:1026F00019F80A4C0A4D641BA410A64205D170BDFE
:10270000B300EB5898470136EEE7B300EB58984713
:102710000136F2E7102800081028000814280008E5
:1027200010280008F8B5C046F8BC08BC9E467047A3
:0C273000F8B5C046F8BC08BC9E467047D7
:10273C003A0500087A050008880500089605000887
:10274C00A4050008B2050008C005000848050008EB
:10275C004805000848050008480500084805000819
:10276C004805000848050008480500084805000809
:10277C00CE050008E8050008020600081C06000843
:10278C0048050008480500084805000848050008E9
:10279C0048050008480500084805000848050008D9
:1027AC0048050008480500084805000848050008C9
:1027BC00560600080001020304050607080C101455
:1027CC001820304000000000000000000000000055
:1027DC0000000000000000000000000000000000ED
:1027EC0000000000010000000200000003000000D7
:1027FC0004000000060000000700000008000000B4
:04280C0009000000BF
:042810007901000842
:042814005101000866
:0C2818000100000004000000001BB700DD
:040000050800267950
:00000001FF
