:020000040800F2
:10000000007800209D24000871070008730700088D
:1000100000000000000000000000000000000000E0
:10002000000000000000000000000000750700084C
:1000300000000000000000007707000879070008B2
:10004000ED24000800000000ED240008ED24000865
:10005000ED240008ED240008ED240008ED2400083C
:1000600000000000ED240008ED240008ED24000845
:10007000ED240008ED240008ED240008ED2400081C
:10008000ED2400080000000000000000ED2400083E
:10009000ED240008ED240008ED240008ED240008FC
:1000A000ED240008ED240008ED240008ED240008EC
:1000B000ED240008ED240008ED240008ED240008DC
:1000C000002934D00123002210B488422CD301240B
:1000D0002407A14204D2814202D209011B01F8E7A0
:1000E000E400A14204D2814202D249005B00F8E759
:1000F000884201D3401A1A434C08A04202D3001B85
:100100005C0822438C08A04202D3001B9C082243B7
:10011000CC08A04202D3001BDC082243002803D0F5
:100120001B0901D00909E3E7100010BC704701B5B5
:10013000002000F00BF802BD0029F8D003B5FFF74E
:10014000C1FF0EBC4243891A1847C0467047C046DB
:1001500010B5064C2378002B07D1054B002B02D09D
:10016000044800E000BF0123237010BD0C000020F4
:100170000000000048250008044B10B5002B03D0F8
:100180000349044800E000BF10BDC0460000000065
:100190001000002048250008BFF34F8F034B044A8E
:1001A000DA60BFF34F8FC046FDE7C04600ED00E0C8
:1001B0000400FA05F0B5C64600B588B003AC1422B9
:1001C0000021200002F093F9254B596B02221143C4
:1001D0005963596B0A400092009A5A6B01263243C8
:1001E0005A635A6B32400192019A596B04221143AF
:1001F00059635B6B1A400292029BC025AD00194BFC
:10020000984600222900180001F0A8FAA027FF054F
:1002100001220F21380001F0A1FA00222900380044
:1002200001F09CFA01221021404601F097FAC42304
:100230009B000393049600250595069521004046F2
:1002400001F0AEF9084B039304960595069521003D
:10025000380001F0A5F908B080BCB846F0BDC04632
:1002600000100240000400500F03000070B58AB077
:1002700004000D0001AE24220021300002F037F905
:10028000C82301930495064801F06AFD0028FAD0BE
:100290000348220001A901F07DFC0AB070BDC046F0
:1002A000C000002072B6FEE700B585B00C22002128
:1002B00001A802F01CF92D482D4B0360C0231B063A
:1002C000436000238360C36080221206026104221F
:1002D0004261037643768376033AC2611F328354C8
:1002E000436283620C32835403634363103283544A
:1002F000C36400F0F3FB00282BD101A91D4B01932F
:1003000001234B60194800F009FD002823D11A4B46
:100310000193164801A900F001FD00281DD1174BDB
:100320000193124801A900F0F9FC002817D1144BE1
:1003300001930E4801A900F0F1FC002811D1114BE6
:1003400001930A4801A900F0E9FC00280BD105B08F
:1003500000BDFFF7A7FFFFF7A5FFFFF7A3FFFFF71C
:10036000A1FFFFF79FFFFFF79DFFC046240100207C
:100370000024014010000010200000148000001C28
:10038000000004480000084C10B588B01C481D4B04
:100390000360002343608360C360012202744374DE
:1003A00083740421416182610931C1610B390162A9
:1003B00042628262C262026342638363C36301F08A
:1003C0009DFA002819D102AC18220021200002F069
:1003D0008EF8012304930593C7330693084B21003D
:1003E0001C00180001F076FB022300930222022178
:1003F000200001F09EFB08B010BDFFF753FFC04680
:10040000C00000200064004000B58BB00C22002129
:1004100007A802F06CF81C220021684602F067F879
:1004200022488023DB0503600B23436000238360A5
:100430001F4AC26003618033836101F027FE0028F8
:1004400029D107A9002307938B60184801F0DEFF2C
:10045000002822D1694660230093164B01930023A4
:10046000029304931148002201F082FE002816D165
:100470000E480422694601F07BFE002811D10B488A
:100480000822694601F074FE00280CD1074800F0EC
:100490005DFA0BB000BDFFF705FFFFF703FFFFF7A5
:1004A00001FFFFF7FFFEFFF7FDFEC04674000020CE
:1004B0001F4E0000DC05000000B58BB00C220021AF
:1004C00007A802F014F81C220021684602F00FF879
:1004D0001748184B03600B23436000238360164AC0
:1004E000C2600361836101F0D1FD00281AD107A920
:1004F000002307938B600E4801F088FF002813D17A
:1005000069466023009300230193029304930848F3
:10051000002201F02DFE002808D1054800F016FA4F
:100520000BB000BDFFF7BEFEFFF7BCFEFFF7BAFE43
:1005300028000020000400401F4E000010B58CB0C1
:1005400005AC1C220021200001F0D1FF1422002163
:10055000684601F0CCFF134A136807218B431360F0
:1005600002230593FE33089380235B010993402304
:100570000A93200000F012FD00280ED168460723E0
:10058000009300230193029303930493002100F04E
:100590009BFE002803D10CB010BDFFF783FEFFF7D0
:1005A00081FEC0460020024010B58EB000F066FA11
:1005B000FFF7C4FFFFF7FEFDFFF776FEFFF7E4FE4F
:1005C000FFF722FFFFF778FF644801F0CDFA644C93
:1005D0000021200001F07CFE0421200001F078FEC3
:1005E0000821200001F074FE5E48002101F070FE39
:1005F00011E0FF2B0FD102216846FFF737FE0A20DA
:1006000000F05AFAFFF7C8FD6B4602225A70022129
:100610006846FFF72BFE5148402101F093FB00286C
:10062000F9D002AC4D48230004AA402101F0DCFAC5
:1006300023786A461370002151706178A278120203
:100640001143182BD5D8E6D89B00474AD3589F466C
:10065000A02001220121C00501F080F8D7E7A020E9
:1006600001220221C00501F079F8D0E7A020012283
:100670000421C00501F072F8C9E7A0200122082179
:10068000C00501F06BF8C2E7A02000220121C005DF
:1006900001F064F8BBE7A02000220221C00501F0B0
:1006A0005DF8B4E7A02000220421C00501F056F84F
:1006B000ADE7A02000220821C00501F04FF8A6E711
:1006C0008023DB055963A2E78023DB0599639EE75E
:1006D0008023DB05D9639AE7244B596397E780238E
:1006E000DB055B6B6A46511C9AB2FF2003400B701E
:1006F000120A4A7003216846FFF7B8FD87E7802396
:10070000DB059B6B6A46511C9AB2FF2003400B70BD
:10071000120A4A7003216846FFF7A8FD77E7802395
:10072000DB05DB6B6A46511C9AB2FF2003400B705D
:10073000120A4A7003216846FFF798FD67E70B4BE2
:100740005B6B6A46511C9AB2FF2003400B70120A81
:100750004A7003216846FFF789FD58E7C000002072
:1007600074000020280000206025000800040040DC
:10077000FEE7FEE77047704710B500F08BF910BD3B
:1007800082B00A4B196C012211431964196C0A409A
:100790000092009ADA6B802149050A43DA63DB6B29
:1007A0000B400193019B02B07047C046001002400D
:1007B00070B590B00400142200210BA801F097FE40
:1007C0002022002103A801F092FE22681E4B9A42CB
:1007D00001D010B070BD2023039303A800F03CFEAD
:1007E00000282ED1194B1A6C802149030A431A6440
:1007F0001A6C0A400092009A596B01221143596306
:10080000596B0A400192019A596B022211435963B4
:100810005B6B1A400292029B0BACB0230B93032636
:100820000C9600250D95A0202100C00500F0B8FE13
:1008300006230B930C960D952100054800F0B0FEA1
:10084000C7E7FFF72FFDCDE700240140001002406D
:1008500000040050F0B591B00400142200210BA850
:1008600001F045FE2022002103A801F040FE22688D
:10087000214B9A4201D011B0F0BD03A8102303937D
:10088000F033436100F0E8FD002831D11B4BDA6BF7
:10089000802149010A43DA63DA6B0A400092009A28
:1008A000586B012210435863586B02400192019A21
:1008B0005A6B022632435A635B6B33400293029BAE
:1008C0000BAC0B910C9600250D950E9504270F97F8
:1008D000A0202100C00500F063FE20230B930C969E
:1008E0000D950E950F972100054800F059FEC2E7BF
:1008F000FFF7D8FCCAE7C046006400400010024081
:100900000004005082B003688022D205934204D0D4
:100910000C4A93420BD002B070470B4AD16B0123B3
:100920001943D163D26B13400093009BF3E7064A4F
:10093000D16B02231943D163D26B13400193019B06
:10094000E9E7C046000400400010024070B58AB0DC
:1009500004001422002105A801F0C9FD23688022AB
:10096000D205934204D02B4A93423ED00AB070BDC8
:10097000294B596B042211435963596B0A40019268
:10098000019A596B012211435963596B0A40029233
:10099000029A5A6B02252A435A635B6B2B400393DE
:1009A000039B05AC4023059306953D3B099321002D
:1009B0001A4800F0F5FD80231B02059306950026DA
:1009C0000796089605230993A0202100C00500F092
:1009D000E7FD08230593069507960896023B0993C1
:1009E00021000F4800F0DCFDC0E70B4A516B0123EA
:1009F00019435163526B1A400492049A05A940228C
:100A000005923E3A4A600B61A020C00500F0C8FD87
:100A1000ACE7C0460004004000100240000800504F
:100A20000004005010B50400114B1978002901D1C1
:100A3000012010BDFA208000FFF742FB01000D4BA2
:100A40001868FFF73DFB00F0DFFE00280DD1032CF6
:100A500001D90120EDE7013000222100404200F0E1
:100A6000CFFE054B1C600020E3E70120E1E7C04614
:100A700000000020080000200400002010B5032022
:100A8000FFF7D0FF041E02D00124200010BDFFF7A5
:100A900077FEFAE7034B1B78034A11685B18136073
:100AA0007047C0460000002088010020014B1868F4
:100AB0007047C0468801002070B50400FFF7F6FFBC
:100AC0000500631C02D0044B1B78E418FFF7EEFF0F
:100AD000401BA042FAD370BD0000002030B583B0A7
:100AE000040000230193002800D105E1836D002B51
:100AF00012D023689A68D2001BD499687F4A1140AB
:100B0000802252050A439A607D4B18687D49FFF7A1
:100B1000D7FA4000019009E0FFF74AFE0023E365A1
:100B20005422A354E5E7019B013B0193019B002B59
:100B3000F9D123689A68D20000D59DE0A26D1021FA
:100B40000A43A265E26D0F390A43E26501209A6803
:100B500004210D001540114200D00125A26DD206DE
:100B600000D5C2E0002D00D0BFE0A26D66490A406A
:100B70000631FF310A43A2659A68D20752D4A268AF
:100B8000217E89030A43617EC9030A43A57E690366
:100B90000A43216B002901D0802149010A43E16801
:100BA0000A432169002969DB802189030A432C213A
:100BB000615C49000A432021615C012961D0616ABE
:100BC000002905D0E0256D002940A56A29430A4384
:100BD000D9684E4D29400A43DA6063689B0F9B0732
:100BE000E26C1A433C21615C012959D021680B69F0
:100BF000474D2B4013430B616368C022120693429A
:100C000010D08022D20593420CD08022120693424B
:100C100008D040490A68404D2A40F025AD032B40DA
:100C200013430B602168636B4A690725AA4313438A
:100C30004B612168A26B4B696935AB4312011343C9
:100C40004B612369002B35D12268916A103B0B431D
:100C5000936223685A6907231340626B9A423BD020
:100C6000A36D12229343023A1343A365E36D0F3A37
:100C70001343E36501203DE0002068E7490049088F
:100C800094E7002D03D1802149020A4397E7A16D23
:100C900020252943A165E16D1F3D2943E1658EE7CC
:100CA000216C0B43616C0B43A16C0B43134301227A
:100CB0001A439BE7802292039342CAD121688B6A30
:100CC000E369013B9B001C221A4010235B429340C6
:100CD000226E13438B62BCE70023E365A36D0322FE
:100CE0009343023A1343A36504E0A36D1022134318
:100CF000A365012003B030BD0120FBE7E8FFFF6FD3
:100D000008000020400D0300FDFEFFFF0102DEFF92
:100D100002FCFF1F08270140FFFFC3FFF0B583B0AF
:100D200004000023019305695433C35C012B00D1F7
:100D300021E154230122C254006883680332160063
:100D40001E401A4209D0A36D1C321343A365012033
:100D500054230022E25403B0F0BD4B68022B00D1B3
:100D6000D5E080221206954225D0844A954222D0B1
:100D7000226E1F271F400F25BD40AA430B685D024E
:100D80002FD19B0E1F261E40BE40324322664D6867
:100D9000AB080133E269934213D80E68826A1F23BD
:100DA0001D40103B1F00AF40BA43B60E3340AB406E
:100DB0001343836205E00B68826A5B025B0A13439C
:100DC000836220680B688D6842691B029A432B403E
:100DD0006B4D2B40134343610B68002B5FDB0020FE
:100DE000B6E7DD07D0D49D072FD45D072FD41D07AC
:100DF0002FD4DD062FD49D062FD45D062FD41D06DB
:100E00002FD4DD052FD49D052FD45D052FD41D05CE
:100E10002FD4DD042FD49D042FD45D042FD41D04C2
:100E20002FD4DD032FD49D032FD45D032FD41D03B6
:100E30002FD4DD022FD49D022FD48025ED031E0078
:100E40002E402B42A0D016269EE701269CE70226C4
:100E50009AE7032698E7042696E7052694E70626F0
:100E600092E7072690E708268EE709268CE70A26F0
:100E70008AE70B2688E70C2686E70D2684E70E26F0
:100E800082E70F2680E710267EE711267CE71226F0
:100E90007AE7132678E7142676E7152674E7394AA9
:100EA0001168C02212040A403748834204D03748F0
:100EB00083421FD000204BE70802F8D480231B0494
:100EC000134330490A683248024013430B60314BE8
:100ED00018683149FFF7F4F843001B189B000133F1
:100EE000019302E0019B013B0193019B002BF9D18F
:100EF00000202DE749023CD48023DB031343214922
:100F00000A682348024013430B60002020E7802337
:100F10001B069D4202D0194B9D4205D10B68826A87
:100F20005B025B0A9A4382620B68002B01DB0020A4
:100F30000EE7144A126814498B4204D013498B42BD
:100F40000CD0002004E78023DB031A400D490B6816
:100F50000F4803401A430A600020F9E680231B046F
:100F60001A4008490B680A4803401A430A600020E7
:100F7000EEE60020ECE60220EDE6C046040000802C
:100F800000FFFF7F08270140000200A4000400A822
:100F9000FFFF3FFF08000020400D030070B5041E56
:100FA00000D139E10368DB072CD5A14B9A683823BF
:100FB0001340082B22D043688022520293422ED045
:100FC000A022D202934231D0994B1A6899490A4023
:100FD0001A601A6898490A401A606368002B31D079
:100FE000FFF764FD0500924B1B689B030AD4FFF7D3
:100FF0005DFD401B6428F6D903200EE14368002BF9
:1010000000D10BE123689B0747D5894B9B683822A9
:101010001A4261D1E368002B22D10120FDE0844A0D
:10102000116880235B020B431360D6E7804B19687D
:101030008022D2020A431A601968802252020A43AF
:101040001A60CAE7FFF732FD0500794B1B689B0366
:10105000D8D5FFF72BFD401B6428F6D90320DCE030
:10106000734B5A6875490A40616909020A435A601C
:101070001A6873490A4021690A431A601B68DB0A2F
:1010800007221A406F4BD3406F4A13606F4B1868AA
:10109000FFF7C8FC002800D0C2E023681B0757D523
:1010A000634B9A6838231340182B4ED0A369002B4A
:1010B00077D05F4A136E01210B431366FFF7F6FCEE
:1010C00005005B4B1B6E9B0742D4FFF7EFFC401BF8
:1010D0000228F6D90320A0E0E368002B22D0544A6E
:1010E000136857490B4021690B4313601168802333
:1010F0005B000B431360FFF7D9FC05004C4B1B68EA
:101100005B0506D4FFF7D2FC401B0228F6D903206A
:1011100083E047494B68494A13406269120213430E
:101120004B60BAE7424A136849490B401360FFF726
:10113000BDFC05003E4B1B685B05AED5FFF7B6FC5A
:10114000401B0228F6D9032067E0A369002B69D071
:1011500023685B0768D5364B9A6838231340202BE9
:1011600032D0A368012B34D0052B38D0304BDA6D48
:1011700001218A43DA65DA6D03318A43DA65A368AF
:10118000002B38D0FFF792FC0400294BDB6D9B0746
:101190002FD4FFF78BFC001B2E4B9842F5D9032070
:1011A0003BE0234A136E01218B431366FFF77EFC5D
:1011B00005001F4B1B6E9B07CAD5FFF777FC401B32
:1011C0000228F6D9032028E0A368002B2ED00020A7
:1011D00023E0174AD36D01210B43D365CFE7144BAE
:1011E000DA6D04210A43DA65DA6D03390A43DA65F8
:1011F000C5E7002011E0FFF759FC04000C4BDB6D44
:101200009B0707D5FFF752FC001B124B9842F5D9FC
:10121000032002E0002000E0012070BD0120FCE777
:101220000120FAE70120F8E70020F6E70120F4E7C3
:1012300000100240FFFFFEFFFFFFFBFFFF80FFFFEC
:10124000FFC7FFFF006CDC02080000200400002044
:10125000FFFEFFFF8813000010B5184A13689B08B3
:10126000072119400131936838221A4209D1134BE2
:101270001A68D20A072313401148D840FEF720FF0E
:1012800010BD0E4B9A6838231340082B10D00B4B1F
:101290009A6838231340202B0CD0084B9A683823C7
:1012A0001340182B01D00020E8E7FA20C001E5E741
:1012B0000448E3E780200002E0E7C0460010024057
:1012C000006CDC0200127A0070B504000D000028EA
:1012D00000D1AAE0574B1A68072313408B4228D34A
:1012E00023689A0710D55B0707D553498A68534B83
:1012F0001A40B0231B0113438B604F4A9368504937
:101300000B40E1680B4393602368DB0752D54A4AE0
:1013100013681C218B43A1680B4313606368012B86
:101320001ED0002B38D1444A126852051BD401202C
:1013300063E0404A136807218B432B431360FFF798
:10134000B5FB06003B4B1A6807231340AB42C7D0DE
:10135000FFF7ACFB801B3B4A9042F3D903204CE0E3
:101360001268920363D534498A6807208243134385
:101370008B60FFF79BFB06002F4B9B6838221A40BF
:101380006368DB009A4215D0FFF790FB801B2D4B62
:101390009842F1D9032030E0032B05D0264AD26DC4
:1013A0009207E0D4012028E0234A126E9207DAD493
:1013B000012022E01F4B1A6807231340AB421DD8BF
:1013C00023685B0706D51C4A93681F490B402169B7
:1013D0000B439360FFF740FF174B9A68120A0F23E5
:1013E00013401A4A9B009A581F231340D840184BA9
:1013F0001860184B1868FFF715FB70BD0D4A13688D
:1014000007218B432B431360FFF750FB0600094B6A
:101410001A6807231340AB42D2D0FFF747FB801B6B
:10142000084B9842F3D90320E7E70120E5E70120C4
:10143000E3E7C0460020024000100240FF84FFFFA7
:10144000FFF0FFFF88130000FF8FFFFFB0260008AA
:10145000080000200400002070B582B0040003687A
:101460005B0650D5474BDB6BDB0035D4454BDA6B65
:10147000802149050A43DA63DB6B0B400193019B32
:101480000125404BD96DC02292000B001340114240
:1014900035D0E2699A420DD03A4AD36D3A490B40B1
:1014A000D06D802149020143D165D16D374801409B
:1014B000D165D365DB0711D4324AD36D32490B4075
:1014C000E1690B43D3650020012D1DD12D4AD36B5B
:1014D0002F490B40D36317E00025D2E7FFF7E6FA68
:1014E0000600284BDB6D9B0707D4FFF7DFFA801B54
:1014F000284B9842F5D9032002E0002000E00020AC
:101500000028E1D1D8E700202368DB0706D51D4A73
:10151000536D03218B43A1680B43536523689B07DD
:1015200006D5184A536D1C490B40E1680B435365BF
:1015300023689B0606D5134A536D9B009B08A1693F
:101540000B4353652368DB0606D50E4A536D0E49DF
:101550000B4061690B43536523685B0706D5094A55
:10156000536D0E490B4021690B43536523681B06DD
:1015700006D5044A1368E0218B4361680B4313606E
:1015800002B070BD00100240FFFCFFFFFFFFFEFF36
:10159000FFFFFFEF88130000FFCFFFFFFF3FFFFFBC
:1015A000F0B5D6464F464646C0B500233BE005257C
:1015B00000E00025A5402C003C43634D183292000A
:1015C00054518022AF584A46D2433D004C46A54371
:1015D0004C68E40302D53D004C4625435A4C802715
:1015E000E551842567593D0015404C68A40302D598
:1015F0003D004C462543544C8427E55127683D0067
:1016000015404C68E40202D53D004C4625434E4C43
:10161000256065682A404C68A40201D54A462A43E1
:10162000494C626001330C682200DA4000D186E048
:1016300001229A4026001640B1461442F2D04C686E
:10164000022C01D0122C18D1DD080835AD002C5821
:10165000A44607271F40BF000F24A2462600BE4015
:10166000B04666464446A643B4460C6956462640F4
:101670003400BC40664634432C500468A4465D00E8
:101680000324A2462700AF40B846FF4366464446BF
:10169000A643B4464C68564626403400AC406646E5
:1016A000344304604C68661E012E03D9112C01D00E
:1016B000122C12D184683C40A446CC68AC406646EB
:1016C00034438460446894434A6812099446012272
:1016D000664632409A40224342604A68032A05D057
:1016E000C4683C408A68AA402243C2604A68D2006B
:1016F00098D59A0814001834A400134D6759032490
:101700001C40E4000F25A540AF43A025ED05A842ED
:1017100000D14EE70D4DA8420BD00D4DA8420AD086
:101720000C4DA84209D00C4DA84200D13FE7062538
:1017300040E701253EE702253CE703253AE7E0BC08
:10174000BA46B146A846F0BD001802400004005059
:1017500000080050000C005000140050002A01D076
:10176000816170478162FCE770B5002811DB830856
:10177000134DC0339B005C5903221040C000FC3263
:1017800016008640B44389010A40824022435A51E0
:1017900070BD0F230340083B9B0806339B00094A9A
:1017A000944663445C6803221040C000FC3215007C
:1017B0008540AC4389010A40824022435A60E7E7F2
:1017C00000E100E000ED00E0013880235B04984276
:1017D0000FD2094A50600948036A1B021B0AC02144
:1017E00009060B4303620023936007331360002054
:1017F00070470120FCE7C04610E000E000ED00E08B
:1018000010B5FFF7B1FF10BD10B5FFF7DDFF10BD3C
:1018100030B5124B0364056880216A58104C224091
:10182000446B240422436A500E4A426405686A5895
:101830000D4C2240846B240622436A500B4A82647A
:101840000B4AC2640B4A02650B4A426501E0002262
:1018500004C30A4A9342FAD930BDC04600B40040DE
:10186000FFFFE0FF70B40040FFFFFFF0B0B40040A6
:1018700088B5004060B6004078B600404FB70040E1
:10188000F0B51F004B68002B1AD10D698B681D4302
:101890000B689B041D430C6A2406CB691C438B69AF
:1018A0001C434B691C43CB681B041C43466DFB0067
:1018B000DB19DB00F618356074600836002015E08F
:1018C0000B698C6823430C6823438025ED051D4379
:1018D000E1E71418E3781B06A5782D042B43647800
:1018E00024022343145C234308C60430CB68024C13
:1018F000E35C8342EDD8F0BDC425000870B5041E3A
:1019000000D1DCE05C23C35C002B19D02268936912
:1019100010218B439361FFF7C9F805002268936992
:101920001B0713D5FFF7C2F8401B0A28F6D9236E10
:101930000122134323665C230232E254012070BD6E
:101940005D330022C254FEF785FFDFE79369012172
:101950000B439361FFF7AAF8050022689369DB0740
:101960000DD4FFF7A3F8401B0A28F6D9236E0122F5
:10197000134323665C230232E2540120DFE79369BC
:1019800002210B43936162684E4B1A60237C012B4A
:1019900040D02268936940210B439361637C012B03
:1019A0003ED02268936948490B409361A37C012B88
:1019B0003DD02268916980235B010B4393612268CB
:1019C000936942490B40A1680B4393612268936974
:1019D000A4218B4393612268136994398B4313616B
:1019E000E368012B29D0002B2CD0022B50D0226889
:1019F000936980210B4393612268136970390B430B
:101A00001361E368032B1DD12268936910310B43E6
:101A1000936117E0226893693E318B439361BDE780
:101A2000226891698023DB010B439361BEE7226842
:101A3000936927490B409361C1E7226893690C3988
:101A40000B439361A369013B5B06E269013A120211
:101A50001343226A013A13436269013A120421686E
:101A60001343CB61A268C0239B009A4216D0216821
:101A7000C0228B58E06B03438B502000FFF7C8FE59
:101A80000023A36523665C330122E254002056E75D
:101A90002268936920210B439361D3E7A36A013B3A
:101AA000E26A013A12021343226B013A1201134314
:101AB000626A013A120421681343CB60D7E7012020
:101AC0003DE7C04600650040FFBFFFFFFFFCFFFF92
:101AD000FFEFFFFF10B55C23C35C013BDBB2012BC2
:101AE00005D9036E022213430366012010BD0B6863
:101AF000002B0FD18B689B07CA68D20613430A6973
:101B0000120413434A691343006C4A6892008350DD
:101B10000020EBE7CA6852070B691A438B689B07E2
:101B20004C692343406C4968C90041180A604B6006
:101B3000EEE770B55C24045D012C05D0036E042231
:101B400013430366012070BD05687F3428593F2682
:101B5000B0430901920011435B001943049B1943F0
:101B6000014329510020EEE75C23C35C012B05D023
:101B7000036E042213430366012070475B33022285
:101B8000C2540268936901218B4393610023036669
:101B90000020F2E770B504005C23C35C022B1CD16B
:101BA0000068C233C3589B0206D5226E80239B0077
:101BB00013432366012015E0C423C3581B0C0325DF
:101BC0001D402B002000FFF75BFE21680123AB4086
:101BD000CC228B50A365002004E0036E082213433F
:101BE0000366012070BD0000F0B55C24045D022C8A
:101BF00000D09FE040290BD00468982565592D0737
:101C000031D1026E80235B0013430366012096E00E
:101C10000468902565592D0706D1026E80235B006C
:101C20001343036601208AE09025665980256D04E0
:101C300037002F402E4208D0802566598135FF3568
:101C400037002F402E4200D00127902565592D0ADC
:101C500003242C40BC46A444856C6446E4006444E0
:101C6000E4002D191CE09825665980256D04370085
:101C70002F402E4207D080256659803537002F40EF
:101C80002E4200D00127982565592D0A03242C40A7
:101C9000BC46A444C56C6446E4006444E4002D19C9
:101CA0002C688026F6053440546028D12C68A40C9A
:101CB0006405640D14602C688026B6053440946079
:101CC0002C68E40FE40714616C682404240CD461CC
:101CD000EE880F243440D4606C688026760334404C
:101CE00054616C688026B60334409461EE797F2499
:101CF000344014626C68E40F5462002408E02C68DD
:101D0000E400E4081460D6E72E19367A1E55013433
:101D1000D6680B4FBE5DA642F6D8402905D00268B2
:101D20009C236146D150002009E00268942361465B
:101D3000D150F8E7036E0822134303660120F0BD7B
:101D4000C4250008402905D002689823D3580F20E5
:101D50001840704702689023D3580F201840F8E7C6
:101D60000268C423D35807201840704730B5056A6D
:101D7000036A01229343036242688369194C23403A
:101D80000C681C4302239D438B682B43164DA842CD
:101D900008D0164DA84205D0154DA84202D0154DC9
:101DA000A84206D10825AB431D00CB682B43042570
:101DB000AB430D4DA84208D00C4DA84205D00C4DA8
:101DC000A84202D00B4DA84205D10B4D2A404D69C7
:101DD00015438A692A43426084614A684263036208
:101DE00030BDC0468CFFFEFF002C0140004001408A
:101DF0000044014000480140FFFCFFFF30B5046A89
:101E0000036A184A134003624268C369164D2B40A7
:101E10000D681D43154B1C408B681B022343144C5B
:101E2000A04209D0134CA0420DD0134CA0420AD0BE
:101E3000124CA0420FD106E0114C1C40CB681B0293
:101E40002343104C2340104C22404C69240114437E
:101E50008A69120122434260C5614A68C263036213
:101E600030BDC046FFFEFFFF8CFFFEFFFFFDFFFF02
:101E7000002C014000400140004401400048014066
:101E8000FFF7FFFFFFFBFFFFFFCFFFFF30B5046A47
:101E9000036A134A134003624368C269114D2A4022
:101EA0000D682D021543104A14408A68120322431C
:101EB0000E4CA04208D00E4CA04205D00D4CA042C2
:101EC00002D00D4CA04204D10C4C1C404B699B012C
:101ED00023434360C5614B680364026230BDC04662
:101EE000FFEFFFFFFF8CFFFEFFDFFFFF002C014035
:101EF000004001400044014000480140FFBFFFFF97
:101F000030B5046A036A124A134003624368426DA3
:101F1000104D2A400D6815430F4A14408A68120478
:101F200022430E4CA04208D00D4CA04205D00D4CCF
:101F3000A04202D00C4CA04204D1054C1C404B697D
:101F40001B022343436045654B688365026230BDD5
:101F5000FFFFFEFF8FFFFEFFFFFFFDFF002C014094
:101F600000400140004401400048014030B5046A8F
:101F7000036A134A134003624368426D114D2A40BD
:101F80000D682D021543104A14408A681205224339
:101F90000E4CA04208D00E4CA04205D00D4CA042E1
:101FA00002D00D4CA04204D10C4C1C404B699B024A
:101FB0002343436045654B68C365026230BDC0463C
:101FC000FFFFEFFFFF8FFFFEFFFFDFFF002C014051
:101FD000004001400044014000480140FFFFFBFF7A
:101FE0000368234A904206D08022D205904202D054
:101FF000204A904203D1702293434A6813431C4AFB
:10200000904212D08022D20590420ED0194A9042BE
:102010000BD0194A904208D0184A904205D0184A6D
:10202000904202D0174A904203D1174A1A40CB6817
:102030001343802293434A6913438A68C2620A6841
:1020400082620B4A904208D00C4A904205D00C4A5A
:10205000904202D00B4A904201D10A6902630268A1
:1020600004210A4302600122426103607047C046B6
:10207000002C0140000400400020004000400140CE
:102080000044014000480140FFFCFFFF70B5041E02
:102090002AD03D23C35C002B20D03D25022363556D
:1020A000210001C9FFF79CFF01234822A3540A3AEB
:1020B000A3540132A3540132A3540132A354013278
:1020C000A3540132A3540132A3540132A354013268
:1020D000A3540132A3546355002070BD3C33002249
:1020E000C254FEF70FFCD8E70120F6E770B5026A8C
:1020F000036A1024A343036244688369164D2B408E
:102100000D682D021D4320239A438B681B01134346
:10211000124A904209D0124A90420ED0114A90427F
:102120000BD0114A904210D107E0802293431E0049
:10213000CB681B013343403A93430C4A14404A692D
:10214000920022438C69A4001443446085614A686C
:102150008263036270BDC046FF8CFFFE002C01400D
:10216000004001400044014000480140FFF3FFFFF0
:1021700070B504000D003C23C35C012B00D192E03C
:102180003C230121C154142A00D987E09200474B17
:102190009B589F4600682900FFF7E8FD2268936975
:1021A00008210B4393612268936904398B4393613F
:1021B0002268936929690B43936100206FE00068EE
:1021C0002900FFF793FF2268916980231B010B43CD
:1021D00093612268936936490B40936121688B694A
:1021E0002A69120213438B61002058E0006829001D
:1021F000FFF704FE2268D36908210B43D3612268EC
:10220000D36904398B43D3612268D36929690B43AD
:10221000D361002043E000682900FFF737FE226801
:10222000D16980231B010B43D3612268D369204904
:102230000B40D3612168CB692A6912021343CB6139
:1022400000202CE000682900FFF75AFE2268536D39
:1022500008210B4353652268536D04398B43536542
:102260002268536D29690B435365002017E000680D
:102270002900FFF77BFE2268516D80231B010B4371
:1022800053652268536D0A490B40536521684B6DB5
:102290002A69120213434B65002000E001203C2311
:1022A0000022E25470BD0220FCE7C046D42500089D
:1022B000FFFBFFFF10B51F23194001248C40036A68
:1022C000A3430362036A8A401343036210BD000004
:1022D00010B50400102926D88B00444AD3589F46D5
:1022E0003E23C35C013B5A1E9341DBB221E03F23F6
:1022F000C35C013B5A1E9341DBB21AE04023C35C2E
:10230000013B5A1E9341DBB213E04123C35C013B06
:102310005A1E9341DBB20CE04223C35C013B5A1EC0
:102320009341DBB205E04323E35C013B5A1E93413A
:10233000DBB2002B54D1102917D88B002C4AD3586C
:102340009F463E230222E25412E03F230222E2543F
:102350000EE040230222E2540AE041230222E2542A
:1023600006E042230222E25402E043230222E25426
:1023700020680122FFF79EFF23681E4A934208D07F
:102380001D4A934205D01D4A934202D01C4A9342F3
:1023900004D1596C802212020A435A642368154AF8
:1023A00093420FD08022D20593420BD0154A93421C
:1023B00008D0114A934205D01A6801210A431A60D5
:1023C00000200EE09A6810490A40062A0AD0073910
:1023D0008A4209D01A6801210A431A60002000E0ED
:1023E000012010BD0020FCE70020FAE728260008A5
:1023F0006C260008002C01400040014000440140D0
:1024000000480140000400400700010030B53C23B3
:10241000C35C012B30D03C230122C2540133013272
:10242000C254026853689568144CA2421FD07024AD
:10243000A3430C68234353600368104A934209D0B6
:102440008022D205934205D00D4A934202D00D4A14
:10245000934204D1802295438A682A439A603D239F
:102460000122C254013B0022C254002030BD064C60
:1024700023404C682343DAE70220F7E7002C0140B1
:102480000004004000400140FFFF0FFF024B80228C
:1024900012059A607047C04600ED00E00D48854681
:1024A000FFF7F4FF002103E00B4B5B58435004316E
:1024B0000A480B4B42189A42F6D30A4A02E000231C
:1024C00013600432084B9A42F9D300F019F8FEF772
:1024D0006BF8FEE700780020F826000800000020D6
:1024E0000C0000200C0000208C010020FEE70300FF
:1024F0008218934200D1704719700133F9E7000048
:1025000070B500260C4C0D4D641BA410A64209D1D9
:10251000002600F019F80A4C0A4D641BA410A642CC
:1025200005D170BDB300EB5898470136EEE7B30014
:10253000EB5898470136F2E7F0260008F02600082D
:10254000F4260008F0260008F8B5C046F8BC08BC20
:102550009E467047F8B5C046F8BC08BC9E4670471A
:1025600008060008500600085E0600086C06000811
:102570007A0600088806000896060008A4060008E7
:10258000B20600081606000816060008160600081F
:1025900016060008160600081606000816060008AB
:1025A00016060008C0060008C8060008D006000885
:1025B000D8060008DE060008FE0600081E07000810
:1025C0003E0700080001020304050607080C10146A
:1025D00018203040942100089C2200089C2200080A
:1025E0009C220008BE2100089C2200089C220008B2
:1025F0009C220008EC2100089C2200089C22000874
:102600009C220008162200089C2200089C22000838
:102610009C220008442200089C2200089C220008FA
:102620009C2200086E220008E022000826230008F1
:102630002623000826230008EE220008262300088F
:102640002623000826230008FC2200082623000871
:1026500026230008262300080A2300082623000852
:102660002623000826230008182300084223000818
:102670006A2300086A2300086A2300084A23000826
:102680006A2300086A2300086A230008522300080E
:102690006A2300086A2300086A2300085A230008F6
:1026A0006A2300086A2300086A23000862230008DE
:1026B000000000000000000000000000000000001A
:1026C000000000000000000000000000000000000A
:1026D00001000000020000000300000004000000F0
:1026E00006000000070000000800000009000000CC
:0426F0007901000864
:0426F4005101000888
:0C26F8000100000004000000001BB700FF
:040000050800249D2E
:00000001FF
