:020000040800F2
:1000000000780020391D0008590500085B0500082C
:1000100000000000000000000000000000000000E0
:100020000000000000000000000000005D05000866
:1000300000000000000000005F05000861050008E6
:10004000891D000800000000891D0008891D0008A6
:10005000891D0008891D0008891D0008891D0008E8
:1000600000000000891D0008891D0008891D000886
:10007000891D0008891D0008891D0008891D0008C8
:10008000891D00080000000000000000891D000814
:10009000891D0008891D0008891D0008891D0008A8
:1000A000891D0008891D0008891D0008891D000898
:1000B000891D0008891D0008891D0008891D000888
:1000C000002934D00123002210B488422CD301240B
:1000D0002407A14204D2814202D209011B01F8E7A0
:1000E000E400A14204D2814202D249005B00F8E759
:1000F000884201D3401A1A434C08A04202D3001B85
:100100005C0822438C08A04202D3001B9C082243B7
:10011000CC08A04202D3001BDC082243002803D0F5
:100120001B0901D00909E3E7100010BC704701B5B5
:10013000002000F00BF802BD0029F8D003B5FFF74E
:10014000C1FF0EBC4243891A1847C0467047C046DB
:1001500010B5064C2378002B07D1054B002B02D09D
:10016000044800E000BF0123237010BD0C000020F4
:1001700000000000E41D0008044B10B5002B03D064
:100180000349044800E000BF10BDC0460000000065
:1001900010000020E41D0008BFF34F8F034B044AFA
:1001A000DA60BFF34F8FC046FDE7C04600ED00E0C8
:1001B0000400FA0570B588B003AC142200212000B9
:1001C00001F0E3FD114B5A6B01252A435A635A6B28
:1001D0002A400192019A596B0222114359635B6BC9
:1001E0001A400292029BA026F6050122202130002F
:1001F00001F092FA202303930495002305930693BC
:100200002100300001F0AAF908B070BD00100240D2
:1002100070B58AB004000D0001AE24220021300028
:1002200001F0B3FDC8235B0001930495054801F07C
:1002300075FD0028FAD00348220001A901F088FCCE
:100240000AB070BD2800002030B585B001AD0C2289
:100250000021280001F099FD114B0193114C290058
:10026000200000F00DFC200000F0DAFD01256D42B9
:100270002900200000F0A4FB200000F0FDFB20007E
:1002800000F0CEFD2900200000F09AFB200000F0D5
:10029000F3FB85B2200000F03DFE280005B030BD24
:1002A000000400A88C00002010B5FFF7CDFF01006E
:1002B000034B1B8803485843FFF702FF10BDC0469D
:1002C0006A75FF1FB80B000030B585B001AD0C2278
:1002D0000021280001F059FD134B0193134C290014
:1002E000200000F0CDFB200000F09AFD01256D42BA
:1002F0002900200000F064FB200000F0BDFB20007E
:1003000000F008FE200000F08BFD2900200000F026
:1003100057FB200000F0B0FB85B2200000F0FAFD92
:10032000280005B030BDC046040000088C00002045
:1003300010B5FFF7C9FF0400FFF7B6FF604302499D
:10034000FFF7BEFE80B210BDFF0F000072B6FEE7E1
:1003500000B585B00C22002101A801F016FD1C4853
:100360001C4B036080221206426000238360C3603E
:1003700002610422426103764376033A8276C261C7
:10038000436283622B3283540363263A42633632DC
:100390008354C36400F0F4F9002813D101A90E4B73
:1003A000019301234B600A4800F06AFB00280BD13F
:1003B0000A4B0193064801A900F062FB002805D111
:1003C00005B000BDFFF7C2FFFFF7C0FFFFF7BEFF9C
:1003D0008C0000200024014004000008000400A854
:1003E00010B588B01C481D4B036000234360836038
:1003F000C3600122027443748374042141618261E9
:100400000931C1610B39016242628262C2620263D8
:1004100042638363C36301F04FFA00281AD102AC30
:1004200018220021200001F0B0FC01230493059361
:100430009033FF330693084B21001C00180001F095
:1004400027FB0223009302220221200001F04FFB30
:1004500008B010BDFFF77AFF2800002000640040BC
:1004600010B58CB005AC1C220021200001F08DFCE1
:1004700014220021684601F088FC134A1368072102
:100480008B43136002230593FE33089380235B01A3
:10049000099340230A93200000F05EFD00280ED14E
:1004A0006846072300930023019302930393049368
:1004B000002100F0E7FE002803D10CB010BDFFF7CB
:1004C00045FFFFF743FFC0460020024010B58EB045
:1004D00000F026F9FFF7C4FFFFF76CFEFFF738FFC7
:1004E000FFF77EFF1B4801F01DFBFFF721FF1948B6
:1004F000402101F005FC0028F7D002AC154823008C
:1005000004AA402101F04EFB23786A4613700021B3
:100510005170012B0AD0FF2B13D0002BE5D1684678
:10052000043353700231FFF773FEDEE7FFF700FF7D
:100530006B465870000A987003216846FFF768FE02
:10054000D3E702216846FFF763FE0A2000F006F9B0
:10055000FFF722FE28000020FEE7FEE77047704705
:1005600010B500F0E9F810BD82B00A4B196C0122F9
:1005700011431964196C0A400092009ADA6B8021C9
:1005800049050A43DA63DB6B0B400193019B02B020
:100590007047C0460010024010B590B0040014220D
:1005A00000210BA801F0F1FB2022002103A801F09B
:1005B000ECFB2268164B9A4201D010B010BD2023EC
:1005C000039303A800F026FF00281DD1114B1A6CDD
:1005D000802149030A431A641A6C0A400192019A65
:1005E000596B0122114359635B6B1A400292029BC3
:1005F0000BA904230B93013B4B6000238B60A020CD
:10060000C00500F0ABFFD8E7FFF7A0FEDEE7C0466D
:100610000024014000100240F0B591B00400142203
:1006200000210BA801F0B1FB2022002103A801F05A
:10063000ACFB2268214B9A4201D011B0F0BD03A857
:1006400010230393F033436100F0E4FE002831D11E
:100650001B4BDA6B802149010A43DA63DA6B0A40EB
:100660000092009A586B012210435863586B024065
:100670000192019A5A6B022632435A635B6B3340F4
:100680000293029B0BAC0B910C9600250D950E95D9
:1006900004270F97A0202100C00500F05FFF202352
:1006A0000B930C960D950E950F972100054800F0C1
:1006B00055FFC2E7FFF74AFECAE7C04600640040A4
:1006C000001002400004005010B50400114B1978CE
:1006D000002901D1012010BDFA208000FFF7F0FCB5
:1006E00001000D4B1868FFF7EBFC01F06BF80028D8
:1006F0000DD1032C01D90120EDE7013000222100AA
:10070000404201F05BF8054B1C600020E3E701204C
:10071000E1E7C0460000002008000020040000209F
:1007200010B50320FFF7D0FF041E02D001242000E3
:1007300010BDFFF719FFFAE7034B1B78034A116856
:100740005B1813607047C04600000020F0000020D6
:10075000014B18687047C046F000002070B50400D7
:10076000FFF7F6FF0500631C02D0044B1B78E4186A
:10077000FFF7EEFF401BA042FAD370BD000000203F
:1007800030B583B0040000230193002800D105E1B7
:10079000836D002B12D023689A68D2001BD499680D
:1007A0007F4A1140802252050A439A607D4B1868A7
:1007B0007D49FFF785FC4000019009E0FFF7ECFE62
:1007C0000023E3655422A354E5E7019B013B019319
:1007D000019B002BF9D123689A68D20000D59DE0D7
:1007E000A26D10210A43A265E26D0F390A43E2654A
:1007F00001209A6804210D001540114200D0012506
:10080000A26DD20600D5C2E0002D00D0BFE0A26DDF
:1008100066490A400631FF310A43A2659A68D20749
:1008200052D4A268217E89030A43617EC9030A4328
:10083000A57E69030A43216B002901D0802149016B
:100840000A43E1680A432169002969DB80218903A1
:100850000A432C21615C49000A432021615C012983
:1008600061D0616A002905D0E0256D002940A56AA4
:1008700029430A43D9684E4D29400A43DA60636828
:100880009B0F9B07E26C1A433C21615C012959D004
:1008900021680B69474D2B4013430B616368C022ED
:1008A0001206934210D08022D20593420CD08022AF
:1008B0001206934208D040490A68404D2A40F0256C
:1008C000AD032B4013430B602168636B4A69072516
:1008D000AA4313434B612168A26B4B696935AB4353
:1008E000120113434B612369002B35D12268916AB1
:1008F000103B0B43936223685A6907231340626BD2
:100900009A423BD0A36D12229343023A1343A3654C
:10091000E36D0F3A1343E36501203DE0002068E7F3
:100920004900490894E7002D03D1802149020A4378
:1009300097E7A16D20252943A165E16D1F3D29435E
:10094000E1658EE7216C0B43616C0B43A16C0B439B
:10095000134301221A439BE7802292039342CAD198
:1009600021688B6AE369013B9B001C221A4010231B
:100970005B429340226E13438B62BCE70023E36526
:10098000A36D03229343023A1343A36504E0A36DCE
:1009900010221343A365012003B030BD0120FBE703
:1009A000E8FFFF6F08000020400D0300FDFEFFFF81
:1009B0000102DEFF02FCFF1F08270140FFFFC3FF0B
:1009C000F8B504000D004669082E04D00368DB6802
:1009D000DB0719D40426FFF7BBFE070023681A685B
:1009E000164217D16B1CF9D0FFF7B2FEC01BA8420C
:1009F00001D8002DF2D1A36D04221343A365542323
:100A00000022E254032029E0836D202213438365F2
:100A1000012023E0A16D802292000A43A265D968DB
:100A2000C0221201114213D1A27E002A10D11A68ED
:100A300012070DD59A68520711D45A680C218A43BF
:100A40005A60A36D0B4A13400432FF321343A3656F
:100A5000207E00280CD123680C221A60F8BDA36DFB
:100A600020221343A365E36D1F3A1343E365EFE7C9
:100A70000020F3E7FEFEFFFF0368186C70470000DC
:100A8000F0B583B004000023019305695433C35CBF
:100A9000012B00D121E154230122C2540068836854
:100AA000033216001E401A4209D0A36D1C321343B4
:100AB000A365012054230022E25403B0F0BD4B682B
:100AC000022B00D1D5E080221206954225D0844A1F
:100AD000954222D0226E1F271F400F25BD40AA43FA
:100AE0000B685D022FD19B0E1F261E40BE40324375
:100AF00022664D68AB080133E269934213D80E6851
:100B0000826A1F231D40103B1F00AF40BA43B60E40
:100B10003340AB401343836205E00B68826A5B029B
:100B20005B0A1343836220680B688D6842691B026D
:100B30009A432B406B4D2B40134343610B68002BB2
:100B40005FDB0020B6E7DD07D0D49D072FD45D071B
:100B50002FD41D072FD4DD062FD49D062FD45D067C
:100B60002FD41D062FD4DD052FD49D052FD45D0570
:100B70002FD41D052FD4DD042FD49D042FD45D0464
:100B80002FD41D042FD4DD032FD49D032FD45D0358
:100B90002FD41D032FD4DD022FD49D022FD4802506
:100BA000ED031E002E402B42A0D016269EE7012604
:100BB0009CE702269AE7032698E7042696E705268F
:100BC00094E7062692E7072690E708268EE709268F
:100BD0008CE70A268AE70B2688E70C2686E70D268F
:100BE00084E70E2682E70F2680E710267EE711268F
:100BF0007CE712267AE7132678E7142676E715268F
:100C000074E7394A1168C02212040A403748834207
:100C100004D0374883421FD000204BE70802F8D4A5
:100C200080231B04134330490A68324802401343AF
:100C30000B60314B18683149FFF742FA43001B182B
:100C40009B000133019302E0019B013B0193019B57
:100C5000002BF9D100202DE749023CD48023DB038F
:100C6000134321490A682348024013430B600020C4
:100C700020E780231B069D4202D0194B9D4205D1DF
:100C80000B68826A5B025B0A9A4382620B68002BE4
:100C900001DB00200EE7144A126814498B4204D08D
:100CA00013498B420CD0002004E78023DB031A4059
:100CB0000D490B680F4803401A430A600020F9E60B
:100CC00080231B041A4008490B680A4803401A4352
:100CD0000A600020EEE60020ECE60220EDE6C046C9
:100CE0000400008000FFFF7F08270140000200A4ED
:100CF000000400A8FFFF3FFF08000020400D030094
:100D000070B50400026893685B0720D593689B0761
:100D100005D493680F490B4010210B439360FFF7F4
:100D200017FD050023689B685B070ED5FFF710FDD4
:100D3000401B0228F6D9A36D10221343A365E36D6F
:100D40000F3A1343E365012002E0002000E0002099
:100D500070BDC046E8FFFF7F30B583B004000023BC
:100D6000019303689A68D2074DD49968274A1142C3
:100D700017D19A6826490A4001210A439A60254BF7
:100D80001B681B0217D5244B18682449FFF798F9F4
:100D900001300190019B002B0DD0019B013B019381
:100DA000F8E7836D102213438365C36D0F3A134335
:100DB000C365012028E0637E012B01D1002023E0E0
:100DC000FFF7C6FC050004E0FFF7C2FC401B022849
:100DD0000DD823681A68D20713D49A68D207F3D4BF
:100DE0009A680B490A4001210A439A60ECE7A36D17
:100DF00010221343A365E36D0F3A1343E36501200B
:100E000002E0002000E0002003B030BD17000080A9
:100E1000E8FFFF7F0827014008000020400D030085
:100E200010B5040003689B685B0724D45423C35C9B
:100E3000012B22D054230122C254FFF78DFF00283A
:100E400015D1A26D0E4B1A4080235B001343A3659E
:100E50000023E36522681C2111605422A3542268F8
:100E6000936808490B4004210B43936004E054232A
:100E70000022E25400E0022010BD0220FCE7C04640
:100E8000FEF0FFFFE8FFFF7F70B5040003689A687B
:100E9000022108001040114200D001209A68D207B8
:100EA00031D5002831D1996805220A40012A09D09C
:100EB000A36D10221343A365E36D0F3A1343E3655B
:100EC000012021E09A6812490A4002210A439A60EF
:100ED000236803221A60FFF73BFC050023689B6828
:100EE000DB070ED5FFF734FC401B0228F6D9A36DB3
:100EF00010221343A365E36D0F3A1343E36501200A
:100F000002E0002000E0002070BD0020FCE7C046A9
:100F1000E8FFFF7F10B504005423C35C012B17D0FA
:100F200054230122C254FFF7EBFE002803D05423C0
:100F30000022E25410BD2000FFF7A6FF0028F6D1E2
:100F4000A36D044A13400432FF321343A365EEE756
:100F50000220EFE7FEFEFFFF70B5041E00D139E16D
:100F60000368DB072CD5A14B9A6838231340082B64
:100F700022D043688022520293422ED0A022D20275
:100F8000934231D0994B1A6899490A401A601A68FD
:100F900098490A401A606368002B31D0FFF7D8FBEC
:100FA0000500924B1B689B030AD4FFF7D1FB401B43
:100FB0006428F6D903200EE14368002B00D10BE131
:100FC00023689B0747D5894B9B6838221A4261D119
:100FD000E368002B22D10120FDE0844A11688023C0
:100FE0005B020B431360D6E7804B19688022D20264
:100FF0000A431A601968802252020A431A60CAE73B
:10100000FFF7A6FB0500794B1B689B03D8D5FFF7BC
:101010009FFB401B6428F6D90320DCE0734B5A6821
:1010200075490A40616909020A435A601A6873499E
:101030000A4021690A431A601B68DB0A07221A402A
:101040006F4BD3406F4A13606F4B1868FFF73CFB40
:10105000002800D0C2E023681B0757D5634B9A686D
:1010600038231340182B4ED0A369002B77D05F4A4A
:10107000136E01210B431366FFF76AFB05005B4B00
:101080001B6E9B0742D4FFF763FB401B0228F6D977
:101090000320A0E0E368002B22D0544A136857498C
:1010A0000B4021690B431360116880235B000B43E5
:1010B0001360FFF74DFB05004C4B1B685B0506D426
:1010C000FFF746FB401B0228F6D9032083E047497F
:1010D0004B68494A13406269120213434B60BAE7F6
:1010E000424A136849490B401360FFF731FB050082
:1010F0003E4B1B685B05AED5FFF72AFB401B022861
:10110000F6D9032067E0A369002B69D023685B0749
:1011100068D5364B9A6838231340202B32D0A36809
:10112000012B34D0052B38D0304BDA6D01218A43A6
:10113000DA65DA6D03318A43DA65A368002B38D0AB
:10114000FFF706FB0400294BDB6D9B072FD4FFF74D
:10115000FFFA001B2E4B9842F5D903203BE0234AAF
:10116000136E01218B431366FFF7F2FA05001F4B44
:101170001B6E9B07CAD5FFF7EBFA401B0228F6D976
:10118000032028E0A368002B2ED0002023E0174A7C
:10119000D36D01210B43D365CFE7144BDA6D0421E6
:1011A0000A43DA65DA6D03390A43DA65C5E70020D8
:1011B00011E0FFF7CDFA04000C4BDB6D9B0707D560
:1011C000FFF7C6FA001B124B9842F5D9032002E044
:1011D000002000E0012070BD0120FCE70120FAE7BB
:1011E0000120F8E70020F6E70120F4E700100240B4
:1011F000FFFFFEFFFFFFFBFFFF80FFFFFFC7FFFFBB
:10120000006CDC020800002004000020FFFEFFFF4D
:101210008813000010B5184A13689B08072119406D
:101220000131936838221A4209D1134B1A68D20A45
:10123000072313401148D840FEF742FF10BD0E4B64
:101240009A6838231340082B10D00B4B9A68382328
:101250001340202B0CD0084B9A6838231340182BCE
:1012600001D00020E8E7FA20C001E5E70448E3E701
:1012700080200002E0E7C04600100240006CDC0263
:1012800000127A0070B504000D00002800D1AAE019
:10129000574B1A68072313408B4228D323689A07B9
:1012A00010D55B0707D553498A68534B1A40B023C2
:1012B0001B0113438B604F4A936850490B40E16810
:1012C0000B4393602368DB0752D54A4A13681C21FD
:1012D0008B43A1680B4313606368012B1ED0002B66
:1012E00038D1444A126852051BD4012063E0404AB9
:1012F000136807218B432B431360FFF729FA06007D
:101300003B4B1A6807231340AB42C7D0FFF720FAC4
:10131000801B3B4A9042F3D903204CE012689203B1
:1013200063D534498A680720824313438B60FFF7F3
:101330000FFA06002F4B9B6838221A406368DB00C7
:101340009A4215D0FFF704FA801B2D4B9842F1D931
:10135000032030E0032B05D0264AD26D9207E0D45B
:10136000012028E0234A126E9207DAD4012022E0FD
:101370001F4B1A6807231340AB421DD823685B0735
:1013800006D51C4A93681F490B4021690B439360A3
:10139000FFF740FF174B9A68120A0F2313401A4AAF
:1013A0009B009A581F231340D840184B1860184BC5
:1013B0001868FFF789F970BD0D4A136807218B4340
:1013C0002B431360FFF7C4F90600094B1A68072383
:1013D0001340AB42D2D0FFF7BBF9801B084B9842B9
:1013E000F3D90320E7E70120E5E70120E3E7C04662
:1013F0000020024000100240FF84FFFFFFF0FFFFCB
:1014000088130000FF8FFFFF0C1E0008080000205B
:101410000400002070B582B0040003685B0650D55C
:10142000474BDB6BDB0035D4454BDA6B802149053C
:101430000A43DA63DB6B0B400193019B0125404BB0
:10144000D96DC02292000B001340114235D0E269E1
:101450009A420DD03A4AD36D3A490B40D06D802163
:1014600049020143D165D16D37480140D165D3654B
:10147000DB0711D4324AD36D32490B40E1690B438B
:10148000D3650020012D1DD12D4AD36B2F490B4070
:10149000D36317E00025D2E7FFF75AF90600284B7F
:1014A000DB6D9B0707D4FFF753F9801B284B98424D
:1014B000F5D9032002E0002000E000200028E1D15F
:1014C000D8E700202368DB0706D51D4A536D0321AA
:1014D0008B43A1680B43536523689B0706D5184AC5
:1014E000536D1C490B40E1680B43536523689B0611
:1014F00006D5134A536D9B009B08A1690B435365A6
:101500002368DB0606D50E4A536D0E490B40616910
:101510000B43536523685B0706D5094A536D0E4993
:101520000B4021690B43536523681B0606D5044A0B
:101530001368E0218B4361680B43136002B070BDF8
:1015400000100240FFFCFFFFFFFFFEFFFFFFFFEF69
:1015500088130000FFCFFFFFFF3FFFFFF0B5D64627
:101560004F464646C0B500233BE0052500E0002578
:10157000A5402C003C43634D183292005451802208
:10158000AF584A46D2433D004C46A5434C68E4035D
:1015900002D53D004C4625435A4C8027E551842511
:1015A00067593D0015404C68A40302D53D004C46E8
:1015B0002543544C8427E55127683D0015404C686D
:1015C000E40202D53D004C4625434E4C256065683B
:1015D0002A404C68A40201D54A462A43494C62601D
:1015E00001330C682200DA4000D186E001229A40E3
:1015F00026001640B1461442F2D04C68022C01D0AD
:10160000122C18D1DD080835AD002C58A446072748
:101610001F40BF000F24A2462600BE40B0466646CB
:101620004446A643B4460C69564626403400BC40A6
:10163000664634432C500468A4465D000324A24649
:101640002700AF40B846FF4366464446A643B4462B
:101650004C68564626403400AC406646344304602D
:101660004C68661E012E03D9112C01D0122C12D108
:1016700084683C40A446CC68AC40664634438460F1
:10168000446894434A6812099446012266463240EF
:101690009A40224342604A68032A05D0C4683C400D
:1016A0008A68AA402243C2604A68D20098D59A0844
:1016B00014001834A400134D675903241C40E4009F
:1016C0000F25A540AF43A025ED05A84200D14EE768
:1016D0000D4DA8420BD00D4DA8420AD00C4DA8428A
:1016E00009D00C4DA84200D13FE7062540E701256F
:1016F0003EE702253CE703253AE7E0BCBA46B1469F
:10170000A846F0BD00180240000400500008005038
:10171000000C005000140050002A01D08161704775
:101720008162FCE770B5002811DB8308134DC033DC
:101730009B005C5903221040C000FC32160086401A
:10174000B44389010A40824022435A5170BD0F239D
:101750000340083B9B0806339B00094A94466344B8
:101760005C6803221040C000FC3215008540AC4389
:1017700089010A40824022435A60E7E700E100E025
:1017800000ED00E0013880235B0498420FD2094A43
:1017900050600948036A1B021B0AC02109060B435B
:1017A0000362002393600733136000207047012019
:1017B000FCE7C04610E000E000ED00E010B5FFF7E8
:1017C000B1FF10BD10B5FFF7DDFF10BD30B5124BF6
:1017D0000364056880216A58104C2240446B24043D
:1017E00022436A500E4A426405686A580D4C2240F2
:1017F000846B240622436A500B4A82640B4AC264FB
:101800000B4A02650B4A426501E0002204C30A4A02
:101810009342FAD930BDC04600B40040FFFFE0FF5C
:1018200070B40040FFFFFFF0B0B4004088B5004046
:1018300060B6004078B600404FB70040F0B51F00DA
:101840004B68002B1AD10D698B681D430B689B04F4
:101850001D430C6A2406CB691C438B691C434B69EE
:101860001C43CB681B041C43466DFB00DB19DB00EB
:10187000F618356074600836002015E00B698C6836
:1018800023430C6823438025ED051D43E1E714182D
:10189000E3781B06A5782D042B43647824022343A8
:1018A000145C234308C60430CB68024CE35C8342DB
:1018B000EDD8F0BDFC1D000870B5041E00D1DCE0C1
:1018C0005C23C35C002B19D02268936910218B43E1
:1018D0009361FEF73DFF0500226893691B0713D54E
:1018E000FEF736FF401B0A28F6D9236E0122134368
:1018F00023665C230232E254012070BD5D33002276
:10190000C254FEF789FEDFE7936901210B4393611F
:10191000FEF71EFF050022689369DB070DD4FEF772
:1019200017FF401B0A28F6D9236E012213432366B2
:101930005C230232E2540120DFE7936902210B436A
:10194000936162684E4B1A60237C012B40D0226861
:10195000936940210B439361637C012B3ED0226845
:10196000936948490B409361A37C012B3DD02268C9
:10197000916980235B010B4393612268936942491B
:101980000B40A1680B43936122689369A4218B43A8
:1019900093612268136994398B431361E368012BC7
:1019A00029D0002B2CD0022B50D0226893698021A3
:1019B0000B4393612268136970390B431361E36829
:1019C000032B1DD12268936910310B43936117E0FB
:1019D000226893693E318B439361BDE72268916928
:1019E0008023DB010B439361BEE72268936927499B
:1019F0000B409361C1E7226893690C390B439361F3
:101A0000A369013B5B06E269013A12021343226AB1
:101A1000013A13436269013A120421681343CB610E
:101A2000A268C0239B009A4216D02168C0228B581E
:101A3000E06B03438B502000FFF7C8FE0023A36533
:101A400023665C330122E254002056E72268936942
:101A500020210B439361D3E7A36A013BE26A013A79
:101A600012021343226B013A12011343626A013AD4
:101A7000120421681343CB60D7E701203DE7C0463D
:101A800000650040FFBFFFFFFFFCFFFFFFEFFFFF10
:101A900010B55C23C35C013BDBB2012B05D9036E9F
:101AA000022213430366012010BD0B68002B0FD1E7
:101AB0008B689B07CA68D20613430A691204134352
:101AC0004A691343006C4A68920083500020EBE798
:101AD000CA6852070B691A438B689B074C692343FA
:101AE000406C4968C90041180A604B60EEE770B568
:101AF0005C24045D012C05D0036E042213430366AD
:101B0000012070BD05687F3428593F26B043090184
:101B1000920011435B001943049B1943014329516F
:101B20000020EEE75C23C35C012B05D0036E04228A
:101B300013430366012070475B330222C2540268DC
:101B4000936901218B439361002303660020F2E730
:101B500070B504005C23C35C022B1CD10068C23347
:101B6000C3589B0206D5226E80239B001343236635
:101B7000012015E0C423C3581B0C03251D402B0076
:101B80002000FFF75BFE21680123AB40CC228B5085
:101B9000A365002004E0036E0822134303660120BE
:101BA00070BD0000F0B55C24045D022C00D09FE005
:101BB00040290BD00468982565592D0731D1026E54
:101BC00080235B0013430366012096E004689025A0
:101BD00065592D0706D1026E80235B00134303660F
:101BE00001208AE09025665980256D0437002F403A
:101BF0002E4208D0802566598135FF3537002F40A9
:101C00002E4200D00127902565592D0A03242C402F
:101C1000BC46A444856C6446E4006444E4002D1989
:101C20001CE09825665980256D0437002F402E4210
:101C300007D080256659803537002F402E4200D0CE
:101C40000127982565592D0A03242C40BC46A4443D
:101C5000C56C6446E4006444E4002D192C688026B9
:101C6000F6053440546028D12C68A40C6405640D3A
:101C700014602C688026B605344094602C68E40F0C
:101C8000E40714616C682404240CD461EE880F24EA
:101C90003440D4606C6880267603344054616C68AC
:101CA0008026B60334409461EE797F243440146278
:101CB0006C68E40F5462002408E02C68E400E40837
:101CC0001460D6E72E19367A1E550134D6680B4FAC
:101CD000BE5DA642F6D8402905D002689C23614625
:101CE000D150002009E0026894236146D150F8E702
:101CF000036E0822134303660120F0BDFC1D00089B
:101D0000402905D002689823D3580F201840704707
:101D100002689023D3580F201840F8E70268C423C4
:101D2000D358072018407047024B802212059A6052
:101D30007047C04600ED00E00D488546FFF7F4FF10
:101D4000002103E00B4B5B58435004310A480B4B16
:101D500042189A42F6D30A4A02E000231360043282
:101D6000084B9A42F9D300F019F8FEF7AFFBFEE7F3
:101D700000780020541E0008000000200C00002005
:101D80000C000020F4000020FEE7030082189342BC
:101D900000D1704719700133F9E7000070B50026D3
:101DA0000C4C0D4D641BA410A64209D1002600F076
:101DB00019F80A4C0A4D641BA410A64205D170BD47
:101DC000B300EB5898470136EEE7B300EB5898475D
:101DD0000136F2E74C1E00084C1E0008501E000899
:101DE0004C1E0008F8B5C046F8BC08BC9E467047BB
:0C1DF000F8B5C046F8BC08BC9E46704721
:101DFC000001020304050607080C101418203040DB
:101E0C0000000000000000000000000000000000C6
:101E1C0000000000000000000000000000000000B6
:101E2C00010000000200000003000000040000009C
:101E3C000600000007000000080000000900000078
:041E4C007901000810
:041E50005101000834
:0C1E54000100000004000000001BB700AB
:0400000508001D3999
:00000001FF
